:020000040800F2
:10000000485400209D020008455E0008054A00088B
:10001000B95D0008B9080008D56B000800000000B1
:10002000000000000000000000000000DD010008EA
:10003000BB09000800000000390200083562000812
:10004000B7020008B7020008B7020008B7020008AC
:10005000B7020008B7020008D9150008B702000867
:10006000E3150008ED150008B7020008B702000804
:10007000B7020008B7020008B7020008B70200087C
:10008000B7020008B7020008B7020008B70200086C
:10009000B7020008B7020008B7020008B70200085C
:1000A000B702000811630008B7020008B702000891
:1000B0002163000831630008B7020008194A0008EC
:1000C000094A0008B7020008B7020008B702000892
:1000D00099600008B56B0008B7020008C56B0008FE
:1000E000B7020008B7020008B70200084163000821
:1000F000716300086163000851630008B7020008DB
:1001000000000000B7020008B7020008B7020008AC
:100110000000000000000000B7020008B70200085D
:10012000B7020008B7020008BD080008B7020008BF
:10013000B7020008B7020008B7020008B7020008BB
:10014000B7020008B7020008B7020008B7020008AB
:10015000B7020008B7020008CD080008B70200087F
:10016000B7020008B702000800000000000000000D
:10017000000000000000000000000000000000007F
:10018000B7020008B70200080000000000000000ED
:10019000B7020008B70200080000000000000000DD
:1001A000000000000000000000000000000000004F
:1001B000B70200080000000000000000B7020008BD
:1001C000B7020008DFF810D000F0CAFA0048004774
:1001D000037E0008AFF30080485400202C4B1968C0
:1001E0000868B0E8F04F80F30988BFF36F8F4FF0D5
:1001F000000080F311887047000000000848006884
:10020000006880F308884FF0000080F3148862B61D
:1002100061B6BFF34F8FBFF36F8F00DF00BF00BF2A
:1002200008ED00E0DFF80C00016841F470010160A6
:10023000704700BF88ED00E0EFF30980BFF36F8FD8
:10024000134B1A681EF0100F08BF20ED108A20E92A
:10025000F04F106009B44FF0500080F31188BFF3E5
:100260004F8FBFF36F8F09F019FA4FF0000080F342
:10027000118809BC19680868B0E8F04F1EF0100F2B
:1002800008BFB0EC108A80F30988BFF36F8F704706
:1002900088000020EFF30580704700000648804783
:1002A00006480047FEE7FEE7FEE7FEE7FEE7FEE75B
:1002B000FEE7FEE7FEE7FEE7FD620008C501000875
:1002C0002DE9F05F0546002092469B46884606468B
:1002D000814640241BE0284641464746224600F01E
:1002E00077F853465A46C01A914110D31146184622
:1002F000224600F05EF82D1A67EB01084F462246B1
:100300000120002100F055F817EB00094E41201E96
:10031000A4F10104DFDC484631462A464346BDE8E5
:10032000F09F40EA01039B0703D009E008C9121FB0
:1003300008C0042AFAD203E011F8013B00F8013B9F
:10034000521EF9D27047D2B201E000F8012B491ECB
:10035000FBD270470022F6E710B513460A46044662
:100360001946FFF7F0FF204610BD10B5002200E04F
:10037000521C835C8C5CA34201D1002BF8D1D8B213
:10038000E1B2401A10BD30B50B46014600202022D4
:10039000012409E021FA02F59D4205D303FA02F592
:1003A000491B04FA02F52844151EA2F10102F1DCF2
:1003B00030BD202A04DB203A00FA02F10020704709
:1003C0009140C2F1200320FA03F319439040704793
:1003D000202A04DB203A21FA02F00021704721FA9A
:1003E00002F3D040C2F12002914008431946704701
:1003F0002DE9FE4F804681EA0300C00F0C460090B5
:1004000021F0004123F00045B8EB0200A94105D2DC
:100410004046214690461C460B46024623F00040CB
:10042000104347D0270DC7F30A00C3F30A510290C7
:10043000401A019040286BDAC3F3130040F4801B8C
:100440000098924620B10023D2EB030A63EB0B0B1A
:1004500001985946C0F140025046FFF7AAFF0646F0
:100460000D4650465946019A00F08CF910EB0800F1
:100470006141002487EA115284EAE7731A4340D0AD
:10048000009A62B3019A012A4FEA075215DC001B59
:1004900061EB02014FF0004202EA0752CDE900424F
:1004A000001C41F5801132462B4600F08CF903B058
:1004B000BDE8F08F40462146F9E7001B61EB0201E1
:1004C000001C41F5801300185B412018A2F50017AD
:1004D00047EB030140EAD570B6196D4111E06D0894
:1004E0004FEA360645EAC0754FEA0752001B61EB3A
:1004F0000201001C41F5801149084FEA3000001943
:10050000514132462B4603B0BDE8F04F00F04CB9E4
:100510000098012240000023D0EB020263EBE0735D
:10052000009821464FEAE074B8EB000061EB04014B
:10053000E9E783F000435BE781F0004158E72DE9EC
:10054000FE4F81EA030404F0004421F000410094CE
:100550004FF0000B23F0004350EA01045ED052EA52
:1005600003045BD0C3F30A54C1F30A552C44A4F22C
:10057000F3340194A0FB0254C1F3130141F4801140
:10058000C3F3130343F4801301FB024400FB034E47
:10059000840A970A44EA815447EA8357A4FB076810
:1005A00002958D0A05FB07854FEA932C04FB0C543A
:1005B0002705029D4FEA065847EA1637B5EB0805AE
:1005C0006EEB070C870E920E47EA811742EA831200
:1005D000A7FB0201B6EB0B0164EB00042B0D43EA11
:1005E0000C335E1844EB1C50DA465146E7FB02011F
:1005F000C5F313044FEA0B3343EA14534FEA0432B2
:10060000019C43EA0603A4F10C040294009CCDE98A
:1006100000B400F0D8F803B0BDE8F08F0020014628
:10062000F9E72DE9F04D81EA030404F0004B21F0D5
:10063000004514464FF0000A23F0004150EA05023D
:1006400020D054EA01021DD0C5F30A570246C5F373
:100650001303C1F31300C1F30A5640F4801543F4A9
:100660008013A7EB0608101BD64608F2FD3873EB83
:10067000050002D308F1010801E092185B41B8F1CE
:10068000000F03DA00200146BDE8F08D00204FF492
:100690008011064684460EE0171B73EB050705D351
:1006A000121B63EB050306434CEA010C49084FEAB1
:1006B000300092185B4150EA0107EDD152EA030085
:1006C00012D082EA040083EA0501084305D0101B1A
:1006D000AB4106D20122002306E000224FF0004386
:1006E00002E06FF0010253101AEB06004CEB0851C8
:1006F00010EB0A0041EB0B01BDE8F04D00F054B8DF
:10070000C1F30A52C1F3130140F2FF3341F48011E7
:100710009A4202DA00200146704740F233439A427F
:10072000A2F2334202DC5242FFF752BEFFF741BE53
:1007300030B5041E71F1000404DB4FF00044404268
:1007400064EB0101141E73F1000405DB1C464FF03D
:100750000043524263EB0403994208BF904230BD0C
:10076000064C074D06E0E06840F0010394E80700FE
:1007700098471034AC42F6D3FFF728FD50AE00087E
:1007800070AE0008202A06DBCB17203A41FA02F0AF
:1007900043EAE07306E041FA02F3D040C2F12002DE
:1007A000914008431946704710B5141E73F10004B8
:1007B00008DA401C41F1000192185B411A4301D153
:1007C00020F0010010BD2DE9F04D92469B4611B17D
:1007D000B1FA81F202E0B0FA80F220329046FFF7DF
:1007E000E8FD04460F4640EA0A0041EA0B01534681
:1007F0005A46084313D0114653EA010019D0C8F1F4
:1008000040025046FFF7E4FD05460E465046594665
:100810004246FFF7CEFD084305D0012004E0204604
:100820003946BDE8F08D0020054346EAE0762C43CA
:1008300037430A986305E40AA0EB08000022FD0A8A
:1008400044EA47540A3002D500200146E9E7010591
:1008500010196941DDE9084500196941BDE8F04D0D
:10086000A2E770B58C1810F8015B15F0070301D1F1
:1008700010F8013B2A1106D110F8012B03E010F803
:10088000016B01F8016B5B1EF9D12B0705D4002326
:10089000521E0DD401F8013BFAE710F8013BCB1AC8
:1008A000921C03E013F8015B01F8015B521EF9D5BD
:1008B000A142D8D3002070BD00BFFEE710B50248AA
:1008C00001F010FA10BD00003C04002010B50248F1
:1008D00001F008FA10BD00009C04002001460878D1
:1008E00010381823B0FBF3F20848805CC865032A6F
:1008F00005D908686FF30900001D886503E00868E2
:100900006FF309008865886D704700007CAD0008B2
:10091000014600208A6A8B69CBB932B1012A0DD019
:10092000022A03D0032A10D10EE000BFCB6A03F0E5
:100930008073B3F1807F00D1012007E0CB6AB3F16F
:10094000C07F00D1012001E000E000BF34E08B69EE
:10095000B3F5005F1AD132B1012A07D0022A03D0C1
:10096000032A11D10AE000BF01200EE0CB6A03F098
:100970008073B3F1807F00D1012006E0CB6AB3F130
:10098000C07F00D1012000E000BF15E032B1012A94
:1009900005D0022A04D0032A0CD103E000BF00BF17
:1009A000012008E0CB6A03F08073B3F1807F00D1AF
:1009B000012000E000BF00BF704770478AB00027E9
:1009C00000250026002400BF012007F03AFA0A2380
:1009D000002201A9FE48006807F088FAC7B2002F7C
:1009E000F2D19DF804008DF818009DF805008DF8EF
:1009F000190000208DF81A008DF81B009DF80A00E0
:100A00008DF81E009DF80B008DF81F009DF80B005F
:100A100005287CD006DC012809D0022878D00328DC
:100A200077D1C1E0062875D01028F9D1EAE39DF806
:100A30000C0020286FD19DF80D00052836D006DC6B
:100A4000052869D2DFE800F0530E2F303100062868
:100A500073D0092872D00A2802D064285CD100E043
:100A600080E07FE000208DF81C0005208DF81D003F
:100A700001208DF82000D7480078012802D18DF898
:100A8000210005E0D348007810B900208DF821003E
:100A90000A2206A9012008F00FFA0020069007900C
:100AA000089009905EE05DE05CE05BE000208DF87E
:100AB0001C0005208DF81D0001208DF82000C6487F
:100AC0000078012802D18DF8210005E0C2480078A5
:100AD00010B900208DF821000A2206A9012008F093
:100AE000EBF9002006900790089009903AE000206A
:100AF0008DF81C0005208DF81D0001208DF82000C8
:100B0000B6480078012808D18DF8210008E048E2B5
:100B10002AE0FCE3CFE326E023E000208DF821006B
:100B20000A2206A9012008F0C7F9002006900790C4
:100B30000890099016E000E000E013E000208DF836
:100B40001C0006208DF81D0001208DF820000A22CF
:100B500006A908F0B1F900200690079008900990C6
:100B600000E000BF00BF1BE200208DF81C00042045
:100B70008DF81D0001208DF820009DF80C0018B99B
:100B80009DF80D0001280ED09DF80C0018B99DF8B5
:100B90000D00032807D09DF80C0018B99DF80D0032
:100BA000042800D000BFDEE79DF80F009DF80E106E
:100BB00040EA01204FF6FF7101EA400400208DF861
:100BC0001C00E01CC0B28DF81D009DF80C0001282F
:100BD0007BD1022C7BD19DF80D004A2812D1E0B2C6
:100BE0008DF8200000208DF821008DF822000B22C6
:100BF00006A9012008F060F90020069007900890EF
:100C00000990CDE19DF80D004E2812D1E0B28DF88B
:100C1000200000208DF821008DF822000B2206A96B
:100C2000012008F049F900200690079008900990EB
:100C3000B6E19DF80D00B0B9E0B28DF8200068482B
:100C40000088000A8DF82100654800788DF82200A0
:100C50000B2206A9012008F02FF90020069007902A
:100C6000089009909CE19DF80D00302816D1E0B263
:100C70008DF820005B480088000A8DF82100594853
:100C800000788DF822000B2206A9012008F014F943
:100C90000020069007900890099081E19DF80D00D2
:100CA0003228AED1E0B28DF8200000208DF821006E
:100CB0008DF822000B2206A9012008F0FDF8002083
:100CC00006900790089009906AE14CE0FFE7042C39
:100CD00097D19DF80D002C2820D1E0B28DF820008E
:100CE00041480068000E8DF821003F480068000C64
:100CF0008DF822003C480088000A8DF823003A480D
:100D000000788DF824000D2206A9012008F0D4F8FF
:100D10000020069007900890099041E19DF80D0091
:100D20002E2885D1E0B28DF8200030480068000EF2
:100D30008DF821002D480068000C8DF822002B480A
:100D40000088000A8DF82300284800788DF82400D8
:100D50000D2206A9012008F0AFF8002006900790A8
:100D6000089009901CE19DF80C00002895D1022CF8
:100D70003ED19DF80D00202812D1E0B28DF8200060
:100D800000208DF821008DF822000B2206A90120F9
:100D900008F092F800200690079008900990FFE074
:100DA0009DF80D0096288FD1E0B28DF8200000202C
:100DB0008DF821008DF822000B2206A9012008F0F1
:100DC0007BF800200690079008900990E8E000006A
:100DD000680000202600002027000020440000209A
:100DE0001C00002036000020400000203C000020B5
:100DF000042C92D19DF80D00642820D1E0B28DF82A
:100E00002000FA480068000E8DF82100F7480068BD
:100E1000000C8DF82200F5480088000A8DF82300A8
:100E2000F24800788DF824000D2206A9012008F070
:100E300043F800200690079008900990B0E09DF8D4
:100E40000D00682819D1E0B28DF82000300E8DF821
:100E50002100300C8DF82200300A8DF82300F0B20A
:100E60008DF824000D2206A9012008F025F80020A5
:100E7000069007900890099092E09DF80D00782860
:100E800019D1E0B28DF82000280E8DF82100280C31
:100E90008DF82200280A8DF82300E8B28DF824008E
:100EA0000D2206A9012008F007F8002006900790FF
:100EB0000890099074E09DF80D007A2816D1E0B2F0
:100EC0008DF8200000208DF821008DF822008DF88B
:100ED00023008DF824000D2206A9012007F0ECFF65
:100EE0000020069007900890099059E09DF80D00A9
:100EF0007C2820D1E0B28DF82000BD480068000EAB
:100F00008DF82100BA480068000C8DF82200B8481E
:100F10000088000A8DF82300B54800788DF8240079
:100F20000D2206A9012007F0C7FF002006900790B8
:100F30000890099034E09DF80D007E2816D1E0B2AB
:100F40008DF8200000208DF821008DF822008DF80A
:100F500023008DF824000D2206A9012007F0ACFF24
:100F60000020069007900890099019E09DF80D0068
:100F7000802815D1E0B28DF8200000208DF82100E6
:100F80008DF822008DF823008DF824000D2206A98B
:100F9000012007F091FF002006900790089009902B
:100FA000FEE200208DF81C0006208DF81D009DF843
:100FB0000C008DF820009DF80D008DF821009DF8A3
:100FC0000C00202877D19DF80D00152874D2DFE899
:100FD00000F0F10B4174A5D6F0EF73EE73737373E9
:100FE00073ED73737373EC009DF80E00FF2813D13B
:100FF0008048007848B97D48008882B201210020ED
:1010000004F0DCFE01207C490870FF208DF82200EE
:1010100000208DF8230012E09DF80E0078B9002121
:10102000764803F0F5F801228021754801F054F963
:101030000020714908708DF822008DF823000C22E1
:1010400006A9012007F038FF0020069007900890BD
:1010500009902EE19DF80E00FF2811D1AAB20021BF
:10106000084604F0ABFE0120634908700020614986
:101070000870FF208DF8220000208DF823000FE07B
:1010800000215E4803F0C4F8012280215C4801F091
:1010900023F90020584908708DF822008DF82300AC
:1010A0000C2206A9012007F007FF002006900790F8
:1010B00008900990FDE0FDE0FAE09DF80E00FF28A1
:1010C00011D1AAB20121002004F078FE0020494984
:1010D0000870012048490870FF208DF82200002088
:1010E0008DF823000FE00021444803F091F801221D
:1010F0008021434801F0F0F800203F4908708DF846
:1011000022008DF823000C2206A9012007F0D4FE4E
:1011100000200690079008900990CAE09DF80E0004
:10112000FF2811D1AAB20021084604F047FE002092
:1011300030490870012030490870FF208DF82200E6
:1011400000208DF823000FE000212C4803F060F808
:10115000012280212A4801F0BFF8002026490870AA
:101160008DF822008DF823000C2206A9012007F03B
:10117000A3FE0020069007900890099099E09DF842
:101180000E00FF2817D1AAB20021084604F016FE6F
:10119000002018490870012017490870FF208DF8B9
:1011A000220000208DF8230015E02CE07FE073E0A2
:1011B00071E06FE04EE00021104803F029F80122B1
:1011C00080210F4801F088F800200B4908708DF845
:1011D00022008DF823000C2206A9012007F06CFEE6
:1011E0000020069007900890099062E020000020FF
:1011F00030000020260000202700002024030020CB
:1012000000000240C5E09DF80E00FF2812D1002129
:10121000E74802F0FDFF01228021E64801F05CF87A
:101220000020E5490870FF208DF8220000208DF88D
:10123000230004E000208DF822008DF823000C220A
:1012400006A9012007F038FE0020069007900890BC
:1012500009902EE09DF80E00FF2809D10120D74902
:101260000870FF208DF8220000208DF8230006E092
:101270000020D24908708DF822008DF823000C223E
:1012800006A9012007F018FE00200690079008909C
:1012900009900EE00DE00CE00C2206A9012007F0F9
:1012A0000BFE0020069007900890099001E000E0F6
:1012B00000BF00BF74E1C048007838BB00208DF843
:1012C0001C0006208DF81D009DF80C008DF82000F4
:1012D0009DF80D008DF821009DF80E008DF822007C
:1012E0009DF80F008DF823009DF80C0001284FD1C8
:1012F0009DF80D004A280BD10C2206A9012007F009
:10130000DBFD0020069007900890099040E046E140
:101310009DF80D004E280AD10C2206A9012007F0E5
:10132000CBFD0020069007900890099030E09DF8D2
:101330000D00B8B99DF80E0010B99DF80F0018B156
:1013400001209F49087002E000209D4908700C228E
:1013500006A9012007F0B0FD002006900790089034
:10136000099015E09DF80D00302811D19DF80F006F
:101370009DF80E1040EA0120924908800C2206A92F
:10138000012007F099FD0020069007900890099031
:1013900006E189480078002835D18DF81C00062028
:1013A0008DF81D009DF80C008DF820009DF80D00B3
:1013B0008DF821009DF80E008DF822009DF80F0099
:1013C0008DF823009DF80C00E0BB9DF80D0064280B
:1013D0001AD19DF8110000069DF8121040EA014054
:1013E0009DF8131040EA01209DF814100843764937
:1013F00008600C2206A9012007F05EFD002006907F
:10140000079008900990C9E09DF80D0068281AD14E
:101410009DF8110000069DF8121040EA01409DF869
:10142000131040EA01209DF8141040EA01060C2236
:1014300006A9012007F040FD0020069007900890C3
:101440000990ABE069E09DF80D00782819D19DF86E
:10145000110000069DF8121040EA01409DF813109B
:1014600040EA01209DF8141040EA01050C2206A96B
:10147000012007F021FD00200690079008900990B8
:101480008CE09DF80D007A280AD10C2206A90120D3
:1014900007F012FD002006900790089009907DE06B
:1014A0009DF80D007C281AD19DF8110000069DF8CA
:1014B000121040EA01409DF8131040EA01209DF807
:1014C00014100843414908600C2206A9012007F0C6
:1014D000F3FC002006900790089009905EE09DF8CC
:1014E0000D007E280AD10C2206A9012007F0E4FC99
:1014F000002006900790089009904FE09DF80D009D
:1015000080284BD10C2206A9012007F0D5FC002031
:10151000069007900890099040E09DF80C00012883
:101520003CD19DF80D002C281AD19DF81100000621
:101530009DF8121040EA01409DF8131040EA012086
:101540009DF814100843224908600C2206A90120C6
:1015500007F0B2FC002006900790089009901DE06B
:101560009DF80D002E2819D19DF8110000069DF858
:10157000121040EA01409DF8131040EA01209DF846
:1015800014100843134908600C2206A9012007F033
:1015900093FC0020069007900890099000E000BF9F
:1015A00000BF142101A8FEF7D5FEFFF70DBA000019
:1015B00024030020000002402700002044000020F7
:1015C00029000020360000202000002030000020EC
:1015D000400000203C00002010B5012000F086FDF6
:1015E00010BD10B5042000F081FD10BD10B508201D
:1015F00000F07CFD10BD00003C216E4802F000FBB5
:101600006C480068C06840F001006A490968C86019
:10161000694802F04DF942F2107066490968486263
:10162000002066490860486008819FED650A084609
:1016300080ED030A002008749FED610A084680EDE2
:10164000050A9FED5F0A5F4880ED000A00205E49B1
:10165000086000BF012006F0F4FB5C480078012818
:10166000F8D1002059490870524800680068C0F35A
:101670000010524908744F480068406A4D49096893
:10168000C96AA0EB510004B24C490A89494909686A
:10169000C96A12FB01F000EBD07104EB6101474A0B
:1016A00051601046406811460968401A00EE100A61
:1016B000B8EEC00ADFED460A80EE201A104680ED33
:1016C000031A406811460860084690ED030AF1EEDF
:1016D000040A20EE200A80ED050A90ED050ADFEDF0
:1016E0003D0A20EE200A3C4880ED000A3B48007885
:1016F000012819D10846D0ED050A394890ED000AB5
:10170000B8EE400A9FED371A00EE810ABCEEC00A1F
:1017100080ED000A006834490968884204D300203B
:101720002E4908702E4908603048007801281AD1E7
:10173000002022490860486008819FED210A084680
:1017400080ED030A002008749FED1D0A084680ED15
:10175000050A9FED1B0A1B4880ED000A00201A496C
:101760000860002425E0154890ED050A1548D0EDE5
:10177000000A30EE200A80ED000A90ED000ADFED4D
:10178000190A20EE200ABCEEC00A0F4880ED000ABC
:1017900000681749096888420BD30021154802F0F8
:1017A00037FD01228021144800F096FD00201349E6
:1017B00008704FE794020020DC020020D0010020D6
:1017C00000000000180000201C0000202A0000205B
:1017D00000401C470000C842700000204500002067
:1017E0007400002000007A443C0000202600002005
:1017F00030000020240300200000024027000020C9
:1018000072B600BFFEE700000EB553A005F0AEFBB8
:1018100005F0E6F95B49002006F07CF801208DF820
:1018200008008DF80B0000208DF80A0001208DF8CB
:10183000090002A90A2006F02BF904F005FB04F0C8
:101840004BFB51A005F092FB00BF012006F0F9FA16
:1018500054A005F08BFB00234FF4FB7201210846D6
:1018600007F0EAFB012804D056A005F07FFB00BF7B
:10187000FEE75AA005F07AFB0020019001AA0021A2
:10188000012006F06FF83F48407A00903D48037A07
:10189000C27981795AA005F069FB4FF4FB715FA012
:1018A00005F064FB65A005F061FB012006F05AFA23
:1018B000012806D04FF4FB7169A005F057FB00BF6B
:1018C000FEE7002400BF4FF44A7005F051FA0446C9
:1018D000172C01D0002CF6D124B968A005F046FBE6
:1018E00000BFFEE7172C35D172A005F03FFB77A0B3
:1018F00005F03CFB2CE080227C49012007F0F0F948
:101900000546E81D30B97AA005F030FB7FA005F050
:101910002DFB1EE084A17548FEF727FD60B984A069
:1019200005F024FB8BA005F021FB78A005F01EFB41
:10193000012006F03DF90CE0002301226B498B48A1
:10194000006806F061FB80216848FEF703FD00BFD8
:10195000D1E700BF79E70000412073696D706C65C5
:101960002050696E67204170706C69636174696FA3
:101970006E207573696E67205735353030210D0A3A
:10198000000000000000002053696D706C6520505D
:10199000696E67204170706C69636174696F6E0D68
:1019A0000A0000000D0A496E697469616C697A6900
:1019B0006E672073657276657220736F636B6574F2
:1019C0000D0A000043616E6E6F742063726561746E
:1019D0006520536F636B6574210D0A00536F636B51
:1019E0006574204372656174656420537563636533
:1019F000737366756C6C792021200D0A000000005D
:101A000049502041646472657373206973202564B2
:101A10002E25642E25642E25640D0A0053746172F0
:101A200074206C697374656E696E67206F6E2070C8
:101A30006F72742025642021200D0A00576169749B
:101A4000696E6720666F72206120636C69656E74D1
:101A500020636F6E6E656374696F6E2E200D0A00D1
:101A600043616E6E6F74206C697374656E206F6E67
:101A700020706F727420256400000000536F6D6544
:101A8000206572726F72206F636375727265642075
:101A90006F6E2073657276657220736F636B657409
:101AA0002E20506C65617365207265737461727469
:101AB0002E0D0A004120636C69656E7420636F6EA1
:101AC0006E6563746564210D0A00000057616974D6
:101AD000696E6720666F7220436C69656E7420447E
:101AE000617461202E2E2E210D0A0000500100206D
:101AF000436C69656E742068617320646973636FF9
:101B00006E6E65637465640D0A0000002A2A2A203F
:101B100053455353494F4E204F564552202A2A2AA7
:101B20000D0A0D0A00000000515549540000000044
:101B30005265636569766564205155495420636F29
:101B40006D6D616E642066726F6D20636C69656E89
:101B5000740D0A00446973636F6E6E656374696E19
:101B600067202E2E2E200D0A0000000068000020A5
:101B7000FF2400BF1E48007801282DD11D480078A1
:101B8000012829D1002280211B4800F0A5FB01205B
:101B900006F057F98021194800F094FB012006F067
:101BA00050F911E0601EC4B2154801F081FE00BF7B
:101BB00013480068C4621248C46000BF002102F0EC
:101BC00077FA052006F03DF90E4800688442E9D80E
:101BD000FF24002006490870012006F032F9642035
:101BE00006F02FF90221054800F06CFBC2E7000067
:101BF00028000020270000200000024000080240CA
:101C0000240300202000002070B50446A56D00F0DC
:101C100069FB064694F83500022808D080206065EC
:101C200000BF002084F8340000BF012070BD206890
:101C3000006820F01600216808602068406920F0E4
:101C4000800021684861206C08B9A06C28B1206828
:101C5000006820F00800216808602068006820F013
:101C600001002168086010E000F03CFB801B0528A3
:101C70000BD920206065032084F8350000BF0020C8
:101C800084F8340000BF0320D0E72068006800F02B
:101C900001000028E8D194F85C103F208840A8603B
:101CA000012084F8350000BF002084F8340000BF14
:101CB00000BFBBE7014691F83500022803D0802021
:101CC000486501207047052081F8350008680068E4
:101CD00020F001000A6810600020F3E7014691F847
:101CE00035007047F8B50446002000908C48006825
:101CF0004FF41651B0FBF1F7A56D2E6894F85C1007
:101D000008208840304098B12068006800F0040046
:101D100070B12068006820F004002168086094F821
:101D20005C1008208840A860606D40F0010060658C
:101D300094F85C1001208840304068B12068406908
:101D400000F0800040B194F85C1001208840A86049
:101D5000606D40F00200606594F85C1004208840DB
:101D6000304068B12068006800F0020040B194F88B
:101D70005C1004208840A860606D40F0040060653D
:101D800094F85C1010208840304078B320680068D8
:101D900000F0080050B394F85C1010208840A86050
:101DA0002068006800F4802080B12068006800F49A
:101DB000002028B9206CC8B12046216C884715E066
:101DC000A06C98B12046A16C88470FE0206800689D
:101DD00000F4807028B92068006820F008002168AD
:101DE0000860206C10B12046216C884794F85C1084
:101DF000202088403040002865D02068006800F02E
:101E0000100000285FD094F85C1020208840A86063
:101E100094F83500052828D12068006820F01600C5
:101E2000216808602068406920F0800021684861CE
:101E3000206C08B9A06C28B12068006820F0080068
:101E40002168086094F85C103F208840A860012059
:101E500084F8350000BF002084F8340000BF206DF6
:101E600010B12046216D8847F8BD2068006800F455
:101E7000802080B12068006800F4002028B9606CE0
:101E800010B12046616C88471DE0E06BD8B1204658
:101E9000E16B884717E02068006800F4807068B93B
:101EA0002068006820F0100021680860012084F894
:101EB000350000BF002084F8340000BFE06B10B193
:101EC0002046E16B8847606D38B3606D00F001001B
:101ED000F0B1052084F835002068006820F001008A
:101EE0002168086000BF0098401C0090B84200D9EB
:101EF00005E02068006800F001000028F3D100BF71
:101F0000012084F8350000BF002084F8340000BFB1
:101F1000E06C10B12046E16C884700BFA4E70000E8
:101F2000840000202DE9F0410446002500F0DAF994
:101F3000074614B90120BDE8F081606A00B100BF16
:101F4000022084F8350000BF002084F8340000BF70
:101F50002068006820F00100216808600AE000F0B5
:101F6000C1F9C01B052805D920206065032084F82D
:101F70003500E0E72068006800F001000028EED19D
:101F80002068056821480540D4E901010843E1685B
:101F900008432169084361690843A1690843E1696D
:101FA0000843216A08430543606A042803D1D4E941
:101FB0000B0108430543206805602068456925F04A
:101FC0000705606A0543606A04280DD1A06A0543CD
:101FD000E06A48B12046FEF79BFC28B140206065CE
:101FE000012084F83500A6E7206845612046FEF709
:101FF00075FC064694F85C103F208840B0600020D5
:102000006065012084F83500002094E73F8010F0DF
:1020100070B5044600F066F906462546681C10B106
:1020200004480078054400BF00F05CF9801BA8421A
:10203000FAD370BD8000002010B50446082C11D1E1
:10204000224908602248007800283ED121480078C3
:1020500001283AD10021204802F0DAF801201C4979
:10206000087032E0042C1DD11C48007870B90120A2
:102070001A4908700021184802F0CAF8012280218C
:10208000174800F029F9002012490870012015496D
:10209000087042F2107014490968486204200B4924
:1020A000086012E0012C10D101200849086008489E
:1020B000007850B907480078012806D10021064869
:1020C00002F0A6F801200249087010BD143C01403E
:1020D00028000020270000202403002026000020E4
:1020E000000002402A0000209402002010B504469F
:1020F00004480068204020B1024804602046FFF7F1
:102100009BFF10BD143C0140F8B503460A4600256C
:10211000002400200021C2E0012606FA01F516681D
:1021200006EA0504AC4274D1167906F00306012EC6
:1021300004D0167906F00306022E13D198684F00DA
:102140000326BE40B0434F00D668BE40304398607F
:10215000586801268E40B0431679C6F300168E40AB
:1021600030435860167906F00306032E09D0D8686C
:102170004F000326BE40B0434F009668BE40304338
:10218000D860167906F00306022E13D1CF0803F1AA
:10219000200656F827004E07F70E0F26BE40B04324
:1021A0004F07FF0E1669BE403043CF0803F12006EB
:1021B00046F8270018684F000326BE40B043167942
:1021C00006F003064F00BE4030431860566806F420
:1021D0004036002E62D000BF00260096324E366890
:1021E00046F48046304F3E603E46366806F48046F0
:1021F000009600BF00BF2D4E8F0856F827008E07AF
:10220000370F0F26BE40B043294EB34202D10026FD
:1022100010E043E0274EB34201D101260AE0264EEA
:10222000B34201D1022605E0244EB34201D1032678
:1022300000E007268F073F0FBE4030431B4E8F083C
:1022400046F827001E4E3068A043566806F48016F4
:1022500006B120431A4E3060361D3068A0435668E0
:1022600006F4001606B12043154E361D3060144E9C
:10227000361F3068A043566806F4003606B1204386
:102280000F4E361F3060361F3068A043566806F484
:10229000803606B120430A4E083E3060491C1029A2
:1022A000FFF43AAFF8BD000044380240083801405E
:1022B000000002400004024000080240000C0240FE
:1022C000083C014010B5426921EA020302EA010418
:1022D00043EA0443836110BD0AB1816101E00B044C
:1022E0008361704701480068704700007800002053
:1022F000704770472DE9F84F044620684769206809
:10230000D0F80480002594F83E90C7F3002040B137
:10231000C8F3002028B145F001056FF480702168F2
:102320004861C7F3402040B1C8F3002028B145F010
:1023300002056FF4007021684861C7F3802070B314
:10234000C8F3002058B3CA46B4F82AB094F83D60E8
:10235000206B0090BAF1200F0FD1BBF1000F0CD110
:10236000212E06D0292E04D0282E06D1009821280F
:1023700003D1204603F00EF911E06FF4806021686C
:10238000486145F00405B9F1100F02D0B9F1400FD2
:1023900005D12068006840F4007021680860C7F328
:1023A000C02040B1C8F3002028B145F008056FF403
:1023B0000060216848612DB1206C284320642046CC
:1023C00002F0BCFBBDE8F88F2DE9F04705464FF061
:1023D000000928684668D5F82CA095F83E7095F855
:1023E0003D80102F01D0402F75D12868D0F818906B
:1023F0002868446904F0010060B9BAF52A0F02D0D8
:10240000BAF12A4F01D1012000E00020012801D1BA
:10241000BDE8F08704F0010048B1C6F3402030B1B8
:10242000284602F001FB284602F06EFFB7E0C4F335
:10243000C00030B1C6F3402018B1284602F01BFEA0
:10244000ADE0C4F3400030B1C6F3402018B12846D7
:1024500002F026FEA3E0C9F3800040B3286840687C
:1024600000F40060B0F5006FE0D0C4F3C01048B1D4
:10247000C6F3802030B1C4F3800018B9284602F0BA
:102480008EFD8CE0C4F380000028CFD0C6F340203E
:102490000028CBD0B8F1210F03D1284602F02FFD40
:1024A0007DE0402F7BD1284602F07DFF77E0286851
:1024B000406800F40060B0F5006F70D0C4F3801085
:1024C00050B1C6F3802038B1C4F3800020B928464B
:1024D00002F09DFC63E00BE0C4F3800000285ED0B6
:1024E000C6F3402000285AD0284602F0FDFB56E0F3
:1024F000286C10B12868446904E02868D0F8189066
:1025000028684469C4F3400060B1C6F3402048B174
:10251000286C10B12868D0F818904946284603F076
:1025200001F83CE0C4F3001030B1C6F3402018B10C
:10253000284603F07FF832E0B8F1210F02D0B8F15D
:10254000290F16D1C4F3C01048B1C6F3802030B1B2
:10255000C4F3800018B9284602F0C1FF1FE0C4F39D
:102560008000E0B1C6F34020C8B1284602F0AAFFBF
:1025700015E0C4F3801048B1C6F3802030B1C4F335
:10258000800018B9284602F07AFF08E0C4F3800002
:1025900028B1C6F3402010B1284602F063FF00BF07
:1025A00036E7704770B504460CB9012070BD94F849
:1025B0003D0028B9002084F83C00204600F0E0F8F7
:1025C000242084F83D002068006820F00100216884
:1025D00008602068006840F40040216808602068B6
:1025E000006820F400402168086000F00FFB0546F9
:1025F0005C496068884206D85B48854201D2012068
:1026000007E0002005E05948854201D2012000E0A2
:102610000020012800D1C9E75548B5FBF0F6206835
:10262000406820F03F003043216848604D496068B1
:10263000884201D8701C07E04FF4967070434FF445
:102640007A71B0FBF1F0401C2168096A21F03F016A
:1026500008432168086243496068884214D8681EAC
:1026600061684900B0FBF1F0401CC0F30B00042886
:1026700001D204203DE0681E61684900B0FBF1F022
:10268000401CC0F30B0034E0A06838B9681E6168D4
:1026900001EB4101B0FBF1F0401C0AE0681E6168EB
:1026A00001EBC10202EB0111B0FBF1F0401C40F460
:1026B0008040C0F30B0008B901201AE0A06848B9B7
:1026C000681E616801EB4101B0FBF1F0401CC0F3F2
:1026D0000B000CE0681E616801EBC10202EB011106
:1026E000B0FBF1F0401CC0F30B0040F4804040F41C
:1026F00000402168C9694CF6FF7291430843216884
:10270000C861D4E9070108432168096821F0C001C4
:10271000084321680860D4E90310084321688968E8
:1027200048F2FF329143084321688860D4E90501EB
:1027300008432168C96821F0FF0108432168C86087
:102740002068006840F001002168086000202064D3
:10275000202084F83D000020206384F83E0000BF64
:1027600024E70000A086010080841E0000093D00CF
:1027700040420F0070477047704770477047000035
:1027800010B586B00446142101A8FDF7E3FD2349E6
:10279000206888423FD100BF002000902048006898
:1027A00040F002001E4908600846006800F0020080
:1027B000009000BF00BFC0200190122002900020B6
:1027C0000390032004900420059001A91548FFF709
:1027D0009BFC00BF0020009011481030006840F4BE
:1027E00000100F49103108600846006800F400101E
:1027F000009000BF00BF002205211F2000F0CAF892
:102800001F2000F0B7F800220521202000F0C2F8B8
:10281000202000F0AFF806B010BD000000540040CA
:102820003038024000040240704770470348006897
:10283000034909780844014908607047780000207E
:102840008000002010B50D48006840F400700B496E
:1028500008600846006840F4806008600846006828
:1028600040F480700860032000F0D2F80F2000F0E0
:1028700007F800F055F8002010BD0000003C0240B1
:10288000F0B587B004460026002700BF0020009066
:102890001E48006840F001001C49086008460068B6
:1028A00000F00100009000BF00BF01A902A800F0E5
:1028B00085F900F0BBF906461548B6FBF0F0471E57
:1028C00014481549086040F2E7311348C160476079
:1028D000002101618160816100F074FF054695B9B6
:1028E0000D4800F0E5FF05466DB9192000F042F8EB
:1028F000102C07D200222146192000F04BF807487F
:10290000046000E00125284607B0F0BD44380240CD
:1029100040420F0000000140FC0400207C00002029
:1029200008B500BF002000901148006840F48040C6
:102930000F4908600846006800F48040009000BF1E
:1029400000BF00BF00200090081F006840F08050CA
:10295000091F08600846006800F08050009000BF22
:1029600000BF00220F21901E00F014F808BD0000E7
:102970004438024001460846002809DB00F01F03E6
:1029800001229A4043099B0003F1E023C3F8002190
:1029900000BF70472DE9F05F80460D4616460027C0
:1029A00004F0F4FA074639462A46334601F0070098
:1029B000C0F1070ABAF1040F02D94FF0040A01E08E
:1029C000C0F1070AD14600F1040ABAF1070F02D29A
:1029D0004FF0000A01E0A0F1030AD4464FF0010ACB
:1029E0000AFA09FAAAF1010A0AEA020A0AFA0CFA30
:1029F0004FF0010B0BFA0CFBABF1010B0BEA030BD5
:102A00004AEA0B042146404604F0C8FABDE8F09FAC
:102A100000BF00F00702064B19684FF6FF0319408C
:102A2000044B0B4343EA0221014B196000BF70477E
:102A30000CED00E00000FA0570B504460D460CB937
:102A4000012070BD5848006800F00700A84209D274
:102A500055490D700846006800F00700A84201D0F3
:102A60000120EEE7207800F0020002281DD1207836
:102A700000F00400042805D14C48006840F4E05000
:102A80004A490860207800F00800082805D1474826
:102A9000006840F46040454908604448006820F000
:102AA000F000A168084341490860207800F0010067
:102AB000A8B36068012807D13C4808380068C0F313
:102AC0004040B8B90120BCE76068022802D06068C5
:102AD000032807D1354808380068C0F3406048B97A
:102AE0000120AEE7314808380068C0F3400008B95B
:102AF0000120A6E72D48006820F003006168084324
:102B00002A490860FFF7EEFB064609E0FFF7EAFBFB
:102B1000801B41F28831884202D9032091E707E007
:102B20002248006800F00C006168B0EB810FEDD125
:102B30001D48006800F00700A84209D91A490D7025
:102B40000846006800F00700A84201D0012078E79D
:102B5000207800F00400042807D11448006820F40D
:102B6000E050E168084311490860207800F008004F
:102B7000082808D10D48006820F46040216940EA27
:102B8000C1000A49086000F061F808490968C1F30A
:102B90000311074A515CC8400649086006480068AE
:102BA000FFF76EFE00204CE7003C02400838024070
:102BB00084AD0008840000207C0000200F22026009
:102BC0000D4A126802F0030242600B4A126802F0DA
:102BD000F0028260084A126802F4E052C260064ABB
:102BE000126802F46042D2080261044A126802F0DC
:102BF00007020A607047000008380240003C0240AB
:102C000001480068704700008400002000B5FFF70D
:102C1000F7FF04490968C1F38221034A515CC840A7
:102C200000BD00000838024094AD000800B5FFF771
:102C3000E7FF04490968C1F34231034A515CC840C7
:102C400000BD00000838024094AD00082DE9F047AF
:102C5000002400250026A1462548006800F00C004D
:102C600020B1042805D008283AD105E0DFF8849087
:102C700039E0DFF8849036E01D48001F006800F05E
:102C80003F041B48001F006800F4800078B11A4818
:102C90001749091F0968C1F38811A0FB017001469B
:102CA000224600233846FDF70BFB05460EE011488F
:102CB0000F49091F0968C1F38811A0FB0170014683
:102CC000224600233846FDF7FBFA05460848001F58
:102CD0000068C0F30140401C4600B5FBF6F902E075
:102CE000DFF8109000BF00BF4846BDE8F087000045
:102CF000083802400024F40040787D01F8B504460D
:102D00000CB90120F8BD207800F00100002874D033
:102D1000F748006800F00C0004280DD0F448006863
:102D200000F00C00082813D1F148001F006800F4DF
:102D30008000B0F5800F0BD1ED4808380068C0F373
:102D40004040002859D06068002856D10120D9E7BA
:102D500000BF6068B0F5803F08D1E54808380068DA
:102D600040F48030E249083908601EE06068B0F540
:102D7000A02F0DD1DE480838006840F48020DC49DF
:102D8000083908600846006840F4803008600CE0AC
:102D9000D7480838006820F48030D54908390860E1
:102DA0000846006820F48020086000BF606890B189
:102DB000FFF798FA054606E0FFF794FA401B6428EF
:102DC00001D903209EE7CA4808380068C0F3404094
:102DD0000028F1D011E0FFF785FA054606E0FFF77D
:102DE00081FA401B642801D903208BE7C0480838CA
:102DF0000068C0F340400028F1D1207800F00200C4
:102E000002285FD1BA48006800F00C0058B1B848F9
:102E1000006800F00C0008281CD1B548001F0068AD
:102E200000F48000B0B9B24808380068C0F3400030
:102E300020B1E068012801D0012063E7AC480838E0
:102E4000006820F0F800216940EAC100A84908396B
:102E5000086037E0E06800B30120A6490860FFF78A
:102E600041FA054606E0FFF73DFA401B022801D96A
:102E7000032047E79E4808380068C0F34000002858
:102E8000F1D09B480838006820F0F800216940EA3A
:102E9000C10097490839086014E00020954908608E
:102EA000FFF720FA054606E0FFF71CFA401B022850
:102EB00001D9032026E78E4808380068C0F3400097
:102EC0000028F1D1207800F0080008282CD1606992
:102ED000A8B1012088490860FFF704FA054606E01A
:102EE000FFF700FA401B022801D903200AE78048B7
:102EF0006C300068C0F340000028F1D014E00020DE
:102F00007D490860FFF7EEF9054606E0FFF7EAF9AC
:102F1000401B022801D90320F4E675486C30006894
:102F2000C0F340000028F1D1207800F0040004280C
:102F300070D100276E483830006800F0805090B99A
:102F400000BF002000906A483830006840F0805090
:102F50006749383108600846006800F080500090EA
:102F600000BF00BF01276548006800F48070B0B959
:102F70006248006840F4807060490860FFF7B2F969
:102F8000054606E0FFF7AEF9401B022801D90320F1
:102F9000B8E65A48006800F480700028F2D000BFFC
:102FA000A068012808D152486830006840F001004C
:102FB0004F49683108601DE0A06805280DD14C48D4
:102FC0006830006840F004004949683108600846EC
:102FD000006840F0010008600CE045486830006877
:102FE00020F001004249683108600846006820F07E
:102FF0000400086000BFA068A8B1FFF773F9054698
:1030000009E0FFF76FF9401B41F28831884202D98D
:10301000032077E626E0364868300068C0F34000B9
:103020000028EED013E0FFF75DF9054608E0FFF752
:1030300059F9401B41F28831884201D9032061E6E9
:103040002B4868300068C0F340000028EFD1012F02
:1030500007D127483830006820F0805024493831A3
:10306000086000BFA069002850D02148006800F027
:103070000C00082860D0A069022848D100201D4912
:103080000866FFF72FF9054606E0FFF72BF9401B0E
:10309000022801D9032035E6154808380068C0F336
:1030A00040600028F1D1D4E907010843616A40EA91
:1030B00081110122A06AC2EB500041EA00412C209C
:1030C000005D41EA00613020005D41EA007008497E
:1030D000091F0860012007490866FFF703F9054644
:1030E0000EE0FFF7FFF8401B022809D9032009E68C
:1030F0000838024000004742800E474200700040FE
:1031000028480068C0F340600028EAD048E000206A
:1031100025490866FFF7E6F8054606E0FFF7E2F8FE
:10312000401B022801D90320ECE51E480068C0F3CB
:1031300040600028F2D133E0A069012800D1E1E528
:103140001848001D0668A069012827D006F48001F0
:10315000E069814222D106F03F01206A81421DD1FF
:1031600047F6C0703040616AB0EB811F16D106F49B
:1031700040310122A06AC2EB5000B1EB004F0DD1EB
:1031800006F070612C20005DB1EB006F06D106F0F7
:10319000E0413020005DB1EB007F01D00120B1E5BE
:1031A0000020AFE5003802400000474270470000B1
:1031B000F8B504462068466820688568C5F3801025
:1031C00048B905F0010030B1C6F3801018B12046AF
:1031D000216C8847F8BDC5F3400030B1C6F3C0107C
:1031E00018B12046616C8847F4E7C5F3401030B948
:1031F000C5F3801018B9C5F3002000287CD0C6F3B1
:10320000401000287DD0C5F38010F0B194F8510033
:1032100003280ED0606D40F00400606500BF002000
:1032200000902068C068009020688068009000BF0F
:103230000BE000BF002000902068C068009020686C
:103240008068009000BF00BFC4E7C5F3401088B19C
:10325000606D40F00100606500BF002000902068B4
:10326000806800902068006820F0400021680860B5
:1032700000BF00BFC5F3002058B1606D40F00800EA
:10328000606500BF0020009020688068009000BF4B
:1032900000BF606D78B32068406820F0E0002168CE
:1032A0004860012084F8510006F00200022802D094
:1032B00006F0010008B32068406820F00300216890
:1032C0004860E06C50B11048E16C0865E06CFEF7B6
:1032D000F1FC18B1606D40F040006065A06C50B129
:1032E0000948A16C0865A06CFEF7E4FC18B1606D9C
:1032F00040F04000606503E003E02046FFF756FF22
:1033000068E700BF66E70000C960000810B5044622
:103310000CB9012010BD606A38B96068B0F5827FD1
:1033200000D105E00021E16102E00021216161613D
:103330000021A16294F8510028B9002084F85000BF
:10334000204600F047F8022084F851002068006809
:1033500020F0400021680860A08800F48270218974
:1033600001F404410843A18901F400610843217C70
:1033700001F002010843217D01F001010843218B86
:1033800001F400710843217F01F038010843202136
:10339000095D01F080010843218D01F400510843CB
:1033A000216808600421A06901EA104094F8241003
:1033B00001F010010843216848602068C06920F4CA
:1033C00000602168C86100206065012084F8510018
:1033D00000209FE710B586B00446142101A8FCF731
:1033E000B9FF1F492068884238D100BF00200090F3
:1033F0001C48006840F480401A490860084600688C
:1034000000F48040009000BF00BF00BF002000908B
:1034100014481038006840F0020012491039086062
:103420000846006800F00200009000BF00BF4FF4A3
:10343000604001900220029000200390032004903D
:103440000520059001A90848FEF75EFE002205212F
:103450002420FFF79FFA2420FFF78CFA06B010BD56
:103460000038004040380240000402402DE9FF5F70
:103470000446884691461D460E9E0120029000207B
:10348000019000BF94F85000012803D1022004B03D
:10349000BDE8F09F012084F8500000BFFEF722FF36
:1034A000074694F851B060680390AA46BBF1010F3B
:1034B0000BD00398B0F5827F04D1A06810B9BBF19E
:1034C000040F02D002200190DBE0B8F1000F03D01E
:1034D000B9F1000F00D015B901200190D1E094F8A6
:1034E0005100042802D0052084F8510000206065B6
:1034F000C4F83890E587A587C4F83080E586A586AE
:10350000206460642068006800F04000402805D016
:103510002068006840F0400021680860E068B0F56D
:10352000006F4AD1606810B1BAF1010F09D1206B68
:1035300000882168C860206B801C2063E08E401EDC
:10354000E08633E02068806800F00200022810D195
:10355000E08E70B1029801280BD1206B00882168A1
:10356000C860206B801C2063E08E401EE086002037
:1035700002902068806800F0010068B1E08F58B1C7
:103580002068C068A16B0880A06B801CA063E08FDE
:10359000401EE08701200290FEF7A4FEC01BB0424F
:1035A00004D3701C10B1032001906AE0E08E002863
:1035B000C8D1E08F0028C5D14AE0606810B1BAF1E7
:1035C000010F09D1206B007821680873206B401C23
:1035D0002063E08E401EE08634E02068806800F0C2
:1035E0000200022810D1E08E70B1029801280BD1A0
:1035F000206B007821680873206B401C2063E08EEC
:10360000401EE086002002902068806800F00100E3
:1036100068B1E08F58B12068C068A16B0870A06BDA
:10362000401CA063E08F401EE08701200290FEF75F
:1036300059FEC01BB04201D3701C00B916B903205B
:1036400001901EE0E08E0028C7D1E08F0028C4D191
:103650003A463146204602F041FD20B1012001905A
:10366000202060650DE0A06850B900BF00200090E8
:103670002068C068009020688068009000BF00BF8C
:1036800000BF012084F8510000BF002084F85000E2
:1036900000BF0198FBE67047704710B50346002253
:1036A00000BF93F83C00012801D1022010BD012089
:1036B00083F83C0000BF22F0FF00CC6840EA04021F
:1036C00022F440708C6840EA040222F480604C6866
:1036D00040EA040222F400600C6840EA040222F48A
:1036E00080500C6940EA040222F400504C6940EA20
:1036F000040222F48040CC6940EA04021868426463
:1037000000BF002083F83C0000BF00BFCEE70000F0
:1037100030B502460B4600BF92F83C00012801D1AB
:10372000022030BD012082F83C0000BF022082F858
:103730003D00106844681068816824F070041868BF
:10374000044310684460184D1068A8421BD01068EC
:10375000B0F1804F17D0154D1068A84213D0144D0A
:103760001068A8420FD0134D1068A8420BD0124D1C
:103770001068A84207D0114D1068A84203D0104D20
:103780001068A84205D121F08001586801431068F3
:103790008160012082F83D0000BF002082F83C00DB
:1037A00000BF00BFBDE70000000001400004004072
:1037B00000080040000C00400004014000400140AF
:1037C0000018004010B504460CB9012010BD94F853
:1037D0003D0028B9002084F83C00204600F026F87F
:1037E000022084F83D00211D206802F0CDFD01205B
:1037F00084F8460000BF84F83E0001213F200155B7
:10380000402001554120015500BF00BF012084F830
:10381000420043200155442001554520015500BF79
:10382000012084F83D000020D0E7000038B50446B0
:103830001C492068884218D100BF002000901A4817
:10384000006840F00200184908600846006800F06F
:103850000200009000BF00BF002206211D20FFF7DC
:1038600099F81D20FFF786F81BE010492068884270
:1038700017D100BF002000900B48006840F0800086
:10388000094908600846006800F08000009000BF09
:1038900000BF002205212C20FFF77CF82C20FFF729
:1038A00069F838BD0004004040380240001C004068
:1038B000014691F83D00012801D001207047022007
:1038C00081F83D000868C06840F001000B68D860CE
:1038D0001A4B086898421BD00868B0F1804F17D087
:1038E000174B0868984213D0164B086898420FD0BF
:1038F000154B086898420BD0144B0868984207D0C3
:10390000134B0868984203D0124B086898420CD1B8
:103910000868806800F00702062A0CD00868006872
:1039200040F001000B68186005E00868006840F08E
:1039300001000B6818600020C0E700000000014093
:103940000004004000080040000C0040000401405A
:10395000004001400018004001460868C06820F09F
:1039600001000A68D06000BF0868006A41F21112C5
:10397000104050B90868006A9210104028B90868D1
:10398000006820F001000A68106000BF012081F883
:103990003D00002070472DE9F04104460D46002708
:1039A00000BF94F83C00012802D10220BDE8F0815C
:1039B000012084F83C0000BF022084F83D0020680C
:1039C000866826F0770626F47F4620688660286899
:1039D000502833D00CDC202850D004DC00284BD0F9
:1039E000102851D149E0302849D040284CD139E045
:1039F00060282DD0702807D0B0F5805F03D0B0F5D7
:103A0000005F41D10DE041E0D5E902136A6820680A
:103A100002F037FD2068866846F0770620688660E9
:103A200034E0D5E902136A68206802F02AFD2068B4
:103A3000806840F480402168886027E0EA6869680F
:103A4000206802F00FFE5021206802F025FD1DE0E5
:103A5000EA686968206802F018FE6021206802F0B8
:103A60001BFD13E0EA686968206802F0FBFD402155
:103A7000206802F011FD09E000BF00BF00BF296807
:103A8000206802F009FD01E0012700BF00BF01200E
:103A900084F83D0000BF002084F83C0000BF384699
:103AA00084E72DE9F04104460D4614B90120BDE834
:103AB000F08194F83D0028B9002084F83C002046AD
:103AC00000F054F8022084F83D002068806844F239
:103AD0000701884321688860211D206802F054FC9A
:103AE0002068D0F80880206886692068076A2868FE
:103AF00040EA080840F203308643A969A86840EA12
:103B00000120064340F60C4086434FF2F000864306
:103B1000E969E86840EA0120064328690001296A4A
:103B200040EA0130064327F0220727F08807696939
:103B3000686840EA011007432068C0F808802068E0
:103B4000866120680762012084F8460084F83E0000
:103B500001213F200155012084F8420043200155F6
:103B6000012084F83D000020A1E7000010B586B0D8
:103B70000446142101A8FCF7EDFB2068B0F1804F4A
:103B800037D100BF002000901B48006840F00100C2
:103B9000194908600846006800F00100009000BF65
:103BA00000BF00BF0020009013481038006840F0AC
:103BB00001001149103908600846006800F0010052
:103BC000009000BF00BF032001900220029001205E
:103BD0000390002004900120059001A90748FEF7FA
:103BE00093FA002205211C20FEF7D4FE1C20FEF7CC
:103BF000C1FE06B010BD0000403802400000024087
:103C00002DE9F04304460D4694F83E603F20075DE1
:103C100094F84280432010F804906DB9012E02D12F
:103C2000B8F1010F02D00120BDE8F083022084F832
:103C30003E0084F8420025E0042D0CD1012F02D172
:103C4000B9F1010F01D00120EEE702213F2001551B
:103C50004320015516E0012E07D1012F05D1B8F1FF
:103C6000010F02D1B9F1010F01D00120DCE70220E0
:103C700084F83E0002213F200155022084F84200D2
:103C80004320015515B1042D0CD105E0012200217E
:103C9000206802F0E5FB10E001220421206802F018
:103CA000DFFB0AE001220021206802F0D9FB01229B
:103CB0000421206802F0D4FB00BF00BF2068006828
:103CC00040F00100216808600020ADE7704710B5A2
:103CD000044620680069C0F34000D8B12068C0687D
:103CE000C0F34000B0B16FF002002168086101200C
:103CF00020772068806900F0030018B12046FFF7A4
:103D0000E5FF05E0204600F0DFF8204600F0CEF9A0
:103D10000020207720680069C0F38000D8B12068B7
:103D2000C068C0F38000B0B16FF004002168086182
:103D3000022020772068806900F4407018B1204686
:103D4000FFF7C4FF05E0204600F0BEF8204600F073
:103D5000ADF90020207720680069C0F3C000D8B119
:103D60002068C068C0F3C000B0B16FF008002168DF
:103D70000861042020772068C06900F0030018B1B2
:103D80002046FFF7A3FF05E0204600F09DF82046FF
:103D900000F08CF90020207720680069C0F3001043
:103DA000D8B12068C068C0F30010B0B16FF0100047
:103DB00021680861082020772068C06900F44070FD
:103DC00018B12046FFF782FF05E0204600F07CF89E
:103DD000204600F06BF9002020772068006900F091
:103DE000010058B12068C06800F0010030B16FF0E8
:103DF000010021680861204600F088FA2068006907
:103E0000C0F3C01058B12068C068C0F3C01030B112
:103E10006FF08000216808612046FFF73CFC2068B5
:103E20000069C0F3801058B12068C068C0F38010EA
:103E300030B16FF0400021680861204600F0BEFA02
:103E400020680069C0F3401058B12068C068C0F312
:103E5000401030B16FF02000216808612046FFF764
:103E60001BFC10BD10B586B00446142101A8FCF758
:103E700071FA1249206888421DD100BF00200090CD
:103E80000F48006840F004000D49086008460068CB
:103E900000F00400009000BF00BF4020019002200D
:103EA000029000200390022004900320059001A9B5
:103EB0000448FEF729F906B010BD000000040140D7
:103EC000303802400008024070472DE9F0410446B6
:103ED0000D461646002700BF94F83C00012802D189
:103EE0000220BDE8F081012084F83C0000BF36B11B
:103EF000042E1BD0082E31D00C2E5ED145E0294671
:103F0000206802F0D3FA2068806940F00800216838
:103F100088612068806920F0040021688861206839
:103F20008069296908432168886148E0294620683A
:103F300002F0F4FA2068806940F40060216888612A
:103F40002068806920F48060216888612068806929
:103F5000296940EA01202168886130E0294620680B
:103F600002F01AFB2068C06940F008002168C861AF
:103F70002068C06920F004002168C8612068C06919
:103F8000296908432168C86119E02946206802F0C0
:103F90003FFB2068C06940F400602168C861206868
:103FA000C06920F480602168C8612068C0692969FF
:103FB00040EA01202168C86101E0012700BF00BF7D
:103FC00000BF002084F83C0000BF384689E710B5E8
:103FD00004460CB9012010BD94F83D0028B900201A
:103FE00084F83C00204600F025F8022084F83D00CB
:103FF000211D206802F0C8F9012084F8460000BFA6
:1040000084F83E0001213F20015540200155412008
:10401000015500BF00BF012084F842004320015534
:10402000442001554520015500BF012084F83D0082
:104030000020D0E738B504461A49206888422FD1BD
:1040400000BF002000901848006840F002001649A8
:1040500008600846006800F00200009000BF00BF42
:10406000002205212B20FEF795FC2B20FEF782FC79
:10407000002205212C20FEF78DFC2C20FEF77AFC77
:10408000002205212D20FEF785FC2D20FEF772FC75
:10409000002205212E20FEF77DFC2E20FEF76AFC73
:1040A00038BD000000040140443802407047000061
:1040B000F0B504460D46002615B994F83E000BE015
:1040C000042D02D13F20005D06E0082D02D14020E2
:1040D000005D01E04120005D012801D00120F0BD1C
:1040E0001DB9022084F83E000EE0042D03D1022108
:1040F0003F20015508E0082D03D102214020015541
:1041000002E002214120015535B1042D0BD0082DCC
:1041100010D00C2D1CD114E02068C06840F00200C3
:104120002168C86016E02068C06840F0040021687B
:10413000C8600FE02068C06840F008002168C860CF
:1041400008E02068C06840F010002168C86001E005
:10415000012600BF00BFEEBB01222946206802F005
:104160007FF924492068884203D023492068884287
:1041700001D1012000E0002028B12068406C40F40B
:104180000040216848641B49206888421BD0206891
:10419000B0F1804F17D019492068884213D01849D0
:1041A000206888420FD01749206888420BD01249F6
:1041B0002068884207D014492068884203D01349F8
:1041C000206888420ED12068806800F00707062F1B
:1041D0000ED000E00CE02068006840F0010021688B
:1041E000086005E02068006840F001002168086070
:1041F000304674E700000140000401400004004024
:1042000000080040000C0040004001400018004041
:1042100070B504460D46002635B1042D0BD0082D8F
:1042200010D00C2D1CD114E02068C06820F00200D2
:104230002168C86016E02068C06820F0040021688A
:10424000C8600FE02068C06820F008002168C860DE
:1042500008E02068C06820F010002168C86001E014
:10426000012600BF00BF002E4AD100222946206847
:1042700002F0F6F823492068884203D022492068DA
:10428000884201D1012000E0002090B100BF2068E9
:10429000006A41F21111084050B92068006A891083
:1042A000084028B92068406C20F400402168486428
:1042B00000BF00BF2068006A41F21111084050B9E8
:1042C0002068006A8910084028B92068006820F03A
:1042D00001002168086000BF1DB9012084F83E007C
:1042E0000EE0042D03D101213F20015508E0082DE7
:1042F00003D101214020015502E001214120015557
:10430000304670BD000001400004014010B5044675
:1043100021492068884202D1FEF788FA3BE01F4914
:104320002068884203D101201D49087033E02068CD
:10433000B0F1804F20D11B480068406A42F21071F2
:10434000884206D218480089401C00B216490881EC
:104350000CE014480068406A42F21071884205D9A6
:1043600011480089401E00B20F49088142F21070C6
:104370000C49096848620EE00C49206888420AD15D
:10438000002204210A48FDF7A7FF0A48FFF7E4FAD4
:1043900001200949087010BD0000014000040040E0
:1043A0002A00002094020020D0010020001C0040C0
:1043B000000002406C030020450000207047704759
:1043C000704700002DE9F84F044620680568206812
:1043D000C668206847694FF00009CA4605F00F0912
:1043E000B9F1000F0AD105F0200038B106F0200025
:1043F00020B1204602F0ADF9BDE8F88FB9F1000F09
:104400007CD007F0010018B906F49070002875D030
:1044100005F0010030B106F4807018B1206C40F056
:104420000100206405F0040030B107F0010018B16C
:10443000206C40F00200206405F0020030B107F06B
:10444000010018B1206C40F00400206405F0080061
:1044500048B106F0200010B907F0010018B1206C37
:1044600040F008002064206C002846D005F02000B1
:1044700028B106F0200010B1204602F06AF9206849
:104480004069C0F3801A206C00F0080010B9BAF13E
:10449000000F2DD0204602F016F92068406900F088
:1044A0004000402820D100BF00BF2168143151E8EE
:1044B000001F21F040002168143141E80002002A69
:1044C000F3D100BFA06B50B17548A16B0865A06B1C
:1044D000FDF7F0FB88B1A06B016D88470DE0204629
:1044E000FFF76EFF09E009E02046FFF769FF04E0EF
:1044F0002046FFF765FF002020647DE7206B012840
:1045000076D105F01000002872D006F010000028C7
:10451000FAD000BF0020009020680068009020685A
:104520004068009000BF00BF2068406900F0400074
:1045300040285ED1A06B006840681FFA80F8B8F18F
:10454000000F54D0A08D404551DDA4F82E80A06B03
:10455000C069B0F5807F43D000BF00BF21680C3137
:1045600051E8001F21F4807021680C3141E80002FD
:10457000002AF3D100BF00BF00BF2168143151E809
:10458000001F21F001002168143141E80002002AD7
:10459000F3D100BF00BF00BF2168143151E8001FF4
:1045A00021F040002168143141E80002002AF3D1D3
:1045B00000BF202084F83E000020206300BF00BF21
:1045C00021680C3151E8001F21F0100021680C31E6
:1045D00041E80002002AF3D100BFA06BFDF714FBF5
:1045E000A08DE28D801A81B22046FFF7E8FE03E736
:1045F00040E0A08DE18D401A1FFA80F8E08DC0B335
:10460000B8F1000F35D000BF00BF21680C3151E870
:10461000001F21F4907021680C3141E80002002A4B
:10462000F3D100BF00BF00BF2168143151E8001F63
:1046300021F001002168143141E80002002AF3D181
:1046400000BF202084F83E000020206300BF00BF90
:1046500021680C3151E8001F21F0100021680C3155
:1046600041E80002002AF3D100BF41462046FFF78F
:10467000A6FEC1E605F0800030B106F0800018B15A
:10468000204602F01EFAB7E605F0400030B106F011
:10469000400018B1204602F04CF8ADE600BFABE692
:1046A000B366000810B504460CB9012010BDA0691E
:1046B00000B100E000BF94F83D0028B9002084F864
:1046C0003C00204600F028F8242084F83D002068B3
:1046D000C06820F400502168C860204602F0B6F897
:1046E0002068006920F490402168086120684069D2
:1046F00020F02A00216848612068C06840F400501A
:104700002168C86000202064202084F83D0084F8DF
:104710003E000020CAE7000010B586B00446142110
:1047200001A8FBF717FE5E492068884276D100BFDA
:10473000002000905B48006840F010005949086074
:104740000846006800F01000009000BF00BF00BFE6
:104750000020009053481438006840F0010051498F
:10476000143908600846006800F00100009000BF9E
:1047700000BF4FF4C060019002200290002003901F
:10478000032004900720059001A94748FDF7BCFCD1
:104790004648474908604FF000604860002144489F
:1047A0008160C1604FF480610161002141618161DC
:1047B000C16101624162FDF7B5FB08B1FDF720F868
:1047C00000BF3B48A063846300BF38487830394954
:1047D00008604FF000604860402136488160002149
:1047E000C1604FF480610161002141618161C1615B
:1047F00001624162FDF796FB08B1FDF701F800BFC9
:104800002C486063846300BF002205212520FEF749
:10481000C1F82520FEF7AEF83FE0FFE72649206803
:1048200088423AD100BF002000901E48001F006857
:1048300040F480201B49091F08600846006800F406
:104840008020009000BF00BF00BF002000901548EE
:104850001438006840F00400124914390860084612
:10486000006800F00400009000BF00BF4FF44060FB
:104870000190022002900020039003200490072062
:10488000059001A90D48FDF73FFC002205212720D6
:10489000FEF780F82720FEF76DF806B010BD000087
:1048A00000100140443802400000024040640240D1
:1048B0003C0400209C040020004800400008024006
:1048C00070B504460D46164694F83E00202816D1D1
:1048D00005B10EB9012070BD00BF94F83C0001285D
:1048E00001D10220F7E7012084F83C0000BF00203E
:1048F000206332462946204602F0BEF8EBE702204C
:10490000E9E7000010B5044606492068884208D14E
:104910000549087805F022FA012203490348FFF708
:10492000CFFF10BD0044004049010020B403002027
:104930002DE9F84F04460E46174699464FF0000AF7
:1049400094F83D0020285AD106B117B90120BDE8DE
:10495000F88F00BF94F83C00012801D10220F6E74F
:10496000012084F83C0000BF00202064212084F84E
:104970003D00FDF7B7FC8246A784E784A068B0F548
:10498000805F04D1206910B90025B04602E03546A9
:104990004FF0000800BF002084F83C0000BF1BE07F
:1049A0005346002280212046CDF8009002F0B9F84D
:1049B00008B10320CBE745B9B8F80000C0F3080000
:1049C0002168486008F1020803E0287821684860FF
:1049D0006D1CE08C401EE084E08C0028E0D1534642
:1049E000002240212046CDF8009002F09AF808B14C
:1049F0000320ACE7202084F83D000020A7E7022038
:104A0000A5E7704700BFFEE710B50248FDF772FC4E
:104A100010BD0000E801002010B50248FDF7D4FCED
:104A200010BD0000E8010020C16AB1F52A0F02D1D3
:104A30000121C16205E0C16AB1F12A4F01D108210B
:104A4000C1627047F8B5054600200090AC6B94F841
:104A50003D60394800681921B0FBF1F04FF47A71DC
:104A6000B0FBF1F0C0EBC00000EB8000009000BF95
:104A7000009820B9206C40F02000206409E00098E4
:104A8000401E00902068006800F40070B0F5007FC0
:104A9000EED000BF606B10B10020616BC863A06BEB
:104AA00010B10020A16BC8632068006820F480600A
:104AB0002168086000206085606B10B10020616B88
:104AC0000865A06B10B10020A16B08652068006824
:104AD00020F001002168086094F83D0060280AD1A8
:104AE000202084F83D00002084F83E002064204609
:104AF000FDF7FEFB1EE006F02800282811D12068F3
:104B0000006840F00100216808602068006840F4F7
:104B100080602168086000202063282084F83D0020
:104B200005E0202084F83D00002084F83E00204667
:104B3000FDF737FDF8BD0000840000202DE9F041AD
:104B4000044694F83D6094F83E70102F01D0402F39
:104B500007D1222E05D12068006820F4006021686A
:104B6000086006F02800282805D1002020632820AE
:104B700084F83D0010E02068406800F40060B0F563
:104B8000006F07D0602E05D0202084F83D00002063
:104B900084F83E00002020632068406800F4006034
:104BA000B0F5006F40D12068406820F400602168B3
:104BB0004860606B90F83500012814D04848616B5C
:104BC0000865606BFDF776F800285BD02068006808
:104BD00020F0010021680860202084F83D00606B0F
:104BE000016D88474EE03E48A16B0865A06BFDF75C
:104BF00061F8002846D020684069C0F3801030B1C9
:104C000020680069616A0870606A401C6062206800
:104C1000006820F0010021680860202084F83D0031
:104C2000A06B016D88472DE094F83D0060281AD1F3
:104C3000202084F83D000020206420684069C0F3F3
:104C4000801030B120680069616A0870606A401C99
:104C500060622068006820F001002168086020463A
:104C6000FDF746FB0EE020684069C0F3801030B1CC
:104C700020680069616A0870606A401C60622046B2
:104C8000FDF78FFC256C05F0010058B905F0020016
:104C9000022807D005F00400042803D005F008001E
:104CA000082805D12068406820F4E0602168486049
:104CB00094F83D60206C00F0040004280ED1282EEA
:104CC0000CD10848E06200202063202084F83D00D9
:104CD000002084F83E002046FDF74CFDBDE8F08141
:104CE000454A00080000FFFF70B50446E56A608D84
:104CF000042810D12068406820F480602168486052
:104D000020680069616A0870606A401C6062608D9A
:104D1000401E60857AE0608D03281AD120684068C3
:104D200020F4806021684860042D07D0022D05D052
:104D30002068006820F480602168086020680069AD
:104D4000616A0870606A401C6062608D401E608508
:104D50005CE0608D02284FD1012D01D0102D06D1CD
:104D60002068006820F480602168086012E0042D4B
:104D700001D0022D06D12068006840F480602168CF
:104D8000086007E0102D05D02068006840F400702E
:104D90002168086020680069616A0870606A401CC8
:104DA0006062608D401E608520680069616A0870DD
:104DB000606A401C6062608D401E608520684068AB
:104DC00020F4407021684860202084F83D0094F869
:104DD0003E00402807D1002084F83E002063204692
:104DE000FDF7CBFC12E0002084F83E001220206387
:104DF0002046FDF7C0FC09E020680069616A087080
:104E0000606A401C6062608D401E608570BD70B538
:104E1000044694F83D00222870D1658D032D13D9E6
:104E200020680069616A0870606A401C6062608D79
:104E3000401E6085608D03285FD12068406820F4A3
:104E400080602168486058E0E06A02284FD0012D58
:104E500001D0002D4BD1204600F0B2FC68BB206889
:104E6000006820F48060216808602068406820F4B1
:104E7000E0602168486020680069616A0870606AC3
:104E8000401C6062608D401E6085202084F83D00DB
:104E900094F83E00402807D1002084F83E002063AB
:104EA0002046FDF76AFC28E0002084F83E0012202E
:104EB00020632046FDF75FFC1FE02068406820F477
:104EC000E0602168486020680069616A0870606A73
:104ED000401C6062608D401E6085202084F83D008B
:104EE000002084F83E002046FDF75BFB05E02068CB
:104EF000406820F480602168486000BF70BD70B5D4
:104F00000446E56A94F83D00212847D1608D50B1F0
:104F1000606A007821680861606A401C6062608D88
:104F2000401E60853AE0082D16D0202D14D015F5CE
:104F3000803F11D02068406820F4E060216848601C
:104F400011202063002084F83E00202084F83D00DA
:104F50002046FDF711FC21E02068406820F4E06065
:104F6000216848602068006840F40070216808608B
:104F700000202063202084F83D0094F83E00402863
:104F800006D1002084F83E002046FDF7F7FB05E03F
:104F9000002084F83E002046FDF7EEFB70BD2DE9B1
:104FA000F041044694F83D5094F83E70E66A208D36
:104FB000B0BB212D3CD1082E16D0202E14D016F5D2
:104FC000803F11D02068406820F4E060216848608C
:104FD00011202063002084F83E00202084F83D004A
:104FE0002046FDF7C9FB44E02068406820F4E060FB
:104FF000216848602068006840F4007021680860FB
:1050000000202063202084F83D0094F83E004028D2
:1050100007D1002084F83E002046FDF7AFFB28E0D2
:1050200006E0002084F83E002046FDF7A5FB20E0C6
:10503000212D03D0402F1CD1222D1AD1608D30B9E3
:105040002068406820F480602168486011E094F88E
:105050003E00402803D1204600F0A5F909E0606A2F
:10506000007821680861606A401C6062608D401EA3
:105070006085BDE8F081416CC9B202681161416B85
:1050800011B1416BC96B21B9816B41B1816BC96BA6
:1050900029B10168496841F40061026851607047B4
:1050A00038B590F83E20C16A036B90F83D40222C41
:1050B00073D1046D64B9402A0AD100BF0024009462
:1050C0000468646900940468A469009400BF1AE14C
:1050D000046DC4B90469B4F5404F14D100BF002475
:1050E00000940468646900940468A469009400BF93
:1050F00000BF0468246844F4807405682C60046D63
:10510000641C0465FFE0448D8CB900BF002400944A
:105110000468646900940468A469009400BF00BF37
:105120000468246844F4007405682C60DDE0448D54
:10513000012C72D111F5803F30D10468246824F429
:10514000806405682C600468646804F40064B4F545
:10515000006F10D10468246824F4806405682C6012
:1051600000BF002400940468646900940468A46982
:10517000009400BFB9E000BF002400940468646993
:1051800000940468A469009400BF00BF0468246808
:1051900044F4007405682C60A7E0A9E0082923D036
:1051A000202921D0122B01D101291DD104290AD097
:1051B000022908D0102906D00468246824F48064E9
:1051C00005682C6005E00468246844F48064056880
:1051D0002C6000BF00240094046864690094046893
:1051E000A469009400BF80E00468246824F480640B
:1051F00005682C6000BF0024009404686469009472
:105200000468A469009400BF00BF0468246844F4E3
:10521000007405682C6068E0FFE7448D022C3BD1E8
:10522000042910D002290ED010290CD0046824685B
:1052300024F4806405682C600468246844F40064E5
:1052400005682C6005E00468246844F480640568FF
:105250002C600468646804F40064B4F5006F10D135
:1052600011F5803F07D0012905D0082903D0102966
:1052700001D0202905D10468646844F4805405688D
:105280006C6000BF002400940468646900940468A2
:10529000A469009400BF28E00468246844F4806492
:1052A00005682C600468646804F40064B4F5006F59
:1052B00010D111F5803F07D0012905D0082903D06E
:1052C000102901D0202905D10468646844F4805471
:1052D00005686C6000BF0024009404686469009451
:1052E0000468A469009400BF00BF002404650AE0BC
:1052F00000BF002400940468646900940468A469F1
:10530000009400BF00BF38BD90F83E1040290ED178
:10531000016D29B9416C01F0FE010268116141E0A3
:10532000416CC9B241F00101026811613AE00169C2
:10533000B1F5804F20D190F83D10212905D1416C65
:1053400001F0FE010268116105E0416CC9B241F053
:10535000010102681161416B11B1416BC96B21B947
:10536000816BF9B1816BC96BE1B10168496841F4A6
:1053700000610268516015E0016D41B9416C01F4B2
:105380004071F02242EAE111026811610AE0016D08
:10539000012907D1416C01F44071F12242EAE11187
:1053A00002681161704770B5044694F83D50206D55
:1053B00098B9E06C012807D1A06CC0B221680861DF
:1053C000206D801C20654CE0A06CC0F30720216894
:1053D0000861206D401C206543E0206D012807D145
:1053E000A06CC0B221680861206D401C206538E0C7
:1053F000206D022835D1222D09D12068006840F4A3
:10540000807021680860206D401C206529E0608D57
:1054100060B1212D0AD1606A007821680861606A54
:10542000401C6062608D401E60851AE0608DC0B9CE
:10543000212D16D12068406820F4E0602168486082
:105440002068006840F40070216808600020206334
:10545000202084F83D00002084F83E002046FDF71F
:105460008DF970BD418D49B101680969426A1170B9
:10547000416A491C4162418D491E4185704770B5A2
:10548000044694F83D50608DD8B120680069616A87
:105490000870606A401C6062608D401E6085608D8F
:1054A00078B92A2D0DD12068406820F480602168E9
:1054B000486022202063282084F83D002046FDF724
:1054C000B3F970BD418D49B1416A09780268116133
:1054D000416A491C4162418D491E4185704770B542
:1054E000044694F83D50608DD8B1606A0078216818
:1054F0000861606A401C6062608D401E6085608D3E
:1055000078B9292D0DD12068406820F48060216889
:10551000486021202063282084F83D002046FDF7C4
:1055200084F970BDF8B504460D46002794F83D0097
:1055300000F0280028281CD12068406820F48060F2
:1055400021684860C5F3800000B90127C5F3C01089
:1055500010B9A08986B201E0208B86B200BF00207E
:1055600084F83C0000BF324639462046FCF7C1FEB5
:105570000FE000BF00200090206840690090206884
:105580008069009000BF00BF00BF002084F83C008D
:1055900000BFF8BD70B5044694F83D50E66A082E89
:1055A00001D0202E1FD1282D1DD12148E062206876
:1055B000406820F4E060216848606FF480602168F2
:1055C00048612068006820F480602168086000203D
:1055D0002063202084F83D00002084F83E0020460F
:1055E000FDF7C8F823E0212D1DD11148E0622120EC
:1055F0002063202084F83D00002084F83E002068CD
:10560000406820F4E060216848606FF480602168A1
:1056100048612068006820F48060216808602046A6
:10562000FDF703F903E06FF480602168486170BD05
:105630000000FFFF38B5044694F83D5020684068EC
:1056400020F4E0602168486000BF002000902068DE
:10565000406900902068006840F0010021680860FF
:1056600000BF00BF2068006820F4806021680860E7
:105670002068406800F40060B0F5006F42D1222D30
:1056800001D02A2D1FD1A06B006840686085608D15
:1056900018B1206C40F0040020642068406820F4B9
:1056A000006021684860A06BFCF718FB012829D036
:1056B0004148A16B0865A06BFCF7FCFA10B3A06B26
:1056C000016D88471EE0606B006840686085608DF2
:1056D00018B1206C40F0040020642068406820F479
:1056E000006021684860606BFCF7F8FA012809D077
:1056F0003148616B0865606BFCF7DCFA10B1606BD8
:10570000016D8847608D18B320684069C0F3800040
:1057100048B120680069616A0870606A401C606274
:10572000608D401E608520684069C0F3801048B1DC
:1057300020680069616A0870606A401C6062608D60
:10574000401E6085608D18B1206C40F0040020641C
:10575000206C18B12046FFF7F1F92BE02A2D07D174
:1057600000202063282084F83D002046FDF75CF8E7
:1057700094F83D0028280DD11048E06200202063F5
:10578000202084F83D00002084F83E002046FCF7ED
:10579000F1FF0FE0206B222801D0222D0AD100203A
:1057A0002063202084F83D00002084F83E0020463D
:1057B000FDF73AF838BD0000454A00080000FFFF39
:1057C00008B5014600200090104800681922B0FB7F
:1057D000F2F04FF47A72B0FBF2F000EB8000009030
:1057E00000BF0098401E0090009828B9086C40F057
:1057F00020000864012008BD0868006800F40070FB
:10580000B0F5007FEDD00020F5E700008400002017
:1058100008B500BF002000900E48006840F48000EA
:105820000C4908600846006800F48000009000BF42
:1058300000BF002205213A20FDF7ACF83A20FDF721
:1058400099F8002205214620FDF7A4F84620FDF72F
:1058500091F808BD3038024010B5234A01210520D7
:1058600002F084FB21490860214A0021214802F00E
:105870000DFC21490860214A0021214802F006FC64
:1058800020490860204A0021204802F0FFFB2049FF
:105890000860204A0021204802F0F8FB1F490860F8
:1058A0001F4A00211F4802F0F1FB1F4908601F4AF0
:1058B00000211F4802F0EAFB1E4908601E4A002131
:1058C0001E4802F0E3FB1E4908601E4A1421052011
:1058D00002F04CFB1C4908601C4A1421052002F010
:1058E00045FB1B49086010BD80AC0008500000203B
:1058F00038AC000821620008480000205CAC0008B9
:105900002B6200084C00002098AC00080918000821
:1059100054000020BCAC0008F91500085800002015
:10592000E0AC0008BD0900085C00002004AD0008E0
:10593000056000086000002028AD0008711B000809
:10594000640000204CAD00086800002064AD000831
:105950006C00002000B587B0142102A8FAF7FAFC09
:1059600000BF002001905F48006840F080005D4962
:1059700008600846006800F08000019000BF00BF8A
:1059800000BF002001900846006840F00400086055
:105990000846006800F00400019000BF00BF00BF8F
:1059A000002001900846006840F0010008600846A9
:1059B000006800F00100019000BF00BF00BF0020A0
:1059C00001900846006840F0020008600846006840
:1059D00000F00200019000BF00BF00229221424867
:1059E000FCF77AFC00224FF4C2714048FCF774FCCB
:1059F000002241F207413E48FCF76EFC0D20029068
:105A00004FF4041003900020049002A93648FCF7DC
:105A10007BFB8220029001200390049000200590DF
:105A200002A93148FCF770FB84200290012003900A
:105A3000022004900020059002A92C48FCF764FB8A
:105A4000102002900120039000200490059002A9EC
:105A50002548FCF759FB2020029000200390049079
:105A600002A92148FCF750FB41F2014002900120BD
:105A7000039004900020059002A91D48FCF744FB08
:105A8000062002900120039000200490059002A9B6
:105A90001748FCF739FB4FF4807002900120039007
:105AA00000200490059002A91048FCF72DFB00226D
:105AB00005210620FCF76EFF0620FCF75BFF0022A5
:105AC00005210820FCF766FF0820FCF753FF0022A1
:105AD00005210920FCF75EFF0920FCF74BFF07B00A
