:020000040800F2
:10000000385500209D020008E95E0008E549000817
:10001000995E0008C9080008056E0008000000008D
:10002000000000000000000000000000DD010008EA
:10003000EB0900080000000039020008896200088E
:10004000B7020008B7020008B7020008B7020008AC
:10005000B7020008B7020008B7020008B70200089C
:10006000B7020008B7020008B7020008B70200088C
:10007000B7020008B7020008B7020008B70200087C
:10008000CD080008DD080008B7020008B702000824
:10009000B7020008B7020008B70200089B14000866
:1000A000B702000865630008B7020008B70200083D
:1000B0007563000885630008B7020008F949000865
:1000C000E9490008B7020008B7020008B7020008B3
:1000D000B7020008E56D0008F56D0008B7020008DA
:1000E00087140008B7020008B702000895630008EB
:1000F000C5630008B5630008A5630008B7020008DF
:1001000000000000B7020008B7020008D560000830
:100110000000000000000000B7020008B70200085D
:10012000B7020008B7020008ED080008B70200088F
:10013000B7020008B7020008B7020008B7020008BB
:10014000B7020008B7020008B7020008B7020008AB
:10015000B7020008B7020008FD080008B70200084F
:10016000B7020008B702000800000000000000000D
:10017000000000000000000000000000000000007F
:10018000B7020008B70200080000000000000000ED
:10019000B7020008B70200080000000000000000DD
:1001A000000000000000000000000000000000004F
:1001B000B70200080000000000000000B7020008BD
:1001C000B7020008DFF810D000F0D2FA004800476C
:1001D0007B800008AFF30080385500202C4B196855
:1001E0000868B0E8F04F80F30988BFF36F8F4FF0D5
:1001F000000080F311887047000000000848006884
:10020000006880F308884FF0000080F3148862B61D
:1002100061B6BFF34F8FBFF36F8F00DF00BF00BF2A
:1002200008ED00E0DFF80C00016841F470010160A6
:10023000704700BF88ED00E0EFF30980BFF36F8FD8
:10024000134B1A681EF0100F08BF20ED108A20E92A
:10025000F04F106009B44FF0500080F31188BFF3E5
:100260004F8FBFF36F8F09F057FB4FF0000080F303
:10027000118809BC19680868B0E8F04F1EF0100F2B
:1002800008BFB0EC108A80F30988BFF36F8F704706
:1002900064000020EFF305807047000006488047A7
:1002A00006480047FEE7FEE7FEE7FEE7FEE7FEE75B
:1002B000FEE7FEE7FEE7FEE751630008C501000820
:1002C0002DE9F05F0546002092469B46884606468B
:1002D000814640241BE0284641464746224600F01E
:1002E0007EF853465A46C01A914110D3114618461B
:1002F000224600F065F82D1A67EB01084F462246AA
:100300000120002100F05CF817EB00094E41201E8F
:10031000A4F10104DFDC484631462A464346BDE8E5
:10032000F09F40EA01039B0703D009E008C9121FB0
:1003300008C0042AFAD203E011F8013B00F8013B9F
:10034000521EF9D27047D2B201E000F8012B491ECB
:10035000FBD270470022F6E710B513460A46044662
:100360001946FFF7F0FF204610BD421C10F8011B94
:100370000029FBD1801A704710B5002200E0521C02
:10038000835C8C5CA34201D1002BF8D1D8B2E1B2DE
:10039000401A10BD30B50B46014600202022012432
:1003A00009E021FA02F59D4205D303FA02F5491B43
:1003B00004FA02F52844151EA2F10102F1DC30BD59
:1003C000202A04DB203A00FA02F100207047914015
:1003D000C2F1200320FA03F3194390407047202A0A
:1003E00004DB203A21FA02F00021704721FA02F3DF
:1003F000D040C2F1200291400843194670472DE9D0
:10040000FE4F804681EA0300C00F0C46009021F0A9
:10041000004123F00045B8EB0200A94105D2404657
:10042000214690461C460B46024623F000401043EE
:1004300047D0270DC7F30A00C3F30A510290401AB0
:10044000019040286BDAC3F3130040F4801B00983E
:10045000924620B10023D2EB030A63EB0B0B019809
:100460005946C0F140025046FFF7AAFF06460D4626
:1004700050465946019A00F08DF910EB0800614191
:10048000002487EA115284EAE7731A4340D0009AA5
:1004900062B3019A012A4FEA075215DC001B61EB97
:1004A00002014FF0004202EA0752CDE90042001C6F
:1004B00041F5801132462B4600F08DF903B0BDE8BE
:1004C000F08F40462146F9E7001B61EB0201001C5A
:1004D00041F5801300185B412018A2F5001747EB87
:1004E000030140EAD570B6196D4111E06D084FEA7D
:1004F000360645EAC0754FEA0752001B61EB020160
:10050000001C41F5801149084FEA300000195141A3
:1005100032462B4603B0BDE8F04F00F04DB90098CD
:10052000012240000023D0EB020263EBE07300984D
:1005300021464FEAE074B8EB000061EB0401E9E703
:1005400083F000435BE781F0004158E72DE9FE4F5F
:1005500081EA030404F0004421F0004100944FF0CC
:10056000000B23F0004350EA01045ED052EA03047A
:100570005BD0C3F30A54C1F30A552C44A4F2F334FC
:100580000194A0FB0254C1F3130141F48011C3F3A1
:10059000130343F4801301FB024400FB034E840A5F
:1005A000970A44EA815447EA8357A4FB07680295F7
:1005B0008D0A05FB07854FEA932C04FB0C54270595
:1005C000029D4FEA065847EA1637B5EB08056EEB71
:1005D000070C870E920E47EA811742EA8312A7FBA7
:1005E0000201B6EB0B0164EB00042B0D43EA0C3364
:1005F0005E1844EB1C50DA465146E7FB0201C5F396
:1006000013044FEA0B3343EA14534FEA0432019CBC
:1006100043EA0603A4F10C040294009CCDE900B463
:1006200000F0D9F803B0BDE8F08F00200146F9E7EB
:100630002DE9F04D81EA030404F0004B21F0004560
:1006400014464FF0000A23F0004150EA050220D082
:1006500054EA01021DD0C5F30A570246C5F313033D
:10066000C1F31300C1F30A5640F4801543F480131C
:10067000A7EB0608101BD64608F2FD3873EB050001
:1006800002D308F1010801E092185B41B8F1000FB4
:1006900003DA00200146BDE8F08D00204FF4801100
:1006A000064684460EE0171B73EB050705D3121BA5
:1006B00063EB050306434CEA010C49084FEA30009E
:1006C00092185B4150EA0107EDD152EA030012D0C3
:1006D00082EA040083EA0501084305D0101BAB4100
:1006E00006D20122002306E000224FF0004302E080
:1006F0006FF0010253101AEB06004CEB085110EB9F
:100700000A0041EB0B01BDE8F04D00F055B8C1F314
:100710000A52C1F3130140F2FF3341F480119A42AF
:1007200002DA00200146704740F233439A42A2F2B7
:10073000334202DC5242FFF752BEFFF741BE0000D7
:1007400030B5041E71F1000404DB4FF00044404258
:1007500064EB0101141E73F1000405DB1C464FF02D
:100760000043524263EB0403994208BF904230BDFC
:10077000064C074D06E0E06840F0010394E80700EE
:1007800098471034AC42F6D3FFF720FDBCB0000808
:10079000DCB00008202A06DBCB17203A41FA02F031
:1007A00043EAE07306E041FA02F3D040C2F12002CE
:1007B000914008431946704710B5141E73F10004A8
:1007C00008DA401C41F1000192185B411A4301D143
:1007D00020F0010010BD2DE9F04D92469B4611B16D
:1007E000B1FA81F202E0B0FA80F220329046FFF7CF
:1007F000E7FD04460F4640EA0A0041EA0B01534672
:100800005A46084313D0114653EA010019D0C8F1E3
:1008100040025046FFF7E3FD05460E465046594656
:100820004246FFF7CDFD084305D0012004E02046F5
:100830003946BDE8F08D0020054346EAE0762C43BA
:1008400037430A986305E40AA0EB08000022FD0A7A
:1008500044EA47540A3002D500200146E9E7010581
:1008600010196941DDE9084500196941BDE8F04DFD
:10087000A2E770B58C1810F8015B15F0070301D1E1
:1008800010F8013B2A1106D110F8012B03E010F8F3
:10089000016B01F8016B5B1EF9D12B0705D4002316
:1008A000521E0DD401F8013BFAE710F8013BCB1AB8
:1008B000921C03E013F8015B01F8015B521EF9D5AD
:1008C000A142D8D3002070BD00BFFEE710B502489A
:1008D00001F09EF810BD00003005002010B5024860
:1008E00001F096F810BD00009005002010B50248F8
:1008F00001F08EF810BD00007004002010B5024811
:1009000001F086F810BD0000D004002001460878F0
:1009100010381823B0FBF3F20848805CC865032A3E
:1009200005D908686FF30900001D886503E00868B1
:100930006FF309008865886D70470000F8AF000804
:10094000014600208A6A8B69CBB932B1012A0DD0E9
:10095000022A03D0032A10D10EE000BFCB6A03F0B5
:100960008073B3F1807F00D1012007E0CB6AB3F13F
:10097000C07F00D1012001E000E000BF34E08B69BE
:10098000B3F5005F1AD132B1012A07D0022A03D091
:10099000032A11D10AE000BF01200EE0CB6A03F068
:1009A0008073B3F1807F00D1012006E0CB6AB3F100
:1009B000C07F00D1012000E000BF15E032B1012A64
:1009C00005D0022A04D0032A0CD103E000BF00BFE7
:1009D000012008E0CB6A03F08073B3F1807F00D17F
:1009E000012000E000BF00BF704770478AB00027B9
:1009F0000025642600BF00BF0024FD4802F020FE51
:100A000000BF012007F05BFB0A23002201A9F9487F
:100A1000006807F0A9FBC7B2002FF2D19DF80400CF
:100A20008DF818009DF805008DF8190000208DF84C
:100A30001A008DF81B009DF80A008DF81E009DF825
:100A40000B008DF81F009DF80B0005287CD006DCFC
:100A5000012809D0022878D0032877D1B1E00628F0
:100A600075D01028F9D1FCE39DF80C0020286FD137
:100A70009DF80D00052841D006DC05287ED2DFE870
:100A800000F0500E3A3B3C00062863D0092862D0A3
:100A90000A2802D0642871D100E070E06FE00020E5
:100AA0008DF81C0005208DF81D0001208DF8200018
:100AB0009DF80E00FF280DD1CF480078012802D103
:100AC0008DF821000CE0CC48007848B900208DF862
:100AD000210005E09DF80E0010B900208DF82100DE
:100AE0000A2206A9012008F025FB002006900790A5
:100AF0000890099043E042E041E040E000208DF89A
:100B00001C0005208DF81D0001208DF820000A2210
:100B100006A908F00FFB00200690079008900990A6
:100B20002DE000208DF81C0005208DF81D0001200F
:100B30008DF820000A2206A908F0FCFA0020069091
:100B40000790089009901AE0FCE11AE0FAE35FE3ED
:100B500016E013E013E000208DF81C0006208DF84D
:100B60001D0001208DF820000A2206A908F0E2FAF3
:100B70000020069007900890099000E000BF00BF99
:100B800045E300208DF81C0004208DF81D00012095
:100B90008DF820009DF80C0018B99DF80D00012873
:100BA0000ED09DF80C0018B99DF80D00032807D051
:100BB0009DF80C0018B99DF80D00042800D000BF66
:100BC000DEE79DF80F009DF80E1040EA01204FF679
:100BD000FF7101EA400400208DF81C00E01CC0B247
:100BE0008DF81D009DF80C00012873D1022C73D1E3
:100BF0009DF80D004A2812D1E0B28DF820000020A7
:100C00008DF821008DF822000B2206A9012008F0A2
:100C100091FA0020069007900890099091E19DF8C4
:100C20000D004E2812D1E0B28DF8200000208DF882
:100C300021008DF822000B2206A9012008F07AFA83
:100C4000002006900790089009907AE19DF80D0029
:100C500090B9E0B28DF8200000208DF821008DF8C9
:100C600022000B2206A9012008F064FA0020069059
:100C700007900890099064E19DF80D00302812D18A
:100C8000E0B28DF8200000208DF821008DF82200C0
:100C90000B2206A9012008F04DFA002006900790CB
:100CA000089009904DE19DF80D003228B6D1E0B2D0
:100CB0008DF8200000208DF821008DF822000B22F5
:100CC00006A9012008F036FA002006900790089047
:100CD000099036E138E0FFE7042C9FD19DF80D0024
:100CE0002C2816D1E0B28DF8200000208DF82100CC
:100CF0008DF822008DF823008DF824000D2206A91E
:100D0000012008F017FA002006900790089009903B
:100D100017E19DF80D002E2897D1E0B28DF8200044
:100D200000208DF821008DF822008DF823008DF829
:100D300024000D2206A9012008F0FCF900200690ED
:100D4000079008900990FCE09DF80C00002892D1D3
:100D5000022C2DD19DF80D00202812D1E0B28DF883
:100D6000200000208DF821008DF822000B2206A91A
:100D7000012008F0DFF90020069007900890099004
:100D8000DFE09DF80D0096288CD1E0B28DF82000B0
:100D900000208DF821008DF822000B2206A90120E9
:100DA00008F0C8F900200690079008900990C8E064
:100DB000042C8ED19DF80D0064281FD1E0B28DF86F
:100DC0002000300A8DF82100F0B28DF822000020BA
:100DD0008DF823008DF824000D2206A9012008F0CB
:100DE000A9F900200690079008900990A9E000005A
:100DF000580300204C0000201E0000209DF80D002C
:100E0000682816D1E0B28DF8200000208DF821006E
:100E10008DF822008DF823008DF824000D2206A9FC
:100E2000012008F087F900200690079008900990AB
:100E300087E09DF80D00782818D1E0B28DF82000E9
:100E4000280A8DF82100E8B28DF8220000208DF8E4
:100E500023008DF824000D2206A9012008F06AF96C
:100E6000002006900790089009906AE09DF80D0018
:100E70007A2816D1E0B28DF8200000208DF82100EC
:100E80008DF822008DF823008DF824000D2206A98C
:100E9000012008F04FF90020069007900890099073
:100EA0004FE09DF80D007C2816D1E0B28DF82000AF
:100EB00000208DF821008DF822008DF823008DF898
:100EC00024000D2206A9012008F034F90020069024
:100ED00007900890099034E09DF80D007E2816D107
:100EE000E0B28DF8200000208DF821008DF822005E
:100EF0008DF823008DF824000D2206A9012008F0AA
:100F000019F90020069007900890099019E09DF8C3
:100F10000D00802815D1E0B28DF8200000208DF85A
:100F200021008DF822008DF823008DF824000D2279
:100F300006A9012008F0FEF800200690079008900E
:100F4000099099E200208DF81C0006208DF81D0004
:100F50009DF80C008DF820009DF80D008DF8210003
:100F60009DF80C00202875D19DF80D00152872D22F
:100F7000DFE800F0EF0B3F72A3D4EEED71EC71717E
:100F8000717171EB71717171EA009DF80E00FF28AB
:100F900011D1F548007838B9B2B20121002004F02F
:100FA0007DFF0120F1490870FF208DF8220000200C
:100FB0008DF8230012E09DF80E0078B90021EC486E
:100FC00003F092F801228021EA4800F0EBFF0020B4
:100FD000E64908708DF822008DF823000C2206A93E
:100FE000012008F0A7F800200690079008900990CB
:100FF0000CE19DF80E00FF2811D1AAB2002108468D
:1010000004F04CFF0120D94908700020D64908702F
:10101000FF208DF8220000208DF823000FE0002132
:10102000D34803F061F801228021D24800F0BAFFD2
:101030000020CE4908708DF822008DF823000C2284
:1010400006A9012008F076F8002006900790089085
:101050000990DBE0DBE0D8E09DF80E00FF2811D11D
:10106000AAB20121002004F019FF0020BE49087037
:101070000120BE490870FF208DF8220000208DF865
:1010800023000FE00021BA4803F02EF8012280214E
:10109000B84800F087FF0020B44908708DF822009E
:1010A0008DF823000C2206A9012008F043F8002047
:1010B0000690079008900990A8E09DF80E00FF2880
:1010C00011D1AAB20021084604F0E8FE0020A6498A
:1010D00008700120A5490870FF208DF8220000202B
:1010E0008DF823000FE00021A14802F0FDFF01224E
:1010F0008021A04800F056FF00209C4908708DF820
:1011000022008DF823000C2206A9012008F012F815
:101110000020069007900890099077E09DF80E0057
:10112000FF2817D1AAB20021084604F0B7FE00201C
:101130008D49087001208D490870FF208DF822002C
:1011400000208DF8230015E01FE05DE051E04FE046
:101150004DE041E00021864802F0C6FF01228021D7
:10116000844800F01FFF0020804908708DF822009D
:101170008DF823000C2206A9012007F0DBFF0020D8
:10118000069007900890099040E09DF80E00FF2817
:1011900012D10021764802F0A7FF01228021754874
:1011A00000F000FF002071490870FF208DF8220038
:1011B00000208DF8230004E000208DF822008DF837
:1011C00023000C2206A9012007F0B4FF002006909E
:1011D00007900890099019E00C2206A9012007F059
:1011E000A9FF002006900790089009900EE00DE0FE
:1011F0000CE00C2206A9012007F09CFF00200690BD
:1012000007900890099001E000E000BF00BF33E1C3
:1012100000208DF81C0006208DF81D009DF80C00A4
:101220008DF820009DF80D008DF821009DF80E002E
:101230008DF822009DF80F008DF823009DF80C001A
:10124000012847D19DF80D004A280BD10C2206A990
:10125000012007F06FFF002006900790089009908A
:1012600038E038E09DF80D004E280AD10C2206A97E
:10127000012007F05FFF002006900790089009907A
:1012800028E09DF80D00B8B99DF80E0010B99DF842
:101290000F0018B101203849087002E000203649DB
:1012A00008700C2206A9012007F044FF00200690D8
:1012B0000790089009900DE09DF80D00302809D1A5
:1012C0000C2206A9012007F035FF002006900790A8
:1012D00008900990D0E000208DF81C0006208DF8C1
:1012E0001D009DF80C008DF820009DF80D008DF874
:1012F00021009DF80E008DF822009DF80F008DF85A
:1013000023009DF80C0070BB9DF80D0064281AD1D5
:101310009DF8110000069DF8121040EA01409DF86A
:10132000131040EA01209DF8141040EA01060C2237
:1013300006A9012007F0FEFE002006900790089005
:10134000099097E097E09DF80D00682816D100BF3E
:101350000C2206A9012007F0EDFE00200690079060
:101360000890099086E064E01E0000201F00002025
:101370005803002000080240200000209DF80D00C6
:10138000782819D19DF8110000069DF8121040EA46
:1013900001409DF8131040EA01209DF8141040EA26
:1013A00001050C2206A9012007F0C4FE00200690CA
:1013B0000790089009905DE09DF80D007A280AD109
:1013C0000C2206A9012007F0B5FE00200690079028
:1013D000089009904EE09DF80D007C280BD100BFCD
:1013E0000C2206A9012007F0A5FE00200690079018
:1013F000089009903EE09DF80D007E280AD10C224D
:1014000006A9012007F096FE00200690079008909C
:1014100009902FE09DF80D0080282BD10C2206A901
:10142000012007F087FE00200690079008900990A1
:1014300020E09DF80C0001281CD19DF80D002C28FF
:101440000AD10C2206A9012007F074FE00200690A4
:101450000790089009900DE09DF80D002E2809D105
:101460000C2206A9012007F065FE002006900790D7
:101470000890099000E000BF00BF142101A8FEF70A
:1014800069FFFFF7BEBA10B54FF4006000F094FC9E
:101490004FF4805000F090FC10BD10B54FF48070F8
:1014A00000F08AFC10BD0000002208213D4800F039
:1014B00079FD3C213C4802F06BFA3B480068C0686B
:1014C00040F0010038490968C860384802F0B8F8AF
:1014D00042F21070344909684862002034490860BB
:1014E000486008819FED330A084680ED030A00201A
:1014F00008749FED300A084680ED050A9FED2D0A1D
:101500002D4880ED000A00BF012006F0D8FD2B48D1
:1015100000780128F8D10021284A11702249096871
:101520000968C1F30011224A11741F490968496A08
:101530001D4A1268D26AA1EB520108B21C4A1389F3
:10154000194A1268D26A13FB02F101EBD17200EB67
:101550006202174B5A60194649681A461268891A7E
:1015600000EE101AB8EEC00ADFED150A80EE201A60
:10157000194681ED031A49681A461160114691ED2A
:10158000030AF1EE000A20EE200A81ED050A91ED32
:10159000050A0949D1ED000A30EE200A81ED000A62
:1015A000B2E7000000080240C8020020100300203B
:1015B000AC010020000000001800002021000020E5
:1015C00000401C4772B600BFFEE700000EB553A0F6
:1015D00005F0E4FD05F01CFC5B49002006F0D6FA9E
:1015E00001208DF808008DF80B0000208DF80A000E
:1015F00001208DF8090002A90A2006F085FB04F0FD
:1016000075FC04F0BBFC51A005F0C8FD00BF012033
:1016100006F055FD54A005F0C1FD00234FF4FB7208
:101620000121084607F046FE012804D056A005F027
:10163000B5FD00BFFEE75AA005F0B0FD0020019007
:1016400001AA0021012006F0C9FA3F48407A009023
:101650003D48037AC27981795AA005F09FFD4FF485
:10166000FB715FA005F09AFD65A005F097FD0120D4
:1016700006F0B4FC012806D04FF4FB7169A005F018
:101680008DFD00BFFEE7002400BF4FF44A7005F057
:1016900087FC0446172C01D0002CF6D124B968A091
:1016A00005F07CFD00BFFEE7172C35D172A005F0D8
:1016B00075FD77A005F072FD2CE080227C490120A9
:1016C00007F04CFC0546E81D30B97AA005F066FD30
:1016D0007FA005F063FD1EE084A17548FEF74CFE77
:1016E00060B984A005F05AFD8BA005F057FD78A0E5
:1016F00005F054FD012006F097FB0CE000230122C9
:101700006B498B48006806F0BDFD80216848FEF7F4
:1017100021FE00BFD1E700BF79E7000041207369D7
:101720006D706C652050696E67204170706C6963E4
:101730006174696F6E207573696E67205735353037
:1017400030210D0A000000000000002053696D7078
:101750006C652050696E67204170706C69636174BC
:10176000696F6E0D0A0000000D0A496E69746961A7
:101770006C697A696E672073657276657220736F23
:10178000636B65740D0A000043616E6E6F742063B5
:10179000726561746520536F636B6574210D0A0077
:1017A000536F636B65742043726561746564205385
:1017B00075636365737366756C6C792021200D0AFF
:1017C0000000000049502041646472657373206911
:1017D000732025642E25642E25642E25640D0A00B1
:1017E0005374617274206C697374656E696E6720DE
:1017F0006F6E20706F72742025642021200D0A0006
:1018000057616974696E6720666F72206120636C2E
:1018100069656E7420636F6E6E656374696F6E2E9A
:10182000200D0A0043616E6E6F74206C69737465DD
:101830006E206F6E20706F727420256400000000AF
:10184000536F6D65206572726F72206F636375727E
:10185000726564206F6E2073657276657220736F97
:10186000636B65742E20506C6561736520726573BF
:10187000746172742E0D0A004120636C69656E7488
:1018800020636F6E6E6563746564210D0A0000004D
:1018900057616974696E6720666F7220436C696571
:1018A0006E742044617461202E2E2E210D0A0000DA
:1018B0002C010020436C69656E742068617320649C
:1018C0006973636F6E6E65637465640D0A00000072
:1018D0002A2A2A2053455353494F4E204F564552EA
:1018E000202A2A2A0D0A0D0A0000000051554954E9
:1018F00000000000526563656976656420515549B2
:101900005420636F6D6D616E642066726F6D20632D
:101910006C69656E740D0A00446973636F6E6E6561
:101920006374696E67202E2E2E200D0A00000000C1
:101930004C00002070B50446A56D00F039FB06464A
:1019400094F83500022808D08020606500BF002090
:1019500084F8340000BF012070BD2068006820F0CA
:101960001600216808602068406920F08000216826
:101970004861206C08B9A06C28B12068006820F08C
:101980000800216808602068006820F001002168D4
:10199000086010E000F00CFB801B05280BD920200C
:1019A0006065032084F8350000BF002084F834000F
:1019B00000BF0320D0E72068006800F00100002885
:1019C000E8D194F85C103F208840A860012084F89A
:1019D000350000BF002084F8340000BF00BFBBE723
:1019E000014691F83500022803D080204865012087
:1019F0007047052081F835000868006820F0010074
:101A00000A6810600020F3E7014691F8350070473E
:101A1000F8B50446002000908C4800684FF4165139
:101A2000B0FBF1F7A56D2E6894F85C100820884093
:101A3000304098B12068006800F0040070B1206860
:101A4000006820F004002168086094F85C10082009
:101A50008840A860606D40F00100606594F85C10FB
:101A600001208840304068B12068406900F0800063
:101A700040B194F85C1001208840A860606D40F08F
:101A80000200606594F85C1004208840304068B122
:101A90002068006800F0020040B194F85C10042057
:101AA0008840A860606D40F00400606594F85C10A8
:101AB00010208840304078B32068006800F00800AB
:101AC00050B394F85C1010208840A860206800682B
:101AD00000F4802080B12068006800F4002028B95C
:101AE000206CC8B12046216C884715E0A06C98B1E5
:101AF0002046A16C88470FE02068006800F48070E1
:101B000028B92068006820F0080021680860206C6F
:101B100010B12046216C884794F85C102020884042
:101B20003040002865D02068006800F010000028D0
:101B30005FD094F85C1020208840A86094F83500AD
:101B4000052828D12068006820F016002168086068
:101B50002068406920F0800021684861206C08B945
:101B6000A06C28B12068006820F008002168086097
:101B700094F85C103F208840A860012084F835006C
:101B800000BF002084F8340000BF206D10B1204653
:101B9000216D8847F8BD2068006800F4802080B17E
:101BA0002068006800F4002028B9606C10B120465D
:101BB000616C88471DE0E06BD8B12046E16B884737
:101BC00017E02068006800F4807068B92068006839
:101BD00020F0100021680860012084F8350000BF63
:101BE000002084F8340000BFE06B10B12046E16BA8
:101BF0008847606D38B3606D00F00100F0B10520DA
:101C000084F835002068006820F001002168086031
:101C100000BF0098401C0090B84200D905E0206841
:101C2000006800F001000028F3D100BF012084F813
:101C3000350000BF002084F8340000BFE06C10B114
:101C40002046E16C884700BFA4E700006000002048
:101C50002DE9F0410446002500F0AAF9074614B921
:101C60000120BDE8F081606A00B100BF022084F865
:101C7000350000BF002084F8340000BF20680068F1
:101C800020F00100216808600AE000F091F9C01B13
:101C9000052805D920206065032084F83500E0E799
:101CA0002068006800F001000028EED12068056877
:101CB00021480540D4E901010843E168084321694E
:101CC000084361690843A1690843E1690843216A3F
:101CD00008430543606A042803D1D4E90B01084393
:101CE0000543206805602068456925F00705606A9E
:101CF0000543606A04280DD1A06A0543E06A48B133
:101D00002046FEF71DFE28B140206065012084F8C2
:101D10003500A6E7206845612046FEF7F7FD064638
:101D200094F85C103F208840B0600020606501207E
:101D300084F83500002094E73F8010F010B5044689
:101D4000B4F5805F0BD14FF4805016490860012133
:101D5000154800F01DF902201449087020E0B4F580
:101D6000006F12D11148007810B901200F49087096
:101D700001200F49087042F210700E49096848624C
:101D80004FF40060074908600AE0B4F5807F07D18E
:101D90004FF48070034908600121034800F0F8F80F
:101DA00010BD0000143C0140000402401E00002051
:101DB00021000020C802002010B504460448006835
:101DC000204020B1024804602046FFF7B7FF10BD55
:101DD000143C0140F8B503460A46002500240020C3
:101DE0000021C2E0012606FA01F5166806EA05049C
:101DF000AC4274D1167906F00306012E04D0167990
:101E000006F00306022E13D198684F000326BE4049
:101E1000B0434F00D668BE403043986058680126F2
:101E20008E40B0431679C6F300168E40304358609A
:101E3000167906F00306032E09D0D8684F00032652
:101E4000BE40B0434F009668BE403043D86016791C
:101E500006F00306022E13D1CF0803F1200656F830
:101E600027004E07F70E0F26BE40B0434F07FF0E68
:101E70001669BE403043CF0803F1200646F827001C
:101E800018684F000326BE40B043167906F00306DB
:101E90004F00BE4030431860566806F44036002EAE
:101EA00062D000BF00260096324E366846F4804667
:101EB000304F3E603E46366806F48046009600BFCE
:101EC00000BF2D4E8F0856F827008E07370F0F26BC
:101ED000BE40B043294EB34202D1002610E043E099
:101EE000274EB34201D101260AE0264EB34201D16A
:101EF000022605E0244EB34201D1032600E0072666
:101F00008F073F0FBE4030431B4E8F0846F8270017
:101F10001E4E3068A043566806F4801606B1204372
:101F20001A4E3060361D3068A043566806F400161D
:101F300006B12043154E361D3060144E361F3068F2
:101F4000A043566806F4003606B120430F4E361FF4
:101F50003060361F3068A043566806F4803606B1FC
:101F600020430A4E083E3060491C1029FFF43AAF66
:101F7000F8BD00004438024008380140000002402B
:101F80000004024000080240000C0240083C0140EE
:101F900010B5426921EA020302EA010443EA04435C
:101FA000836110BD0AB1816101E00B048361704758
:101FB00001480068704700005400002070477047D7
:101FC0002DE9F84F0446206847692068D0F804805E
:101FD000002594F83E90C7F3002040B1C8F30020DC
:101FE00028B145F001056FF4807021684861C7F39E
:101FF000402040B1C8F3002028B145F002056FF43D
:10200000007021684861C7F3802070B3C8F30020D6
:1020100058B3CA46B4F82AB094F83D60206B0090DB
:10202000BAF1200F0FD1BBF1000F0CD1212E06D039
:10203000292E04D0282E06D10098212803D120462D
:1020400003F098FA11E06FF480602168486145F070
:102050000405B9F1100F02D0B9F1400F05D1206885
:10206000006840F4007021680860C7F3C02040B1E8
:10207000C8F3002028B145F008056FF4006021681E
:1020800048612DB1206C28432064204602F046FDB3
:10209000BDE8F88F2DE9F04705464FF000092868A4
:1020A0004668D5F82CA095F83E7095F83D80102F25
:1020B00001D0402F75D12868D0F81890286844695D
:1020C00004F0010060B9BAF52A0F02D0BAF12A4F24
:1020D00001D1012000E00020012801D1BDE8F087F6
:1020E00004F0010048B1C6F3402030B1284602F0A8
:1020F0008BFC284603F0F8F8B7E0C4F3C00030B119
:10210000C6F3402018B1284602F0A5FFADE0C4F3A5
:10211000400030B1C6F3402018B1284602F0B0FFAD
:10212000A3E0C9F3800040B32868406800F4006071
:10213000B0F5006FE0D0C4F3C01048B1C6F3802002
:1021400030B1C4F3800018B9284602F018FF8CE0C3
:10215000C4F380000028CFD0C6F340200028CBD0A5
:10216000B8F1210F03D1284602F0B9FE7DE0402FDF
:102170007BD1284603F007F977E02868406800F42F
:102180000060B0F5006F70D0C4F3801050B1C6F39A
:10219000802038B1C4F3800020B9284602F027FE21
:1021A00063E00BE0C4F3800000285ED0C6F340205B
:1021B00000285AD0284602F087FD56E0286C10B15E
:1021C0002868446904E02868D0F8189028684469B1
:1021D000C4F3400060B1C6F3402048B1286C10B190
:1021E0002868D0F818904946284603F08BF93CE05F
:1021F000C4F3001030B1C6F3402018B1284603F0F4
:1022000009FA32E0B8F1210F02D0B8F1290F16D146
:10221000C4F3C01048B1C6F3802030B1C4F38000CD
:1022200018B9284603F04BF91FE0C4F38000E0B171
:10223000C6F34020C8B1284603F034F915E0C4F3D2
:10224000801048B1C6F3802030B1C4F3800018B9C3
:10225000284603F004F908E0C4F3800028B1C6F36F
:10226000402010B1284603F0EDF800BF36E7704774
:1022700070B504460CB9012070BD94F83D0028B932
:10228000002084F83C00204600F0E0F8242084F888
:102290003D002068006820F0010021680860206887
:1022A000006840F40040216808602068006820F45D
:1022B00000402168086000F00FFB05465C4960683B
:1022C000884206D85B48854201D2012007E0002001
:1022D00005E05948854201D2012000E00020012894
:1022E00000D1C9E75548B5FBF0F62068406820F0FA
:1022F0003F003043216848604D496068884201D8FA
:10230000701C07E04FF4967070434FF47A71B0FB85
:10231000F1F0401C2168096A21F03F01084321685F
:10232000086243496068884214D8681E61684900A1
:10233000B0FBF1F0401CC0F30B00042801D20420D4
:102340003DE0681E61684900B0FBF1F0401CC0F33D
:102350000B0034E0A06838B9681E616801EB4101E8
:10236000B0FBF1F0401C0AE0681E616801EBC1029D
:1023700002EB0111B0FBF1F0401C40F48040C0F3CF
:102380000B0008B901201AE0A06848B9681E61680E
:1023900001EB4101B0FBF1F0401CC0F30B000CE07D
:1023A000681E616801EBC10202EB0111B0FBF1F0A4
:1023B000401CC0F30B0040F4804040F40040216812
:1023C000C9694CF6FF72914308432168C861D4E99A
:1023D000070108432168096821F0C001084321680A
:1023E0000860D4E9031008432168896848F2FF3285
:1023F0009143084321688860D4E9050108432168B6
:10240000C96821F0FF0108432168C860206800689E
:1024100040F001002168086000202064202084F83A
:102420003D000020206384F83E0000BF24E7000048
:10243000A086010080841E0000093D0040420F007C
:1024400070477047704770477047000010B586B0FE
:102450000446142101A8FDF77DFF23492068884226
:102460003FD100BF002000902048006840F00200EB
:102470001E4908600846006800F00200009000BF96
:1024800000BFC02001901220029000200390032082
:1024900004900420059001A91548FFF79BFC00BF9C
:1024A0000020009011481030006840F400100F49DF
:1024B000103108600846006800F40010009000BF6A
:1024C00000BF002205211F2000F0CAF81F2000F0E5
:1024D000B7F800220521202000F0C2F8202000F0EB
:1024E000AFF806B010BD0000005400403038024084
:1024F00000040240704770470348006803490978A8
:102500000844014908607047540000205C00002026
:1025100010B50D48006840F400700B49086008468B
:10252000006840F4806008600846006840F48070ED
:102530000860032000F0D2F80F2000F007F800F048
:1025400055F8002010BD0000003C0240F0B587B0F7
:1025500004460026002700BF002000901E480068A7
:1025600040F001001C4908600846006800F00100C6
:10257000009000BF00BF01A902A800F085F900F09B
:10258000BBF906461548B6FBF0F0471E144815493E
:10259000086040F2E7311348C160476000210161E3
:1025A0008160816100F0AEFF054695B90D4801F0EC
:1025B00047F805466DB9192000F042F8102C07D2F3
:1025C00000222146192000F04BF80748046000E083
:1025D0000125284607B0F0BD4438024040420F00B4
:1025E00000000140F00500205800002008B500BFA1
:1025F000002000901148006840F480400F490860B6
:102600000846006800F48040009000BF00BF00BF93
:1026100000200090081F006840F08050091F0860EB
:102620000846006800F08050009000BF00BF002204
:102630000F21901E00F014F808BD0000443802403D
:1026400001460846002809DB00F01F0301229A40DA
:1026500043099B0003F1E023C3F8002100BF70474A
:102660002DE9F05F80460D461646002704F0C0FDB8
:10267000074639462A46334601F00700C0F1070AEB
:10268000BAF1040F02D94FF0040A01E0C0F1070AC1
:10269000D14600F1040ABAF1070F02D24FF0000A46
:1026A00001E0A0F1030AD4464FF0010A0AFA09FA40
:1026B000AAF1010A0AEA020A0AFA0CFA4FF0010B1F
:1026C0000BFA0CFBABF1010B0BEA030B4AEA0B0410
:1026D0002146404604F094FDBDE8F09F00BF00F0A5
:1026E0000702064B19684FF6FF031940044B0B43D2
:1026F00043EA0221014B196000BF70470CED00E076
:102700000000FA0570B504460D460CB9012070BDF5
:102710005848006800F00700A84209D255490D70DA
:102720000846006800F00700A84201D00120EEE74B
:10273000207800F0020002281DD1207800F004006B
:10274000042805D14C48006840F4E0504A4908602C
:10275000207800F00800082805D14748006840F4B8
:102760006040454908604448006820F0F000A168D6
:10277000084341490860207800F00100A8B3606870
:10278000012807D13C4808380068C0F34040B8B978
:102790000120BCE76068022802D06068032807D1E6
:1027A000354808380068C0F3406048B90120AEE7FA
:1027B000314808380068C0F3400008B90120A6E796
:1027C0002D48006820F00300616808432A4908602A
:1027D000FFF7EEFB064609E0FFF7EAFB801B41F23C
:1027E0008831884202D9032091E707E02248006837
:1027F00000F00C006168B0EB810FEDD11D4800685E
:1028000000F00700A84209D91A490D70084600686F
:1028100000F00700A84201D0012078E7207800F0FE
:102820000400042807D11448006820F4E050E1684F
:10283000084311490860207800F00800082808D1F2
:102840000D48006820F46040216940EAC1000A494F
:10285000086000F061F808490968C1F30311074AEC
:10286000515CC8400649086006480068FFF76EFEE4
:1028700000204CE7003C02400838024000B000084D
:1028800060000020580000200F2202600D4A1268EC
:1028900002F0030242600B4A126802F0F00282600A
:1028A000084A126802F4E052C260064A126802F452
:1028B0006042D2080261044A126802F007020A600C
:1028C0007047000008380240003C024001480068A0
:1028D000704700006000002000B5FFF7F7FF0449D3
:1028E0000968C1F38221034A515CC84000BD000061
:1028F0000838024010B0000800B5FFF7E7FF0449B0
:102900000968C1F34231034A515CC84000BD000070
:102910000838024010B000082DE9F04700240025D7
:102920000026A1462548006800F00C0020B10428CC
:1029300005D008283AD105E0DFF8849039E0DFF8C7
:10294000849036E01D48001F006800F03F041B48DB
:10295000001F006800F4800078B11A481749091F69
:102960000968C1F38811A0FB0170014622460023CB
:102970003846FDF7A5FC05460EE011480F49091F32
:102980000968C1F38811A0FB0170014622460023AB
:102990003846FDF795FC05460848001F0068C0F35F
:1029A0000140401C4600B5FBF6F902E0DFF810904C
:1029B00000BF00BF4846BDE8F0870000083802406D
:1029C0000024F40040787D01F8B504460CB90120DC
:1029D000F8BD207800F00100002874D0F7480068A6
:1029E00000F00C0004280DD0F448006800F00C0042
:1029F000082813D1F148001F006800F48000B0F5EA
:102A0000800F0BD1ED4808380068C0F34040002823
:102A100059D06068002856D10120D9E700BF60680E
:102A2000B0F5803F08D1E5480838006840F48030B0
:102A3000E249083908601EE06068B0F5A02F0DD1AA
:102A4000DE480838006840F48020DC490839086016
:102A50000846006840F4803008600CE0D748083829
:102A6000006820F48030D5490839086008460068BD
:102A700020F48020086000BF606890B1FFF798FAEA
:102A8000054606E0FFF794FA401B642801D90320AD
:102A90009EE7CA4808380068C0F340400028F1D0DB
:102AA00011E0FFF785FA054606E0FFF781FA401BC3
:102AB000642801D903208BE7C04808380068C0F3B8
:102AC00040400028F1D1207800F0020002285FD1B8
:102AD000BA48006800F00C0058B1B848006800F02F
:102AE0000C0008281CD1B548001F006800F48000C5
:102AF000B0B9B24808380068C0F3400020B1E068BF
:102B0000012801D0012063E7AC480838006820F0B4
:102B1000F800216940EAC100A8490839086037E097
:102B2000E06800B30120A6490860FFF741FA0546B6
:102B300006E0FFF73DFA401B022801D9032047E7D2
:102B40009E4808380068C0F340000028F1D09B4838
:102B50000838006820F0F800216940EAC100974970
:102B60000839086014E0002095490860FFF720FA52
:102B7000054606E0FFF71CFA401B022801D9032096
:102B800026E78E4808380068C0F340000028F1D1DD
:102B9000207800F0080008282CD16069A8B1012035
:102BA00088490860FFF704FA054606E0FFF700FAD7
:102BB000401B022801D903200AE780486C300068D6
:102BC000C0F340000028F1D014E000207D490860E7
:102BD000FFF7EEF9054606E0FFF7EAF9401B022889
:102BE00001D90320F4E675486C300068C0F340005A
:102BF0000028F1D1207800F00400042870D10027CB
:102C00006E483830006800F0805090B900BF002056
:102C100000906A483830006840F080506749383189
:102C200008600846006800F08050009000BF00BFB8
:102C300001276548006800F48070B0B962480068F8
:102C400040F4807060490860FFF7B2F9054606E07D
:102C5000FFF7AEF9401B022801D90320B8E65A4815
:102C6000006800F480700028F2D000BFA06801283E
:102C700008D152486830006840F001004F4968317F
:102C800008601DE0A06805280DD14C486830006838
:102C900040F004004949683108600846006840F087
:102CA000010008600CE045486830006820F0010031
:102CB0004249683108600846006820F00400086056
:102CC00000BFA068A8B1FFF773F9054609E0FFF758
:102CD0006FF9401B41F28831884202D9032077E620
:102CE00026E0364868300068C0F340000028EED087
:102CF00013E0FFF75DF9054608E0FFF759F9401BBF
:102D000041F28831884201D9032061E62B486830BE
:102D10000068C0F340000028EFD1012F07D12748F9
:102D20003830006820F0805024493831086000BFF6
:102D3000A069002850D02148006800F00C00082845
:102D400060D0A069022848D100201D490866FFF71D
:102D50002FF9054606E0FFF72BF9401B022801D9A1
:102D6000032035E6154808380068C0F340600028A5
:102D7000F1D1D4E907010843616A40EA81110122D7
:102D8000A06AC2EB500041EA00412C20005D41EAFC
:102D900000613020005D41EA00700849091F0860A9
:102DA000012007490866FFF703F905460EE0FFF723
:102DB000FFF8401B022809D9032009E60838024021
:102DC00000004742800E47420070004028480068DB
:102DD000C0F340600028EAD048E00020254908669A
:102DE000FFF7E6F8054606E0FFF7E2F8401B022889
:102DF00001D90320ECE51E480068C0F340600028BC
:102E0000F2D133E0A069012800D1E1E51848001DA6
:102E10000668A069012827D006F48001E069814294
:102E200022D106F03F01206A81421DD147F6C070D1
:102E30003040616AB0EB811F16D106F440310122A7
:102E4000A06AC2EB5000B1EB004F0DD106F07061EB
:102E50002C20005DB1EB006F06D106F0E041302080
:102E6000005DB1EB007F01D00120B1E50020AFE5AE
:102E7000003802400000474270470000F8B50446A1
:102E80002068466820688568C5F3801048B905F059
:102E9000010030B1C6F3801018B12046216C88477C
:102EA000F8BDC5F3400030B1C6F3C01018B12046DC
:102EB000616C8847F4E7C5F3401030B9C5F3801062
:102EC00018B9C5F3002000287CD0C6F340100028B4
:102ED0007DD0C5F38010F0B194F8510003280ED0D6
:102EE000606D40F00400606500BF00200090206825
:102EF000C068009020688068009000BF0BE000BFB1
:102F0000002000902068C0680090206880680090D1
:102F100000BF00BFC4E7C5F3401088B1606D40F04A
:102F20000100606500BF002000902068806800906C
:102F30002068006820F040002168086000BF00BFE2
:102F4000C5F3002058B1606D40F00800606500BF17
:102F50000020009020688068009000BF00BF606D76
:102F600078B32068406820F0E000216848600120C4
:102F700084F8510006F00200022802D006F0010099
:102F800008B32068406820F0030021684860E06CC6
:102F900050B11048E16C0865E06CFEF721FD18B1F6
:102FA000606D40F040006065A06C50B10948A16CB4
:102FB0000865A06CFEF714FD18B1606D40F040008C
:102FC000606503E003E02046FFF756FF68E700BFB7
:102FD00066E700000561000810B504460CB9012041
:102FE00010BD606A38B96068B0F5827F00D105E035
:102FF0000021E16102E00021216161610021A16203
:1030000094F8510028B9002084F85000204600F0C0
:1030100047F8022084F851002068006820F0400042
:1030200021680860A08800F48270218901F40441BD
:103030000843A18901F400610843217C01F00201E9
:103040000843217D01F001010843218B01F4007147
:103050000843217F01F0380108432021095D01F078
:1030600080010843218D01F4005108432168086064
:103070000421A06901EA104094F8241001F0100125
:103080000843216848602068C06920F40060216816
:10309000C86100206065012084F8510000209FE78E
:1030A00010B586B00446142101A8FDF753F93A493A
:1030B0002068884231D100BF002000903748006866
:1030C00040F48040354908600846006800F48040BC
:1030D000009000BF00BF00BF002000902F481038B4
:1030E000006840F002002D49103908600846006869
:1030F00000F00200009000BF00BF4FF4704001904C
:1031000002200290002003900320049005200590E7
:1031100001A92348FEF75EFE3CE022492068884270
:1031200038D100BF002000901C48006840F40040E7
:103130001A4908600846006800F40040009000BF8B
:1031400000BF00BF0020009014481038006840F015
:1031500004001249103908600846006800F00400B5
:10316000009000BF00BF4FF4E05001900220029099
:1031700000200390032004900620059001A90A482E
:10318000FEF728FE002205213320FFF769FA3320DD
:10319000FFF756FA06B010BD003800404038024034
:1031A00000040240003C0040000802402DE9FF5F9F
:1031B0000446884691461D460E9E0120029000203E
:1031C000019000BF94F85000012803D1022004B000
:1031D000BDE8F09F012084F8500000BFFEF7E8FE34
:1031E000074694F851B060680390AA46BBF1010FFE
:1031F0000BD00398B0F5827F04D1A06810B9BBF161
:10320000040F02D002200190DBE0B8F1000F03D0E0
:10321000B9F1000F00D015B901200190D1E094F868
:103220005100042802D0052084F851000020606578
:10323000C4F83890E587A587C4F83080E586A58670
:10324000206460642068006800F04000402805D0D9
:103250002068006840F0400021680860E068B0F530
:10326000006F4AD1606810B1BAF1010F09D1206B2B
:1032700000882168C860206B801C2063E08E401E9F
:10328000E08633E02068806800F00200022810D158
:10329000E08E70B1029801280BD1206B0088216864
:1032A000C860206B801C2063E08E401EE0860020FA
:1032B00002902068806800F0010068B1E08F58B18A
:1032C0002068C068A16B0880A06B801CA063E08FA1
:1032D000401EE08701200290FEF76AFEC01BB0424C
:1032E00004D3701C10B1032001906AE0E08E002826
:1032F000C8D1E08F0028C5D14AE0606810B1BAF1AA
:10330000010F09D1206B007821680873206B401CE5
:103310002063E08E401EE08634E02068806800F084
:103320000200022810D1E08E70B1029801280BD162
:10333000206B007821680873206B401C2063E08EAE
:10334000401EE086002002902068806800F00100A6
:1033500068B1E08F58B12068C068A16B0870A06B9D
:10336000401CA063E08F401EE08701200290FEF722
:103370001FFEC01BB04201D3701C00B916B9032058
:1033800001901EE0E08E0028C7D1E08F0028C4D154
:103390003A463146204602F0BFFE20B1012001909E
:1033A000202060650DE0A06850B900BF00200090AB
:1033B0002068C068009020688068009000BF00BF4F
:1033C00000BF012084F8510000BF002084F85000A5
:1033D00000BF0198FBE67047704710B50346002216
:1033E00000BF93F83C00012801D1022010BD01204C
:1033F00083F83C0000BF22F0FF00CC6840EA0402E2
:1034000022F440708C6840EA040222F480604C6828
:1034100040EA040222F400600C6840EA040222F44C
:1034200080500C6940EA040222F400504C6940EAE2
:10343000040222F48040CC6940EA04021868426425
:1034400000BF002083F83C0000BF00BFCEE70000B3
:1034500030B502460B4600BF92F83C00012801D16E
:10346000022030BD012082F83C0000BF022082F81B
:103470003D00106844681068816824F07004186882
:10348000044310684460184D1068A8421BD01068AF
:10349000B0F1804F17D0154D1068A84213D0144DCD
:1034A0001068A8420FD0134D1068A8420BD0124DDF
:1034B0001068A84207D0114D1068A84203D0104DE3
:1034C0001068A84205D121F08001586801431068B6
:1034D0008160012082F83D0000BF002082F83C009E
:1034E00000BF00BFBDE70000000001400004004035
:1034F00000080040000C0040000401400040014072
:103500000018004010B504460CB9012010BD94F815
:103510003D0028B9002084F83C00204600F026F841
:10352000022084F83D00211D206802F057FF012091
:1035300084F8460000BF84F83E0001213F20015579
:10354000402001554120015500BF00BF012084F8F3
:10355000420043200155442001554520015500BF3C
:10356000012084F83D000020D0E7000010B586B0AF
:103570000446142101A8FCF7EDFE2D49206888427D
:1035800037D100BF002000902A48006840F00200B8
:10359000284908600846006800F00200009000BF5B
:1035A00000BF00BF0020009022481038006840F0A3
:1035B00004002049103908600846006800F0040043
:1035C000009000BF00BF88150190022002900020EB
:1035D000039004900220059001A91748FEF7FAFB1A
:1035E000002206211D20FFF73BF81D20FFF728F8D9
:1035F0001BE012492068884217D100BF00200090CC
:103600000C48006840F080000A49086008460068DD
:1036100000F08000009000BF00BF002205212C2098
:10362000FFF71EF82C20FFF70BF806B010BD0000C6
:10363000000400404038024000080240001C0040E6
:10364000014691F83D00012801D001207047022079
:1036500081F83D000868C06840F001000B68D86040
:103660001A4B086898421BD00868B0F1804F17D0F9
:10367000174B0868984213D0164B086898420FD031
:10368000154B086898420BD0144B0868984207D035
:10369000134B0868984203D0124B086898420CD12B
:1036A0000868806800F00702062A0CD008680068E5
:1036B00040F001000B68186005E00868006840F001
:1036C00001000B6818600020C0E700000000014006
:1036D0000004004000080040000C004000040140CD
:1036E000004001400018004001460868C06820F012
:1036F00001000A68D06000BF0868006A41F2111238
:10370000104050B90868006A9210104028B9086843
:10371000006820F001000A68106000BF012081F8F5
:103720003D00002070472DE9F04104460D4600277A
:1037300000BF94F83C00012802D10220BDE8F081CE
:10374000012084F83C0000BF022084F83D0020687E
:10375000866826F0770626F47F462068866028680B
:10376000502833D00CDC202850D004DC00284BD06B
:10377000102851D149E0302849D040284CD139E0B7
:1037800060282DD0702807D0B0F5805F03D0B0F549
:10379000005F41D10DE041E0D5E902136A6820687D
:1037A00002F099FE2068866846F0770620688660F9
:1037B00034E0D5E902136A68206802F08CFE2068C4
:1037C000806840F480402168886027E0EA68696882
:1037D000206802F071FF5021206802F087FE1DE092
:1037E000EA686968206802F0C3FF6021206802F07F
:1037F0007DFE13E0EA686968206802F05DFF402101
:10380000206802F073FE09E000BF00BF00BF296816
:10381000206802F06BFE01E0012700BF00BF01201D
:1038200084F83D0000BF002084F83C0000BF38460B
:1038300084E72DE9F04104460D4614B90120BDE8A6
:10384000F08194F83D0028B9002084F83C0020461F
:1038500000F054F8022084F83D002068806844F2AB
:103860000701884321688860211D206802F0B6FDA9
:103870002068D0F80880206886692068076A286870
:1038800040EA080840F203308643A969A86840EA84
:103890000120064340F60C4086434FF2F000864379
:1038A000E969E86840EA0120064328690001296ABD
:1038B00040EA0130064327F0220727F088076969AC
:1038C000686840EA011007432068C0F80880206853
:1038D000866120680762012084F8460084F83E0073
:1038E00001213F200155012084F842004320015569
:1038F000012084F83D000020A1E7000010B586B04B
:103900000446142101A8FCF725FD2068B0F1804F82
:1039100037D100BF002000901B48006840F0010034
:10392000194908600846006800F00100009000BFD7
:1039300000BF00BF0020009013481038006840F01E
:1039400001001149103908600846006800F00100C4
:10395000009000BF00BF03200190022002900120D0
:103960000390002004900120059001A90748FEF76C
:1039700031FA002205211C20FEF772FE1C20FEF702
:103980005FFE06B010BD000040380240000002405B
:103990002DE9F04304460D4694F83E603F20075D54
:1039A00094F84280432010F804906DB9012E02D1A2
:1039B000B8F1010F02D00120BDE8F083022084F8A5
:1039C0003E0084F8420025E0042D0CD1012F02D1E5
:1039D000B9F1010F01D00120EEE702213F2001558E
:1039E0004320015516E0012E07D1012F05D1B8F172
:1039F000010F02D1B9F1010F01D00120DCE7022053
:103A000084F83E0002213F200155022084F8420044
:103A10004320015515B1042D0CD105E001220021F0
:103A2000206802F047FD10E001220421206802F026
:103A300041FD0AE001220021206802F03BFD012245
:103A40000421206802F036FD00BF00BF2068006836
:103A500040F00100216808600020ADE770472DE9C3
:103A6000F04104460D461646002700BF94F83C007E
:103A7000012802D10220BDE8F081012084F83C0039
:103A800000BF96B9EB68D5E90012206802F028FE65
:103A90002068806920F00C002168886120688069B6
:103AA000A96808432168886141E0042E13D1EB68BE
:103AB000D5E90012206802F06FFE2068806920F4CA
:103AC00040602168886120688069A96840EA012017
:103AD000216888612BE0082E12D1EB68D5E900122D
:103AE000206802F076FE2068C06920F00C00216892
:103AF000C8612068C069A96808432168C86116E0E8
:103B00000C2E13D1EB68D5E90012206802F07DFE7F
:103B10002068C06920F440602168C8612068C069DD
:103B2000A96840EA01202168C86100E0012700BFC0
:103B3000002084F83C0000BF38469CE710B50446DE
:103B40000CB9012010BD94F83D0028B9002084F87C
:103B50003C00204600F025F8022084F83D00211D9D
:103B6000206802F03BFC012084F8460000BF84F886
:103B70003E0001213F2001554020015541200155C3
:103B800000BF00BF012084F84200432001554420BB
:103B900001554520015500BF012084F83D0000205B
:103BA000D0E7704710B5044620680069C0F34000B4
:103BB000D8B12068C068C0F34000B0B16FF0020017
:103BC00021680861012020772068806900F00300E7
:103BD00018B12046FFF742FF05E0204600F0E0F86C
:103BE000204600F0CFF90020207720680069C0F35C
:103BF0008000D8B12068C068C0F38000B0B16FF019
:103C0000040021680861022020772068806900F4A0
:103C1000407018B12046FFF721FF05E0204600F074
:103C2000BFF8204600F0AEF9002020772068006938
:103C3000C0F3C000D8B12068C068C0F3C000B0B104
:103C40006FF0080021680861042020772068C069AF
:103C500000F0030018B12046FFF700FF05E0204602
:103C600000F09EF8204600F08DF9002020772068B3
:103C70000069C0F30010D8B12068C068C0F300101C
:103C8000B0B16FF01000216808610820207720682B
:103C9000C06900F4407018B12046FFF7DFFE05E070
:103CA000204600F07DF8204600F06CF900202077D7
:103CB0002068006900F0010058B12068C06800F079
:103CC000010030B16FF0010021680861204600F06A
:103CD00089FA20680069C0F3C01058B12068C06834
:103CE000C0F3C01030B16FF0800021680861204639
:103CF000FFF771FB20680069C0F3801058B120689D
:103D0000C068C0F3801030B16FF0400021680861D6
:103D1000204600F0D9FA20680069C0F3401058B17D
:103D20002068C068C0F3401030B16FF020002168F7
:103D300008612046FFF750FB10BD000010B586B0AB
:103D40000446142101A8FCF705FB124920688842AB
:103D50001DD100BF002000900F48006840F0040013
:103D60000D4908600846006800F00400009000BF9C
:103D700000BF40200190022002900020039002200A
:103D800004900320059001A90448FEF723F806B02B
:103D900010BD00000004014030380240000802401D
:103DA00070472DE9F04104460D461646002700BF36
:103DB00094F83C00012802D10220BDE8F0810120E6
:103DC00084F83C0000BF36B1042E1BD0082E31D041
:103DD0000C2E5ED145E02946206802F091FB206858
:103DE000806940F00800216888612068806920F0BF
:103DF0000400216888612068806929690843216876
:103E0000886148E02946206802F0B2FB206880699A
:103E100040F40060216888612068806920F4806037
:103E20002168886120688069296940EA0120216849
:103E3000886130E02946206802F0D8FB2068C0691C
:103E400040F008002168C8612068C06920F00400C3
:103E50002168C8612068C069296908432168C86170
:103E600019E02946206802F0FDFB2068C06940F493
:103E700000602168C8612068C06920F48060216802
:103E8000C8612068C069296940EA01202168C861C9
:103E900001E0012700BF00BF00BF002084F83C0004
:103EA00000BF384689E710B504460CB9012010BDA3
:103EB00094F83D0028B9002084F83C00204600F02A
:103EC00025F8022084F83D00211D206802F086FAC2
:103ED000012084F8460000BF84F83E0001213F2005
:103EE0000155402001554120015500BF00BF012070
:103EF00084F84200432001554420015545200155D6
:103F000000BF012084F83D000020D0E738B504460A
:103F10001A49206888422FD100BF0020009018481D
:103F2000006840F00200164908600846006800F08A
:103F30000200009000BF00BF002205212B20FEF7E9
:103F40008FFB2B20FEF77CFB002205212C20FEF7A7
:103F500087FB2C20FEF774FB002205212D20FEF7A5
:103F60007FFB2D20FEF76CFB002205212E20FEF7A3
:103F700077FB2E20FEF764FB38BD000000040140F3
:103F80004438024070470000F0B504460D46002654
:103F900015B994F83E000BE0042D02D13F20005DDE
:103FA00006E0082D02D14020005D01E04120005DC7
:103FB000012801D00120F0BD1DB9022084F83E0087
:103FC0000EE0042D03D102213F20015508E0082D09
:103FD00003D102214020015502E002214120015578
:103FE00035B1042D0BD0082D10D00C2D1CD114E0B0
:103FF0002068C06840F002002168C86016E02068B0
:10400000C06840F004002168C8600FE02068C06804
:1040100040F008002168C86008E02068C06840F0EF
:1040200010002168C86001E0012600BF00BFEEBBA0
:1040300001222946206802F03DFA2449206888427E
:1040400003D023492068884201D1012000E00020EC
:1040500028B12068406C40F40040216848641B4946
:10406000206888421BD02068B0F1804F17D01949D2
:104070002068884213D01849206888420FD0174919
:10408000206888420BD012492068884207D0144922
:104090002068884203D01349206888420ED12068E6
:1040A000806800F00707062F0ED000E00CE02068C3
:1040B000006840F001002168086005E020680068A1
:1040C00040F0010021680860304674E700000140BC
:1040D000000401400004004000080040000C0040C3
:1040E000004001400018004070B504460D4600260F
:1040F00035B1042D0BD0082D10D00C2D1CD114E09F
:104100002068C06820F002002168C86016E02068BE
:10411000C06820F004002168C8600FE02068C06813
:1041200020F008002168C86008E02068C06820F01E
:1041300010002168C86001E0012600BF00BF002E0A
:104140004AD100222946206802F0B4F923492068A8
:10415000884203D022492068884201D1012000E032
:10416000002090B100BF2068006A41F211110840A0
:1041700050B92068006A8910084028B92068406C4E
:1041800020F400402168486400BF00BF2068006A36
:1041900041F21111084050B92068006A89100840A6
:1041A00028B92068006820F001002168086000BF7D
:1041B0001DB9012084F83E000EE0042D03D1012139
:1041C0003F20015508E0082D03D101214020015571
:1041D00002E0012141200155304670BD0000014040
:1041E0000004014010B504462A492068884202D1E3
:1041F000FEF782F94DE028492068884203D101206A
:104200002649087045E02068B0F1804F20D124484D
:104210000068406A42F21071884206D22148008943
:10422000401C00B21F4908810CE01D480068406A2C
:1042300042F21071884205D91A480089401E00B226
:104240001849088142F2107015490968486220E057
:1042500015492068884210D114480078012818D1E7
:1042600000211348FFF740FF012280211148FDF78C
:1042700099FE0020104908700BE010492068884220
:1042800007D1002240210E48FDF78CFE0D48FFF7B4
:104290002BFA10BD00000140000400402100002066
:1042A000C8020020AC010020000401401E000020D4
:1042B00058030020000802401F000020001C00409E
:1042C00000000240A00300207047704770470000C4
:1042D0002DE9F84F0446206805682068C668206804
:1042E00047694FF00009CA4605F00F09B9F1000F00
:1042F0000AD105F0200038B106F0200020B1204698
:1043000002F040FBBDE8F88FB9F1000F7CD007F058
:10431000010018B906F49070002875D005F001006E
:1043200030B106F4807018B1206C40F001002064B8
:1043300005F0040030B107F0010018B1206C40F026
:104340000200206405F0020030B107F0010018B14E
:10435000206C40F00400206405F0080048B106F02D
:10436000200010B907F0010018B1206C40F00800DF
:104370002064206C002846D005F0200028B106F00B
:10438000200010B1204602F0FDFA20684069C0F319
:10439000801A206C00F0080010B9BAF1000F2DD07F
:1043A000204602F0A9FA2068406900F04000402849
:1043B00020D100BF00BF2168143151E8001F21F057
:1043C00040002168143141E80002002AF3D100BF07
:1043D000A06B50B17548A16B0865A06BFDF700FBA1
:1043E00088B1A06B016D88470DE02046FFF76EFF96
:1043F00009E009E02046FFF769FF04E02046FFF7E7
:1044000065FF002020647DE7206B012876D105F050
:104410001000002872D006F010000028FAD000BF6B
:10442000002000902068006800902068406800909C
:1044300000BF00BF2068406900F0400040285ED106
:10444000A06B006840681FFA80F8B8F1000F54D0E4
:10445000A08D404551DDA4F82E80A06BC069B0F559
:10446000807F43D000BF00BF21680C3151E8001F9E
:1044700021F4807021680C3141E80002002AF3D158
:1044800000BF00BF00BF2168143151E8001F21F0B8
:1044900001002168143141E80002002AF3D100BF75
:1044A00000BF00BF2168143151E8001F21F0400017
:1044B0002168143141E80002002AF3D100BF202016
:1044C00084F83E000020206300BF00BF21680C314B
:1044D00051E8001F21F0100021680C3141E8000272
:1044E000002AF3D100BFA06BFDF724FAA08DE28D66
:1044F000801A81B22046FFF7E8FE03E740E0A08D76
:10450000E18D401A1FFA80F8E08DC0B3B8F1000FBA
:1045100035D000BF00BF21680C3151E8001F21F4E5
:10452000907021680C3141E80002002AF3D100BFED
:1045300000BF00BF2168143151E8001F21F00100C5
:104540002168143141E80002002AF3D100BF202085
:1045500084F83E000020206300BF00BF21680C31BA
:1045600051E8001F21F0100021680C3141E80002E1
:10457000002AF3D100BF41462046FFF7A6FEC1E660
:1045800005F0800030B106F0800018B1204602F03E
:10459000B0FBB7E605F0400030B106F0400018B1BE
:1045A000204602F0DFF9ADE600BFABE6E5680008A3
:1045B00010B504460CB9012010BDA06900B100E09F
:1045C00000BF94F83D0028B9002084F83C00204644
:1045D00000F028F8242084F83D002068C06820F40A
:1045E00000502168C860204602F048FA206800693F
:1045F00020F49040216808612068406920F02A007A
:10460000216848612068C06840F400502168C86093
:1046100000202064202084F83D0084F83E00002023
:10462000CAE7000010B586B00446142101A8FBF7C4
:1046300091FE7B492068884276D100BF002000901F
:104640007848006840F01000764908600846006825
:1046500000F01000009000BF00BF00BF00200090DD
:1046600070481438006840F001006E491439086041
:104670000846006800F00100009000BF00BF4FF442
:10468000C06001900220029000200390032004905B
:104690000720059001A96448FDF79CFB6348644925
:1046A00008604FF000604860002161488160C1608F
:1046B0004FF480610161002141618161C16101624A
:1046C0004162FDF7C5FA08B1FCF77CFF00BF58480E
:1046D000A063846300BF55487830564908604FF0A6
:1046E000006048604021534881600021C1604FF460
:1046F00080610161002141618161C16101624162AA
:10470000FDF7A6FA08B1FCF75DFF00BF49486063FA
:10471000846300BF002205212520FDF7A1FF25208D
:10472000FDF78EFF7AE0FFE743492068884275D1A4
:1047300000BF002000903B48001F006840F400309C
:104740003849091F08600846006800F400300090EE
:1047500000BF00BF00BF002000903248143800683E
:1047600040F001002F49143908600846006800F045
:104770000100009000BF00BF0C20019002200290B9
:1047800000200390032004900720059001A92648EB
:10479000FDF720FB29482A4908604FF00060486077
:1047A000002127488160C1604FF4806101610021D0
:1047B00041618161C16101624162FDF749FA08B15D
:1047C000FCF700FF00BF1E48A063846300BF1B48C6
:1047D00018301C4908604FF00060486040211948BB
:1047E00081600021C1604FF480610161002141615D
:1047F0008161C16101624162FDF72AFA08B1FCF7EB
:10480000E1FE00BF0F486063846300BF0022052102
:104810002620FDF725FF2620FDF712FF06B010BD6C
:104820000010014044380240000002404064024051
:1048300070040020D0040020004400408860024042
:10484000300500209005002070B504460D46164640
:1048500094F83E00202816D105B10EB9012070BD94
:1048600000BF94F83C00012801D10220F7E70120A5
:1048700084F83C0000BF00202063324629462046D1
:1048800002F012FAEBE70220E9E7000010B5044657
:1048900006492068884208D10549087805F09CFB44
:1048A000012203490348FFF7CFFF10BD0044004039
:1048B000250100202C0400202DE9F84F04460E4667
:1048C000174699464FF0000A94F83D0020285AD127
:1048D00006B117B90120BDE8F88F00BF94F83C007D
:1048E000012801D10220F6E7012084F83C0000BF36
:1048F00000202064212084F83D00FDF759FB82460A
:10490000A784E784A068B0F5805F04D1206910B95E
:104910000025B04602E035464FF0000800BF0020F9
:1049200084F83C0000BF1BE0534600228021204653
:10493000CDF8009002F00DFA08B10320CBE745B99D
:10494000B8F80000C0F308002168486008F10208C8
:1049500003E02878216848606D1CE08C401EE084EC
:10496000E08C0028E0D15346002240212046CDF8BB
:10497000009002F0EEF908B10320ACE7202084F8A3
:104980003D000020A7E70220A5E710B5034693F8F5
:104990003D00202823D101B10AB9012010BD00BF7C
:1049A00093F83C00012801D10220F7E7012083F8A9
:1049B0003C0000BF19629A84DA8400201864212028
:1049C00083F83D0000BF002083F83C0000BF18685A
:1049D000C06840F080001C68E0600020DEE7022034
:1049E000DCE7704700BFFEE710B50248FDF7E8FAC4
:1049F00010BD0000C401002010B50248FDF74AFBBD
:104A000010BD0000C4010020C16AB1F52A0F02D117
:104A10000121C16205E0C16AB1F12A4F01D108212B
:104A2000C1627047F8B5054600200090AC6B94F861
:104A30003D60394800681921B0FBF1F04FF47A71FC
:104A4000B0FBF1F0C0EBC00000EB8000009000BFB5
:104A5000009820B9206C40F02000206409E0009804
:104A6000401E00902068006800F40070B0F5007FE0
:104A7000EED000BF606B10B10020616BC863A06B0B
:104A800010B10020A16BC8632068006820F480602A
:104A90002168086000206085606B10B10020616BA8
:104AA0000865A06B10B10020A16B08652068006844
:104AB00020F001002168086094F83D0060280AD1C8
:104AC000202084F83D00002084F83E002064204629
:104AD000FDF774FA1EE006F02800282811D120689E
:104AE000006840F00100216808602068006840F418
:104AF00080602168086000202063282084F83D0041
:104B000005E0202084F83D00002084F83E00204687
:104B1000FDF7ADFBF8BD0000600000202DE9F0417D
:104B2000044694F83D6094F83E70102F01D0402F59
:104B300007D1222E05D12068006820F4006021688A
:104B4000086006F02800282805D1002020632820CE
:104B500084F83D0010E02068406800F40060B0F583
:104B6000006F07D0602E05D0202084F83D00002083
:104B700084F83E00002020632068406800F4006054
:104B8000B0F5006F40D12068406820F400602168D3
:104B90004860606B90F83500012814D04848616B7C
:104BA0000865606BFCF71CFF00285BD0206800687C
:104BB00020F0010021680860202084F83D00606B2F
:104BC000016D88474EE03E48A16B0865A06BFCF77D
:104BD00007FF002846D020684069C0F3801030B13C
:104BE00020680069616A0870606A401C6062206821
:104BF000006820F0010021680860202084F83D0052
:104C0000A06B016D88472DE094F83D0060281AD113
:104C1000202084F83D000020206420684069C0F313
:104C2000801030B120680069616A0870606A401CB9
:104C300060622068006820F001002168086020465A
:104C4000FDF7BCF90EE020684069C0F3801030B178
:104C500020680069616A0870606A401C60622046D2
:104C6000FDF705FB256C05F0010058B905F00200C1
:104C7000022807D005F00400042803D005F008003E
:104C8000082805D12068406820F4E0602168486069
:104C900094F83D60206C00F0040004280ED1282E0A
:104CA0000CD10848E06200202063202084F83D00F9
:104CB000002084F83E002046FDF7C2FBBDE8F081ED
:104CC000254A00080000FFFF70B50446E56A608DC4
:104CD000042810D12068406820F480602168486072
:104CE00020680069616A0870606A401C6062608DBB
:104CF000401E60857AE0608D03281AD120684068E4
:104D000020F4806021684860042D07D0022D05D072
:104D10002068006820F480602168086020680069CD
:104D2000616A0870606A401C6062608D401E608528
:104D30005CE0608D02284FD1012D01D0102D06D1ED
:104D40002068006820F480602168086012E0042D6B
:104D500001D0022D06D12068006840F480602168EF
:104D6000086007E0102D05D02068006840F400704E
:104D70002168086020680069616A0870606A401CE8
:104D80006062608D401E608520680069616A0870FD
:104D9000606A401C6062608D401E608520684068CB
:104DA00020F4407021684860202084F83D0094F889
:104DB0003E00402807D1002084F83E0020632046B2
:104DC000FDF741FB12E0002084F83E001220206332
:104DD0002046FDF736FB09E020680069616A08702B
:104DE000606A401C6062608D401E608570BD70B559
:104DF000044694F83D00222870D1658D032D13D907
:104E000020680069616A0870606A401C6062608D99
:104E1000401E6085608D03285FD12068406820F4C3
:104E200080602168486058E0E06A02284FD0012D78
:104E300001D0002D4BD1204600F0B2FC68BB2068A9
:104E4000006820F48060216808602068406820F4D1
:104E5000E0602168486020680069616A0870606AE3
:104E6000401C6062608D401E6085202084F83D00FB
:104E700094F83E00402807D1002084F83E002063CB
:104E80002046FDF7E0FA28E0002084F83E001220DA
:104E900020632046FDF7D5FA1FE02068406820F423
:104EA000E0602168486020680069616A0870606A93
:104EB000401C6062608D401E6085202084F83D00AB
:104EC000002084F83E002046FDF7D1F905E0206877
:104ED000406820F480602168486000BF70BD70B5F4
:104EE0000446E56A94F83D00212847D1608D50B111
:104EF000606A007821680861606A401C6062608DA9
:104F0000401E60853AE0082D16D0202D14D015F5EE
:104F1000803F11D02068406820F4E060216848603C
:104F200011202063002084F83E00202084F83D00FA
:104F30002046FDF787FA21E02068406820F4E06011
:104F4000216848602068006840F4007021680860AB
:104F500000202063202084F83D0094F83E00402883
:104F600006D1002084F83E002046FDF76DFA05E0EA
:104F7000002084F83E002046FDF764FA70BD2DE95C
:104F8000F041044694F83D5094F83E70E66A208D56
:104F9000B0BB212D3CD1082E16D0202E14D016F5F2
:104FA000803F11D02068406820F4E06021684860AC
:104FB00011202063002084F83E00202084F83D006A
:104FC0002046FDF73FFA44E02068406820F4E060A6
:104FD000216848602068006840F40070216808601B
:104FE00000202063202084F83D0094F83E004028F3
:104FF00007D1002084F83E002046FDF725FA28E07E
:1050000006E0002084F83E002046FDF71BFA20E071
:10501000212D03D0402F1CD1222D1AD1608D30B903
:105020002068406820F480602168486011E094F8AE
:105030003E00402803D1204600F0A5F909E0606A4F
:10504000007821680861606A401C6062608D401EC3
:105050006085BDE8F081416CC9B202681161416BA5
:1050600011B1416BC96B21B9816B41B1816BC96BC6
:1050700029B10168496841F40061026851607047D4
:1050800038B590F83E20C16A036B90F83D40222C61
:1050900073D1046D64B9402A0AD100BF0024009482
:1050A0000468646900940468A469009400BF1AE16C
:1050B000046DC4B90469B4F5404F14D100BF002495
:1050C00000940468646900940468A469009400BFB3
:1050D00000BF0468246844F4807405682C60046D83
:1050E000641C0465FFE0448D8CB900BF002400946B
:1050F0000468646900940468A469009400BF00BF58
:105100000468246844F4007405682C60DDE0448D74
:10511000012C72D111F5803F30D10468246824F449
:10512000806405682C600468646804F40064B4F565
:10513000006F10D10468246824F4806405682C6032
:1051400000BF002400940468646900940468A469A2
:10515000009400BFB9E000BF0024009404686469B3
:1051600000940468A469009400BF00BF0468246828
:1051700044F4007405682C60A7E0A9E0082923D056
:10518000202921D0122B01D101291DD104290AD0B7
:10519000022908D0102906D00468246824F4806409
:1051A00005682C6005E00468246844F480640568A0
:1051B0002C6000BF002400940468646900940468B3
:1051C000A469009400BF80E00468246824F480642B
:1051D00005682C6000BF0024009404686469009492
:1051E0000468A469009400BF00BF0468246844F404
:1051F000007405682C6068E0FFE7448D022C3BD109
:10520000042910D002290ED010290CD0046824687B
:1052100024F4806405682C600468246844F4006405
:1052200005682C6005E00468246844F4806405681F
:105230002C600468646804F40064B4F5006F10D155
:1052400011F5803F07D0012905D0082903D0102986
:1052500001D0202905D10468646844F480540568AD
:105260006C6000BF002400940468646900940468C2
:10527000A469009400BF28E00468246844F48064B2
:1052800005682C600468646804F40064B4F5006F79
:1052900010D111F5803F07D0012905D0082903D08E
:1052A000102901D0202905D10468646844F4805491
:1052B00005686C6000BF0024009404686469009471
:1052C0000468A469009400BF00BF002404650AE0DC
:1052D00000BF002400940468646900940468A46911
:1052E000009400BF00BF38BD90F83E1040290ED199
:1052F000016D29B9416C01F0FE010268116141E0C4
:10530000416CC9B241F00101026811613AE00169E2
:10531000B1F5804F20D190F83D10212905D1416C85
:1053200001F0FE010268116105E0416CC9B241F073
:10533000010102681161416B11B1416BC96B21B967
:10534000816BF9B1816BC96BE1B10168496841F4C6
:1053500000610268516015E0016D41B9416C01F4D2
:105360004071F02242EAE111026811610AE0016D28
:10537000012907D1416C01F44071F12242EAE111A7
:1053800002681161704770B5044694F83D50206D75
:1053900098B9E06C012807D1A06CC0B221680861FF
:1053A000206D801C20654CE0A06CC0F307202168B4
:1053B0000861206D401C206543E0206D012807D165
:1053C000A06CC0B221680861206D401C206538E0E7
:1053D000206D022835D1222D09D12068006840F4C3
:1053E000807021680860206D401C206529E0608D78
:1053F00060B1212D0AD1606A007821680861606A75
:10540000401C6062608D401E60851AE0608DC0B9EE
:10541000212D16D12068406820F4E06021684860A2
:105420002068006840F40070216808600020206354
:10543000202084F83D00002084F83E002046FDF73F
:1054400003F870BD418D49B101680969426A117064
:10545000416A491C4162418D491E4185704770B5C2
:10546000044694F83D50608DD8B120680069616AA7
:105470000870606A401C6062608D401E6085608DAF
:1054800078B92A2D0DD12068406820F48060216809
:10549000486022202063282084F83D002046FDF744
:1054A00029F870BD418D49B1416A097802681161DE
:1054B000416A491C4162418D491E4185704770B562
:1054C000044694F83D50608DD8B1606A0078216838
:1054D0000861606A401C6062608D401E6085608D5E
:1054E00078B9292D0DD12068406820F480602168AA
:1054F000486021202063282084F83D002046FCF7E6
:10550000FAFF70BDF8B504460D46002794F83D003B
:1055100000F0280028281CD12068406820F4806012
:1055200021684860C5F3800000B90127C5F3C010A9
:1055300010B9A08986B201E0208B86B200BF00209E
:1055400084F83C0000BF324639462046FCF737FD60
:105550000FE000BF002000902068406900902068A4
:105560008069009000BF00BF00BF002084F83C00AD
:1055700000BFF8BD70B5044694F83D50E66A082EA9
:1055800001D0202E1FD1282D1DD12148E062206896
:10559000406820F4E060216848606FF48060216812
:1055A00048612068006820F480602168086000205D
:1055B0002063202084F83D00002084F83E0020462F
:1055C000FCF73EFF23E0212D1DD11148E062212090
:1055D0002063202084F83D00002084F83E002068ED
:1055E000406820F4E060216848606FF480602168C2
:1055F00048612068006820F48060216808602046C7
:10560000FCF779FF03E06FF480602168486170BDAA
:105610000000FFFF38B5044694F83D50206840680C
:1056200020F4E0602168486000BF002000902068FE
:10563000406900902068006840F00100216808601F
:1056400000BF00BF2068006820F480602168086007
:105650002068406800F40060B0F5006F42D1222D50
:1056600001D02A2D1FD1A06B006840686085608D35
:1056700018B1206C40F0040020642068406820F4D9
:10568000006021684860A06BFCF7BEF9012829D0B2
:105690004148A16B0865A06BFCF7A2F910B3A06BA1
:1056A000016D88471EE0606B006840686085608D12
:1056B00018B1206C40F0040020642068406820F499
:1056C000006021684860606BFCF79EF9012809D0F2
:1056D0003148616B0865606BFCF782F910B1606B53
:1056E000016D8847608D18B320684069C0F3800061
:1056F00048B120680069616A0870606A401C606295
:10570000608D401E608520684069C0F3801048B1FC
:1057100020680069616A0870606A401C6062608D80
:10572000401E6085608D18B1206C40F0040020643C
:10573000206C18B12046FFF7F1F92BE02A2D07D194
:1057400000202063282084F83D002046FCF7D2FE8C
:1057500094F83D0028280DD11048E0620020206315
:10576000202084F83D00002084F83E002046FCF70D
:1057700067FE0FE0206B222801D0222D0AD10020E5
:105780002063202084F83D00002084F83E0020465D
:10579000FCF7B0FE38BD0000254A00080000FFFFFE
:1057A00008B5014600200090104800681922B0FB9F
:1057B000F2F04FF47A72B0FBF2F000EB8000009050
:1057C00000BF0098401E0090009828B9086C40F077
:1057D00020000864012008BD0868006800F400701B
:1057E000B0F5007FEDD00020F5E70000600000205C
:1057F00008B500BF002000901E48006840F400106B
:105800001C4908600846006800F40010009000BFC2
:1058100000BF00BF002000900846006840F48000F0
:1058200008600846006800F48000009000BF00BFD8
:10583000002205211020FCF713FF1020FCF700FFC9
:10584000002205211120FCF70BFF1120FCF7F8FEC8
:10585000002205213A20FCF703FF3A20FCF7F0FE76
:10586000002205214620FCF7FBFE4620FCF7E8FE5F
:1058700008BD00003038024010B5234A0121052040
:1058800002F0B2FC21490860214A0021214802F0BF
:105890003BFD21490860214A0021214802F034FDE6
:1058A00020490860204A0021204802F02DFD2049AF
:1058B0000860204A0021204802F026FD1F490860A8
:1058C0001F4A00211F4802F01FFD1F4908601F4AA0
:1058D00000211F4802F018FD1E4908601E4A0021E1
:1058E0001E4802F011FD1E4908601E4A14210520C1
:1058F00002F07AFC1C4908601C4A1421052002F0C1
:1059000073FC1B49086010BDFCAE00083400002089
:10591000B4AE0008756200082C000020D8AE000864
:105920007F6200083000002014AF0008CD15000889
:105930003800002038AF0008A91400083C000020FF
:105940005CAF0008ED0900084000002080AF0008AF
:10595000A960000844000020A4AF00085D620008B0
:1059600048000020C8AF00084C000020E0AF00084D
:105970005000002000B587B0142102A8FAF7EAFC15
:1059800000BF002001907148006840F080006F491E
:1059900008600846006800F08000019000BF00BF6A
:1059A00000BF002001900846006840F00400086035
:1059B0000846006800F00400019000BF00BF00BF6F
:1059C000002001900846006840F001000860084689
:1059D000006800F00100019000BF00BF00BF002080
:1059E00001900846006840F0020008600846006820
:1059F00000F00200019000BF00BF00BF0020019036
:105A00000846006840F0080008600846006800F09A
:105A10000800019000BF00BF002240F29A214C48CC
:105A2000FCF7C0FA002250214A48FCF7BBFA0022DA
:105A300040F227414848FCF7B5FA002204214748C4
:105A4000FCF7B0FA0220029001200390049000209D
:105A5000059002A93E48FCF7BDF9242002900020E1
:105A60000390049002A93A48FCF7B4F94FF4067089
:105A700002900120039000200490059002A9344870
:105A8000FCF7A8F910200290012003900020049058
:105A9000059002A92F48FCF79DF9402002900120B3
:105AA0000390022004900020059002A92948FCF7E9
:105AB00091F940F2014002900120039004900020EF
:105AC000059002A92448FCF785F9262002900120C0
:105AD000039000200490059002A91F48FCF77AF972
