:020000040800F2
:10000000205200209D0200081336000855270008E2
:1000100011360008CD030008014000080000000070
:10002000000000000000000000000000DD010008EA
:100030007D0400080000000039020008353900087E
:10004000B7020008B7020008B7020008B7020008AC
:10005000B7020008B7020008B7020008B70200089C
:10006000B7020008B7020008B7020008B70200088C
:10007000B7020008B7020008B7020008B70200087C
:10008000D1030008DD030008B7020008B70200082A
:10009000B7020008B7020008B7020008B70200085C
:1000A000B7020008F1390008B7020008B7020008DB
:1000B000FD390008093A0008B70200086527000862
:1000C00059270008B7020008B7020008B702000865
:1000D000B7020008E93F0008F53F0008B702000832
:1000E000B7020008B7020008B7020008153A000876
:1000F000393A00082D3A0008213A0008B7020008F2
:1001000000000000B7020008B7020008D13700085D
:100110000000000000000000B7020008B70200085D
:10012000B7020008B7020008E9030008B702000898
:10013000B7020008B7020008B7020008B7020008BB
:10014000B7020008B7020008B7020008B7020008AB
:10015000B7020008B7020008F5030008B70200085C
:10016000B7020008B702000800000000000000000D
:10017000000000000000000000000000000000007F
:10018000B7020008B70200080000000000000000ED
:10019000B7020008B70200080000000000000000DD
:1001A000000000000000000000000000000000004F
:1001B000B70200080000000000000000B7020008BD
:1001C000B7020008DFF810D000F0EEF80048004752
:1001D000F9440008AFF30080205200202C4B19682E
:1001E0000868B0E8F04F80F30988BFF36F8F4FF0D5
:1001F000000080F311887047000000000848006884
:10020000006880F308884FF0000080F3148862B61D
:1002100061B6BFF34F8FBFF36F8F00DF00BF00BF2A
:1002200008ED00E0DFF80C00016841F470010160A6
:10023000704700BF88ED00E0EFF30980BFF36F8FD8
:10024000134B1A681EF0100F08BF20ED108A20E92A
:10025000F04F106009B44FF0500080F31188BFF3E5
:100260004F8FBFF36F8F05F099F84FF0000080F3C8
:10027000118809BC19680868B0E8F04F1EF0100F2B
:1002800008BFB0EC108A80F30988BFF36F8F704706
:1002900044000020EFF305807047000006488047C7
:1002A00006480047FEE7FEE7FEE7FEE7FEE7FEE75B
:1002B000FEE7FEE7FEE7FEE7E1390008C5010008BA
:1002C0002DE9F05F0546002092469B46884606468B
:1002D000814640241BE0284641464746224600F01E
:1002E00053F853465A46C01A914110D31146184646
:1002F000224600F03AF82D1A67EB01084F462246D5
:100300000120002100F031F817EB00094E41201EBA
:10031000A4F10104DFDC484631462A464346BDE8E5
:10032000F09F40EA01039B0703D009E008C9121FB0
:1003300008C0042AFAD203E011F8013B00F8013B9F
:10034000521EF9D27047D2B201E000F8012B491ECB
:10035000FBD270470022F6E710B513460A46044662
:100360001946FFF7F0FF204610BD202A04DB203A93
:1003700000FA02F1002070479140C2F1200320FAF8
:1003800003F3194390407047202A04DB203A21FAF6
:1003900002F00021704721FA02F3D040C2F120029E
:1003A0009140084319467047064C074D06E0E06847
:1003B00040F0010394E8070098471034AC42F6D3AC
:1003C000FFF704FF4064000860640008FEE70000D7
:1003D000014800F0FFB8000020040020014800F0B0
:1003E000F9B8000080040020014800F0F3B80000D4
:1003F00060030020014800F0EDB80000C0030020B9
:1004000001681823CAB2103AB2FBF3F2054B6FF33E
:100410000901032A9B5CC36500D9091D8165084653
:10042000704700009063000810B5014600208B69FA
:100430008A6A4FF0C07453B1B3F5005F15D072B142
:10044000012A0CD0022A0AD0032A09D104E01AB1E9
:10045000012A06D0022A03D1C96AC90100D50120A8
:1004600010BDC96AA142FAD010BD002AF7D0012AF6
:10047000F2D0022AF3D0032AF3D010BD704772B62F
:10048000FEE7000008B511A003F052FF03F0C0FD25
:100490001949002003F084FF01208DF800008DF839
:1004A000030000218DF802108DF8010069460A2032
:1004B00003F09CFF03F0AEF803F0F4F80FA003F094
:1004C00037FF012004F037F8FBE700004120736993
:1004D0006D706C652050696E67204170706C696347
:1004E0006174696F6E207573696E6720573535309A
:1004F00030210D0A000000001C00002053696D70BF
:100500006C652050696E67204170706C696361741E
:10051000696F6E0D0A0000002DE9F0410446876DF9
:1005200000F084FA064694F835000025022806D02B
:100530008020606584F834500120BDE8F081206897
:10054000016821F0160101602068416921F08001F5
:100550004161206C08B9A06C20B12068016821F0CD
:10056000080101602068016821F0010101600CE0D0
:1005700000F05CFA801B052807D920206065032065
:1005800084F8350084F83450D7E720680068C00745
:10059000EED194F85C103F208840B860012084F8C8
:1005A000350084F834500020C7E790F83510022950
:1005B00003D08021416501207047052180F8351066
:1005C0000068016821F0010101600020704790F887
:1005D000350070472DE9F84304464FF00009CDF887
:1005E000009063484FF41651A56D0068B0FBF1F719
:1005F0002E6894F85C10082000FA01F131420FD007
:1006000021680A6852070BD50A6822F004020A60C2
:1006100094F85C108840A860606D40F0010060654F
:1006200094F85C104FF0010808FA01F0304208D04D
:1006300021684969090604D5A860606D40F0020090
:10064000606594F85C1004208840304208D021682E
:100650000968890704D5A860606D40F004006065F2
:1006600094F85C1010208840304218D02168096846
:10067000090714D5A86020680168490304D50068FB
:10068000000308D5A16C07E00168C90503D401681F
:1006900021F008010160216C09B12046884794F8D7
:1006A0005C1020208840304231D021680968C9069A
:1006B0002DD5A86094F8350005282068016806D07B
:1006C000490347D5006800031DD4616C1CE021F08C
:1006D000160101602068416921F080014161206CB0
:1006E00008B9A06C20B12068016821F00801016000
:1006F00094F85C103F208840A86084F8358084F826
:100700003490216D1FE0E16B09B120468847606D90
:1007100000282BD0606DC00714D0052084F8350068
:100720002068016821F0010101600098401C0090E0
:10073000B84203D820680068C007F6D184F8358035
:1007400084F83490E16C002910D001B02046BDE857
:10075000F04308470168C905D5D4016821F01001AC
:10076000016084F8358084F83490CCE7BDE8F883E4
:10077000400000202DE9F041044600F057F90646FC
:100780005CB1022084F83500002584F834502068DC
:10079000016821F0010101600DE00120BDE8F08158
:1007A00000F044F9801B052805D92020606503204E
:1007B00084F83500F2E720680068C007F0D12268AD
:1007C000116820480140D4E901031843D4E90336F5
:1007D0003343184363691843A3691843E369184313
:1007E000236A18430843616A042903D1D4E90B132F
:1007F00019430843106020684069666A20F00701C9
:1008000030460E43012704280CD1A06A0643E06A53
:1008100040B12046FFF708FE20B14020606584F813
:100820003570BAE7206846612046FFF7E9FD94F885
:100830005C203F2191408160656584F8357000201F
:10084000ACE700003F8010F070B5044600F0EEF811
:100850000546601C02D004480078044400F0E6F825
:10086000401BA042FAD370BD340000202DE9F84FA0
:10087000DFF890A10022012403254FF00F090AF1AF
:10088000040BAAF1040E00BF0B6804FA02F6334011
:10089000B3426ED10F7907F00307012F01D0022F69
:1008A00016D187684FEA420805FA08FC27EA0C07C8
:1008B000D1F80CC00CFA08FC4CEA070CC0F808C0D0
:1008C0004768B7430E79C6F3001696403E4346602C
:1008D0000E79F643B6070AD0C6684FEA420C05FA0D
:1008E0000CF7BE438F6807FA0CF73743C7600E79E1
:1008F00006F00306022E10D1D60800EB8608D8F8C1
:10090000206057074FEAD76C09FA0CF7BE430F690E
:1009100007FA0CF73743C8F8207006684FEA420C14
:1009200005FA0CF7BE430F7907F0030707FA0CF737
:10093000374307604E6816F4403F5CD0324E37684C
:1009400047F480473760366822F0030706F4804694
:1009500000962E4E07EB060CDCF8086897074FEA66
:10096000177809FA08F7BE43294FB84202D1002789
:1009700010E040E0274FB84201D101270AE0264F9E
:10098000B84201D1022705E0244FB84201D1032724
:1009900000E0072707FA08F73743CCF80878DAF8B9
:1009A00000605746D1F804C09E435FEACC2C00D5C6
:1009B0001E433E60DBF800605F46D1F804C09E43F2
:1009C0005FEA8C2C00D51E433E60DEF8006077465F
:1009D000D1F804C09E435FEA8C3C00D51E433E60C4
:1009E000084F083F3E68D1F804C09E435FEACC3C04
:1009F00000D51E433E60521C102AFFF445AFBDE8EF
:100A0000F88F0000083C01404438024000300140AB
:100A1000000002400004024000080240000C0240B6
:100A20000AB1816170470904FBE700000148806852
:100A30007047000034000020704770472DE9F041F6
:100A4000016804464A694E6890F83E000025D74385
:100A5000FA0506D4F243D20503D46FF4807201255F
:100A60004A61B90508D4F143C90505D422686FF479
:100A7000007145F002055161790525D4F143C9059E
:100A800022D4638D94F83D10226B202808D13BB905
:100A9000212910D029290ED0282901D1212A0AD0B4
:100AA00022686FF48061516145F00405102806D07A
:100AB000402804D008E0204602F026FA04E020682E
:100AC000016841F400710160380508D4F043C005A5
:100AD00005D421686FF4006045F008054861002DD9
:100AE00007D0206C284320642046BDE8F04101F087
:100AF0009DBEBDE8F0812DE9F047026800215368F2
:100B0000C66A90F83E4090F83D50102C12D0402C10
:100B100010D0046C002C7DD05469E443A6077AD42D
:100B2000DE43B60577D4036C03B19169BDE8F047A5
:100B300002F0C6B9976951694FF42A0CC9435FEABC
:100B4000C1784FF02A4904D066452AD04E4528D0B6
:100B500010E0DE43B6050DD4C16A614501D1012123
:100B600003E0C16A494501D10821C162BDE8F047EF
:100B700002F010B90E0716D4DE43B60513D4416C4B
:100B8000C9B21161416B09B1C96B29B9816B0029E7
:100B900007D0C96B002904D00068416841F40061A6
:100BA0004160BDE8F0878E0706D4DE43B60503D466
:100BB000BDE8F04702F062B8FE43526876074FEA9C
:100BC00002521DD4002AECDB0A0608D4DA4352058F
:100BD00005D4490705D5BDE8F04701F0F3BF490743
:100BE000DFD4D9438905DCD4212D05D0402CD8D1C0
:100BF000BDE8F04702F014B9BDE8F04701F0A0BF2E
:100C0000002ACEDB4A060BD4DA43520508D4490742
:100C100008D501E00DE00EE0BDE8F04701F01CBF93
:100C20004907BED4D9438905BBD4BDE8F04701F0DC
:100C3000A9BE916970E7E10606D4D943890503D4BA
:100C4000BDE8F04702F0A2B92821212D27D0292D97
:100C500025D0650655D4DD436D0552D4640752D5C1
:100C600090F83D30448D002C9BD01269446A22706C
:100C7000426A521C4262428D521E4285428D002AB7
:100C80008FD12A2B8DD10268536823F4806353607F
:100C90002222026380F83D1000F054F981E7250616
:100CA00023D4DD436D0520D4640720D590F83D3072
:100CB000448D002CF2D0446A24781461426A521C9C
:100CC0004262428D521E4285428D002AE6D1292B76
:100CD000E4D10268536823F48063536021220263E5
:100CE00080F83D1000F02FF95BE76107D6D4D943B7
:100CF0008905D3D4418D0029D0D0416A097811618A
:100D00000AE06107CAD4D9438905C7D4418D0029B7
:100D1000C4D01169426A1170416A491C4162418D17
:100D2000491E41853DE7704770B5040025D094F811
:100D30003D00002520B984F83C50204600F0BEF864
:100D4000242084F83D002068016821F00101016041
:100D50002068016841F4004101602068016821F4C5
:100D60000041016000F06EFA4D4A6168914201D87D
:100D70004C4900E04C49884201D2012070BD4B49EA
:100D80002368B0FBF1F15E6826F03F060E435E601B
:100D90006368934206D94FF4967359434FF47A73BC
:100DA000B1FBF3F12368491C1E6A26F03F0631436C
:100DB00019626168914210D84900401EB0FBF1F2FF
:100DC000521CC2F30B02042A01D2042022E0B0FB21
:100DD000F1F0401CC0F30B001CE0A268F2B301EB81
:100DE000C10303EB0116431EB3FBF6F35B1C43F494
:100DF00080431B0549D092B301EBC10202EB011104
:100E0000401EB0FBF1F0401CC0F30B0040F48040EA
:100E100040F400402168CA694CF6FF739A431043BE
:100E2000C861D4E9071001432068026822F0C002BB
:100E300011430160D4E9030101432068826848F24C
:100E4000FF339A4311438160D4E9050108432168C7
:100E5000CA6822F0FF021043C86001E00EE016E00D
:100E60002068016841F0010101602564202084F8B8
:100E70003D00256384F83E50002070BD01EB410623
:100E8000431EB3FBF6F35B1CB3E70120C2E701EBA3
:100E90004101401EB0FBF1F0401CC0F30B00B7E76E
:100EA000A086010080841E0000093D0040420F0022
:100EB00070477047704770477047000010B586B0A4
:100EC000044614216846FFF745FA1B49206888420A
:100ED00030D11A480021026842F002020260006824
:100EE00000F002000590C02000901220CDE9010121
:100EF000032003900420049069461148FFF7B6FCD4
:100F00000E481030016841F40011016000680022B1
:100F100000F40010059005211F2000F0A7F81F2005
:100F200000F096F800220521202000F09FF82020F4
:100F300000F08EF806B010BD00540040303802407A
:100F400000040240704770470248816802781144EB
:100F500081607047340000200B4810B5016841F4EF
:100F600000710160016841F480610160016841F431
:100F700080710160032000F099F80F2000F006F85E
:100F800000F04AF8002010BD003C024030B5054694
:100F90001C4887B00024016841F00101016000682D
:100FA00006A900F00100009001A800F02BF900F064
:100FB00059F91549154AB0FBF1F11548491E02606F
:100FC00040F2E732C0E90324C0E90114846100F073
:100FD000EFFD040012D10E4800F018FE04000DD100
:100FE000192000F035F8102D07D2002229461920CB
:100FF00000F03CF80748056000E0012407B02046F7
:1010000030BD00004438024040420F000000014063
:10101000E0040020380000200C4882B0016841F450
:1010200080410160006800F4804000900748001F84
:10103000016841F0805101600068002200F080509A
:1010400000900F21901E02B000F010B8443802400A
:10105000002809DB00F01F020121914040098000B7
:1010600000F1E020C0F8001170470000F0B40E4B12
:101070001B680C46C3F30223C3F10705042D00D9F6
:101080000425191D072901D2002300E0DB1E0126DB
:1010900006FA05F1491E214099409E40761E1640F1
:1010A0003143F0BC03F04CB90CED00E0064900F010
:1010B000070208684FF6FF03184040EA0220034A7F
:1010C00010430860704700000CED00E00000FA05D6
:1010D0002DE9F0470E46050065D0DFF81481D8F8F9
:1010E0000000F7B200F00700B04207D288F80070A5
:1010F000D8F8000000F00700B04254D128683D4CF9
:10110000810712D5400703D5206840F4E0502060E5
:101110002878000703D5206840F4604020602068EC
:10112000A96820F0F000084320602878C0072DD07F
:10113000304968680839012812D0022813D00328E2
:1011400011D00968890700292DDA216821F00301EF
:1011500001432160FFF76AFC814641F2883A0EE0C4
:1011600009688903EFE709688901ECE7FFF75EFC8E
:10117000A0EB0901514502D90320BDE8F0872068A2
:10118000696800F00C00B0EB810FEFD1D8F80010C7
:10119000404601F00701B14207D90770006800F02E
:1011A0000700B04201D00120E7E72878400705D5C5
:1011B0002068E96820F4E0500843206028780007A0
:1011C00006D52068296920F4604040EAC10020600B
:1011D00000F058F82168084AC1F30311515CC84077
:1011E0000649086006480068FFF7D0FE0020C4E703
:1011F000003C02400838024098630008400000208C
:10120000380000200F2202600C4A136803F0030329
:101210004360136803F0F0038360136803F4E05342
:10122000C36012684FF4E05303EAD202026104483B
:10123000006800F0070008607047000008380240AE
:10124000003C02400448054900680968044AC1F3AB
:101250008221515CC840704740000020083802409D
:10126000A86300080448054900680968044AC1F3F6
:101270004231515CC84070474000002008380240AD
:10128000A8630008154810B5006810F00C02144857
:1012900013D01449042A0FD0082A0ED10F4C241F52
:1012A0002268236802F03F025B0207D52068C0F382
:1012B0008810A0FB010106E0084610BD2168C1F3BB
:1012C0008811A1FB00010023FEF7FAFF2168C1F39A
:1012D0000141491C4900B0FBF1F010BD0838024043
:1012E0000024F40040787D012DE9F84F04006ED011
:1012F0002078DFF86093C007A9F104054AD009F10E
:1013000004000168C1F38101012908D00068C0F31D
:10131000810002280AD1D9F80000400206D52868C9
:10132000800337D560680028E1D033E06068B0F50D
:10133000803F10D0B0F5A02F286810D020F4803066
:101340002860286820F4802028606068A8B1FFF732
:101350006DFB06460DE0286840F48030F4E740F469
:1013600080202860F7E700BFFFF760FB801B642840
:1013700073D828688003F7D50CE0FFF757FB0646C3
:1013800005E000BFFFF752FB801B6428F0D82868F7
:101390008003F7D42078DFF8C08280074FF0000A7E
:1013A0003ED5AC48001D016811F00C0F08D0006854
:1013B000C0F3810002280BD1D9F80000400207D405
:1013C0002868800716D5E068012800D112E03CE1CA
:1013D000E068B8B10120C8F80000FFF727FB064617
:1013E00005E000BFFFF722FB801B0228C0D8286859
:1013F0008007F7D52868216920F0F80040EAC1008D
:1014000028600DE0C8F800A0FFF710FB064604E0D6
:10141000FFF70CFB801B02281FD828688007F7D431
:101420002078000722D58B4E8C486169703671B1E7
:1014300001210160FFF7FAFA074604E0FFF7F6FA28
:10144000C01B022809D830688007F7D50EE0C0F825
:1014500000A0FFF7EBFA074605E082E0FFF7E6FAA7
:10146000C01B02287DD830688007F7D42078400759
:1014700068D5DFF8E0B100270BF13C0BDBF800008A
:10148000C0000BD4DBF8001041F08051CBF8001005
:10149000DBF80000012700F080500090704E3068AB
:1014A000C00510D4306840F480703060FFF7BEFA99
:1014B000009005E0FFF7BAFA0099401A022850D8C8
:1014C0003068C005F6D5634EA0686C3601280FD091
:1014D0000528306810D020F001003060306820F01E
:1014E00004003060A068B8B1FFF7A0FA00900FE0E8
:1014F000306840F00100F4E740F004003060F7E7A6
:10150000FFF794FA0099411A41F28830814268D875
:1015100030688007F4D50EE0FFF788FA009007E006
:10152000FFF784FA0099411A41F28830814258D875
:1015300030688007F4D42FB1DBF8001021F080511F
:10154000CBF80010A069D8B34249091D0968C1F35E
:10155000810102294CD00228504607D0C8F860000B
:1015600000E03EE0FFF762FA04463DE04746C8F877
:101570006000FFF75BFA064605E000BFFFF756FA8A
:10158000801B02282DD828688001F7D4F4E90701D0
:101590000843E168334A490802EB0141A26841EA85
:1015A00082110843217C40EA0160217D40EA0171FB
:1015B000C9F8001001203866FFF738FA044606E043
:1015C00045E000BFFFF732FA001B022809D828685F
:1015D0008001F7D53BE000BFFFF728FA001B022887
:1015E00002D90320BDE8F88F28688001F4D42EE0EA
:1015F0000128F7D0D9F80000E26900F48001914297
:1016000023D1226A00F03F0191421ED147F6C071FA
:10161000626A0140B1EB821F17D1A26A4FF0FF331B
:1016200000F4403103EB5202B1EB024F0DD194F8BC
:101630002C2000F07061B1EB026F06D194F83010ED
:1016400000F0E040B0EB017F01D00120CAE70020AC
:10165000C8E700000438024000004742800E4742BD
:10166000007000400000FFFF7047000038B50168BF
:1016700004464A688868C043430606D5C30704D1B8
:10168000D3435B0601D4216C05E0830708D4D34320
:101690001B0605D4616C01B02046BDE83040084708
:1016A000830603D5430601D5C30551D4D3439B0616
:1016B0004ED443060AD494F85130032B49D0636DBD
:1016C00043F004036365CB688B680093830609D4F9
:1016D000636D43F0010363658B6800930B6823F02F
:1016E00040030B60C00506D4606D40F008006065E3
:1016F000206880680090606D002829D020684168CB
:1017000021F0E0014160012084F85100900701D4EC
:10171000D00722D02068416821F003014160114DBB
:10172000E06C40B10565E06CFEF73FFF18B1606DFD
:1017300040F040006065A06C002809D00565A06CF1
:10174000FEF733FF002803D0606D40F04000606575
:1017500038BDC8688868009038BD2046FFF784FF10
:1017600038BD0000FD37000870B5040009D0606A7C
:10177000002540B125616561A56294F8510040B132
:101780000CE0012070BD6068B0F5827FF4D0E561A7
:10179000F2E784F85050204600F044F8022084F824
:1017A00051002068016821F040010160A088218972
:1017B00000F4827001F404410843A18901F400613E
:1017C0000843217C01F002010843217D01F0010161
:1017D0000843218B01F400710843217F01F0380197
:1017E000084394F8201001F080010843218D01F492
:1017F0000051084321680860A069042101EA1040F3
:1018000094F8241001F01001084321684860206812
:10181000C16921F40061C1616565012084F851004E
:10182000002070BD70B586B0044614216846FEF7EE
:1018300091FD2848264E25680024264910380222AA
:101840000323B5421CD10D6845F480450D6009683D
:1018500001F480410591016841F0020101600068D6
:10186000694600F0020005904FF470408DE81500C5
:101870000520CDE903301848FEF7F8FF06B070BD2B
:10188000164EB542FAD10D6845F400450D60096861
:1018900001F400410591016841F004010160006814
:1018A000694600F0040005904FF4E0508DE8150003
:1018B0000620CDE903300A48FEF7D8FF00220521B3
:1018C0003320FFF7D3FB3320FFF7C2FBD6E700003E
:1018D000003800404038024000040240003C004014
:1018E000000802402DE9F84F044690F85000002708
:1018F0000A9E1D4692468B464FF0010901280ED0E4
:10190000012084F85000FFF791F8804694F85100C8
:10191000616801280CD0B1F5827F07D102E0022076
:10192000BDE8F88FA16809B9042801D00227C2E0F8
:10193000BBF1000F27D0BAF1000F24D01DB394F8EB
:101940005100042802D0052084F851000020606571
:10195000C4F838A0E587A587C4F830B0E586A58629
:101960002064606420680168490603D4016841F07E
:1019700040010160E068B0F5006F606805D0E8B331
:10198000012D46D07FE0012795E008B1012D39D126
:10199000206B21680088C860206B801C2063E08E6B
:1019A000401EE0862EE02068816889070FD5E18E11
:1019B00069B1B9F1010F0AD1216B0988C160206BAF
:1019C000801C2063E08E401EE0864FF000092068F6
:1019D0008168C9070CD0E18F51B1C068A16B088044
:1019E000A06B801CA063E08F401EE0874FF00109D0
:1019F000FFF71CF8A0EB0800B04200E009E001D3BB
:101A0000701C50D1E08E0028CDD1E08F0028CAD1C3
:101A10003FE0206B216800780873206B401C206336
:101A2000E08E401EE0862EE02068816889070FD591
:101A3000E18E69B1B9F1010F0AD1216B0978017307
:101A4000206B401C2063E08E401EE0864FF00009B2
:101A500020688168C9070CD0E18F51B1C068A16BC3
:101A60000870A06B401CA063E08F401EE0874FF021
:101A70000109FEF7DBFFA0EB0800B04202D3701CA7
:101A800001D010E07EB1E08E0028CDD1E08F00289B
:101A9000CAD142463146204601F0B8FE28B101279E
:101AA0002020606507E0032705E0A06818B92068DA
:101AB000C16880680090012084F85100002084F8FB
:101AC000500038462CE77047704710B590F83C201E
:101AD000012A22D0012280F83C20CA688C6822F4B6
:101AE000407222434C6822F4806222430C6822F444
:101AF000006222430C6922F4805222434C6922F492
:101B000000522243C969002322F480420A4301683B
:101B10004A6480F83C30002010BD022010BD000057
:101B200070B590F83C20012A32D0012480F83C4066
:101B3000022280F83D2003685A689D6822F07006F2
:101B40000A6832435A60134B02689A4214D0B2F1C9
:101B5000804F11D0104B9A420ED0104B9A420BD0AE
:101B60000F4B9A4208D00F4B9A4205D00E4B9A4227
:101B700002D00E4B9A4204D1496825F080031943E4
:101B8000916080F83D40002180F83C10084670BD0F
:101B9000022070BD00000140000400400008004029
:101BA000000C0040000401400040014000180040CB
:101BB00010B5040003D094F83D0010B107E00120F7
:101BC00010BD002084F83C00204600F01EF80220E2
:101BD00084F83D00211D206801F034FF012084F8C5
:101BE000460084F83E0084F83F0084F8400084F802
:101BF000410084F8420084F8430084F8440084F8EB
:101C0000450084F83D00002010BD704790F83D105D
:101C1000012901D001207047022180F83D100168A0
:101C2000CA6842F00102CA6000681149884214D0B3
:101C3000B0F1804F11D00F4988420ED00E49884232
:101C40000BD00E49884208D00D49884205D00D4975
:101C5000884202D00C49884204D1816801F0070112
:101C6000062903D0016841F001010160002070479E
:101C7000000001400004004000080040000C00404B
:101C800000040140004001400018004070472DE969
:101C9000F041054690F83C0000260C46012810D083
:101CA000012085F83C0072B1042A1CD0082A2CD0EF
:101CB0000C2A50D00126002085F83C003046BDE8B3
:101CC000F0810220FBE7D4E90012E368286801F004
:101CD000DFFF2868816921F00C0181612868816932
:101CE000A26811430FE0D4E90012E368286802F00B
:101CF0000FF82868816921F4406181612868816951
:101D0000A26841EA02218161D5E72868D4E9002C64
:101D1000277B016A21F480710162C169036A21F0A5
:101D2000030141EA0C0121F0F00C39074FF4206760
:101D30004CEA116123F4206307EA02221A43C161CD
:101D400002622868C16921F00C01C1612868C1697B
:101D5000A268114328E02868D4E90027E168036AF3
:101D600023F480530362D0F81CC0036A2CF4407C37
:101D70004CEA07274FF6FF7C27F470470CEA013145
:101D800039434FF4204723F4204307EA02321A4331
:101D9000C16102622868C16921F44061C16128689B
:101DA000C169A26841EA0221C16184E710B504005B
:101DB00003D094F83D0010B107E0012010BD0020D1
:101DC00084F83C00204600F01FF8022084F83D0013
:101DD000211D206801F036FE012084F8460084F8B9
:101DE0003E0084F83F0084F8400084F8410084F805
:101DF000420084F8430084F8440084F8450084F8E5
:101E00003D00002010BD000030B587B0044614210D
:101E10006846FEF79FFA284824680022264B1038AF
:101E20000221B4F1804F25D0244DAC4220D11C6852
:101E300044F002041C601B6803F00203059303686E
:101E400043F004030360006800F004000590C8013B
:101E50008DE80700CDE9032169461948FEF706FD24
:101E6000002205211D20FFF701F91D20FFF7F0F8E2
:101E700007B030BD1C6844F001041C601B6803F00F
:101E800001030593036843F0010303600068CDE993
:101E9000021200F0010005902020CDE90001012090
:101EA000049069460748FEF7E1FC002205211C204A
:101EB000FFF7DCF81C20D9E740380240000400405E
:101EC000000802400000024070B504460068016945
:101ED0004FF00005C943890715D4C168C943890774
:101EE00011D4E91E016101202077206880698007F4
:101EF000204602D0FFF7CAFE04E000F026F9204693
:101F000000F088F9257720680169C943490717D48B
:101F1000C168C943490713D46FF00401016102206D
:101F200020772068806910F4407F204602D0FFF7B8
:101F3000ADFE04E000F009F9204600F06BF92577CA
:101F400020680169C943090716D4C168C943090754
:101F500012D46FF008010161042020772068C06965
:101F60008007204602D0FFF791FE04E000F0EDF874
:101F7000204600F04FF9257720680169C943C9065A
:101F800017D4C168C943C90613D46FF010010161A9
:101F9000082020772068C06910F4407F204602D0D6
:101FA000FFF774FE04E000F0D0F8204600F032F9AC
:101FB000257720680169C943C90708D1C168C943A9
:101FC000C90704D1891E0161204600F025F9206867
:101FD0000169C943090609D4C168C943090605D482
:101FE0006FF0800101612046FFF76DFD20680169F7
:101FF000C943490609D4C168C943490605D46FF0ED
:1020000040010161204600F011F920680169C943CF
:1020100089060BD4C168C943890607D46FF0200133
:1020200001612046BDE87040FFF74EBD70BD000065
:10203000F0B587B0044614216846FEF78BF9226894
:1020400000242849022501262748B2F1804F39D0C3
:10205000264B9A4234D10A6842F001020A600A68AB
:1020600002F0010205920A6842F002020A600A6860
:1020700002F0020205920A6842F004020A6009684E
:10208000032701F00401059180210091CDE901545D
:10209000CDE903476946FEF7E9FB0096CDE9015417
:1020A000CDE9034769461248FEF7E0FBC0200090E7
:1020B000CDE90154CDE9034769460E48FEF7D6FB4A
:1020C00007B0F0BD0A6842F001020A600968009595
:1020D000CDE9015401F00101CDE9046103946946A1
:1020E000ECE70000303802400000024000040140EC
:1020F000000402400008024070B5044690F83C001D
:10210000002501280FD0012084F83C006AB1042A80
:102110000FD0082A11D00C2A13D00125002084F8F2
:102120003C00284670BD022070BD206801F0EEFC26
:10213000F4E7206801F01AFDF0E7206801F04CFD9B
:10214000ECE7206801F07CFDE8E7704710B504007B
:1021500003D094F83D0010B107E0012010BD00202D
:1021600084F83C00204600F01FF8022084F83D006F
:10217000211D206801F066FC012084F8460084F8E7
:102180003E0084F83F0084F8400084F8410084F861
:10219000420084F8430084F8440084F8450084F841
:1021A0003D00002010BD000008B5006817498842B6
:1021B0002AD11748016841F002010160006800223D
:1021C00000F00200009005212B20FEF74FFF2B208E
:1021D000FEF73EFF002205212C20FEF747FF2C20B2
:1021E000FEF736FF002205212D20FEF73FFF2D20B0
:1021F000FEF72EFF002205212E20FEF737FFBDE857
:1022000008402E20FEF724BF08BD00000004014056
:10221000443802407047000000680349884201D1F9
:10222000FEF792BE70470000000001407047704703
:1022300070470000F8B5016804460868CA684B6931
:1022400010F00F0F4FF0000559D003F0010602F413
:102250009077374365D0C10705D0D10503D5216CF0
:1022600041F001012164410705D5D90703D0216C54
:1022700041F002012164810705D5D90703D0216C03
:1022800041F004012164010707D502F02001314328
:1022900003D0216C41F008012164216C00293AD05F
:1022A000800604D5900602D5204601F07BFD20680B
:1022B0004069216CC0F38010090700D460B3204648
:1022C00001F049FD20684069400621D5206814309E
:1022D00050E8001F21F0400140E80012002AF5D12B
:1022E000A06BA8B16C490165A06BFEF75EF90028F0
:1022F00011D0A06B016D01B0BDE8F0400847830626
:102300000FD593060DD52046BDE8F84001F04ABD33
:102310002046FFF78DFFF8BD2046FFF789FF2564B3
:10232000F8BD266B2023012E79D1C60677D5D606B7
:1023300075D50868486800904869400640D5A16B8B
:10234000086840680004000CEAD0A28D8242E7D9F8
:10235000E085C869B0F5807F2DD020680C3050E84A
:10236000001F21F4807140E80012002AF5D1206896
:10237000143050E8001F21F0010140E80012002A4B
:10238000F5D12068143050E8001F21F0400140E8EA
:102390000012002AF5D184F83E30256320680C3005
:1023A00050E8001F21F0100140E80012002AF5D18A
:1023B000A06BFEF7B1F8A08DE18D401A81B229E043
:1023C000A08DE18D401A81B2E08D0028A8D00029AF
:1023D000A6D020680C3050E8002F22F4907240E81C
:1023E0000026002EF5D12068143050E8002F22F08E
:1023F000010240E80026002EF5D184F83E30256326
:1024000020680C3050E8002F22F0100240E8002332
:10241000002BF5D12046FFF70AFFF8BDFFE70506C0
:102420002BD5150629D594F83D002128F5D1A068B3
:10243000B0F5805F01D12069B0B1206A411C2162F2
:10244000216800784860E08C401E0004000CE084A5
:10245000E3D12068C16821F08001C1602068C168B3
:1024600041F04001C160D8E7206A0088C0F308004D
:102470004860206A801C2062E5E74006CDD5500602
:10248000CBD5CA68204622F04002CA6084F83D30AD
:1024900000F05FF9C1E70000473D000870B5040097
:1024A00004D094F83D00002510B106E0012070BD75
:1024B00084F83C50204600F023F8242084F83D00A6
:1024C0002068C16821F40051C160204601F0CAFCB7
:1024D0002068016921F4904101612068416921F07F
:1024E0002A0141612068C16841F40051C16025643E
:1024F000202084F83D0084F83E00002070BD0000DC
:102500002DE9F04786B0044614216846FDF722FF06
:10251000DFF868C102212668594803220723DFF843
:10252000648100258F064FF0400A4FF480696645AC
:102530004DD1534E1436D6F800C04CF0100CC6F8EE
:1025400000C0366806F010060596066846F00106DB
:102550000660006800F00100059050028DE823003D
:1025600069464046CDE90323FEF780F9474E4648C9
:10257000C8463060C6E90175C6E903597561B561A1
:10258000F561356230467562FEF7F4F808B1FDF783
:1025900076FFA663B4633D4E3B4860367830C6E9AB
:1025A00003587561B561F5613562756286E881042D
:1025B0003046FEF7DFF808B1FDF761FF66630022E1
:1025C00005212520B463FEF751FD252051E0DFF8F9
:1025D000C0C066454FD12A4E1036D6F800C04CF424
:1025E000003CC6F800C0366806F40036059606685A
:1025F00046F001060660006800F0010005900C201E
:102600008DE8230069464046CDE90323FEF72EF905
:102610001E4E2048C036B8463060C6E90175C6E98E
:1026200003597561B561F56135624F463046756293
:10263000FEF7A0F808B1FDF722FFA663B463164EBB
:102640001448C6E903577561B561F5613562183004
:10265000756286E801053046FEF78CF808B1FDF793
:102660000EFF6663002205212620B463FEF7FEFC00
:102670002620FEF7EDFC06B0BDE8F0870010014013
:1026800030380240000002404064024060030020F5
:102690000044004088600240800400207047000031
:1026A0002DE9F843044690F83D001F4616460D46B6
:1026B00020284CD1C5B1BEB194F83C00012846D0C9
:1026C000012084F83C004FF00008C4F8408021202D
:1026D00084F83D00FEF7AAF9A6848146E684A06846
:1026E000B0F5805F03D004E00120BDE8F8832069E5
:1026F00028B12E465FF0000584F83C800EE00026ED
:10270000FAE78021204601F033FCA0B9AEB116F8FB
:10271000010B21684860E08C401EE084E08C4B4651
:102720004FF0000200970028EBD14FF04001204607
:1027300001F01EFC30B10320D7E735F8020BC0F3DF
:102740000800E6E7202084F83D000020CDE70220C5
:10275000CBE77047FEE700000148FEF76FB90000C5
:10276000FC0000200148FEF7C6B90000FC00002074
:1027700038B5806B002190F83D202B4B46F2A81411
:102780001B68B3FBF4F3C3EBC30303EB83030093B6
:102790003BB15B1E009303681B689B0505D5009B3E
:1027A000F6E7036C43F020030364436B03B1D96382
:1027B000836B03B1D96303681C6824F480641C60D4
:1027C0004185436B03B11965836B03B119650368D8
:1027D0001C6824F001041C6090F83D402023602C0C
:1027E0000BD0282434EA02020FD080F83D3080F864
:1027F0003E1000BFFEF797FA38BD80F83D3080F8F4
:102800003E100164FEF718F938BD0268136843F002
:10281000010313600268136843F48063136001636B
:1028200080F83D40E6E700004000002070B5044617
:1028300090F83D0094F83E10102901D0402906D1AF
:10284000222804D121680A6822F400620A60282143
:1028500031EA00024FF000054FF0200626D0216833
:102860004968090505D4602803D084F83D6084F8E0
:102870003E50256320684168090537D5416821F439
:1028800000614160606B90F835203C49012A11D00D
:102890000165606BFDF789FE38B32068016821F09F
:1028A0000101016084F83D60606B1CE0256384F8E1
:1028B0003D10DFE7A06B0165A06BFDF776FEA0B1D0
:1028C00020684169C943490605D40069616A0870F6
:1028D000606A401C60622068016821F001010160AB
:1028E00084F83D60A06B016D884710E094F83D10BE
:1028F000602910D04169C943490605D40069616A5D
:102900000870606A401C60622046FEF70CFA206C7A
:10291000C1071CD115E084F83D6025644169C943B5
:10292000490605D40069616A0870606A401C6062EB
:102930002068016821F0010101602046FEF77CF863
:10294000E5E7810703D4410701D4000704D52068D7
:10295000416821F4E061416094F83D00216C490731
:102960000BD5282809D10648E062256384F83D602C
:1029700084F83E502046FEF79BFA70BD7127000890
:102980000000FFFF10B5C26A438D0168042B06D01A
:10299000438D032B08D0438D022B1DD012E04A68D3
:1029A00022F480624A600CE04B6823F480634B6041
:1029B000042A06D0022A04D001680A6822F4806240
:1029C0000A6001680969426A1170416A491C4162E2
:1029D000418D491E418510BD012A30D0102A2ED0CC
:1029E000042A30D0022A2ED00A6842F400720A600B
:1029F00001680969426A1170416A491C4162428D4D
:102A0000521E4285026812690A70416A491C41627D
:102A1000418D491E418501684A6822F440724A602E
:102A2000202180F83D1090F83E200021402A80F8B7
:102A30003E100CD012210163FEF73BFA10BD0A686C
:102A400022F48062D3E70A6842F48062CFE7016330
:102A5000FEF731FA10BD000038B590F83D1022297C
:102A60000FD1418D03290DD901680969426A11709E
:102A7000416A491C4162418D491E4185418D0329AE
:102A800006D038BDC26A022A02D0012906D029B177
:102A90000068416821F48061416038BD274946F2F1
:102AA000A81300220968B1FBF3F101EB8101009149
:102AB00001682023009C641E009422D00C68A405A9
:102AC000F8D40C6824F480640C6001684C6824F429
:102AD000E0644C6001680969446A2170416A491CDC
:102AE0004162418D491E418580F83D3090F83E108D
:102AF00080F83E2040291DD012210163FEF7D9F94C
:102B000038BD046C44F0200404644C6824F4E06490
:102B10004C6001680969446A2170416A491C41623C
:102B2000418D491E418580F83D3080F83E20FEF7FA
:102B3000FAF838BD0263FEF7BEF938BD4000002048
:102B400010B5C26A90F83D1021290BD1418D51B1C9
:102B5000416A026809781161416A491C4162418DEC
:102B6000491E418510BD20230021082A13D0202AA8
:102B700011D012F5803F0ED00268546824F4E0644E
:102B800054601122026380F83E1080F83D3000BF8F
:102B9000FEF790F910BD0268546824F4E0645460B4
:102BA0000268146844F400741460016380F83D30D6
:102BB00090F83E2080F83E10402AE9D1FEF77CF9DB
:102BC00010BD000010B590F83D1090F83E30C26A7C
:102BD000048DB4B1212903D0402B11D122290FD16A
:102BE000418DE1B390F83E10402942D0416A02681D
:102BF00009781161416A491C4162418D491E418534
:102C000010BD2129E8D120230021082A13D0202A31
:102C100011D012F5803F0ED00268546824F4E064AD
:102C200054601122026380F83E1080F83D3000BFEE
:102C3000FEF740F910BD0268546824F4E064546063
:102C40000268146844F400741460016380F83D3035
:102C500090F83E2080F83E10402AE9D100E002E0E2
:102C6000FEF72AF910BD0068416821F480614160D7
:102C700010BDBDE8104000F0D3B8000078B590F862
:102C80003E50C26A036B90F83D6000240168222E1A
:102C90007AD1066D0EB9402D76D0056D1DB9056946
:102CA000B5F5404F09D0458D05B3468D384D012E01
:102CB0000ED0438D022B3AD05DE04A698A690092BA
:102CC0000A6842F480720A60016D491C016578BD92
:102CD000AA4213D10A6822F480620A6001684A6835
:102CE000120503D50A6822F4806216E04A698A69EF
:102CF00000920A6842F400720A6039E0082A10D093
:102D0000202A0ED0122B0AD0042A03D0022A01D086
:102D1000102AE7D10A6842F480620A6024E0012A9E
:102D2000E0D00A6822F480620A600168DEE7042AC3
:102D300021D0022A1FD0102A1DD00B6823F48063F3
:102D40000B6001680B6843F400630B6001684B681B
:102D50001B0509D5AA4212D0012A10D0082A0ED08C
:102D6000102A0CD0202A0AD001684A69896900918A
:102D7000046578BD08E00B6843F48063E5E74A68C2
:102D800042F480524A60EFE7486988690090F0E7B2
:102D90000000FFFF90F83E10402910D00169B1F506
:102DA000804F19D0016DA9B3016D012910D1416C7B
:102DB0005FF0F10201F4407142EAD11106E0016DC9
:102DC0000029416C05D0C9B241F0010100680161E0
:102DD000704701F0FE01F9E790F83D102129416CA0
:102DE00009D0C9B241F0010102681161416B29B1FA
:102DF000C96B49B902E001F0FE01F5E7816B0029DA
:102E0000E6D0C96B0029E3D00068416841F4006155
:102E100041607047FFE7416CF02201F44071CBE75D
:102E200010B590F83D10026D22B3026D012A2FD02B
:102E3000026D022A1DD122292FD0428D0AB12129EB
:102E400033D0428D002A14D1212912D101684A6859
:102E500022F4E0624A6001680A6842F400720A6083
:102E600000210163202280F83D2080F83E10FEF70B
:102E700023F810BDC16C0129816C02D0C1F3072178
:102E800008E00268C9B21161016D891C016510BDBD
:102E9000816CC9B20268116104E001680A6842F4F9
:102EA00080720A60016D491CF0E7416A0268097886
:102EB0001161416A491C4162418D491E418510BD25
:102EC00038B50C4690F83D2000212825954302682E
:102ED0000B4605D051699169009180F83C3038BDAE
:102EE000556825F480655560E243540700D50121FB
:102EF000120601D5828900E0028B80F83C3092B244
:102F0000FDF79BFD38BD00002DE9F04190F83D40F4
:102F1000C26A002320261C4F01686FF48065082ACE
:102F200001D0202A01D1282C04D0212C16D04D61AB
:102F3000BDE8F081C7624A6822F4E0624A60016835
:102F40004D6101680A6822F480620A60036380F8B8
:102F50003D6080F83E30FDF7ABFFE9E7C762212214
:102F6000026380F83D6080F83E304A6822F4E062F7
:102F70004A6001684D6101680A6822F480620A6053
:102F8000FDF7E1FFD4E700000000FFFFF8B590F87F
:102F90003D6004460068416821F4E06141602068BA
:102FA000002541690091016841F00101016020683C
:102FB000016821F48061016020684168090520D51D
:102FC000474F222E48D02A2E46D0616B09684968A7
:102FD0006185618D19B1216C41F004012164416862
:102FE00021F400614160606BFDF7F1FA012808D01F
:102FF000606B0765606BFDF7D8FA10B1606B016D0F
:103000008847608D08B320684169C943490708D4DF
:103010000069616A0870606A401C6062608D401ED1
:10302000608520684169C943490608D40069616A1E
:103030000870606A401C6062608D401E6085608D13
:1030400018B1206C40F004002064206C00B32046CE
:10305000BDE8F840FFF7EABBA16B096849686185E4
:10306000618D19B1216C41F004012164416821F4A2
:1030700000614160A06BFDF7AAFA0128C1D0A06BE6
:103080000765A06BFDF791FA0028BAD0A06BB6E7F0
:103090002A2E06D12563282084F83D002046FDF71E
:1030A00051FF94F83D10202028290DD0216B2229B2
:1030B00001D0222E07D1256384F83D0084F83E50CC
:1030C0002046FDF73FFFF8BD0649E162256384F81D
:1030D0003D0084F83E502046FDF7EAFEF8BD0000B2
:1030E000712700080000FFFF194808B5016841F486
:1030F00000110160016801F400110091016841F4C0
:10310000800101600068002200F480000090052129
:103110001020FDF7ABFF1020FDF79AFF00220521DC
:103120001120FDF7A3FF1120FDF792FF00220521DA
:103130003A20FDF79BFF3A20FDF78AFF0022052188
:103140004620FDF793FFBDE808404620FDF780BF0D
:103150003038024010B5194A0121052001F026FA45
:10316000174C164A012120611832052001F01EFA81
:10317000124A6061903A0021124801F043FA0F4A66
:1031800020606C3A0021104801F03CFA0B4A606064
:10319000483A00210D4801F035FA084AA060243A67
:1031A00000210B4801F02EFA044AE0603032002181
:1031B000084801F027FAA06110BD00003C63000838
:1031C000000000202D390008C93700081D3900080B
:1031D00025390008850400082DE9F04387B0142143
:1031E0006846FDF7B7F849480024016841F08001BE
:1031F0000160016801F080010591016841F004015E
:103200000160016801F004010591016841F00101CC
:103210000160016801F001010591016841F00201BE
:103220000160016801F002010591016841F00801A7
:1032300001600068364E00F008000590002240F260
:103240001A213046FDF7ECFB324F00225021384660
:10325000FDF7E6FBDFF8C080002240F22641404641
:10326000FDF7DEFBDFF8B490002204214846FDF7AD
:10327000D7FB01250220CDE90005CDE902546946BE
:103280003046FDF7F3FA2420CDE9000469463046C4
:103290000294FDF7EBFA4FF406700090CDE901546B
:1032A000694630460394FDF7E1FA50200090CDE9DD
:1032B0000154694638460394FDF7D8FA2620009059
:1032C000CDE90154694640460394FDF7CFFAA802C0
:1032D000CDE90005CDE9025469464046FDF7C6FA3E
:1032E0004FF4C850CDE90004694638460294FDF712
:1032F000BDFA0420CDE90005CDE9025469464846EF
:10330000FDF7B4FA07B0BDE8F083000030380240A2
:10331000000802400000024000040240000C02408D
:103320000D4810B50B4901600C49416000214FF474
:1033300080428160C0E9031241618161C161016223
:10334000FDF7F2FC002803D0BDE81040FDF797B868
:1033500010BD000000540040FC000020801A060050
:103360000F4810B50D4901604FF482714160002192
:103370008160C1604FF480220161C0E90512C16122
:103380000162416281620A21C162FEF7EDF9002803
:1033900003D0BDE81040FDF772B810BD0038004002
:1033A00050010020104810B50E4901604FF48271A1
:1033B0004160002102228160C0E9031201224261C2
:1033C000520282610822C0E90721416281620A211A
:1033D000C162FEF7C9F9002803D0BDE81040FDF72F
:1033E0004EB810BD003C0040A801002010B58EB0C2
:1033F00000240C940B940794089409941C216846AB
:103400000A94FCF7A7FF1F484FF080410160632139
:10341000C0E9011440F2E731C0E903148461FEF70A
:10342000C5FC08B1FDF72BF81648FEF78FFE08B172
:10343000FDF725F80B940BA912480C94FEF770FBCE
:1034400008B1FDF71CF80A2007900120CDE9080417
:10345000002207A90B480A94FEF719FC08B1FDF7F2
:103460000EF80094019402940422694605480494DD
:10347000FEF742FE08B1FDF702F80248FEF7D8FD5C
:103480000EB010BD0002002010B586B00024184810
:103490000594049400940194029414490394C0E99F
:1034A00000144FF6FF71C0E9024104618461FEF728
:1034B0007DFC08B1FCF7E3FF049404A90C480594D3
:1034C000FEF72EFB08B1FCF7DAFF0120CDE9004042
:1034D00002940822694606480394FEF7D8FB0028A8
:1034E00001D0FCF7CCFF06B010BD00000004004086
:1034F0004802002010B592B000240F941C216846A9
:103500001094FCF727FF202107A8FCF723FF23488E
:103510002149C0E900144FF6FF71C0E9024104617E
:1035200044618461FEF712FE08B1FCF7A8FF0F9416
:103530000FA91A481094FEF7F3FA08B1FCF79FFFA1
:103540000094019402940394049405940022694623
:1035500012480694FEF7D0FD08B1FCF790FF042254
:1035600069460E48FEF7C8FD08B1FCF788FF0794CE
:10357000089409944FF400500A94CDE90B4007A930
:1035800006480E94FEF7A1FA08B1FCF778FF03484D
:10359000FEF74EFD12B010BD000401409002002065
:1035A0000C4810B50A4901604FF4E1314160002137
:1035B00081600C22C160C0E904128161C161FEF723
:1035C0006DFF002803D0BDE81040FCF758BF10BDC8
:1035D00000100140D80200200C4810B50A490160D3
:1035E0004FF416514160002181600C22C160C0E996
:1035F00004128161C161FEF751FF002803D0BDE8CC
:103600001040FCF73CBF10BD004400401C030020EC
:10361000FEE7FEE738B540F2DC540CA000F088FE6F
:1036200069460F2000F0E2FE9DF8000048B911A0A5
:1036300000F07EFE2046FDF707F99DF80000002807
:10364000EBD011A000F074FE38BD00000D0A4368F5
:1036500065636B696E672045746865726E6574207A
:103660004361626C652050726573656E6365202EE0
:103670002E2E00004E4F204361626C6520436F6E1A
:103680006E65637465642100476F6F642120436138
:10369000626C6520676F7420636F6E6E656374651E
:1036A0006421000008B569460B2000F09FFE9DF8DC
:1036B0000000002819D011A000F03AFE9DF801008A
:1036C000012814D015A000BF00F032FE9DF80300C1
:1036D00001280ED019A000BF00F02AFE9DF80200BC
:1036E00048B11BA000F024FE08BD1EA0E4E726A000
:1036F000EAE72CA0F0E730A0F4E700000D0A5048FC
:103700005920436F6E66696775726564206279201F
:103710005265676973746572730000000D0A417524
:10372000746F6E65676F74696174696F6E204E4F58
:103730005420456E61626C65640000000D0A44759A
:10374000706C6578204D6F64653A2048616C660046
:103750000D0A53706565643A203130304D627073E4
:10376000000000000D0A50485920436F6E666967DB
:103770007572656420627920486172647761726550
:103780002050696E730000000D0A4175746F6E65FC
:10379000676F74696174696F6E20456E61626C65F4
:1037A000640000000D0A4475706C6578204D6F64EC
:1037B000653A2046756C6C000D0A53706565643A75
:1037C0002031304D62707300012000F0B4FEFBE741
:1037D0000148FDF74BBF0000A801002001B582B0F1
:1037E00064200090012301AA02A90348FEF77AF899
:1037F0009DF804000EBD0000A801002010B5806BEC
:103800000021C187C186FDF72FFF10BD38B50446E2
:103810001248134B0068B0FBF3F04FF47A7358432F
:1038200000906068B0F5827F0DD10B4600920022B7
:103830008021204600F016F870B1606D40F0200045
:103840006065032038BD009830B1401E00902068AC
:103850008068C0430006F6D5002038BD4000002037
:1038600000366E012DE9F8431E469146884604460F
:10387000089DFDF7DBF8401B351AFDF7D7F8074622
:1038800025480068C0F3CB30684338E0701C37D05F
:10389000FDF7CCF8C01BA84203D215B1009860B365
:1038A0002CE02068416821F0E00141606068B0F5DB
:1038B000827F0BD1A068B0F5004F02D0B0F5806FC9
:1038C00004D12068016821F040010160A06AB0F5D0
:1038D000005F09D12068016821F40051016020686F
:1038E000016841F400510160012084F8510000207A
:1038F00084F850000320BDE8F8830025401E0090A6
:103900002068816838EA010004D000214945BDD112
:103910000020F0E70121F9E740000020012000F03D
:103920000AFEFBE7012000F006FEFBE7012000F0A5
:1039300002FEFBE710B54FF0E020006902F000FB4B
:10394000012803D0BDE8104002F00EB810BD000001
:1039500030B593B034216846FCF7FCFC14210DA867
:10396000FCF7F8FC1C480025016841F0805101601B
:10397000006800F0805012901848016841F44041FE
:1039800001600068022400F4404012900120009081
:10399000000401908001CDE906400C2008906020D1
:1039A000CDE909040B9468460C94FDF79DFC08B121
:1039B00072B6FEE70DA90F2081E831004FF4805068
:1039C000CDE9100503210DA8FDF782FB002801D0E9
:1039D00072B6FEE713B030BD4038024000700040C0
:1039E0000248016841F470010160704788ED00E011
:1039F0000148FEF769BA0000E00400200148FEF724
:103A000063BA0000000200200148FEF75DBA000022
:103A1000480200200148FEF757BA0000900200203B
:103A20000148FEF751BA0000900200200148FEF75D
:103A30004BBA0000900200200148FEF745BA000092
:103A400090020020F0B50268254C264D264E274FE7
:103A5000274B4FF0804CA04209D0604507D0A842C8
:103A600005D0B04203D0B84201D0984204D122F030
:103A7000700E4A6842EA0E02A0421BD0604519D07F
:103A8000A84217D0B04215D0B84213D0984211D0F6
:103A9000184DA8420ED0184DA8420BD0174DA84281
:103AA00008D0174DA84205D0164DA84202D0164D99
:103AB000A84203D122F44075CA682A434D6922F016
:103AC00080022A4302608A68C2620A688262A04257
:103AD00001D0984201D10969016301214161F0BD22
:103AE000000001400004004000080040000C0040BD
:103AF00000040140004001400044014000480140F2
:103B000000180040001C004000200040F0B5026A90
:103B100022F001020262036A42688469124E24F0B4
:103B200073050C682C4323F002058B682B430D4D65
:103B3000A84201D0B04205D123F00807CB683B432F
:103B400023F00403A84201D0B04205D14D6922F40C
:103B5000407215438A692A4342608461496841631F
:103B60000362F0BD0000014000040140F0B5026AAC
:103B700022F010020262026A436884690D6824F42C
:103B8000E64444EA05248D6822F0200242EA051248
:103B90000F4D104EA84201D0B04206D1CF6822F09E
:103BA000800242EA071222F04002A84201D0B0424D
:103BB00007D14D6923F4406343EA85038D6943EAE5
:103BC000850343608461496881630262F0BD00003F
:103BD0000000014000040140F0B5026A22F4807246
:103BE0000262026A4368C46922F4007224F0730519
:103BF0000C68124E2C438D6842EA05220E4DA842F5
:103C000001D0B04206D1CF6822F4006242EA072216
:103C100022F48062A84201D0B04207D14D6923F45A
:103C2000405343EA05138D6943EA05134360C461B9
:103C30004968C1630262F0BD000001400004014018
:103C400030B5026A22F480520262046A4268C36993
:103C50000D6823F4E64343EA05238D6824F40054F9
:103C600044EA0534084DA84202D0084DA84204D1C8
:103C70004D6922F4804242EA85124260C36149687C
:103C80000164046230BD00000000014000040140F6
:103C900070B5046A24F0010404628469056A154E53
:103CA000B04214D0B0F1804F11D0134EB0420ED0BC
:103CB000124EB0420BD0124EB04208D0114EB0425C
:103CC00005D0114EB04202D0104EB04203D124F0C4
:103CD0000304144301E044F001041A0724F0F00443
:103CE00044EA126225F00A0301F00A0119438261D5
:103CF000016270BD00000140000400400008004067
:103D0000000C004000040140004001400018004049
:103D100030B5046A24F0100404628469056A24F44E
:103D2000407444EA022222F470444FF6FF7202EA21
:103D300003322243A02425F0A00304EA0111194311
:103D40008261016230BD10B5806B0021C185C184E4
:103D5000FEF76EFA10BD01680C3151E8002F22F415
:103D6000907241E80023002BF5D10168143151E82D
:103D7000002F22F0010241E80023002BF5D1016B56
:103D8000012909D101680C3151E8002F22F01002FD
:103D900041E80023002BF5D1202180F83E100021BE
:103DA0000163704708B590F83E10222901D0022027
:103DB00008BD82684FF480539A4201D1016921B154
:103DC000816A9A421BD04AB10AE00268816A52684D
:103DD000C2F308020A80816A891C08E0026972B194
:103DE0000268526802F07F020A70816A491C81628F
:103DF000C18D491E0904090CC18503D019E0026870
:103E00005268F1E70168CA6822F02002CA600168BE
:103E1000CA6822F48072CA6001684A6922F001020D
:103E20004A61202180F83E10016B012903D0FEF782
:103E300035FC002008BD0021016301680C3151E808
:103E4000002F22F0100241E80023002BF5D1016879
:103E50000A68D20602D50A6849680091818DFEF78A
:103E6000E6F9E6E770B5044600680169E26821F406
:103E70004051114301612169A068E2690843616909
:103E8000114308432168CA6849F20C639A4302430C
:103E9000CA6020684169A26921F4407111434161FF
:103EA00031492068884202D03049884202D1FDF76A
:103EB000D9F901E0FDF7C6F9E2690023192164256B
:103EC0003226B2F5004F626828D0A0FB0101930FA3
:103ED0009200FCF7F5F90146B0FBF5F06FF018021F
:103EE000504301EB800006EB0010B0FBF5F000F052
:103EF000F002B1FBF5F002EB0012B1FBF5F06FF050
:103F00001803584301EB800006EB0010B0FBF5F0FE
:103F100000F00F0021681044886070BDA0FB010113
:103F200092185B41FCF7CCF90146B0FBF5F00201B9
:103F3000B1FBF5F06FF01803584301EB800006EB7E
:103F4000C000B0FBF5F000F0F80002EB4002B1FB5E
:103F5000F5F0584301EB800006EBC000B0FBF5F034
:103F600000F00700D6E700000010014000140140F7
:103F70002DE9F041984617460E460446069D27E077
:103F8000681C25D02DB1FCF751FDA0EB0800A8421C
:103F90001ED920680C3050E8001F21F4D07140E891
:103FA0000012002AF5D12068143050E8001F21F0DB
:103FB000010140E80012002AF5D1202084F83D00DC
:103FC00084F83E00002084F83C000320BDE8F08126
:103FD0002068006836EA000004D00020B842CFD044
:103FE0000020F3E70120F9E70148FEF723B90000BC
:103FF000D80200200148FEF71DB900001C03002074
:10400000FEE710B5FFF7CEF9BDE81040FFF7E4B8C2
:104010001FB5254B0FCB8DE80F00FFF7F2FF0122F4
:1040200004212248FCF7FCFC214C002210212046F0
:10403000FCF7F6FCFF21491EC9B2FCD20122102177
:104040002046FCF7EDFC1B491B4800F081FF1B4993
:104050001B4800F08FFF1B491B4800F0A1FF1B49C4
:104060001B4800F063FF6946012000F0BFF9401CC7
:1040700012D018A000F05CF91FA000F059F94FF41D
:10408000645000F087F804280AD026A000F050F908
:104090002BA000F04DF9FEE730A000F049F9FEE753
:1040A00036A000F045F91FBDB0630008000C0240C7
:1040B0000008024055540008C55500081357000871
:1040C000A155000817570008A75500080554000817
:1040D0000154000857495A4348495020496E6974B1
:1040E00069616C697A6174696F6E20537563636589
:1040F00073732E0D0A0000004175746F2D64657492
:10410000656374696E672045746865726E657420B6
:1041100043686970206F6E2053504920506F72744D
:104120002E2E2E005735353030204E4F5420466FFE
:10413000756E64206F6E205350490D0A0000000018
:10414000446F75626C6520436865636B205350490A
:10415000204361626C65730D0A00000057495A43A1
:1041600048495020496E697469616C697A656420B8
:104170004661696C65642E0D0A00000057353530C4
:104180003020466F756E64206F6E205350490D0AC3
:1041900000000000F8B5144C0546E06880476069EF
:1041A0008047616AC5F30740C5F3072699B1A26A43
:1041B0008AB18DF800008DF801608DF8025003215E
:1041C00068469047E06980470546A06980472069B6
:1041D00080472846F8BD216A8847216A30468847CB
:1041E000216AE8B28847EDE7CC0000202DE9F843CA
:1041F0001A4C05461746E068884680476069804744
:10420000616AC5F30740C5F30726A1B1A26A92B15E
:104210008DF800008DF801608DF80250032168468A
:104220009047626A394640469047A06980472069B6
:104230008047BDE8F883216A8847216A304688476D
:10424000216AE8B28847002505E0E069804708F860
:1042500005006D1CADB2BD42F7D3E6E7CC000020EF
:10426000F8B5164C05460E46E06880476069804701
:10427000A26A45F004058AB1280C8DF80000280ACE
:104280008DF801008DF802508DF803600421684616
:104290009047A069804720698047F8BD216AC5F32F
:1042A00007408847216AC5F307208847216AE8B29A
:1042B0008847216A30468847EBE70000CC000020A1
:1042C000F8B51A4C05461646E0680F468047606907
:1042D0008047A26A45F004059AB1280C8DF80000C9
:1042E000280A8DF801008DF8025003216846904796
:1042F000A26A314638469047A069804720698047C6
:10430000F8BD216AC5F307408847216AC5F3072035
:104310008847216AE8B28847002504E0216A785D71
:1043200088476D1CADB2B542F8D3E5E7CC0000205C
:10433000014A024900F023B8D9440008F8000020DF
:104340000907090E002804DB00F1E02080F80014C2
:10435000704700F00F0000F1E02080F8141D704756
:1043600002E008C8121F08C1002AFAD1704770473E
:10437000002001E001C1121F002AFBD170472DE986
:10438000F04116460F460446002503E03946B04783
:10439000641C6D1C20780028F8D12846BDE8F08107
:1043A00010B50C4606281ED2DFE800F003070B10FC
:1043B0001418204601F01CF913E0204601F070F8B3
:1043C0000FE02078BDE8104001F03EB901F094F80C
:1043D000207006E0204601F049F902E0204601F095
:1043E0008EF8002010BD4FF0FF3010BD2DE9F041D8
:1043F0000C46002102464F1E08464FF498554FF4D4
:10440000A056102A63D2DFE802F0080B17131A1E19
:10441000222C3645484C5950555C01F040F94DE08E
:1044200014B1204604F10801BDE8F04101F07BB869
:10443000208800F0EDFF41E001F014F805E020884D
:1044400001F0C8F83AE001F01CF8208036E020883E
:10445000010A2846FFF704FF21783046FFF700FFE6
:104460002CE03046FFF796FE06462846FFF792FE00
:1044700006EB0020E9E7174882782270C278627064
:104480000279A2704279E27082792271C0796071FA
:10449000A17113E001F08CF910E0204601F09DF9C4
:1044A0000CE0204601F045F908E02078BDE8F04135
:1044B00001F0B8B901F06FF905E020700020BDE807
:1044C000F08101F05DF9C0B241B2491CF5D1384626
:1044D000F5E70000CC00002013B547F23054234626
:1044E000012269460348FEF7DBF80028F7D100985F
:1044F0001CBD00001C030020FCF72EFDFFF728FA6E
:10450000FEF76AFEFEF7F0FDFEF770FFFFF764F8B6
:10451000FFF746F8FEF704FFFEF722FFFEF742FF23
:10452000FEF7B2FFFEF7E6FF00F012F8FEF712FE0C
:1045300000F020F8FEE710B5EFF3058111B16FF040
:10454000050403E0002408B100F074FE204610BD0D
:10455000EFF3058010B16FF0050070470448016863
:1045600011B14FF0FF30704701210160002070470A
:104570009400002010B5EFF3058010B16FF0050036
:1045800010BD08480168012902D04FF0FF3010BD6E
:10459000054A002182F8141D0221016000F0B2FEDC
:1045A000002010BD940000200BE000E0F8B5144698
:1045B0004FF00005EFF3058212BB08B301B3A4B1BD
:1045C000D4E9023263B1502A1AD32269C2B16769B1
:1045D00000FB01F6B74213D3009501F0FCF907E0A8
:1045E00072B9226962B9626952B9002201F0D2F946
:1045F000050005D00CB1216800E0002100F0E4FDC9
:104600002846F8BD2DE9FF414FEA01034FF00005B0
:10461000EFF30581039549BB40B38027182100249F
:104620004AB3166806B1344696691EB13146761E05
:10463000382E02D21679F60703D0002004B0BDE868
:10464000F081566906B1B708D2F808C0BCF1000F76
:104650000DD0D5686C2D18D312693AB136B18DE8FA
:1046600006103A46214601F040FC03900DE0D66862
:104670005EB912694AB903AACDE90012BAB221465D
:1046800001F006FC012800D003950398D6E700004E
:104690002DE9F041134C0F460546E6682068001DE1
:1046A00000F094FC681C07D137B12168BDE8F041E7
:1046B0000D48091D00F0DABC20683544B54245605C
:1046C000216805D2A06BBDE8F041091D00F0B6BC21
:1046D000606B091D00F0B2FCA06A854200D2A562A1
:1046E000BDE8F08144000020180A00202DE9F041C7
:1046F000054600F0C7FC2D4CA068401CA060206857
:104700002B4F10B1606930B32BE02560A068012801
:1047100027D1002606EB860007EB800000F080FC26
:10472000761C382EF6D3234800F07AFC214814304A
:1047300000F076FC1F48283000F072FC1D483C3029
:1047400000F06EFC1B48503000F06AFC19486063B2
:104750001430A06305E02068E96AC06A884200D886
:104760002560606A401C60626865E86A2169884269
:1047700000D9206100EB800007EB8000291D00F0CC
:1047800075FC00F09FFC606900280CD02068E96A85
:10479000C06A884207D208494FF080500860BFF3D2
:1047A0004F8FBFF36F8FBDE8F08100004400002001
:1047B00068050020C809002004ED00E038B500F0CD
:1047C00061FC104C2068C8B90F4800F029FC0E4865
:1047D000143000F025FC0C48E060143020610A4BD6
:1047E0000020F03B009003F1500210210A2001F05C
:1047F000F2F8206010B105A100F0E6FCBDE83840F9
:1048000000F060BC800000201C0B0020546D725131
:104810000000000030B4026C0B46002A0BD0C168C7
:104820001144C1608468A14201D30168C16030BCF9
:104830001846FBF776BD30BC70472DE9F041856B1B
:10484000174604460026026C82B1C7B1E068FBF748
:1048500068FDE168206C091AE1602268914202D289
:10486000A168081AE060022F16D017E02068A8B9E6
:10487000A06801F0DDFB06460020A0600EE0606845
:10488000FBF74FFD216C606808446060A1688842B6
:1048900004D32068606001E005B16D1E6D1CA56346
:1048A0003046BDE8F08110B5044690F8690058B173
:1048B00001280CD002280FD0502080F31188BFF3BC
:1048C0004F8FBFF36F8FFEE7206B00F00FFC204689
:1048D000BDE8104000F00ABC10BD000010484FF4C5
:1048E0007051420706D0C01D0D4920F00700411A43
:1048F000C1F570510B4A00230144C2E90003083995
:10490000183A21F0070111604B600B600B1AC0E9E7
:10491000001393604FF000405360506170470000F7
:104920001C120020B0000020144E154CA6F29C472B
:104930004FF08058DFF84C9012E000BF00F0A2FB6F
:10494000F068C568281D00F041FBA068401EA0600B
:104950006068401E606000F0B5FB2846FFF7A3FFCB
:1049600060680028EAD138680128F9D9C9F80080C0
:10497000BFF34F8FBFF36F8FF2E70000040A0020F0
:104980004400002004ED00E070B51D46049C51B1C8
:10499000C4F80020C4E90F010121204601F04EF8BF
:1049A00084F84C5070BD2460F4E700002DE9F05FFE
:1049B0008846DDE90B941546834691009A460A9E87
:1049C000A522206BFBF7BFFC6FF00301206B01EB0E
:1049D0008501084420F00707780707D0502080F3AE
:1049E0001188BFF34F8FBFF36F8FFEE70025B8F13B
:1049F000000F0FD05FF00000221818F8001082F8A6
:104A0000341018F8001011B1401C2028F4D384F899
:104A1000535001E084F83450382E00D33726E66234
:104A2000C4E91765201D00F006FB04F1180000F032
:104A300002FB2461C6F138006462A061656684F8F7
:104A4000685052465946384600F05AFA2060B9F18B
:104A5000000F01D0C9F80040BDE8F09F30B5114902
:104A600000E011460A688242FBD34B685C1884421E
:104A700003D1406818444860084643681C189442B3
:104A800009D1084C183C2468A24209D052681A4443
:104A900042600A6812680260814200D0086030BD3E
:104AA0000460F9E7B000002070B5002441600B4DB0
:104AB0000061914206D8D11A8269914206D2011D45
:104AC000286907E09A4203D2994201D3012403E006
:104AD000011DE86800F0B2FA204670BD8000002099
:104AE00010B5044600F0CEFAA06B28B15FF00004C8
:104AF00000F0E8FA204610BD0124F9E730B589B08E
:104B00003C4D6EE00498002806DADDE90601059ABE
:104B100090470498002864DB069C606910B1201D52
:104B200000F054FA03A800F0D7F8024604980A28C7
:104B300057D2DFE800F00505052D334A05052D3372
:104B400094F8280040F0010084F828000599A06935
:104B5000059B01442046FFF7A7FF68B3216A204662
:104B6000884794F8280040073BD50020009005981E
:104B7000A169002342181946204601F063FBD8B909
:104B8000502080F31188BFF34F8FBFF36F8FFEE784
:104B900014F8280F20F00100207022E094F828007B
:104BA00040F0010084F828000598A06128B1811820
:104BB00013462046FFF778FF13E0502080F311885A
:104BC000BFF34F8FBFF36F8FFEE794F82800810784
:104BD00003D4204600F08AFA03E020F0010084F8B4
:104BE0002800002204A9286801F07CF8002889D157
:104BF00009B030BD800000202DE9FC410F4605467C
:104C000000F0C4FB01A800F067F80446019818B151
:104C100001F086FABDE8FC81254EAFB1306900682D
:104C2000D0B30027291B3A46306800F0E1FA01F0C2
:104C300077FA0028EED11F494FF080500860BFF38B
:104C40004F8FBFF36F8FE5E7A542EBD801F068FA0D
:104C5000F0682746C068C468201D00F0B7F994F8D2
:104C60002800410719D5A0692B4641193A4620462C
:104C7000FFF71AFFA8B100200346014600902A461C
:104C8000204601F0DFFA60B9502080F31188BFF3AD
:104C90004F8FBFF36F8FFEE707E020F0010084F82D
:104CA0002800216A20468847B4E70127BAE70000B8
:104CB0008000002004ED00E00648416B096829B13E
:104CC000416BC968C9684968816270474FF0FF311C
:104CD000FAE700004400002070B5054601F03EF9F7
:104CE000064E0446B068844203D200F009F8012061
:104CF00000E0002028602046B46070BD80000020E5
:104D0000F8B5194D20E0C068C4680668201D00F0A1
:104D10005DF9216A2046884794F82800400713D59A
:104D2000A0693044B04206D924616060211DE86862
:104D300000F084F908E00020034601460090324666
:104D4000204601F07FFA38B1E86801680029DAD11D
:104D50002969C5E90310F8BD502080F31188BFF31D
:104D60004F8FBFF36F8FFEE7800000200848406838
:104D7000401C4FF0500080F3118804D0BFF34F8FD8
:104D8000BFF36F8FFEE7BFF34F8FBFF36F8FFEE769
:104D9000B8000020074CE068016841B1C0680021FC
:104DA000D0F80000FFF728FFFFF7A8FEF3E7012186
:104DB0000020F7E7800000202DE9F041044600F0D4
:104DC00061F994F9455004F1240609E0606A48B19C
:104DD000304601F06DF908B100F05AFA6D1E6DB25F
:104DE000002DF3DC4FF0FF3684F8456000F06AF9DF
:104DF00000F048F994F9445004F1100709E02069E3
:104E000048B1384601F054F908B100F041FA6D1E7E
:104E10006DB2002DF3DC84F84460BDE8F04100F091
:104E200051B900002DE9F0410546002700F0AEFA27
:104E3000324E306808B9FFF751FD706905424ED116
:104E4000C5B3083568070ED005F00700C0F10800AB
:104E50000544680707D0502080F31188BFF34F8FB7
:104E6000BFF36F8FFEE72DB37068854237D82348B4
:104E7000183001460C6801E020460C466168A942E2
:104E800002D221680029F7D131688C4227D0076807
:104E90002168016060680837411B10290FD960192B
:104EA000420708D0502080F31188BFF34F8FBFF323
:104EB0006F8FFEE713E041606560FFF7CFFD61682B
:104EC0007068401A7060B268904200D2B060706939
:104ED00001430020C4E90001F068401CF06001F0CB
:104EE0001FF9780707D0502080F31188BFF34F8F48
:104EF000BFF36F8FFEE73846BDE8F08198000020D1
:104F000010B5031F4FF080741C601B1F21F00101BE
:104F10001960191F044B0B6014390A60091F6FF0E8
:104F2000020244380A6010BD6D4D0008054A18B1F0
:104F300011B1C2E9030170470348D0600348106112
:104F400070470000CC0000204B5400084D5400086E
:104F5000054A18B111B1C2E9050170470348506113
:104F60000348906170470000CC00002051540008B5
:104F70004F540008074A10B513889C05FDD518B199
:104F800011B1C2E9070110BD0348D06103481062A6
:104F900010BD0000CC000020975600089D56000868
:104FA000074A10B513889C05FDD518B111B1C2E9A7
:104FB000090110BD034850620348906210BD000013
:104FC000CC000020955600089B560008D0E901321D
:104FD00001699A60D0E901235A604A68824201D18E
:104FE00082684A60002202610868401E0860086802
:104FF00070470000034B036003F16C0008608020E1
:1050000010607047440B0020044B036003F16C00F8
:1050100008604FF48070106070470000B00D0020F1
:1050200000F108014FF0FF32C0E90112C1600161D7
:1050300000210160704700210161704730B50B68A5
:105040005A1C02D000F1080202E0026904E0224684
:10505000546825689D42FAD953684B6099608A600C
:10506000516008610168491C016030BD42684A60B6
:1050700093688B6093685960916008610168491C6E
:1050800001607047502080F31188BFF34F8FBFF34A
:105090006F8F0A494868401C486001280CD10848B5
:1050A000006810F0FF0F07D0502080F31188BFF385
:1050B0004F8FBFF36F8FFEE770470000B8000020EE
:1050C00004ED00E00849486828B1401E486001D15D
:1050D00080F311887047502080F31188BFF34F8F01
:1050E000BFF36F8FFEE70000B800002070B5002806
:1050F0002AD0164DA0F1080460686969084207D1FA
:10510000502080F31188BFF34F8FBFF36F8FFEE7FE
:1051100022683AB1502080F31188BFF34F8FBFF35C
:105120006F8FFEE78843606000F030F9606869685F
:10513000084468602046FFF791FC2869401C2861FC
:10514000BDE8704000F0ECBF70BD0000980000208A
:105150004FF0E02000210161816105494FF47A722E
:105160000968B1FBF2F1491E4161072101617047F5
:105170004000002010B5FBF78DF8114910280ED320
:1051800000F1E02090F8F0030A78904207D2502016
:1051900080F31188BFF34F8FBFF36F8FFEE709488D
:1051A0000068896800F4E060884207D9502080F3E5
:1051B0001188BFF34F8FBFF36F8FFEE710BD000064
:1051C000B80000200CED00E010B5084B002200BF35
:1051D00053F832401CB1521C082AF9D310BD43F8D1
:1051E000321003EBC201486010BD0000280500200A
:1051F00070B515460E460446FFF744FF94F9441077
:105200000020491C01D184F8440094F94510491C40
:1052100001D184F84500FFF755FFA06B28B92A4655
:10522000314604F1240000F051F82046BDE87040FA
:10523000FFF7C2BD10B5020014D00F48006B38B1A3
:10524000502080F31188BFF34F8FBFF36F8FFEE7BD
:1052500000F09CF800211046FFF71AFA00F060FFFA
:10526000002807D105494FF080500860BFF34F8FE9
:10527000BFF36F8F10BD00004400002004ED00E07C
:1052800002490A6A0260C968416070474400002010
:1052900001490120C86170474400002010B50C4648
:1052A00050B1094909681831FFF7C8FE2046BDE82A
:1052B00010400121FFF7ECB9502080F31188BFF3B3
:1052C0004F8FBFF36F8FFEE74400002070B5144688
:1052D0000D4668B10A4909681831FFF7C7FE0CB1DD
:1052E0004FF0FF3521462846BDE87040FFF7D0B9A2
:1052F000502080F31188BFF34F8FBFF36F8FFEE70D
:105300004400002030B587B00024039405AA04A906
:1053100003A80494FFF76EFEDDE903010094CDE9D4
:105320000110002315A11748059A00F0DEFD164D67
:105330000028E8621FD000F055FF012809D0401C6A
:1053400019D1502080F31188BFF34F8FBFF36F8FB7
:10535000FEE7502080F31188BFF34F8FBFF36F8FAC
:105360004FF0FF30A86201206861EC6007B0BDE833
:10537000304000F07FBA07B030BD000049444C45D2
:105380000000000029490008440000200248016B89
:10539000491C01637047000044000020164810B506
:1053A000016B11B10121C16110BD0021C161016911
:1053B000124A01E0B9B1491E01EB810352F82330D2
:1053C000002BF7D001EB810302EB830202F108040A
:1053D00053685B685360A34201D15B685360DA682D
:1053E0000260016110BD502080F31188BFF34F8F20
:1053F000BFF36F8FFEE70000440000206805002027
:1054000072B6704762B67047007870470170704797
:105410002DE9F041050A00F0F0014FF4A850FEF725
:105420001FFF002401264FF4027700BF06FA04F0A4
:10543000284204D007EB44101F21FEF711FF641C23
:10544000E4B2082CF2D3BDE8F08170477047704792
:1054500070470000012204210148FBF7E1BA000077
:10546000000C024010B54FF4A850FEF793FE00F078
:10547000F0044FF4B850FEF78DFE04EB002080B22C
:1054800010BD10B54FF4B050FEF784FE04464FF443
:10549000C050FEF77FFE04EB002080B210BD00007C
:1054A00010B50446014606224FF41060FEF79EFE3A
:1054B000042204F10E019001FEF798FE042204F18B
:1054C0000A014FF4A060FEF791FE0422A11D4FF4E3
:1054D0007060FEF78BFE07480178A1744178E17493
:1054E00081782175C07860750248401E0078A075EB
:1054F00010BD0000C50000200020FEF74BBE70B5B7
:1055000004464FF4D850FEF745FE20704FF4D050BB
:10551000FEF740FE05464FF4C850FEF73BFE05EB94
:105520000020608070BD2DE9F0410D460646002444
:1055300000F0B5F84FF0FF38AEB10022B05C204467
:1055400044B2102C17DC521C52B2082AF6DB00249D
:1055500041F60877315D07EB4410FEF781FE641CCD
:1055600064B2082CF6DBCDB1002108462A5C114458
:1055700049B2102902DD4046BDE8F081401C40B22E
:105580000828F3DB002441F60866295D06EB441089
:10559000FEF766FE641C64B2082CF6DB0020EBE725
:1055A0000020FEF71BB970B50E460546002406E044
:1055B0000020FEF713F9641C05F8010BA4B2B442F5
:1055C000F6D370BD002204210148FBF729BA000080
:1055D000000C024010B5C1B2040A4FF4B050FEF7FF
:1055E0003FFE2146BDE810404FF4C050FEF738BEE4
:1055F00010B50446014606224FF41060FEF760FE27
:10560000042204F10E019001FEF75AFE042204F177
:105610000A014FF4A060FEF753FE0422A11D4FF4CF
:105620007060FEF74DFE0748A17C0170E17C41707F
:10563000217D8170617DC1700249A07D491E087085
:1056400010BD0000C500002010B5044630F03A003F
:1056500002D04FF0FF3010BD0020FEF79BFD40EA66
:1056600004010020FEF7FCFD002010BD10B504462B
:1056700001784FF4D850FEF7F3FD6088010A4FF42B
:10568000C850FEF7EDFDA178BDE810404FF4D050B2
:10569000FEF7E6BD70470020704770477047F0B5D1
:1056A00085B04FF41064062269462046FEF79EFD41
:1056B0000422950102A92846FEF798FD4FF4A06642
:1056C000042203A93046FEF791FD4FF470670422CF
:1056D00004A93846FEF78AFD80210020FEF7C0FDB0
:1056E0000020FEF757FD062269462046FEF7E8FD3A
:1056F000042202A92846FEF7E3FD042203A930464E
:10570000FEF7DEFD042204A93846FEF7D9FD05B0F8
:10571000F0BDFEF763B870B50E460546002405E0FF
:105720002878FEF75BF8641CA4B26D1CB442F7D372
:1057300070BD10B504464FF43850FEF72BFDC0F392
:105740008011217000F0380001220021202811D0A2
:1057500038280FD0617010280ED018280CD02028BF
:105760000AD0A170082809D0182807D0202805D011
:10577000E17010BD6270EEE7A270F3E7E27010BD59
:1057800010B500244FF43850FEF704FDC00700D0D8
:105790000124204610BD10B500244FF43850FEF708
:1057A000F9FCC0F3C200062800D10124204610BD38
:1057B00010B54FF438542046FEF7ECFC20F0800181
:1057C0002046FEF74DFD2046FEF7E4FC40F0800148
:1057D0002046BDE81040FEF743BD10B50278002119
:1057E000012A00D140214278012A06D0C27880786F
:1057F000012A05D001280BD00CE041F0380109E066
:10580000012802D041F0080104E041F0180101E054
:1058100041F010014FF43850FEF722FDBDE8104072
:10582000FFF7C6BF70B504464FF438563046FEF752
:10583000B1FC41064FF0FF351AD520F03800012C9D
:1058400010D040F038013046FEF70AFDFFF7B0FFF8
:105850003046FEF79FFC012C07D000F0380038B12D
:10586000002070BD40F03001EDE700F03000F6E7B9
:10587000284670BD1CB537480168374A914207D1A8
:10588000502080F31188BFF34F8FBFF36F8FFEE777
:1058900000683149491E884207D1502080F31188A1
:1058A000BFF34F8FBFF36F8FFEE72C49087801904D
:1058B000FF20087008788DF800009DF800009DF822
:1058C000002000F0F000904207D0502080F31188B3
:1058D000BFF34F8FBFF36F8FFEE79DF80000204CA2
:1058E00000F0500020700720A06005E09DF8002027
:1058F00052008DF80020401E9DF800201206F5D4BD
:10590000A060032807D0502080F31188BFF34F8F89
:10591000BFF36F8FFEE74FF44070A06001980870EE
:105920000C482030016841F470010160016841F0C9
:1059300070410160FFF70CFC00206060FAF772FC18
:105940000848016841F040410160FAF757FC002027
:105950001CBD000000ED00E071C20F4100E400E05A
:10596000B800002034EF00E010B5502080F311881B
:10597000BFF34F8FBFF36F8F00F0F6FA18B10449F1
:105980004FF080500860002080F3118810BD0000A7
:1059900004ED00E0F8B517460E46050013D005FBF0
:1059A00006F05030FFF73EFA04000AD0002084F8D9
:1059B000460004F150023B46314628460094FEF76B
:1059C000E3FF2046F8BD502080F31188BFF34F8FCE
:1059D000BFF36F8FFEE738B5049D18B153B1CAB15C
:1059E00081B120E0502080F31188BFF34F8FBFF3C7
:1059F0006F8FFEE7502080F31188BFF34F8FBFF306
:105A00006F8FFEE7502080F31188BFF34F8FBFF3F5
:105A10006F8FFEE739B1502080F31188BFF34F8FAD
:105A2000BFF36F8FFEE750241C46012384F84630F5
:105A30002B460094FEF7A8FF204638BD70B50D46F2
:105A4000040025D0FFF71EFBD4E90F20216802FBDC
:105A50000011A1600021A163216861600A46D4E9B8
:105A60000F01401E00FB0121E16021464FF0FF3095
:105A700001F8440F487004F110008DB1FFF7D0FA1F
:105A800004F12400FFF7CCFAFFF71CFB012070BDE6
:105A9000502080F31188BFF34F8FBFF36F8FFEE765
:105AA00021690029F0D000F003FB0028ECD0044964
:105AB0004FF080500860BFF34F8FBFF36F8FE3E765
:105AC00004ED00E02DE9FF4782B01D468A464FF005
:105AD0000008040003D0BAF1000F08D011E05020F4
