:020000040800F2
:10000000D85400209D0200081F410008CB31000891
:100010001D410008570800085D4D00080000000061
:10002000000000000000000000000000DD010008EA
:100030000509000800000000390200082D450008ED
:10004000B7020008B7020008B7020008B7020008AC
:10005000B7020008B7020008B7020008B70200089C
:10006000B7020008B7020008B7020008B70200088C
:10007000B7020008B7020008B7020008B70200087C
:100080005908000865080008B7020008B702000810
:10009000B7020008B7020008B70200083B090008D1
:1000A000B7020008E9450008B7020008B7020008D7
:1000B000F545000801460008B7020008D9310008DC
:1000C000CD310008B7020008B7020008B7020008E7
:1000D000B7020008454D0008514D0008B70200085E
:1000E00025090008B7020008B70200080D460008FD
:1000F000314600082546000819460008B7020008E6
:1001000000000000B7020008B7020008FD42000826
:100110000000000000000000B7020008B70200085D
:10012000B7020008B702000871080008B70200080B
:10013000B7020008B7020008B7020008B7020008BB
:10014000B7020008B7020008B7020008B7020008AB
:10015000B7020008B70200087D080008B7020008CF
:10016000B7020008B702000800000000000000000D
:10017000000000000000000000000000000000007F
:10018000B7020008B70200080000000000000000ED
:10019000B7020008B70200080000000000000000DD
:1001A000000000000000000000000000000000004F
:1001B000B70200080000000000000000B7020008BD
:1001C000B7020008DFF810D000F0C4FA004800477A
:1001D000715B0008AFF30080D85400202C4B1968E5
:1001E0000868B0E8F04F80F30988BFF36F8F4FF0D5
:1001F000000080F311887047000000000848006884
:10020000006880F308884FF0000080F3148862B61D
:1002100061B6BFF34F8FBFF36F8F00DF00BF00BF2A
:1002200008ED00E0DFF80C00016841F470010160A6
:10023000704700BF88ED00E0EFF30980BFF36F8FD8
:10024000134B1A681EF0100F08BF20ED108A20E92A
:10025000F04F106009B44FF0500080F31188BFF3E5
:100260004F8FBFF36F8F06F0E5FB4FF0000080F378
:10027000118809BC19680868B0E8F04F1EF0100F2B
:1002800008BFB0EC108A80F30988BFF36F8F704706
:100290004C000020EFF305807047000006488047BF
:1002A00006480047FEE7FEE7FEE7FEE7FEE7FEE75B
:1002B000FEE7FEE7FEE7FEE7D9450008C5010008B6
:1002C0002DE9F05F0546002092469B46884606468B
:1002D000814640241BE0284641464746224600F01E
:1002E00070F853465A46C01A914110D31146184629
:1002F000224600F057F82D1A67EB01084F462246B8
:100300000120002100F04EF817EB00094E41201E9D
:10031000A4F10104DFDC484631462A464346BDE8E5
:10032000F09F40EA01039B0703D009E008C9121FB0
:1003300008C0042AFAD203E011F8013B00F8013B9F
:10034000521EF9D27047D2B201E000F8012B491ECB
:10035000FBD270470022F6E710B513460A46044662
:100360001946FFF7F0FF204610BD421C10F8011B94
:100370000029FBD1801A704730B50B46014600209A
:100380002022012409E021FA02F59D4205D303FA57
:1003900002F5491B04FA02F52844151EA2F10102D8
:1003A000F1DC30BD202A04DB203A00FA02F1002003
:1003B00070479140C2F1200320FA03F319439040A3
:1003C0007047202A04DB203A21FA02F0002170470E
:1003D00021FA02F3D040C2F12002914008431946AD
:1003E00070472DE9FE4F804681EA0300C00F0C469E
:1003F000009021F0004123F00045B8EB0200A94134
:1004000005D24046214690461C460B46024623F044
:100410000040104347D0270DC7F30A00C3F30A5129
:100420000290401A019040286BDAC3F3130040F4A5
:10043000801B0098924620B10023D2EB030A63EBA5
:100440000B0B01985946C0F140025046FFF7AAFF36
:1004500006460D4650465946019A00F08DF910EBBC
:1004600008006141002487EA115284EAE7731A43C5
:1004700040D0009A62B3019A012A4FEA075215DC74
:10048000001B61EB02014FF0004202EA0752CDE986
:100490000042001C41F5801132462B4600F08DF9D8
:1004A00003B0BDE8F08F40462146F9E7001B61EB41
:1004B0000201001C41F5801300185B412018A2F5D1
:1004C000001747EB030140EAD570B6196D4111E002
:1004D0006D084FEA360645EAC0754FEA0752001B21
:1004E00061EB0201001C41F5801149084FEA300020
:1004F0000019514132462B4603B0BDE8F04F00F0E1
:100500004DB90098012240000023D0EB020263EBBA
:10051000E073009821464FEAE074B8EB000061EB0D
:100520000401E9E783F000435BE781F0004158E70D
:100530002DE9FE4F81EA030404F0004421F000415C
:1005400000944FF0000B23F0004350EA01045ED00A
:1005500052EA03045BD0C3F30A54C1F30A552C4496
:10056000A4F2F3340194A0FB0254C1F3130141F44B
:100570008011C3F3130343F4801301FB024400FB17
:10058000034E840A970A44EA815447EA8357A4FB3E
:10059000076802958D0A05FB07854FEA932C04FB3B
:1005A0000C542705029D4FEA065847EA1637B5EB6B
:1005B00008056EEB070C870E920E47EA811742EA98
:1005C0008312A7FB0201B6EB0B0164EB00042B0DB9
:1005D00043EA0C335E1844EB1C50DA465146E7FB05
:1005E0000201C5F313044FEA0B3343EA14534FEAF5
:1005F0000432019C43EA0603A4F10C040294009C1B
:10060000CDE900B400F0D9F803B0BDE8F08F0020C8
:100610000146F9E72DE9F04D81EA030404F0004BAF
:1006200021F0004514464FF0000A23F0004150EA43
:10063000050220D054EA01021DD0C5F30A57024634
:10064000C5F31303C1F31300C1F30A5640F4801538
:1006500043F48013A7EB0608101BD64608F2FD38BA
:1006600073EB050002D308F1010801E092185B4129
:10067000B8F1000F03DA00200146BDE8F08D00203C
:100680004FF48011064684460EE0171B73EB0507F6
:1006900005D3121B63EB050306434CEA010C490822
:1006A0004FEA300092185B4150EA0107EDD152EA5F
:1006B000030012D082EA040083EA0501084305D052
:1006C000101BAB4106D20122002306E000224FF0AE
:1006D000004302E06FF0010253101AEB06004CEBEE
:1006E000085110EB0A0041EB0B01BDE8F04D00F0A2
:1006F00055B8C1F30A52C1F3130140F2FF3341F47C
:1007000080119A4202DA00200146704740F23343DA
:100710009A42A2F2334202DC5242FFF752BEFFF786
:1007200041BE000030B5041E71F1000404DB4FF03F
:100730000044404264EB0101141E73F1000405DB28
:100740001C464FF00043524263EB0403994208BF3A
:10075000904230BD064C074D06E0E06840F00103D2
:1007600094E8070098471034AC42F6D3FFF72EFD0B
:100770002C7B00084C7B0008202A06DBCB17203A94
:1007800041FA02F043EAE07306E041FA02F3D04096
:10079000C2F12002914008431946704710B5141E5B
:1007A00073F1000408DA401C41F1000192185B412A
:1007B0001A4301D120F0010010BD2DE9F04D924601
:1007C0009B4611B1B1FA81F202E0B0FA80F2203218
:1007D0009046FFF7E7FD04460F4640EA0A0041EA6B
:1007E0000B0153465A46084313D0114653EA010001
:1007F00019D0C8F140025046FFF7E3FD05460E460A
:10080000504659464246FFF7CDFD084305D001202A
:1008100004E020463946BDE8F08D0020054346EA55
:10082000E0762C4337430A986305E40AA0EB0800FE
:100830000022FD0A44EA47540A3002D5002001464E
:10084000E9E7010510196941DDE908450019694129
:10085000BDE8F04DA2E7FEE7014800F04FB9000007
:10086000DC040020014800F049B900003C050020EC
:10087000014800F043B900001C040020014800F0CA
:100880003DB900007C04002001681823CAB2103A68
:10089000B2FBF3F2054B6FF30901032A9B5CC365BE
:1008A00000D9091D8165084670470000887A000854
:1008B00010B5014600208B698A6A4FF0C07453B1AD
:1008C000B3F5005F15D072B1012A0CD0022A0AD00C
:1008D000032A09D104E01AB1012A06D0022A03D161
:1008E000C96AC90100D5012010BDC96AA142FAD068
:1008F00010BD002AF7D0012AF2D0022AF3D0032A31
:10090000F3D010BD70470000054801F0A1FC0021A4
:10091000034802F09DF8012005F04BF9FBE70000C9
:100920000403002010B54FF4006000F05FFABDE84A
:1009300010404FF4805000F059BA4FF4807000F02E
:1009400055BA00003C21104801F0BCFD0E4C206857
:10095000C16841F00101C1600C4801F079FC2168D7
:1009600042F2107048620A4800219FED0A0A0160B5
:100970004160018180ED030A017480ED050A0120C8
:1009800005F017F9FBE7000074020020BC0200200C
:10099000580100200000000072B6FEE708B514A060
:1009A00004F074FB04F0E2F91C49002005F008F89B
:1009B00001208DF800008DF8030000218DF8021051
:1009C0008DF8010069460A2005F020F803F0A8FB25
:1009D00003F0EEFB12A004F059FB184D4FF4FA742B
:1009E000204605F0E6F80221284600F0E5FAF7E790
:1009F000412073696D706C652050696E672041708D
:100A0000706C69636174696F6E207573696E6720BD
:100A10005735353030210D0A00000000200000203D
:100A200053696D706C652050696E67204170706C01
:100A300069636174696F6E0D0A000000000802406E
:100A40002DE9F0410446876D00F0C4FA064694F89B
:100A500035000025022806D08020606584F83450D7
:100A60000120BDE8F0812068016821F016010160D5
:100A70002068416921F080014161206C08B9A06CB7
:100A800020B12068016821F0080101602068016838
:100A900021F0010101600CE000F09CFA801B0528A8
:100AA00007D920206065032084F8350084F834508D
:100AB000D7E720680068C007EED194F85C103F20AB
:100AC0008840B860012084F8350084F83450002054
:100AD000C7E790F83510022903D080214165012035
:100AE0007047052180F835100068016821F0010188
:100AF00001600020704790F8350070472DE9F843F9
:100B000004464FF00009CDF8009063484FF41651A9
:100B1000A56D0068B0FBF1F72E6894F85C10082012
:100B200000FA01F131420FD021680A6852070BD553
:100B30000A6822F004020A6094F85C108840A860F9
:100B4000606D40F00100606594F85C104FF00108A2
:100B500008FA01F0304208D021684969090604D535
:100B6000A860606D40F00200606594F85C1004209D
:100B70008840304208D021680968890704D5A860F8
:100B8000606D40F00400606594F85C1010208840AF
:100B9000304218D021680968090714D5A860206878
:100BA0000168490304D50068000308D5A16C07E07B
:100BB0000168C90503D4016821F008010160216CB6
:100BC00009B12046884794F85C10202088403042C4
:100BD00031D021680968C9062DD5A86094F8350080
:100BE00005282068016806D0490347D5006800033E
:100BF0001DD4616C1CE021F0160101602068416980
:100C000021F080014161206C08B9A06C20B12068FE
:100C1000016821F00801016094F85C103F208840D1
:100C2000A86084F8358084F83490216D1FE0E16B72
:100C300009B120468847606D00282BD0606DC00741
:100C400014D0052084F835002068016821F00101E6
:100C500001600098401C0090B84203D820680068EA
:100C6000C007F6D184F8358084F83490E16C00290F
:100C700010D001B02046BDE8F04308470168C9051F
:100C8000D5D4016821F01001016084F8358084F822
:100C90003490CCE7BDE8F883480000202DE9F0410E
:100CA000044600F097F906465CB1022084F835004E
:100CB000002584F834502068016821F001010160AA
:100CC0000DE00120BDE8F08100F084F9801B0528CB
:100CD00005D920206065032084F83500F2E72068FC
:100CE0000068C007F0D12268116820480140D4E9AB
:100CF00001031843D4E903363343184363691843A7
:100D0000A3691843E3691843236A18430843616AD7
:100D1000042903D1D4E90B13194308431060206858
:100D20004069666A20F0070130460E430127042817
:100D30000CD1A06A0643E06A40B12046FFF7B8FD37
:100D400020B14020606584F83570BAE720684661BC
:100D50002046FFF799FD94F85C203F219140816087
:100D6000656584F835700020ACE700003F8010F026
:100D700070B5044600F02EF90546601C02D0044808
:100D80000078044400F026F9401BA042FAD370BD5D
:100D90003C00002030B510494FF480550D4A0F4CEF
:100DA000096842F21073A84202D19FED0D0A05E0D6
:100DB0004FF40065A84206D19FED0A0A82ED000AB1
:100DC0004B62256030BD4FF48075A842FAD19FED8B
:100DD000060AF3E73800002074020020143C0140AA
:100DE000000000000000FA4300007A44044910B5F6
:100DF0000A68024202D00860FFF7CCFF10BD000075
:100E0000143C01402DE9F84FDFF890A100220124A5
:100E100003254FF00F090AF1040BAAF1040E00BFDD
:100E20000B6804FA02F63340B3426ED10F7907F033
:100E30000307012F01D0022F16D187684FEA42081D
:100E400005FA08FC27EA0C07D1F80CC00CFA08FCDC
:100E50004CEA070CC0F808C04768B7430E79C6F3E0
:100E6000001696403E4346600E79F643B6070AD018
:100E7000C6684FEA420C05FA0CF7BE438F6807FAC2
:100E80000CF73743C7600E7906F00306022E10D127
:100E9000D60800EB8608D8F8206057074FEAD76CD1
:100EA00009FA0CF7BE430F6907FA0CF73743C8F885
:100EB000207006684FEA420C05FA0CF7BE430F7922
:100EC00007F0030707FA0CF7374307604E6816F47C
:100ED000403F5CD0324E376847F480473760366811
:100EE00022F0030706F4804600962E4E07EB060C10
:100EF000DCF8086897074FEA177809FA08F7BE4345
:100F0000294FB84202D1002710E040E0274FB842F5
:100F100001D101270AE0264FB84201D1022705E09E
:100F2000244FB84201D1032700E0072707FA08F74A
:100F30003743CCF80878DAF800605746D1F804C097
:100F40009E435FEACC2C00D51E433E60DBF8006078
:100F50005F46D1F804C09E435FEA8C2C00D51E4347
:100F60003E60DEF800607746D1F804C09E435FEA39
:100F70008C3C00D51E433E60084F083F3E68D1F8C8
:100F800004C09E435FEACC3C00D51E433E60521C29
:100F9000102AFFF445AFBDE8F88F0000083C01407F
:100FA000443802400030014000000240000402408A
:100FB00000080240000C0240426921EA02030A4094
:100FC00043EA0241816170470AB1816170470904B7
:100FD000FBE7000001488068704700003C000020EB
:100FE000704770472DE9F041016804464A694E6830
:100FF00090F83E000025D743FA0506D4F243D20507
:1010000003D46FF4807201254A61B90508D4F14315
:10101000C90505D422686FF4007145F002055161DD
:10102000790525D4F143C90522D4638D94F83D1088
:10103000226B202808D13BB9212910D029290ED0B4
:10104000282901D1212A0AD022686FF480615161D8
:1010500045F00405102806D0402804D008E02046BA
:1010600002F08CFC04E02068016841F4007101602A
:10107000380508D4F043C00505D421686FF400603A
:1010800045F008054861002D07D0206C28432064F6
:101090002046BDE8F04102F003B9BDE8F0812DE93A
:1010A000F047026800215368C66A90F83E4090F805
:1010B0003D50102C12D0402C10D0046C002C7DD050
:1010C0005469E443A6077AD4DE43B60577D4036CAB
:1010D00003B19169BDE8F04702F02CBC97695169F2
:1010E0004FF42A0CC9435FEAC1784FF02A4904D073
:1010F00066452AD04E4528D010E0DE43B6050DD413
:10110000C16A614501D1012103E0C16A494501D1AC
:101110000821C162BDE8F04702F076BB0E0716D485
:10112000DE43B60513D4416CC9B21161416B09B1FC
:10113000C96B29B9816B002907D0C96B002904D07C
:101140000068416841F400614160BDE8F0878E07A6
:1011500006D4DE43B60503D4BDE8F04702F0C8BAB2
:10116000FE43526876074FEA02521DD4002AECDB98
:101170000A0608D4DA43520505D4490705D5BDE867
:10118000F04702F059BA4907DFD4D9438905DCD4C6
:10119000212D05D0402CD8D1BDE8F04702F07ABB14
:1011A000BDE8F04702F006BA002ACEDB4A060BD4AF
:1011B000DA43520508D4490708D501E00DE00EE0F6
:1011C000BDE8F04702F082B94907BED4D94389058A
:1011D000BBD4BDE8F04702F00FB9916970E7E106B2
:1011E00006D4D943890503D4BDE8F04702F008BC12
:1011F0002821212D27D0292D25D0650655D4DD4362
:101200006D0552D4640752D590F83D30448D002CC2
:101210009BD01269446A2270426A521C4262428D1B
:10122000521E4285428D002A8FD12A2B8DD1026811
:10123000536823F4806353602222026380F83D10D8
:1012400000F054F981E7250623D4DD436D0520D451
:10125000640720D590F83D30448D002CF2D0446ACC
:1012600024781461426A521C4262428D521E4285A9
:10127000428D002AE6D1292BE4D10268536823F479
:10128000806353602122026380F83D1000F02FF943
:101290005BE76107D6D4D9438905D3D4418D0029B2
:1012A000D0D0416A097811610AE06107CAD4D943F4
:1012B0008905C7D4418D0029C4D01169426A1170D3
:1012C000416A491C4162418D491E41853DE7704795
:1012D00070B5040025D094F83D00002520B984F8AD
:1012E0003C50204600F0BEF8242084F83D002068E1
:1012F000016821F0010101602068016841F40041AA
:1013000001602068016821F40041016000F06EFA7C
:101310004D4A6168914201D84C4900E04C498842ED
:1013200001D2012070BD4B492368B0FBF1F15E682A
:1013300026F03F060E435E606368934206D94FF481
:10134000967359434FF47A73B1FBF3F12368491C48
:101350001E6A26F03F06314319626168914210D837
:101360004900401EB0FBF1F2521CC2F30B02042AEA
:1013700001D2042022E0B0FBF1F0401CC0F30B00CE
:101380001CE0A268F2B301EBC10303EB0116431E9C
:10139000B3FBF6F35B1C43F480431B0549D092B3C7
:1013A00001EBC10202EB0111401EB0FBF1F0401C49
:1013B000C0F30B0040F4804040F400402168CA694B
:1013C0004CF6FF739A431043C861D4E907100143F8
:1013D0002068026822F0C00211430160D4E90301D1
:1013E00001432068826848F2FF339A4311438160C9
:1013F000D4E9050108432168CA6822F0FF021043BE
:10140000C86001E00EE016E02068016841F00101CB
:1014100001602564202084F83D00256384F83E5057
:10142000002070BD01EB4106431EB3FBF6F35B1CCD
:10143000B3E70120C2E701EB4101401EB0FBF1F030
:10144000401CC0F30B00B7E7A086010080841E009B
:1014500000093D0040420F007047704770477047D9
:101460007047000010B586B0044614216846FEF7A8
:1014700071FF1B492068884230D11A480021026858
:1014800042F002020260006800F002000590C020F5
:1014900000901220CDE90101032003900420049064
:1014A00069461148FFF7AEFC0E481030016841F460
:1014B000001101600068002200F400100590052171
:1014C0001F2000F0A7F81F2000F096F80022052149
:1014D000202000F09FF8202000F08EF806B010BD0C
:1014E000005400403038024000040240704770470A
:1014F0000248816802781144816070473C000020F6
:101500000B4810B5016841F400710160016841F4B5
:1015100080610160016841F480710160032000F086
:1015200099F80F2000F006F800F04AF8002010BDEE
:10153000003C024030B505461C4887B000240168D5
:1015400041F001010160006806A900F0010000906F
:1015500001A800F02BF900F059F91549154AB0FB24
:10156000F1F11548491E026040F2E732C0E9032458
:10157000C0E90114846100F0EFFD040012D10E48AF
:1015800000F066FE04000DD1192000F035F8102D92
:1015900007D200222946192000F03CF807480560D0
:1015A00000E0012407B0204630BD0000443802406E
:1015B00040420F00000001409C0500204000002038
:1015C0000C4882B0016841F480410160006800F479
:1015D000804000900748001F016841F08051016081
:1015E0000068002200F0805000900F21901E02B091
:1015F00000F010B844380240002809DB00F01F0258
:10160000012191404009800000F1E020C0F8001164
:1016100070470000F0B40E4B1B680C46C3F3022366
:10162000C3F10705042D00D90425191D072901D28E
:10163000002300E0DB1E012606FA05F1491E2140C9
:1016400099409E40761E16403143F0BC03F048BDE1
:101650000CED00E0064900F0070208684FF6FF03B2
:10166000184040EA0220034A104308607047000017
:101670000CED00E00000FA052DE9F0470E460500EC
:1016800065D0DFF81481D8F80000F7B200F0070049
:10169000B04207D288F80070D8F8000000F00700C8
:1016A000B04254D128683D4C810712D5400703D57C
:1016B000206840F4E05020602878000703D52068B7
:1016C00040F4604020602068A96820F0F0000843E2
:1016D00020602878C0072DD0304968680839012873
:1016E00012D0022813D0032811D0096889070029D5
:1016F0002DDA216821F0030101432160FFF76AFC24
:10170000814641F2883A0EE009688903EFE70968EB
:101710008901ECE7FFF75EFCA0EB0901514502D916
:101720000320BDE8F0872068696800F00C00B0EB8A
:10173000810FEFD1D8F80010404601F00701B14207
:1017400007D90770006800F00700B04201D00120FF
:10175000E7E72878400705D52068E96820F4E050DD
:10176000084320602878000706D52068296920F4FE
:10177000604040EAC100206000F058F82168084A43
:10178000C1F30311515CC84006490860064800686F
:10179000FFF7D0FE0020C4E7003C024008380240BA
:1017A000907A000848000020400000200F220260CC
:1017B0000C4A136803F003034360136803F0F0035B
:1017C0008360136803F4E053C36012684FF4E0537E
:1017D00003EAD20202610448006800F007000860D2
:1017E0007047000008380240003C024004480549A8
:1017F00000680968044AC1F38221515CC8407047FF
:101800004800002008380240A07A00080448054932
:1018100000680968044AC1F34231515CC84070470E
:101820004800002008380240A07A0008154810B58A
:10183000006810F00C02144813D01449042A0FD089
:10184000082A0ED10F4C241F2268236802F03F02A1
:101850005B0207D52068C0F38810A0FB010106E0F9
:10186000084610BD2168C1F38811A1FB00010023C7
:10187000FEF726FD2168C1F30141491C4900B0FB78
:10188000F1F010BD083802400024F40040787D01DA
:101890002DE9F84F04006ED02078DFF86093C00780
:1018A000A9F104054AD009F104000168C1F38101DE
:1018B000012908D00068C0F3810002280AD1D9F8B4
:1018C0000000400206D52868800337D560680028EC
:1018D000E1D033E06068B0F5803F10D0B0F5A02FC4
:1018E000286810D020F480302860286820F48020F8
:1018F00028606068A8B1FFF76DFB06460DE0286818
:1019000040F48030F4E740F480202860F7E700BF1F
:10191000FFF760FB801B642873D828688003F7D525
:101920000CE0FFF757FB064605E000BFFFF752FB50
:10193000801B6428F0D828688003F7D42078DFF86B
:10194000C08280074FF0000A3ED5AC48001D0168F8
:1019500011F00C0F08D00068C0F3810002280BD1F1
:10196000D9F80000400207D42868800716D5E0683F
:10197000012800D112E03CE1E068B8B10120C8F8CC
:101980000000FFF727FB064605E000BFFFF722FB3C
:10199000801B0228C0D828688007F7D528682169ED
:1019A00020F0F80040EAC10028600DE0C8F800A06F
:1019B000FFF710FB064604E0FFF70CFB801B022834
:1019C0001FD828688007F7D42078000722D58B4ECF
:1019D0008C486169703671B101210160FFF7FAFA34
:1019E000074604E0FFF7F6FAC01B022809D8306862
:1019F0008007F7D50EE0C0F800A0FFF7EBFA074626
:101A000005E082E0FFF7E6FAC01B02287DD83068C7
:101A10008007F7D42078400768D5DFF8E0B10027C9
:101A20000BF13C0BDBF80000C0000BD4DBF800101E
:101A300041F08051CBF80010DBF80000012700F0E6
:101A400080500090704E3068C00510D4306840F46B
:101A500080703060FFF7BEFA009005E0FFF7BAFA39
:101A60000099401A022850D83068C005F6D5634E58
:101A7000A0686C3601280FD00528306810D020F0FF
:101A800001003060306820F004003060A068B8B118
:101A9000FFF7A0FA00900FE0306840F00100F4E793
:101AA00040F004003060F7E7FFF794FA0099411A1C
:101AB00041F28830814268D830688007F4D50EE062
:101AC000FFF788FA009007E0FFF784FA0099411ABF
:101AD00041F28830814258D830688007F4D42FB161
:101AE000DBF8001021F08051CBF80010A069D8B3CA
:101AF0004249091D0968C1F3810102294CD002281D
:101B0000504607D0C8F8600000E03EE0FFF762FAF8
:101B100004463DE04746C8F86000FFF75BFA06461A
:101B200005E000BFFFF756FA801B02282DD8286871
:101B30008001F7D4F4E907010843E168334A490812
:101B400002EB0141A26841EA82110843217C40EA8C
:101B50000160217D40EA0171C9F80010012038665A
:101B6000FFF738FA044606E045E000BFFFF732FA17
:101B7000001B022809D828688001F7D53BE000BF88
:101B8000FFF728FA001B022802D90320BDE8F88FCE
:101B900028688001F4D42EE00128F7D0D9F800009D
:101BA000E26900F48001914223D1226A00F03F01F2
:101BB00091421ED147F6C071626A0140B1EB821FAB
:101BC00017D1A26A4FF0FF3300F4403103EB520209
:101BD000B1EB024F0DD194F82C2000F07061B1EB05
:101BE000026F06D194F8301000F0E040B0EB017FB6
:101BF00001D00120CAE70020C8E7000004380240F5
:101C000000004742800E4742007000400000FFFF86
:101C10007047000038B5016804464A688868C043C8
:101C2000430606D5C30704D1D3435B0601D4216C18
:101C300005E0830708D4D3431B0605D4616C01B0CB
:101C40002046BDE830400847830603D5430601D54A
:101C5000C30551D4D3439B064ED443060AD494F80B
:101C60005130032B49D0636D43F004036365CB68A7
:101C70008B680093830609D4636D43F001036365A9
:101C80008B6800930B6823F040030B60C00506D4FB
:101C9000606D40F008006065206880680090606DAD
:101CA000002829D02068416821F0E001416001202E
:101CB00084F85100900701D4D00722D020684168F1
:101CC00021F003014160114DE06C40B10565E06C0D
:101CD000FEF7FFFE18B1606D40F040006065A06C3B
:101CE000002809D00565A06CFEF7F3FE002803D09C
:101CF000606D40F04000606538BDC868886800903D
:101D000038BD2046FFF784FF38BD00002943000896
:101D100070B5040009D0606A002540B12561656195
:101D2000A56294F8510040B10CE0012070BD6068DC
:101D3000B0F5827FF4D0E561F2E784F85050204698
:101D400000F044F8022084F851002068016821F076
:101D500040010160A088218900F4827001F40441EF
:101D60000843A18901F400610843217C01F00201CC
:101D70000843217D01F001010843218B01F400712A
:101D80000843217F01F03801084394F8201001F046
:101D900080010843218D01F4005108432168086047
:101DA000A069042101EA104094F8241001F0100108
:101DB0000843216848602068C16921F40061C1615D
:101DC0006565012084F85100002070BD70B586B0B3
:101DD000044614216846FEF7BDFA2848264E2568B9
:101DE00000242649103802220323B5421CD10D6875
:101DF00045F480450D60096801F480410591016852
:101E000041F0020101600068694600F0020005909F
:101E10004FF470408DE815000520CDE903301848D7
:101E2000FEF7F0FF06B070BD164EB542FAD10D6850
:101E300045F400450D60096801F400410591016811
:101E400041F0040101600068694600F0040005905B
:101E50004FF4E0508DE815000620CDE903300A4824
:101E6000FEF7D0FF002205213320FFF7D3FB3320FC
:101E7000FFF7C2FBD6E700000038004040380240C0
:101E800000040240003C0040000802402DE9F84FE9
:101E9000044690F8500000270A9E1D4692468B4645
:101EA0004FF0010901280ED0012084F85000FFF7FF
:101EB00091F8804694F85100616801280CD0B1F582
:101EC000827F07D102E00220BDE8F88FA16809B93E
:101ED000042801D00227C2E0BBF1000F27D0BAF1DD
:101EE000000F24D01DB394F85100042802D005201F
:101EF00084F8510000206065C4F838A0E587A58704
:101F0000C4F830B0E586A586206460642068016866
:101F1000490603D4016841F040010160E068B0F572
:101F2000006F606805D0E8B3012D46D07FE001273F
:101F300095E008B1012D39D1206B21680088C86077
:101F4000206B801C2063E08E401EE0862EE020681F
:101F5000816889070FD5E18E69B1B9F1010F0AD106
:101F6000216B0988C160206B801C2063E08E401EBD
:101F7000E0864FF0000920688168C9070CD0E18F26
:101F800051B1C068A16B0880A06B801CA063E08F7A
:101F9000401EE0874FF00109FFF71CF8A0EB080096
:101FA000B04200E009E001D3701C50D1E08E00285F
:101FB000CDD1E08F0028CAD13FE0206B21680078A6
:101FC0000873206B401C2063E08E401EE0862EE0EC
:101FD0002068816889070FD5E18E69B1B9F1010FD9
:101FE0000AD1216B09780173206B401C2063E08EBD
:101FF000401EE0864FF0000920688168C9070CD0B8
:10200000E18F51B1C068A16B0870A06B401CA06348
:10201000E08F401EE0874FF00109FEF7DBFFA0EBE9
:102020000800B04202D3701C01D010E07EB1E08EF7
:102030000028CDD1E08F0028CAD142463146204643
:1020400002F07AF928B101272020606507E0032714
:1020500005E0A06818B92068C16880680090012078
:1020600084F85100002084F8500038462CE770476F
:10207000704710B590F83C20012A22D0012280F848
:102080003C20CA688C6822F4407222434C6822F4D7
:10209000806222430C6822F4006222430C6922F41D
:1020A000805222434C6922F400522243C969002322
:1020B00022F480420A4301684A6480F83C300020E0
:1020C00010BD022010BD000070B590F83C20012A20
:1020D00032D0012480F83C40022280F83D20036881
:1020E0005A689D6822F070060A6832435A60134BA2
:1020F00002689A4214D0B2F1804F11D0104B9A422C
:102100000ED0104B9A420BD00F4B9A4208D00F4B77
:102110009A4205D00E4B9A4202D00E4B9A4204D1FD
:10212000496825F080031943916080F83D40002103
:1021300080F83C10084670BD022070BD00000140D0
:102140000004004000080040000C00400004014072
:10215000004001400018004010B5040003D094F87E
:102160003D0010B107E0012010BD002084F83C00C4
:10217000204600F01FF8022084F83D00211D206851
:1021800002F064FA012084F8460084F83E0084F8E6
:102190003F0084F8400084F8410084F8420084F84D
:1021A000430084F8440084F8450084F83D00002092
:1021B00010BD000010B586B0044614216846FEF735
:1021C000C9F81F4B226800211E489A4223D1026899
:1021D00042F002020260006800F002000590194817
:1021E0001038026842F004020260006800F0040047
:1021F0000590981500900220CDE90101CDE903106A
:1022000069461148FEF7FEFD002206211D20FFF75A
:1022100001FA1D2010E00D498A420FD1016841F0FA
:10222000800101600068002200F080000590052117
:102230002C20FFF7EFF92C20FFF7DEF906B010BDD8
:10224000000400404038024000080240001C0040EA
:1022500090F83D10012901D001207047022180F83B
:102260003D100168CA6842F00102CA600068114965
:10227000884214D0B0F1804F11D00F4988420ED05F
:102280000E4988420BD00E49884208D00D49884239
:1022900005D00D49884202D00C49884204D181689A
:1022A00001F00701062903D0016841F00101016036
:1022B000002070470000014000040040000800407A
:1022C000000C0040000401400040014000180040A4
:1022D00070B5044690F83C000025012817D001266F
:1022E00084F83C60022084F83D002068826822F077
:1022F000770222F47F4282600868502838D00DDCD3
:1023000020284FD005DC90B3102811D14AE00220DC
:1023100070BD302846D040280AD13BE060282FD03D
:1023200070280DD0B0F5805F03D0B0F5005F12D0FB
:10233000012584F83D60002084F83C00284670BDEB
:10234000CB68D1E90121206802F0F1F920688168A9
:1023500041F0770109E0CB68D1E90121206802F062
:10236000E6F92068816841F480418160E1E719E085
:10237000CA684968206802F0AFFA5021206806E078
:10238000CA684968206802F0F9FA6021206802F002
:10239000D8F9CEE7CA684968206802F09DFA402162
:1023A0002068F4E7226801461046F0E72DE9F04185
:1023B0000D46040003D094F83D0018B108E0012058
:1023C000BDE8F081002084F83C00204600F040F891
:1023D000022084F83D002068816844F2070291439E
:1023E0008160211D206802F031F9226890689169AE
:1023F000166A2B68AF69034340F20330814341EA18
:102400000721A868EF6908434FF6FC418843E96853
:1024100040EA0720014328692F6A000140EA07309B
:10242000084369686D6926F0AA0646EA051529433E
:1024300093602268906154F8460B0162012004F811
:102440001F09E0752076E0762077A0750020B7E7B9
:1024500010B586B0044614216846FDF77BFF20685E
:10246000B0F1804F27D115480021026842F00102E7
:102470000260006800F00100059010481038026802
:1024800042F001020260006800F0010005900320A4
:102490000090022001900120CDE9020104906946DC
:1024A0000748FEF7AFFC002205211C20FFF7B2F819
:1024B0001C20FFF7A1F806B010BD00004038024014
:1024C0000000024070B590F83E60044690F83F501E
:1024D00090F8423090F84320022021B104290ED018
:1024E000012E1BD114E0012E18D1012B16D184F836
:1024F0003E0084F8420001220021206820E0012DE6
:102500000CD1012A0AD184F83F0084F8430014E07A
:10251000012D03D1012B01D1012A01D0012070BD71
:1025200084F83E0084F83F0084F8420084F84300B9
:1025300001220021206802F0EDF801220421206828
:1025400002F0E8F82068016841F001010160002014
:1025500070BD70472DE9F041054690F83C0000261B
:102560000C46012810D0012085F83C0072B1042AE5
:102570001CD0082A2CD00C2A50D00126002085F827
:102580003C003046BDE8F0810220FBE7D4E90012B0
:10259000E368286802F0B2F92868816921F00C012B
:1025A000816128688169A26811430FE0D4E90012B3
:1025B000E368286802F0F4F92868816921F4406131
:1025C000816128688169A26841EA02218161D5E7B9
:1025D0002868D4E9002C277B016A21F4807101620C
:1025E000C169036A21F0030141EA0C0121F0F00CFA
:1025F00039074FF420674CEA116123F4206307EA9E
:1026000002221A43C16102622868C16921F00C01EB
:10261000C1612868C169A268114328E02868D4E92B
:102620000027E168036A23F480530362D0F81CC0DA
:10263000036A2CF4407C4CEA07274FF6FF7C27F412
:1026400070470CEA013139434FF4204723F420430B
:1026500007EA02321A43C16102622868C16921F4A3
:102660004061C1612868C169A26841EA0221C16173
:1026700084E710B5040003D094F83D0010B107E0E2
:10268000012010BD002084F83C00204600F01EF818
:10269000022084F83D00211D206801F0D7FF0120B1
:1026A00084F8460084F83E0084F83F0084F8400037
:1026B00084F8410084F8420084F8430084F8440020
:1026C00084F8450084F83D00002010BD704770B5C7
:1026D0000446006801694FF00005C943890715D415
:1026E000C168C943890711D4E91E0161012020771F
:1026F000206880698007204602D0FFF72AFF04E0A7
:1027000000F0DAF8204600F0A1F925772068016989
:10271000C943490717D4C168C943490713D46FF0A7
:1027200004010161022020772068806910F4407F55
:10273000204602D0FFF70DFF04E000F0BDF8204670
:1027400000F084F9257720680169C943090716D488
:10275000C168C943090712D46FF008010161042060
:1027600020772068C0698007204602D0FFF7F1FE7D
:1027700004E000F0A1F8204600F068F92577206811
:102780000169C943C90617D4C168C943C90613D42E
:102790006FF010010161082020772068C06910F4F3
:1027A000407F204602D0FFF7D4FE04E000F084F81A
:1027B000204600F04BF9257720680169C943C90715
:1027C00008D1C168C943C90704D1891E01612046E7
:1027D00000F0B8F920680169C943090609D4C16845
:1027E000C943090605D46FF0800101612046FFF757
:1027F0003EFC20680169C943490609D4C168C94340
:10280000490605D46FF040010161204600F0FEF951
:1028100020680169C94389060BD4C168C943890688
:1028200007D46FF0200101612046BDE87040FFF73A
:102830001FBC70BD30B587B0044614216846FDF753
:1028400089FD2468174D0021174840220223AC421D
:1028500010D1046844F0040404600068009200F0A1
:1028600004000590CDE901310320CDE9031069464C
:102870000E4812E00E4DAC4211D1046844F0010440
:1028800004600068009200F001000590CDE901317C
:102890000920CDE9031069460648FEF7B3FA07B0F0
:1028A00030BD000000040140303802400008024002
:1028B000001C004000000240704770B5044690F8CC
:1028C0003C0000260D4601280FD0012084F83C0072
:1028D0006AB1042A1DD0082A2FD00C2A3FD0012625
:1028E000002084F83C00304670BD022070BD206896
:1028F00001F030FF2068816941F0080181612068A2
:10290000816921F004018161206881692A6911438C
:1029100011E0206801F04EFF2068816941F40061F8
:1029200081612068816921F4806181612068816909
:102930002A6941EA02218161D2E7206801F070FF33
:102940002068C16941F00801C1612068C16921F0B6
:102950000401C1612068C1692A69114311E020683E
:1029600001F092FF2068C16941F40061C1612068F3
:10297000C16921F48061C1612068C1692A6941EAA5
:102980000221C161ACE710B5040003D094F83D000A
:1029900010B107E0012010BD002084F83C00204663
:1029A00000F01EF8022084F83D00211D206801F08F
:1029B0004DFE012084F8460084F83E0084F83F0074
:1029C00084F8400084F8410084F8420084F8430011
:1029D00084F8440084F8450084F83D00002010BDD0
:1029E00008B50068174988422AD11748016841F0A4
:1029F000020101600068002200F002000090052141
:102A00002B20FEF707FE2B20FEF7F6FD0022052106
:102A10002C20FEF7FFFD2C20FEF7EEFD0022052105
:102A20002D20FEF7F7FD2D20FEF7E6FD0022052103
:102A30002E20FEF7EFFDBDE808402E20FEF7DCBD9E
:102A400008BD000000040140443802407047000007
:102A500030B500250446022249B1042912D00829C4
:102A60004CD094F84100012853D0012030BD94F897
:102A70003E000128F9D184F83E202068C26842F067
:102A8000020209E094F83F000128EED184F83F20CB
:102A90002068C26842F00402C2600122206801F08E
:102AA00039FE21492068214A884201D0904203D151
:102AB000436C43F4004343642068884213D0B0F170
:102AC000804F10D01A4988420DD01A4988420AD046
:102AD0001949884207D0904205D01849884202D04F
:102AE0001749884204D1816801F00701062903D003
:102AF000016841F001010160284630BD94F84000B2
:102B00000128B2D184F840202068C26842F008024F
:102B1000C2E784F841200C2901D00125ECE72068A8
:102B2000C26842F01002B7E7000001400004014013
:102B30000004004000080040000C0040004001403C
:102B40000018004070B500682949884203D1BDE8EB
:102B50007040FEF7CDBC2749884245D12648006821
:102B60000168264BC1F300111974426AB3F90810C9
:102B7000C46A44F6382501FB04225A601C68A61A70
:102B8000AE4201DD491C05E0121BAA4201DC586877
:102B900007E0491E09B21981426AC06A01FB0020A0
:102BA0005860001B00EE100A9FED151A1548F8EE4C
:102BB000C00A80EE810A83ED030A01F093FC83EDE5
:102BC000030AF1EE000A586820EE200A18600E4849
:102BD00083ED050A197CD0ED000A012905D030EEFD
:102BE000200A00BF80ED000A70BD30EEC00AF9E790
:102BF0000000014000040040740200205801002041
:102C0000003847480801002038000020704770470E
:102C100070470000F8B5016804460868CA684B6947
:102C200010F00F0F4FF0000559D003F0010602F429
:102C30009077374365D0C10705D0D10503D5216C06
:102C400041F001012164410705D5D90703D0216C6A
:102C500041F002012164810705D5D90703D0216C19
:102C600041F004012164010707D502F0200131433E
:102C700003D0216C41F008012164216C00293AD075
:102C8000800604D5900602D5204601F01AFF206880
:102C90004069216CC0F38010090700D460B320465E
:102CA00001F0E8FE20684069400621D52068143014
:102CB00050E8001F21F0400140E80012002AF5D141
:102CC000A06BA8B16C490165A06BFDF702FF00285D
:102CD00011D0A06B016D01B0BDE8F040084783063C
:102CE0000FD593060DD52046BDE8F84001F0E9BEAA
:102CF0002046FFF78DFFF8BD2046FFF789FF2564CA
:102D0000F8BD266B2023012E79D1C60677D5D606CD
:102D100075D50868486800904869400640D5A16BA1
:102D2000086840680004000CEAD0A28D8242E7D90E
:102D3000E085C869B0F5807F2DD020680C3050E860
:102D4000001F21F4807140E80012002AF5D12068AC
:102D5000143050E8001F21F0010140E80012002A61
:102D6000F5D12068143050E8001F21F0400140E800
:102D70000012002AF5D184F83E30256320680C301B
:102D800050E8001F21F0100140E80012002AF5D1A0
:102D9000A06BFDF755FEA08DE18D401A81B229E0B0
:102DA000A08DE18D401A81B2E08D0028A8D00029C5
:102DB000A6D020680C3050E8002F22F4907240E832
:102DC0000026002EF5D12068143050E8002F22F0A4
:102DD000010240E80026002EF5D184F83E3025633C
:102DE00020680C3050E8002F22F0100240E8002349
:102DF000002BF5D12046FFF70AFFF8BDFFE70506D7
:102E00002BD5150629D594F83D002128F5D1A068C9
:102E1000B0F5805F01D12069B0B1206A411C216208
:102E2000216800784860E08C401E0004000CE084BB
:102E3000E3D12068C16821F08001C1602068C168C9
:102E400041F04001C160D8E7206A0088C0F3080063
:102E50004860206A801C2062E5E74006CDD5500618
:102E6000CBD5CA68204622F04002CA6084F83D30C3
:102E700000F0AAF9C1E70000654A000870B5040037
:102E800004D094F83D00002510B106E0012070BD8B
:102E900084F83C50204600F023F8242084F83D00BC
:102EA0002068C16821F40051C160204601F06AFE2B
:102EB0002068016921F4904101612068416921F095
:102EC0002A0141612068C16841F40051C160256454
:102ED000202084F83D0084F83E00002070BD0000F2
:102EE0002DE9F04786B0044614216846FDF732FA12
:102EF000DFF868C102212668594803220723DFF85A
:102F0000648100258F064FF0400A4FF480696645C2
:102F10004DD1534E1436D6F800C04CF0100CC6F804
:102F200000C0366806F010060596066846F00106F1
:102F30000660006800F00100059050028DE8230053
:102F400069464046CDE90323FDF75CFF474E4648FE
:102F5000C8463060C6E90175C6E903597561B561B7
:102F6000F561356230467562FDF798FE08B1FDF7F0
:102F700013FDA663B4633D4E3B4860367830C6E926
:102F800003587561B561F5613562756286E8810443
:102F90003046FDF783FE08B1FDF7FEFC66630022B4
:102FA00005212520B463FEF735FB252051E0DFF82D
:102FB000C0C066454FD12A4E1036D6F800C04CF43A
:102FC000003CC6F800C0366806F400360596066870
:102FD00046F001060660006800F0010005900C2034
:102FE0008DE8230069464046CDE90323FDF70AFF3B
:102FF0001E4E2048C036B8463060C6E90175C6E9A5
:1030000003597561B561F56135624F4630467562A9
:10301000FDF744FE08B1FDF7BFFCA663B463164E8E
:103020001448C6E903577561B561F561356218301A
:10303000756286E801053046FDF730FE08B1FDF700
:10304000ABFC6663002205212620B463FEF7E2FA9A
:103050002620FEF7D1FA06B0BDE8F0870010014047
:103060003038024000000240406402401C0400204E
:1030700000440040886002403C05002090F83E304B
:10308000202B0ED159B152B190F83C30012B08D011
:10309000012380F83C300023036301F0F9BD0120D7
:1030A000704702207047000010B500680749884249
:1030B0000AD10748007803F029FFBDE8104001223B
:1030C00003490448FFF7DABF10BD00000044004088
:1030D00000010020D80300202DE9F843044690F8B1
:1030E0003D001F4616460D4620284CD1C5B1BEB145
:1030F00094F83C00012846D0012084F83C004FF0B1
:103100000008C4F84080212084F83D00FDF762FFEC
:10311000A6848146E684A068B0F5805F03D004E011
:103120000120BDE8F883206928B12E465FF0000534
:1031300084F83C800EE00026FAE78021204601F06A
:10314000C4FDA0B9AEB116F8010B21684860E08C4F
:10315000401EE084E08C4B464FF0000200970028B0
:10316000EBD14FF04001204601F0AFFD30B103201C
:10317000D7E735F8020BC0F30800E6E7202084F813
:103180003D000020CDE70220CBE790F83D30202B1A
:1031900018D1A9B1A2B190F83C30012B12D0016234
:1031A0008284C28400210164212280F83D2080F8BD
:1031B0003C100068C16841F08001C1600020704788
:1031C00001207047022070477047FEE70148FDF775
:1031D00009BF0000700100200148FDF760BF00003A
:1031E0007001002038B5806B002190F83D202B4BFA
:1031F00046F2A8141B68B3FBF4F3C3EBC30303EB61
:10320000830300933BB15B1E009303681B689B051F
:1032100005D5009BF6E7036C43F020030364436B82
:1032200003B1D963836B03B1D96303681C6824F4C9
:1032300080641C604185436B03B11965836B03B1E6
:10324000196503681C6824F001041C6090F83D4077
:103250002023602C0BD0282434EA02020FD080F8FF
:103260003D3080F83E1000BFFEF731F838BD80F8E1
:103270003D3080F83E100164FDF7B2FE38BD0268B3
:10328000136843F0010313600268136843F480631A
:103290001360016380F83D40E6E70000480000202D
:1032A00070B5044690F83D0094F83E10102901D006
:1032B000402906D1222804D121680A6822F400623C
:1032C0000A60282131EA00024FF000054FF0200685
:1032D00026D021684968090505D4602803D084F800
:1032E0003D6084F83E50256320684168090537D564
:1032F000416821F400614160606B90F835203C49E1
:10330000012A11D00165606BFDF7E3FB38B320683B
:10331000016821F00101016084F83D60606B1CE0F0
:10332000256384F83D10DFE7A06B0165A06BFDF716
:10333000D0FBA0B120684169C943490605D40069A2
:10334000616A0870606A401C60622068016821F050
:103350000101016084F83D60A06B016D884710E0B9
:1033600094F83D10602910D04169C943490605D43D
:103370000069616A0870606A401C60622046FDF75F
:10338000A6FF206CC1071CD115E084F83D602564C0
:103390004169C943490605D40069616A0870606AD9
:1033A000401C60622068016821F001010160204634
:1033B000FDF716FEE5E7810703D4410701D40007B6
:1033C00004D52068416821F4E061416094F83D0033
:1033D000216C49070BD5282809D10648E0622563EE
:1033E00084F83D6084F83E502046FEF735F870BD05
:1033F000E53100080000FFFF10B5C26A438D016887
:10340000042B06D0438D032B08D0438D022B1DD0F7
:1034100012E04A6822F480624A600CE04B6823F4B0
:1034200080634B60042A06D0022A04D001680A682F
:1034300022F480620A6001680969426A1170416A77
:10344000491C4162418D491E418510BD012A30D081
:10345000102A2ED0042A30D0022A2ED00A6842F434
:1034600000720A6001680969426A1170416A491C68
:103470004162428D521E4285026812690A70416A99
:10348000491C4162418D491E418501684A6822F408
:1034900040724A60202180F83D1090F83E200021C3
:1034A000402A80F83E100CD012210163FDF7D5FFB1
:1034B00010BD0A6822F48062D3E70A6842F4806291
:1034C000CFE70163FDF7CBFF10BD000038B590F8E2
:1034D0003D1022290FD1418D03290DD901680969B9
:1034E000426A1170416A491C4162418D491E418501
:1034F000418D032906D038BDC26A022A02D00129B3
:1035000006D029B10068416821F48061416038BD6E
:10351000274946F2A81300220968B1FBF3F101EB39
:103520008101009101682023009C641E009422D038
:103530000C68A405F8D40C6824F480640C6001685D
:103540004C6824F4E0644C6001680969446A2170A5
:10355000416A491C4162418D491E418580F83D30D8
:1035600090F83E1080F83E2040291DD012210163C2
:10357000FDF773FF38BD046C44F0200404644C680C
:1035800024F4E0644C6001680969446A2170416A6E
:10359000491C4162418D491E418580F83D3080F8CB
:1035A0003E20FDF794FE38BD0263FDF758FF38BD9D
:1035B0004800002010B5C26A90F83D1021290BD1B7
:1035C000418D51B1416A026809781161416A491C13
:1035D0004162418D491E418510BD20230021082AEA
:1035E00013D0202A11D012F5803F0ED00268546803
:1035F00024F4E06454601122026380F83E1080F8E5
:103600003D3000BFFDF72AFF10BD0268546824F466
:10361000E06454600268146844F400741460016348
:1036200080F83D3090F83E2080F83E10402AE9D1E5
:10363000FDF716FF10BD000010B590F83D1090F892
:103640003E30C26A048DB4B1212903D0402B11D180
:1036500022290FD1418DE1B390F83E10402942D08C
:10366000416A026809781161416A491C4162418DD1
:10367000491E418510BD2129E8D120230021082AB7
:1036800013D0202A11D012F5803F0ED00268546862
:1036900024F4E06454601122026380F83E1080F844
:1036A0003D3000BFFDF7DAFE10BD0268546824F417
:1036B000E06454600268146844F4007414600163A8
:1036C00080F83D3090F83E2080F83E10402AE9D145
:1036D00000E002E0FDF7C4FE10BD0068416821F47F
:1036E0008061416010BDBDE8104000F0D3B800001B
:1036F00078B590F83E50C26A036B90F83D600024A4
:103700000168222E7AD1066D0EB9402D76D0056D56
:103710001DB90569B5F5404F09D0458D05B3468DF6
:10372000384D012E0ED0438D022B3AD05DE04A6910
:103730008A6900920A6842F480720A60016D491C2D
:10374000016578BDAA4213D10A6822F480620A603A
:1037500001684A68120503D50A6822F4806216E0FF
:103760004A698A6900920A6842F400720A6039E084
:10377000082A10D0202A0ED0122B0AD0042A03D0F7
:10378000022A01D0102AE7D10A6842F480620A6056
:1037900024E0012AE0D00A6822F480620A6001680D
:1037A000DEE7042A21D0022A1FD0102A1DD00B6880
:1037B00023F480630B6001680B6843F400630B60C3
:1037C00001684B681B0509D5AA4212D0012A10D006
:1037D000082A0ED0102A0CD0202A0AD001684A6983
:1037E00089690091046578BD08E00B6843F4806343
:1037F000E5E74A6842F480524A60EFE74869886921
:103800000090F0E70000FFFF90F83E10402910D034
:103810000169B1F5804F19D0016DA9B3016D01297E
:1038200010D1416C5FF0F10201F4407142EAD11114
:1038300006E0016D0029416C05D0C9B241F00101DB
:1038400000680161704701F0FE01F9E790F83D1052
:103850002129416C09D0C9B241F00101026811610E
:10386000416B29B1C96B49B902E001F0FE01F5E7EE
:10387000816B0029E6D0C96B0029E3D0006841685C
:1038800041F4006141607047FFE7416CF02201F4B0
:103890004071CBE710B590F83D10026D22B3026D78
:1038A000012A2FD0026D022A1DD122292FD0428D4C
:1038B0000AB1212933D0428D002A14D1212912D1F5
:1038C00001684A6822F4E0624A6001680A6842F4CA
:1038D00000720A6000210163202280F83D2080F8F8
:1038E0003E10FDF7BDFD10BDC16C0129816C02D0F9
:1038F000C1F3072108E00268C9B21161016D891C9A
:10390000016510BD816CC9B20268116104E00168F3
:103910000A6842F480720A60016D491CF0E7416A4E
:10392000026809781161416A491C4162418D491E52
:10393000418510BD38B50C4690F83D200021282562
:10394000954302680B4605D051699169009180F852
:103950003C3038BD556825F480655560E243540716
:1039600000D50121120601D5828900E0028B80F882
:103970003C3092B2FDF735FB38BD00002DE9F04137
:1039800090F83D40C26A002320261C4F01686FF466
:103990008065082A01D0202A01D1282C04D0212CAE
:1039A00016D04D61BDE8F081C7624A6822F4E0623A
:1039B0004A6001684D6101680A6822F480620A6009
:1039C000036380F83D6080F83E30FDF745FDE9E790
:1039D000C7622122026380F83D6080F83E304A6869
:1039E00022F4E0624A6001684D6101680A6822F4CD
:1039F00080620A60FDF77BFDD4E700000000FFFF56
:103A0000F8B590F83D6004460068416821F4E06133
:103A100041602068002541690091016841F0010181
:103A200001602068016821F48061016020684168BC
:103A3000090520D5474F222E48D02A2E46D0616B4B
:103A4000096849686185618D19B1216C41F00401F3
:103A50002164416821F400614160606BFDF74BF81F
:103A6000012808D0606B0765606BFDF732F810B174
:103A7000606B016D8847608D08B320684169C94358
:103A8000490708D40069616A0870606A401C606276
:103A9000608D401E608520684169C943490608D48D
:103AA0000069616A0870606A401C6062608D401E37
:103AB0006085608D18B1206C40F004002064206C9B
:103AC00000B32046BDE8F840FFF7EABBA16B0968E8
:103AD00049686185618D19B1216C41F0040121644F
:103AE000416821F400614160A06BFDF704F80128F2
:103AF000C1D0A06B0765A06BFCF7EBFF0028BAD024
:103B0000A06BB6E72A2E06D12563282084F83D0055
:103B10002046FDF7EBFC94F83D10202028290DD01D
:103B2000216B222901D0222E07D1256384F83D0084
:103B300084F83E502046FDF7D9FCF8BD0649E16205
:103B4000256384F83D0084F83E502046FDF784FC50
:103B5000F8BD0000E53100080000FFFF194808B576
:103B6000016841F400110160016801F40011009145
:103B7000016841F4800101600068002200F48000C7
:103B8000009005211020FDF745FD1020FDF734FDC4
:103B9000002205211120FDF73DFD1120FDF72CFD30
:103BA000002205213A20FDF735FD3A20FDF724FDDE
:103BB000002205214620FDF72DFDBDE808404620E6
:103BC000FDF71ABD3038024010B51C4A012105200E
:103BD00002F02AF81A4C194A0021A060483A194804
:103BE00002F04EF8154A2060243A0021164802F0EF
:103BF00047F8124A606018320021144802F040F879
:103C00000E4AE0603C320021114802F039F80B4ABC
:103C10002061603200210F4802F032F8074A6061EB
:103C2000843200210C4802F02BF8044AA061A8322B
:103C300000210A4802F024F8E06110BDBC790008B8
:103C4000000000201D450008254500089D090008CA
:103C50004509000809090008D54200084944000840
:103C60002DE9F04387B014216846FCF773FB5248F6
:103C70000024016841F080010160016801F08001C9
:103C80000591016841F004010160016801F004013F
:103C90000591016841F001010160016801F0010135
:103CA0000591016841F002010160016801F0020123
:103CB0000591016841F00801016000683F4E00F085
:103CC00008000590002240F29A213046FDF77CF969
:103CD0003B4F002210213846FDF776F9DFF8E480EB
:103CE000002240F227414046FDF76EF9DFF8D890F8
:103CF000002204214846FDF767F901250220CDE99D
:103D00000005CDE9025469463046FDF77BF82420D2
:103D1000CDE90004694630460294FDF773F84FF48C
:103D200026700090CDE90154694630460394FDF7B2
:103D300069F810200090CDE9015469463846039493
:103D4000FDF760F827200090CDE901546946404610
:103D50000394FDF757F8A802CDE90005CDE9025418
:103D600069464046FDF74EF84FF4C85000904FF4B6
:103D70008810CDE9010469463846FDF743F8042070
:103D8000CDE90005CDE9025469464846FDF73AF809
:103D9000002205211720FDF73DFC1720FDF72CFC24
:103DA000002205212820FDF735FC2820FDF724FC02
:103DB00007B0BDE8F0830000303802400008024040
:103DC0000000024000040240000C02400D4810B503
:103DD0000B4901600C49416000214FF48042816031
:103DE000C0E9031241618161C1610162FDF770FAAE
:103DF000002803D0BDE81040FCF7CEBD10BD000088
:103E00000054004070010020801A06000F4810B5D1
:103E10000D4901604FF48271416000218160C160F1
:103E20004FF480220161C0E90512C1610162416263
:103E300081620A21C162FDF76BFF002803D0BDE853
:103E40001040FCF7A9BD10BD00380040C40100209F
:103E5000104810B50E4901604FF482714160002195
:103E600002228160C0E90312012242615202826192
:103E70000822C0E90721416281620A21C162FDF77F
:103E800047FF002803D0BDE81040FCF785BD10BDFA
:103E9000003C00401C02002010B588B01C21684680
:103EA000FCF758FA16481549002401606321C0E95F
:103EB000011440F2E731C0E903148461FEF74CF9C4
:103EC00008B1FCF769FD0E48FEF75DFD08B1FCF78F
:103ED00063FD602000904FF4FA70CDE901040022E8
:103EE000694607480494FEF7E8FC08B1FCF754FD66
:103EF0000348FEF79FFC08B010BD0000001C004006
:103F00004C03002010B58CB024216846FCF722FA3F
:103F10000024164809944FF080410A9401606321FF
:103F2000C0E9011444F61F61C0E903148461032051
:103F3000CDE900040120CDE9020406210491CDE978
:103F40000540CDE9074169460848FEF72FFA08B158
:103F5000FCF722FD099409A904480A94FEF7B4F875
:103F6000002801D0FCF718FD0CB010BD7402002031
:103F700010B58AB00024234804940594069407944D
:103F8000089409940094019402941D4903940160DB
:103F900040F2E731C0E9011444F61F61C0E903149F
:103FA00080218161FEF7D8F808B1FCF7F5FC4FF4E9
:103FB0008050049004A91348FEF78AF908B1FCF771
:103FC000EBFC1048FEF755FB08B1FCF7E5FC089444
:103FD00008A90C480994FEF777F808B1FCF7DCFC57
:103FE0000120CDE900400294082269460548039467
:103FF000FEF7B0FA002801D0FCF7CEFC0AB010BDE5
:1040000000040040BC02002010B592B000240F94C0
:104010001C2108A81094FCF79DF920216846FCF7A4
:1040200099F921481F4901606321C0E901144FF447
:104030007A71C0E9031444618461FEF7A4FC08B1FD
:10404000FCF7AAFC0F940FA917481094FEF73CF850
:1040500008B1FCF7A1FC602008904FF4FA70CDE99C
:1040600009040B940C940D94002208A90E480E9498
:10407000FEF723FC08B1FCF78FFC00944FF40050CE
:10408000CDE90440029401940394694606480794DC
:10409000FDF7EFFF08B1FCF77FFC0348FEF7CAFB12
:1040A00012B010BD00040140040300200C4810B5FC
:1040B0000A4901604FF4E1314160002181600C2226
:1040C000C160C0E904128161C161FEF7D7FE00281A
:1040D00003D0BDE81040FCF75FBC10BD00100140EC
:1040E000940300200C4810B50A4901604FF41651A2
:1040F0004160002181600C22C160C0E9041281612D
:10410000C161FEF7BBFE002803D0BDE81040FCF7FC
:1041100043BC10BD00440040D8030020FEE7FEE78A
:1041200038B540F2DC540CA000F0B0FF69460F2017
:1041300001F06CFC9DF8000048B911A000F0A6FF4A
:104140002046FCF715FE9DF800000028EBD011A0DA
:1041500000F09CFF38BD00000D0A436865636B6981
:104160006E672045746865726E6574204361626C89
:10417000652050726573656E6365202E2E2E0000DB
:104180004E4F204361626C6520436F6E6E656374B1
:1041900065642100476F6F6421204361626C652074
:1041A000676F7420636F6E6E6563746564210000D1
:1041B00008B569460B2001F029FC9DF80000002895
:1041C00019D011A000F062FF9DF80100012814D061
:1041D00015A000BF00F05AFF9DF8030001280ED083
:1041E00019A000BF00F052FF9DF8020048B11BA0CB
:1041F00000F04CFF08BD1EA0E4E726A0EAE72CA0D3
:10420000F0E730A0F4E700000D0A50485920436F52
:104210006E666967757265642062792052656769A8
:1042200073746572730000000D0A4175746F6E65DA
:10423000676F74696174696F6E204E4F5420456ECC
:1042400061626C65640000000D0A4475706C6578ED
:10425000204D6F64653A2048616C66000D0A53700A
:104260006565643A203130304D62707300000000A3
:104270000D0A50485920436F6E6669677572656410
:104280002062792048617264776172652050696E9E
:10429000730000000D0A4175746F6E65676F746975
:1042A0006174696F6E20456E61626C656400000028
:1042B0000D0A4475706C6578204D6F64653A204630
:1042C000756C6C000D0A53706565643A2031304D91
:1042D00062707300012210210648FCF775FE064843
:1042E000FDF7B6FF00210448FEF7B2FB012001F004
:1042F00060FCFBE7000002404C0300200148FDF792
:1043000089BC00001C02002001B582B0642000902E
:10431000012301AA02A90348FDF7B8FD9DF8040096
:104320000EBD00001C02002010B5806B0021C1876B
:10433000C186FDF76DFC10BD38B504461248134B1D
:104340000068B0FBF3F04FF47A7358430090606854
:10435000B0F5827F0DD10B460092002280212046CD
:1043600000F016F870B1606D40F020006065032029
:1043700038BD009830B1401E009020688068C0436E
:104380000006F6D5002038BD4800002000366E013A
:104390002DE9F8431E46914688460446089DFCF7E1
:1043A00019FE401B351AFCF715FE07462548006824
:1043B000C0F3CB30684338E0701C37D0FCF70AFEFE
:1043C000C01BA84203D215B1009860B32CE020684E
:1043D000416821F0E00141606068B0F5827F0BD157
:1043E000A068B0F5004F02D0B0F5806F04D120680E
:1043F000016821F040010160A06AB0F5005F09D1B9
:104400002068016821F4005101602068016841F4CE
:1044100000510160012084F85100002084F8500010
:104420000320BDE8F8830025401E009020688168C5
:1044300038EA010004D000214945BDD10020F0E751
:104440000121F9E74800002001F08AFB01222149FF
:104450002148FEF713FE21A000F0BEFA012001F072
:10446000A8FB16E0002002F09FF855280ED1062088
:1044700002F09AF8FF2809D1072002F095F8FF28EA
:1044800004D1082002F090F8FF2806D0012001F0A6
:1044900033FB01F05FFB0928E4D201F05BFB092844
:1044A000DCD3002002F080F85528D7D1062002F096
:1044B0007BF8FF28D2D1072002F076F8FF28CDD173
:1044C000082002F071F8FF28C8D1092001F014FB80
:1044D000C4E7000000010020D8030020307830300D
:1044E00000000000DFED0C0A5FF0130100EB810219
:1044F000491E12ED011A11F0FF0182ED001A71EE52
:10450000200AF3D170EE800AB3EE041A80ED000A9F
:1045100080EE810A7047000000000000012001F0D9
:1045200048FBFBE7012001F044FBFBE710B54FF02F
:10453000E020006903F068F8012803D0BDE81040CE
:1045400002F076BD10BD000030B593B0342168464E
:10455000FBF700FF14210DA8FBF7FCFE1C4800250B
:10456000016841F080510160006800F080501290B5
:104570001848016841F4404101600068022400F4D9
:104580004040129001200090000401908001CDE98C
:1045900006400C2008906020CDE909040B94684681
:1045A0000C94FDF775F908B172B6FEE70DA90F205E
:1045B00081E831004FF48050CDE9100503210DA8AA
:1045C000FDF75AF8002801D072B6FEE713B030BDEF
:1045D00040380240007000400248016841F4700118
:1045E0000160704788ED00E00148FEF770B80000F8
:1045F0009C0500200148FEF76AB800007402002004
:104600000148FEF764B80000BC0200200148FEF734
:104610005EB80000040300200148FEF758B800000F
:10462000040300200148FEF752B8000004030020F4
:1046300010B50448FEF74BF8BDE810400248FEF7FD
:1046400046B80000040300204C030020F0B50268C7
:10465000254C264D264E274F274B4FF0804CA0422D
:1046600009D0604507D0A84205D0B04203D0B84277
:1046700001D0984204D122F0700E4A6842EA0E023C
:10468000A0421BD0604519D0A84217D0B04215D027
:10469000B84213D0984211D0184DA8420ED0184DF0
:1046A000A8420BD0174DA84208D0174DA84205D0FC
:1046B000164DA84202D0164DA84203D122F44075EF
:1046C000CA682A434D6922F080022A4302608A6840
:1046D000C2620A688262A04201D0984201D109698F
:1046E000016301214161F0BD000001400004004070
:1046F00000080040000C0040000401400040014060
:10470000004401400048014000180040001C0040E7
:104710000020004010B501F01F030121046A9940F8
:104720008C430462016A9A401143016210BD10B5C6
:10473000846842EA032224F47F440A4322438260CD
:1047400010BD826822F070020A4342F007018160C6
:1047500070470000F0B5026A22F001020262036AAB
:1047600042688469124E24F073050C682C4323F0D0
:1047700002058B682B430D4DA84201D0B04205D1F4
:1047800023F00807CB683B4323F00403A84201D081
:10479000B04205D14D6922F4407215438A692A431B
:1047A00042608461496841630362F0BD00000140DA
:1047B00000040140F0B5026A22F010020262026AAF
:1047C000436884690D6824F4E64444EA05248D684E
:1047D00022F0200242EA05120F4D104EA84201D0ED
:1047E000B04206D1CF6822F0800242EA071222F0DE
:1047F0004002A84201D0B04207D14D6923F4406382
:1048000043EA85038D6943EA85034360846149680F
:1048100081630262F0BD000000000140000401401D
:10482000F0B5026A22F480720262026A4368C469C7
:1048300022F4007224F073050C68124E2C438D682C
:1048400042EA05220E4DA84201D0B04206D1CF68FF
:1048500022F4006242EA072222F48062A84201D0D8
:10486000B04207D14D6923F4405343EA05138D69E3
:1048700043EA05134360C4614968C1630262F0BD45
:10488000000001400004014030B5026A22F4805269
:104890000262046A4268C3690D6823F4E64343EA8E
:1048A00005238D6824F4005444EA0534084DA842D9
:1048B00002D0084DA84204D14D6922F4804242EA58
:1048C00085124260C36149680164046230BD000022
:1048D000000001400004014010B5036A046A24F09E
:1048E00001040462846924F0F00444EA021423F011
:1048F0000A020A438461026210BD000070B5046AB6
:1049000024F0010404628469056A154EB04214D093
:10491000B0F1804F11D0134EB0420ED0124EB042C3
:104920000BD0124EB04208D0114EB04205D0114EFD
:10493000B04202D0104EB04203D124F0030414431D
:1049400001E044F001041A0724F0F00444EA126282
:1049500025F00A0301F00A0119438261016270BD6A
:10496000000001400004004000080040000C00402E
:1049700000040140004001400018004010B5036AE7
:1049800023F0100303628369046A23F4704343EA4B
:10499000023224F0A00343EA01118261016210BDDA
:1049A00030B5046A24F0100404628469056A24F4B2
:1049B000407444EA022222F470444FF6FF7202EA85
:1049C00003322243A02425F0A00304EA0111194375
:1049D0008261016230BD00000FB4FF2070B59CB051
:1049E00000248DF8680021AB65216846209A00F00C
:1049F0005DFB1B4D6E460DE03119641CE4B20122D3
:104A00001748FEF7C2FB00BF95F83D002028FBD1F8
:104A1000642C04D26846FBF7A8FCA042ECD8012223
:104A20001AA90F48FEF7B1FB95F83D002028FBD1ED
:104A300001221AA90A48FEF7A8FB00BF95F83D001D
:104A40002028FBD101221AA90548FEF79EFB00BFD2
:104A500095F83D002028FBD11CB070BC5DF814FB1C
:104A6000D803002010B5806B0021C185C184FEF7FA
:104A7000CFF810BD01680C3151E8002F22F490727C
:104A800041E80023002BF5D10168143151E8002FD3
:104A900022F0010241E80023002BF5D1016B01292E
:104AA00009D101680C3151E8002F22F0100241E8D1
:104AB0000023002BF5D1202180F83E100021016356
:104AC000704708B590F83E10222901D0022008BD99
:104AD00082684FF480539A4201D1016921B1816A01
:104AE0009A421BD04AB10AE00268816A5268C2F356
:104AF00008020A80816A891C08E0026972B10268B2
:104B0000526802F07F020A70816A491C8162C18D7D
:104B1000491E0904090CC18503D019E002685268D6
:104B2000F1E70168CA6822F02002CA600168CA6819
:104B300022F48072CA6001684A6922F001024A6167
:104B4000202180F83E10016B012903D0FEF7ACFA5A
:104B5000002008BD0021016301680C3151E8002FDD
:104B600022F0100241E80023002BF5D101680A6809
:104B7000D20602D50A6849680091818DFEF747F890
:104B8000E6E7000070B5044600680169E26821F4B8
:104B90004051114301612169A068E26908436169DC
:104BA000114308432168CA6849F20C639A430243DF
:104BB000CA6020684169A26921F4407111434161D2
:104BC00031492068884202D03049884202D1FCF73E
:104BD0001DFE01E0FCF70AFEE269002319216425AD
:104BE0003226B2F5004F626828D0A0FB0101930F76
:104BF0009200FBF765FB0146B0FBF5F06FF0180281
:104C0000504301EB800006EB0010B0FBF5F000F024
:104C1000F002B1FBF5F002EB0012B1FBF5F06FF022
:104C20001803584301EB800006EB0010B0FBF5F0D1
:104C300000F00F0021681044886070BDA0FB0101E6
:104C400092185B41FBF73CFB0146B0FBF5F002011B
:104C5000B1FBF5F06FF01803584301EB800006EB51
:104C6000C000B0FBF5F000F0F80002EB4002B1FB31
:104C7000F5F0584301EB800006EBC000B0FBF5F007
:104C800000F00700D6E700000010014000140140CA
:104C900081628285C28500210164222280F83E2043
:104CA00080F83C10016921B10168CA6842F4807241
:104CB000CA6001684A6942F001024A610068C1683D
:104CC00041F02001C160002070472DE9F041984675
:104CD00017460E460446069D27E0681C25D02DB1D8
:104CE000FCF778F9A0EB0800A8421ED920680C3028
:104CF00050E8001F21F4D07140E80012002AF5D1DD
:104D00002068143050E8001F21F0010140E8001233
:104D1000002AF5D1202084F83D0084F83E000020D0
:104D200084F83C000320BDE8F0812068006836EA82
:104D3000000004D00020B842CFD00020F3E70120CB
:104D4000F9E700000148FDF765BF0000940300206B
:104D50000148FDF75FBF0000D8030020FEE710B553
:104D6000FFF776F8BDE81040FEF77ABF1FB5254B78
:104D70000FCB8DE80F00FFF7F2FF0122042122483C
:104D8000FCF722F9214C002210212046FCF71CF9E7
:104D9000FF21491EC9B2FCD2012210212046FCF796
:104DA00013F91B491B4801F01FFC1B491B4801F06C
:104DB0002DFC1B491B4801F03FFC1B491B4801F01F
:104DC00001FC6946012000F021FE401C12D018A011
:104DD00000F05CF91FA000F059F94FF4645000F0A6
:104DE00087F804280AD026A000F050F92BA000F084
:104DF0004DF9FEE730A000F049F9FEE736A000F0DB
:104E000045F91FBDA87A0008000C024000080240C6
:104E1000ED6A00085D6C0008AB6D0008396C000895
:104E2000AF6D00083F6C00089D6A0008996A000891
:104E300057495A4348495020496E697469616C6901
:104E40007A6174696F6E20537563636573732E0D99
:104E50000A0000004175746F2D64657465637469A0
:104E60006E672045746865726E657420436869706A
:104E7000206F6E2053504920506F72742E2E2E00DA
:104E80005735353030204E4F5420466F756E6420B4
:104E90006F6E205350490D0A00000000446F756288
:104EA0006C6520436865636B205350492043616201
:104EB0006C65730D0A00000057495A434849502059
:104EC000496E697469616C697A6564204661696CD0
:104ED00065642E0D0A000000573535303020466FCE
:104EE000756E64206F6E205350490D0A000000005B
:104EF000F8B5144C0546E068804760698047616AF0
:104F0000C5F30740C5F3072699B1A26A8AB18DF8A7
:104F100000008DF801608DF802500321684690472B
:104F2000E06980470546A069804720698047284698
:104F3000F8BD216A8847216A30468847216AE8B26D
:104F40008847EDE7D40000202DE9F8431A4C0546C8
:104F50001746E0688846804760698047616AC5F304
:104F60000740C5F30726A1B1A26A92B18DF80000EF
:104F70008DF801608DF80250032168469047626AFF
:104F8000394640469047A069804720698047BDE880
:104F9000F883216A8847216A30468847216AE8B247
:104FA0008847002505E0E069804708F805006D1C8A
:104FB000ADB2BD42F7D3E6E7D4000020F8B5164CF9
:104FC00005460E46E068804760698047A26A45F062
:104FD00004058AB1280C8DF80000280A8DF801001C
:104FE0008DF802508DF80360042168469047A0694F
:104FF000804720698047F8BD216AC5F3074088478C
:10500000216AC5F307208847216AE8B28847216AE8
:1050100030468847EBE70000D4000020F8B51A4C72
:1050200005461646E0680F46804760698047A26AD9
:1050300045F004059AB1280C8DF80000280A8DF877
:1050400001008DF80250032168469047A26A31465C
:1050500038469047A069804720698047F8BD216A9B
:10506000C5F307408847216AC5F307208847216AAE
:10507000E8B28847002504E0216A785D88476D1C06
:10508000ADB2B542F8D3E5E7D40000200FB4054B2C
:1050900010B503A9044A029800F004F910BC5DF8A9
:1050A00014FB0000355B0008040100207CB50C00F7
:1050B0001D461646014601D0601E00E00020CDE9E5
:1050C0000010064B6A462946304600F0EBF8002CEB
:1050D00002D0009A002111707CBD0000AB5900087D
:1050E0000907090E002804DB00F1E02080F8001415
:1050F000704700F00F0000F1E02080F8141D7047A9
:1051000002E008C8121F08C1002AFAD17047704790
:10511000002001E001C1121F002AFBD170470000EE
:105120002DE9FF5F82B00021DDE90430020DDDF8DA
:1051300040B0034318D044F61050A2F2FF3242436D
:105140001514119801281FD0A5EB0B00401C5FEA35
:10515000000A4FF000064E4FDFF83891B046504637
:1051600015D5CAF1000413E0119801244AA30128BF
:1051700001D16FEA0B010298119AC0E90031C0E930
:10518000024206B0BDE8F09FCBF10000DFE7044625
:105190000021404A491842EB0450CDE9001012E0CA
:1051A000E00707D032463B4640464946FBF7C0F988
:1051B0008046894632463B4610461946FBF7B8F909
:1051C00006460F466410002CEAD1DDE90401DDE952
:1051D0000023BAF1000F06DAFBF7AAF942464B4664
:1051E000FBF7A6F905E0FBF715FA42464B46FBF73D
:1051F00011FA04460E460022284BFBF793FA03D817
:105200004FF0FF30014607E00022254B2046314693
:10521000FBF7E7F8FBF76DFA102409E0002C0ADB36
:105220000A220023FBF74CF8039B30321A55641E08
:1052300050EA0102F2D1641C039AC4F11103144430
:10524000119A012A03D0012208430DD10AE0084334
:1052500004D000204FF0110B119072E7A3EB0B0567
:105260006D1E0DE05B4504DD4FF0000205F1010508
:1052700004E003DA4FF00002A5F10105002AECD0AA
:1052800002981199C0E90231C0E9004579E70000B0
:10529000000014400000F03F300000000000F04328
:1052A0000000E03F2DE9FF4F95B09A46884606463C
:1052B0000025EEE1252877D100242746F94A01216F
:1052C000039400E0044316F8013F203B01FA03F089
:1052D0001042F7D130782A2811D06FF02F033078A0
:1052E000A0F13002092A16D8039A44F0020402EB16
:1052F000820203EB42021044761C0390EFE758F859
:10530000042B0392002A03DA504244F40054039021
:1053100044F00204761C30782E2816D116F8010FBE
:1053200044F004042A280DD06FF02F023078A0F149
:105330003003092B09D807EB870302EB4303C71897
:10534000761CF3E758F8047B761C30786C280FD075
:1053500006DC4C2817D068280DD06A2814D104E048
:10536000742810D07A280FD10DE044F400140AE01C
:1053700044F4801401E044F440147278824202D173
:1053800004F58014761C761C307866280BD013DC6C
:10539000582877D009DC002875D04528F6D0462853
:1053A000F4D047281AD193E118E0632835D0642857
:1053B00079D0652812D18BE1702873D008DC67287A
:1053C000F1D069286FD06E280DD06F2806D1ACE0DF
:1053D00073282CD0752874D0782853D0524617994A
:1053E00090476D1C54E1C4F30250022809D00328F1
:1053F0000DD0D8F8001004280DD00D6008F1040875
:1054000046E1D8F80010EA17C1E90052F6E7D8F8EB
:1054100000100D80F2E70D70F0E718F8041B8DF80E
:10542000001000208DF80100EB46012003E058F841
:1054300004BB4FF0FF3061074FF0000102D40DE0D4
:1054400009F101018946B9420FDA8145F8DB1BF801
:1054500009100029F4D108E009F1010189468142CF
:10546000FADB1BF809100029F6D103985346A0EB8C
:10547000090721463846179A00F080FA284400EBC5
:10548000090507E044E008E10DE01BF8010B524676
:1054900017999047B9F10109F7D25346214638468A
:1054A000179AF2E039E00A21C4F302524FF0000BE0
:1054B0000091022A06D058F8040BC117032A09D01C
:1054C0000AE023E008F1070020F00702F2E80201F9
:1054D000904605E000B2C117042A01D140B2C117BD
:1054E000002906DA0A460021404261EB02012D2222
:1054F00002E0220504D52B228DF80420012203E0CE
:10550000E20701D02022F7E7914657E00A2100E0A8
:1055100010214FF0000B00910BE010214FF0000B19
:1055200044F004040827009103E008204FF0000B2A
:105530000090C4F30252022A05D058F8040B00214F
:10554000032A08D008E008F1070020F00702F2E87B
:105550000201904603E080B2042A00D1C0B24FF0AD
:10556000000922072AD53278702A07D0DDF800C05A
:105570008CF0100C5CEA0B0C05D00EE040228DF88C
:105580000420012208E050EA010306D030238DF800
:1055900004308DF8052002229146009B83F0080319
:1055A00053EA0B030AD150EA010201D1620705D583
:1055B00030228DF804204FF001097F1E3278582ADE
:1055C00004D039A20C920CAA02920BE03BA2F9E79C
:1055D0005B46009AFAF774FE0C9B9B5C029A521E83
:1055E0000292137050EA0102F2D1029804A9081A3B
:1055F00000F1200B600702D524F4803400E001277D
:105600005F4502DDA7EB0B0000E0002000EB0B0183
:10561000009003984944401A0390E00306D453468F
:105620002146179A039800F0A9F90544002706E0DF
:1056300001A85246C05D179990476D1C7F1C4F45CD
:10564000F6DBE0030CD553462146179A039800F089
:1056500095F9054404E030205246179990476D1C97
:105660000099481E00900029F5DC08E00298029994
:1056700052460078491C0291179990476D1CBBF166
:105680000001ABF1010BF1DC5BE100F065F90544D1
:10569000761C307800287FF40DAE19B02846BDE89E
:1056A000F08F0000092801003031323334353637AD
:1056B000383961626364656600000000303132335E
:1056C00034353637383941424344454600000000FE
:1056D000600700D4062708F1070020F00700F0E873
:1056E0000223804603F0004C5FEA0C0001D097A033
:1056F00009E0200501D596A005E0E00701D095A0BE
:1057000001E0AFF24C001390307823F0004365289D
:105710000CD006DC452809D046281DD047287FD16B
:105720003BE0662818D067287AD136E00021112F97
:1057300001DB112000E0781CCDE9000104A90CA8D0
:10574000FFF7EEFCDDE90D010C9A4FF0000B07F1BD
:105750000109109200914EE04FF000400097CDE912
:10576000011004A90CA8FFF7DBFCDDE90D020C9B7E
:105770000F994FF0000B91461093009211B9791CCC
:1057800000EB0109B7EB090003D4C0F1FF3B07F1BF
:105790000109A9EB0700019042E0012F00DA01277F
:1057A0000021112F01DD112000E03846CDE9000174
:1057B00004A90CA8FFF7B4FCDDE90D010C9A0091D7
:1057C0004FF0000BB946109221070FD4009A4A45BA
:1057D00003DA914601E0A9F10109B9F1010F05DDF4
:1057E000109AA9F10101515C3029F4D0B84202DAD3
:1057F00010F1040F03DA0121CDE9011010E00028B7
:1058000003DC8344A9EB000102E0411C494500DDB3
:105810008946A0EB0B00401C01904FF00040029025
:10582000200705D40198484502DB4FF0FF30019076
:1058300000208DF84B0002980DF14B07B0F1004F9E
:1058400025D002200C902B200D90029800280CDA15
:10585000404202902D200D9007E00A210298FAF7AD
:105860008BFD3031029007F8011D0C99481E0C90F9
:105870000029F2DC02980028EFD1791E0D980870FB
:10588000307800F0200040F0450007F8020D11A824
:10589000C01BC01D02901398007800B1012000EBDE
:1058A0000901019801EBE071029801440398401A44
:1058B000401E0390E00306D453462146179A0398EE
:1058C00000F05CF805441398007818B15246179917
:1058D00090476D1CE00323D553462146179A039841
:1058E00000F04CF805441BE0BBF1000F07DB00980B
:1058F000584504DD1098179910F80B0001E017992E
:1059000030205246904701980BF1010B401E05F1E3
:105910000105019004D12E205246179990476D1C25
:10592000B9F10001A9F10109DEDC05E017F8010B6E
:105930005246179990476D1C0299481E0290002903
:10594000F4DC53462146179A03989EE62D0000008A
:105950002B000000200000002DE9F0410446002546
:105960001E461746880404D405E039462020B04777
:105970006D1C641EF9D52846BDE8F0812DE9F04183
:10598000044600251E469046C80301D5302700E096
:105990002027880404D505E041463846B0476D1CF1
:1059A000641EF9D52846BDE8F0814A68002A06D071
:1059B0000A68531C0B6010704868401E48607047AE
:1059C00010B50C4606281ED2DFE800F003070B10C6
:1059D0001418204601F058F913E0204601F0ACF805
:1059E0000FE02078BDE8104001F07AB901F0D0F85E
:1059F000207006E0204601F085F902E0204601F023
:105A0000CAF8002010BD4FF0FF3010BD2DE9F04165
:105A10000C46002102464F1E08464FF498554FF49D
:105A2000A056102A63D2DFE802F0080B17131A1EE3
:105A3000222C3645484C5950555C01F07CF94DE01C
:105A400014B1204604F10801BDE8F04101F0B7B8F7
:105A5000208801F029F841E001F050F805E02088A5
:105A600001F004F93AE001F058F8208036E020888F
:105A7000010A2846FFF7A2FA21783046FFF79EFA7E
:105A80002CE03046FFF734FA06462846FFF730FA96
:105A900006EB0020E9E7174882782270C27862702E
:105AA0000279A2704279E27082792271C0796071C4
:105AB000A17113E001F0C8F910E0204601F0D9F916
:105AC0000CE0204601F081F908E02078BDE8F041C3
:105AD00001F0F4B901F0ABF905E020700020BDE859
