:020000040800F2
:10000000405100209D02000801280008D725000863
:10001000FD27000857080008BD3200080000000056
:10002000000000000000000000000000DD010008EA
:100030005B09000800000000390200086B2A000874
:10004000B7020008B7020008B7020008B7020008AC
:10005000B7020008B7020008B7020008B70200089C
:10006000B7020008B7020008B7020008B70200088C
:10007000B7020008B7020008B7020008B70200087C
:100080005D0800086D080008B7020008B702000804
:10009000B7020008B7020008B7020008B70200085C
:1000A000B7020008452B0008B7020008B702000895
:1000B000552B0008B7020008B7020008B702000875
:1000C000B7020008B7020008B7020008B70200082C
:1000D000B7020008B7020008AD320008B7020008F6
:1000E000B7020008B7020008B7020008B70200080C
:1000F000B7020008B7020008B7020008B7020008FC
:1001000000000000B7020008B7020008B7020008AC
:100110000000000000000000B7020008B70200085D
:10012000B7020008B7020008B7020008B7020008CB
:10013000B7020008B7020008B7020008B7020008BB
:10014000B7020008B7020008B7020008B7020008AB
:10015000B7020008B7020008B7020008B70200089B
:10016000B7020008B702000800000000000000000D
:10017000000000000000000000000000000000007F
:10018000B7020008B70200080000000000000000ED
:10019000B7020008B70200080000000000000000DD
:1001A000000000000000000000000000000000004F
:1001B000B70200080000000000000000B7020008BD
:1001C000B7020008DFF810D000F0C4FA004800477A
:1001D0005D3C0008AFF30080405100202C4B1968B3
:1001E0000868B0E8F04F80F30988BFF36F8F4FF0D5
:1001F000000080F311887047000000000848006884
:10020000006880F308884FF0000080F3148862B61D
:1002100061B6BFF34F8FBFF36F8F00DF00BF00BF2A
:1002200008ED00E0DFF80C00016841F470010160A6
:10023000704700BF88ED00E0EFF30980BFF36F8FD8
:10024000134B1A681EF0100F08BF20ED108A20E92A
:10025000F04F106009B44FF0500080F31188BFF3E5
:100260004F8FBFF36F8F04F0F7FE4FF0000080F365
:10027000118809BC19680868B0E8F04F1EF0100F2B
:1002800008BFB0EC108A80F30988BFF36F8F704706
:1002900038000020EFF305807047000006488047D3
:1002A00006480047FEE7FEE7FEE7FEE7FEE7FEE75B
:1002B000FEE7FEE7FEE7FEE7312B0008C501000878
:1002C0002DE9F05F0546002092469B46884606468B
:1002D000814640241BE0284641464746224600F01E
:1002E00070F853465A46C01A914110D31146184629
:1002F000224600F057F82D1A67EB01084F462246B8
:100300000120002100F04EF817EB00094E41201E9D
:10031000A4F10104DFDC484631462A464346BDE8E5
:10032000F09F40EA01039B0703D009E008C9121FB0
:1003300008C0042AFAD203E011F8013B00F8013B9F
:10034000521EF9D27047D2B201E000F8012B491ECB
:10035000FBD270470022F6E710B513460A46044662
:100360001946FFF7F0FF204610BD421C10F8011B94
:100370000029FBD1801A704730B50B46014600209A
:100380002022012409E021FA02F59D4205D303FA57
:1003900002F5491B04FA02F52844151EA2F10102D8
:1003A000F1DC30BD202A04DB203A00FA02F1002003
:1003B00070479140C2F1200320FA03F319439040A3
:1003C0007047202A04DB203A21FA02F0002170470E
:1003D00021FA02F3D040C2F12002914008431946AD
:1003E00070472DE9FE4F804681EA0300C00F0C469E
:1003F000009021F0004123F00045B8EB0200A94134
:1004000005D24046214690461C460B46024623F044
:100410000040104347D0270DC7F30A00C3F30A5129
:100420000290401A019040286BDAC3F3130040F4A5
:10043000801B0098924620B10023D2EB030A63EBA5
:100440000B0B01985946C0F140025046FFF7AAFF36
:1004500006460D4650465946019A00F08DF910EBBC
:1004600008006141002487EA115284EAE7731A43C5
:1004700040D0009A62B3019A012A4FEA075215DC74
:10048000001B61EB02014FF0004202EA0752CDE986
:100490000042001C41F5801132462B4600F08DF9D8
:1004A00003B0BDE8F08F40462146F9E7001B61EB41
:1004B0000201001C41F5801300185B412018A2F5D1
:1004C000001747EB030140EAD570B6196D4111E002
:1004D0006D084FEA360645EAC0754FEA0752001B21
:1004E00061EB0201001C41F5801149084FEA300020
:1004F0000019514132462B4603B0BDE8F04F00F0E1
:100500004DB90098012240000023D0EB020263EBBA
:10051000E073009821464FEAE074B8EB000061EB0D
:100520000401E9E783F000435BE781F0004158E70D
:100530002DE9FE4F81EA030404F0004421F000415C
:1005400000944FF0000B23F0004350EA01045ED00A
:1005500052EA03045BD0C3F30A54C1F30A552C4496
:10056000A4F2F3340194A0FB0254C1F3130141F44B
:100570008011C3F3130343F4801301FB024400FB17
:10058000034E840A970A44EA815447EA8357A4FB3E
:10059000076802958D0A05FB07854FEA932C04FB3B
:1005A0000C542705029D4FEA065847EA1637B5EB6B
:1005B00008056EEB070C870E920E47EA811742EA98
:1005C0008312A7FB0201B6EB0B0164EB00042B0DB9
:1005D00043EA0C335E1844EB1C50DA465146E7FB05
:1005E0000201C5F313044FEA0B3343EA14534FEAF5
:1005F0000432019C43EA0603A4F10C040294009C1B
:10060000CDE900B400F0D9F803B0BDE8F08F0020C8
:100610000146F9E72DE9F04D81EA030404F0004BAF
:1006200021F0004514464FF0000A23F0004150EA43
:10063000050220D054EA01021DD0C5F30A57024634
:10064000C5F31303C1F31300C1F30A5640F4801538
:1006500043F48013A7EB0608101BD64608F2FD38BA
:1006600073EB050002D308F1010801E092185B4129
:10067000B8F1000F03DA00200146BDE8F08D00203C
:100680004FF48011064684460EE0171B73EB0507F6
:1006900005D3121B63EB050306434CEA010C490822
:1006A0004FEA300092185B4150EA0107EDD152EA5F
:1006B000030012D082EA040083EA0501084305D052
:1006C000101BAB4106D20122002306E000224FF0AE
:1006D000004302E06FF0010253101AEB06004CEBEE
:1006E000085110EB0A0041EB0B01BDE8F04D00F0A2
:1006F00055B8C1F30A52C1F3130140F2FF3341F47C
:1007000080119A4202DA00200146704740F23343DA
:100710009A42A2F2334202DC5242FFF752BEFFF786
:1007200041BE000030B5041E71F1000404DB4FF03F
:100730000044404264EB0101141E73F1000405DB28
:100740001C464FF00043524263EB0403994208BF3A
:10075000904230BD064C074D06E0E06840F00103D2
:1007600094E8070098471034AC42F6D3FFF72EFD0B
:100770001461000834610008202A06DBCB17203AF8
:1007800041FA02F043EAE07306E041FA02F3D04096
:10079000C2F12002914008431946704710B5141E5B
:1007A00073F1000408DA401C41F1000192185B412A
:1007B0001A4301D120F0010010BD2DE9F04D924601
:1007C0009B4611B1B1FA81F202E0B0FA80F2203218
:1007D0009046FFF7E7FD04460F4640EA0A0041EA6B
:1007E0000B0153465A46084313D0114653EA010001
:1007F00019D0C8F140025046FFF7E3FD05460E460A
:10080000504659464246FFF7CDFD084305D001202A
:1008100004E020463946BDE8F08D0020054346EA55
:10082000E0762C4337430A986305E40AA0EB0800FE
:100830000022FD0A44EA47540A3002D5002001464E
:10084000E9E7010510196941DDE908450019694129
:10085000BDE8F04DA2E700BFFEE7000010B502487A
:1008600000F0EAF810BD00004801002010B5024871
:1008700000F0E2F810BD0000A80100200146087851
:1008800010381823B0FBF3F20848805CC865032ACF
:1008900005D908686FF30900001D886503E0086842
:1008A0006FF309008865886D704700008460000858
:1008B000014600208A6A8B69CBB932B1012A0DD07A
:1008C000022A03D0032A10D10EE000BFCB6A03F046
:1008D0008073B3F1807F00D1012007E0CB6AB3F1D0
:1008E000C07F00D1012001E000E000BF34E08B694F
:1008F000B3F5005F1AD132B1012A07D0022A03D022
:10090000032A11D10AE000BF01200EE0CB6A03F0F8
:100910008073B3F1807F00D1012006E0CB6AB3F190
:10092000C07F00D1012000E000BF15E032B1012AF4
:1009300005D0022A04D0032A0CD103E000BF00BF77
:10094000012008E0CB6A03F08073B3F1807F00D10F
:10095000012000E000BF00BF7047704772B600BFC3
:10096000FEE770B50446A56D00F0E0FA064694F87F
:100970003500022808D08020606500BF002084F880
:10098000340000BF012070BD2068006820F0160010
:10099000216808602068406920F080002168486173
:1009A000206C08B9A06C28B12068006820F008000D
:1009B000216808602068006820F001002168086054
:1009C00010E000F0B3FA801B05280BD920206065E9
:1009D000032084F8350000BF002084F8340000BFF5
:1009E0000320D0E72068006800F001000028E8D16B
:1009F00094F85C103F208840A860012084F83500FE
:100A000000BF002084F8340000BF00BFBBE70146F0
:100A100091F83500022803D08020486501207047F6
:100A2000052081F835000868006820F001000A6898
:100A300010600020F3E70000F8B5044600200090A5
:100A40008C4800684FF41651B0FBF1F7A56D2E6885
:100A500094F85C1008208840304098B12068006805
:100A600000F0040070B12068006820F004002168E4
:100A7000086094F85C1008208840A860606D40F021
:100A80000100606594F85C1001208840304068B136
:100A90002068406900F0800040B194F85C100120AB
:100AA0008840A860606D40F00200606594F85C10BA
:100AB00004208840304068B12068006800F00200DF
:100AC00040B194F85C1004208840A860606D40F04C
:100AD0000400606594F85C1010208840304078B3C2
:100AE0002068006800F0080050B394F85C101020F3
:100AF0008840A8602068006800F4802080B12068E9
:100B0000006800F4002028B9206CC8B12046216C90
:100B1000884715E0A06C98B12046A16C88470FE08B
:100B20002068006800F4807028B92068006820F010
:100B3000080021680860206C10B12046216C8847AD
:100B400094F85C10202088403040002865D0206850
:100B5000006800F0100000285FD094F85C1020209E
:100B60008840A86094F83500052828D120680068DE
:100B700020F01600216808602068406920F080009D
:100B800021684861206C08B9A06C28B12068006811
:100B900020F008002168086094F85C103F2088402D
:100BA000A860012084F8350000BF002084F83400DC
:100BB00000BF206D10B12046216D8847F8BD206828
:100BC000006800F4802080B12068006800F40020F4
:100BD00028B9606C10B12046616C88471DE0E06B5D
:100BE000D8B12046E16B884717E02068006800F420
:100BF000807068B92068006820F0100021680860E3
:100C0000012084F8350000BF002084F8340000BFC4
:100C1000E06B10B12046E16B8847606D38B3606DC2
:100C200000F00100F0B1052084F83500206800686C
:100C300020F001002168086000BF0098401C00906F
:100C4000B84200D905E02068006800F001000028E3
:100C5000F3D100BF012084F8350000BF002084F8E4
:100C6000340000BFE06C10B12046E16C884700BF43
:100C7000A4E70000340000202DE9F04104460025DF
:100C800000F054F9074614B90120BDE8F081606A0C
:100C900000B100BF022084F8350000BF002084F8B6
:100CA000340000BF2068006820F00100216808605F
:100CB0000AE000F03BF9C01B052805D9202060653B
:100CC000032084F83500E0E72068006800F00100A8
:100CD0000028EED12068056821480540D4E90101CB
:100CE0000843E16808432169084361690843A16931
:100CF0000843E1690843216A08430543606A042800
:100D000003D1D4E90B01084305432068056020683E
:100D1000456925F00705606A0543606A04280DD11E
:100D2000A06A0543E06A48B12046FFF7C1FD28B13B
:100D300040206065012084F83500A6E72068456101
:100D40002046FFF79BFD064694F85C103F20884044
:100D5000B06000206065012084F83500002094E731
:100D60003F8010F0F8B503460A4600250024002015
:100D70000021C2E0012606FA01F5166806EA05041C
:100D8000AC4274D1167906F00306012E04D0167910
:100D900006F00306022E13D198684F000326BE40CA
:100DA000B0434F00D668BE40304398605868012673
:100DB0008E40B0431679C6F300168E40304358601B
:100DC000167906F00306032E09D0D8684F000326D3
:100DD000BE40B0434F009668BE403043D86016799D
:100DE00006F00306022E13D1CF0803F1200656F8B1
:100DF00027004E07F70E0F26BE40B0434F07FF0EE9
:100E00001669BE403043CF0803F1200646F827009C
:100E100018684F000326BE40B043167906F003065B
:100E20004F00BE4030431860566806F44036002E2E
:100E300062D000BF00260096324E366846F48046E7
:100E4000304F3E603E46366806F48046009600BF4E
:100E500000BF2D4E8F0856F827008E07370F0F263C
:100E6000BE40B043294EB34202D1002610E043E019
:100E7000274EB34201D101260AE0264EB34201D1EA
:100E8000022605E0244EB34201D1032600E00726E6
:100E90008F073F0FBE4030431B4E8F0846F8270098
:100EA0001E4E3068A043566806F4801606B12043F3
:100EB0001A4E3060361D3068A043566806F400169E
:100EC00006B12043154E361D3060144E361F306873
:100ED000A043566806F4003606B120430F4E361F75
:100EE0003060361F3068A043566806F4803606B17D
:100EF00020430A4E083E3060491C1029FFF43AAFE7
:100F0000F8BD0000443802400838014000000240AB
:100F10000004024000080240000C0240083C01406E
:100F20000AB1816101E00B048361704701480068E8
:100F30007047000028000020034800680349097832
:100F40000844014908607047280000203000002054
:100F500010B50D48006840F400700B490860084661
:100F6000006840F4806008600846006840F48070C3
:100F70000860032000F0D2F80F2000F007F800F01E
:100F800055F8002010BD0000003C0240F0B587B0CD
:100F900004460026002700BF002000901E4800687D
:100FA00040F001001C4908600846006800F001009C
:100FB000009000BF00BF01A902A800F085F900F071
:100FC000BBF906461548B6FBF0F0471E1448154914
:100FD000086040F2E7311348C160476000210161B9
:100FE0008160816100F0C4FC054695B90D4800F0B0
:100FF000F3FC05466DB9192000F042F8102C07D219
:1010000000222146192000F04BF80748046000E058
:101010000125284607B0F0BD4438024040420F0089
:1010200000000140080200202C00002008B500BF8D
:10103000002000901148006840F480400F4908608B
:101040000846006800F48040009000BF00BF00BF69
:1010500000200090081F006840F08050091F0860C1
:101060000846006800F08050009000BF00BF0022DA
:101070000F21901E00F014F808BD00004438024013
:1010800001460846002809DB00F01F0301229A40B0
:1010900043099B0003F1E023C3F8002100BF704720
:1010A0002DE9F05F80460D461646002702F022F932
:1010B000074639462A46334601F00700C0F1070AC1
:1010C000BAF1040F02D94FF0040A01E0C0F1070A97
:1010D000D14600F1040ABAF1070F02D24FF0000A1C
:1010E00001E0A0F1030AD4464FF0010A0AFA09FA16
:1010F000AAF1010A0AEA020A0AFA0CFA4FF0010BF5
:101100000BFA0CFBABF1010B0BEA030B4AEA0B04E5
:101110002146404602F0F6F8BDE8F09F00BF00F01F
:101120000702064B19684FF6FF031940044B0B43A7
:1011300043EA0221014B196000BF70470CED00E04B
:101140000000FA0570B504460D460CB9012070BDCB
:101150005848006800F00700A84209D255490D70B0
:101160000846006800F00700A84201D00120EEE721
:10117000207800F0020002281DD1207800F0040041
:10118000042805D14C48006840F4E0504A49086002
:10119000207800F00800082805D14748006840F48E
:1011A0006040454908604448006820F0F000A168AC
:1011B000084341490860207800F00100A8B3606846
:1011C000012807D13C4808380068C0F34040B8B94E
:1011D0000120BCE76068022802D06068032807D1BC
:1011E000354808380068C0F3406048B90120AEE7D0
:1011F000314808380068C0F3400008B90120A6E76C
:101200002D48006820F00300616808432A490860FF
:10121000FFF78CFE064609E0FFF788FE801B41F2CF
:101220008831884202D9032091E707E0224800680C
:1012300000F00C006168B0EB810FEDD11D48006833
:1012400000F00700A84209D91A490D700846006845
:1012500000F00700A84201D0012078E7207800F0D4
:101260000400042807D11448006820F4E050E16825
:10127000084311490860207800F00800082808D1C8
:101280000D48006820F46040216940EAC1000A4925
:10129000086000F061F808490968C1F30311074AC2
:1012A000515CC8400649086006480068FFF76EFEBA
:1012B00000204CE7003C0240083802408C600008E7
:1012C000340000202C0000200F2202600D4A12681A
:1012D00002F0030242600B4A126802F0F0028260E0
:1012E000084A126802F4E052C260064A126802F428
:1012F0006042D2080261044A126802F007020A60E2
:101300007047000008380240003C02400148006875
:10131000704700003400002000B5FFF7F7FF0449D4
:101320000968C1F38221034A515CC84000BD000036
:10133000083802409C60000800B5FFF7E7FF044949
:101340000968C1F34231034A515CC84000BD000046
:10135000083802409C6000082DE9F0470024002571
:101360000026A1462548006800F00C0020B10428A2
:1013700005D008283AD105E0DFF8849039E0DFF89D
:10138000849036E01D48001F006800F03F041B48B1
:10139000001F006800F4800078B11A481749091F3F
:1013A0000968C1F38811A0FB0170014622460023A1
:1013B0003846FEF785FF05460EE011480F49091F24
:1013C0000968C1F38811A0FB017001462246002381
:1013D0003846FEF775FF05460848001F0068C0F351
:1013E0000140401C4600B5FBF6F902E0DFF8109022
:1013F00000BF00BF4846BDE8F08700000838024043
:101400000024F40040787D01F8B504460CB90120B1
:10141000F8BD207800F00100002874D0F74800687B
:1014200000F00C0004280DD0F448006800F00C0017
:10143000082813D1F148001F006800F48000B0F5BF
:10144000800F0BD1ED4808380068C0F340400028F9
:1014500059D06068002856D10120D9E700BF6068E4
:10146000B0F5803F08D1E5480838006840F4803086
:10147000E249083908601EE06068B0F5A02F0DD180
:10148000DE480838006840F48020DC4908390860EC
:101490000846006840F4803008600CE0D7480838FF
:1014A000006820F48030D549083908600846006893
:1014B00020F48020086000BF606890B1FFF736FD1F
:1014C000054606E0FFF732FD401B642801D90320E2
:1014D0009EE7CA4808380068C0F340400028F1D0B1
:1014E00011E0FFF723FD054606E0FFF71FFD401B57
:1014F000642801D903208BE7C04808380068C0F38E
:1015000040400028F1D1207800F0020002285FD18D
:10151000BA48006800F00C0058B1B848006800F004
:101520000C0008281CD1B548001F006800F480009A
:10153000B0B9B24808380068C0F3400020B1E06894
:10154000012801D0012063E7AC480838006820F08A
:10155000F800216940EAC100A8490839086037E06D
:10156000E06800B30120A6490860FFF7DFFC0546EC
:1015700006E0FFF7DBFC401B022801D9032047E708
:101580009E4808380068C0F340000028F1D09B480E
:101590000838006820F0F800216940EAC100974946
:1015A0000839086014E0002095490860FFF7BEFC88
:1015B000054606E0FFF7BAFC401B022801D90320CC
:1015C00026E78E4808380068C0F340000028F1D1B3
:1015D000207800F0080008282CD16069A8B101200B
:1015E00088490860FFF7A2FC054606E0FFF79EFC6D
:1015F000401B022801D903200AE780486C300068AC
:10160000C0F340000028F1D014E000207D490860BC
:10161000FFF78CFC054606E0FFF788FC401B02281C
:1016200001D90320F4E675486C300068C0F340002F
:101630000028F1D1207800F00400042870D10027A0
:101640006E483830006800F0805090B900BF00202C
:1016500000906A483830006840F08050674938315F
:1016600008600846006800F08050009000BF00BF8E
:1016700001276548006800F48070B0B962480068CE
:1016800040F4807060490860FFF750FC054606E0B2
:10169000FFF74CFC401B022801D90320B8E65A484A
:1016A000006800F480700028F2D000BFA068012814
:1016B00008D152486830006840F001004F49683155
:1016C00008601DE0A06805280DD14C48683000680E
:1016D00040F004004949683108600846006840F05D
:1016E000010008600CE045486830006820F0010007
:1016F0004249683108600846006820F0040008602C
:1017000000BFA068A8B1FFF711FC054609E0FFF78C
:101710000DFC401B41F28831884202D9032077E654
:1017200026E0364868300068C0F340000028EED05C
:1017300013E0FFF7FBFB054608E0FFF7F7FB401B54
:1017400041F28831884201D9032061E62B48683094
:101750000068C0F340000028EFD1012F07D12748CF
:101760003830006820F0805024493831086000BFCC
:10177000A069002850D02148006800F00C0008281B
:1017800060D0A069022848D100201D490866FFF7F3
:10179000CDFB054606E0FFF7C9FB401B022801D937
:1017A000032035E6154808380068C0F3406000287B
:1017B000F1D1D4E907010843616A40EA81110122AD
:1017C000A06AC2EB500041EA00412C20005D41EAD2
:1017D00000613020005D41EA00700849091F08607F
:1017E000012007490866FFF7A1FB05460EE0FFF759
:1017F0009DFB401B022809D9032009E60838024056
:1018000000004742800E47420070004028480068B0
:10181000C0F340600028EAD048E00020254908666F
:10182000FFF784FB054606E0FFF780FB401B02281C
:1018300001D90320ECE51E480068C0F34060002891
:10184000F2D133E0A069012800D1E1E51848001D7C
:101850000668A069012827D006F48001E06981426A
:1018600022D106F03F01206A81421DD147F6C070A7
:101870003040616AB0EB811F16D106F4403101227D
:10188000A06AC2EB5000B1EB004F0DD106F07061C1
:101890002C20005DB1EB006F06D106F0E041302056
:1018A000005DB1EB007F01D00120B1E50020AFE584
:1018B00000380240000047427047704730B502468A
:1018C0000B4600BF92F83C00012801D1022030BD38
:1018D000012082F83C0000BF022082F83D00106821
:1018E00044681068816824F0700418680443106824
:1018F0004460184D1068A8421BD01068B0F1804FAA
:1019000017D0154D1068A84213D0144D1068A84286
:101910000FD0134D1068A8420BD0124D1068A8428A
:1019200007D0114D1068A84203D0104D1068A8428E
:1019300005D121F0800158680143106881600120C1
:1019400082F83D0000BF002082F83C0000BF00BFCD
:10195000BDE7000000000140000400400008004016
:10196000000C00400004014000400140001800400D
:1019700010B504460CB9012010BD94F83D0028B9FB
:10198000002084F83C00204600F025F8022084F86E
:101990003D00211D206801F0E5F8012084F8460093
:1019A00000BF84F83E0001213F2001554020015531
:1019B0004120015500BF00BF012084F842004320B0
:1019C0000155442001554520015500BF012084F8F0
:1019D0003D000020D0E77047014691F83D00012806
:1019E00001D001207047022081F83D000868C068DE
:1019F00040F001000B68D8601A4B086898421BD071
:101A00000868B0F1804F17D0174B0868984213D080
:101A1000164B086898420FD0154B086898420BD0B7
:101A2000144B0868984207D0134B0868984203D0BB
:101A3000124B086898420CD10868806800F00702D1
:101A4000062A0CD00868006840F001000B68186096
:101A500005E00868006840F001000B68186000208D
:101A6000C0E7000000000140000400400008004002
:101A7000000C0040000401400040014000180040FC
:101A800010B504462068B0F1804F3ED11F48007861
:101A900000283AD11E48007801281AD100211D489B
:101AA00000F0E0FA1C4908801A480068006A20F03B
:101AB0000A0018490968086216480068006A154952
:101AC0000968086200201249087001200F49087057
:101AD00017E00020114908600F49088001200C49D7
:101AE00008700C480068006A20F00A00094909687B
:101AF000086208480068006A40F002000549096869
:101B00000862002003490968486210BD05000020F2
:101B100004000020BC00002006000020000000207F
:101B20002DE9F04104460D461646002700BF94F803
:101B30003C00012802D10220BDE8F081012084F898
:101B40003C0000BF96B9EB68D5E90012206801F0AF
:101B500087F82068806920F00C002168886120687F
:101B60008069A96808432168886141E0042E13D187
:101B7000EB68D5E90012206801F0BAF820688069A6
:101B800020F440602168886120688069A96840EA83
:101B90000120216888612BE0082E12D1EB68D5E97D
:101BA0000012206801F0C1F82068C06920F00C0024
:101BB0002168C8612068C069A96808432168C861B4
:101BC00016E00C2E13D1EB68D5E90012206801F065
:101BD000C8F82068C06920F440602168C8612068A6
:101BE000C069A96840EA01202168C86100E00127B6
:101BF00000BF002084F83C0000BF38469CE710B5C9
:101C000004460CB9012010BD94F83D0028B900200D
:101C100084F83C00204600F025F8022084F83D00BE
:101C2000211D206800F09EFF012084F8460000BFBF
:101C300084F83E0001213F200155402001554120FC
:101C4000015500BF00BF012084F842004320015528
:101C5000442001554520015500BF012084F83D0076
:101C60000020D0E710B586B00446142101A8FEF785
:101C700071FB2068B0F1804F36D100BF002000908A
:101C80001A48006840F001001849086008460068DA
:101C900000F00100009000BF00BF00BF00200090D6
:101CA00012481038006840F00100104910390860EF
:101CB0000846006800F00100009000BF00BF20202F
:101CC00001900220029003900020049001200590D2
:101CD00001A90748FFF746F8002205211C20FFF75D
:101CE000DFF91C20FFF7CCF906B010BD40380240E8
:101CF000000002402DE9F04304460D46002615B9C8
:101D000094F83E000BE0042D02D13F20005D06E078
:101D1000082D02D14020005D01E04120005D804699
:101D200015B994F842000BE0042D02D14320005D68
:101D300006E0082D02D14420005D01E04520005D51
:101D40008146B8F1010F02D1B9F1010F02D0012093
:101D5000BDE8F0831DB9022084F83E000EE0042D9A
:101D600003D102213F20015508E0082D03D10221B3
:101D70004020015502E00221412001551DB90220F9
:101D800084F842000EE0042D03D1022143200155C6
:101D900008E0082D03D102214420015502E0022170
:101DA0004520015535B1042D0BD0082D10D00C2D38
:101DB0001CD114E02068C06840F002002168C860AF
:101DC00016E02068C06840F004002168C8600FE099
:101DD0002068C06840F008002168C86008E02068FA
:101DE000C06840F010002168C86001E0012600BF13
:101DF00000BF86BB01222946206800F01FFF1A4958
:101E0000206888421BD02068B0F1804F17D0174956
:101E10002068884213D01649206888420FD015499F
:101E2000206888420BD014492068884207D01349A3
:101E30002068884203D01249206888420CD120686B
:101E4000806800F00707062F0CD02068006840F07B
:101E500001002168086005E02068006840F001008A
:101E600021680860304673E700000140000400402C
:101E700000080040000C0040000401400040014008
:101E80000018004010B5044620680069C0F3400007
:101E9000D8B12068C068C0F34000B0B16FF0020054
:101EA00021680861012020772068806900F0030024
:101EB00018B12046FFF7E4FD05E0204600F0ADF83C
:101EC000204600F0ABF80020207720680069C0F3BE
:101ED0008000D8B12068C068C0F38000B0B16FF056
:101EE000040021680861022020772068806900F4DE
:101EF000407018B12046FFF7C3FD05E0204600F012
:101F00008CF8204600F08AF80020207720680069CD
:101F1000C0F3C000D8B12068C068C0F3C000B0B141
:101F20006FF0080021680861042020772068C069EC
:101F300000F0030018B12046FFF7A2FD05E020469F
:101F400000F06BF8204600F069F800202077206848
:101F50000069C0F30010D8B12068C068C0F3001059
:101F6000B0B16FF010002168086108202077206868
:101F7000C06900F4407018B12046FFF781FD05E00C
:101F8000204600F04AF8204600F048F8002020776C
:101F90002068006900F0010058B12068C06800F0B6
:101FA000010030B16FF0010021680861204600F0A7
:101FB00037F820680069C0F3C01058B12068C068C5
:101FC000C0F3C01030B16FF0800021680861204676
:101FD000FFF772FC20680069C0F3801058B12068D8
:101FE000C068C0F3801030B16FF040002168086114
:101FF000204600F050F820680069C0F3401058B146
:102000002068C068C0F3401030B16FF02000216834
:1020100008612046FFF751FC10BD70477047000073
:1020200010B504460B492068884202D1FEF784FFB0
:102030000FE02068B0F1804F0BD10748007840B91D
:1020400006480078012804D105480068401C04496E
:10205000086010BD000001400500002004000020C1
:10206000000000200246002031B1042907D00829D1
:1020700008D00C290CD108E01368586B09E01368EC
:10208000986B06E01368D86B03E01368186C00E0E7
:1020900000BF00BF70477047704770472DE9F84F89
:1020A0000446206805682068C668206847694FF0C4
:1020B0000009CA4605F00F09B9F1000F0AD105F071
:1020C000200038B106F0200020B1204600F006FFC5
:1020D000BDE8F88FB9F1000F7CD007F0010018B906
:1020E00006F49070002875D005F0010030B106F4B8
:1020F000807018B1206C40F00100206405F00400ED
:1021000030B107F0010018B1206C40F002002064EB
:1021100005F0020030B107F0010018B1206C40F06A
:102120000400206405F0080048B106F0200010B952
:1021300007F0010018B1206C40F008002064206C0A
:10214000002846D005F0200028B106F0200010B18C
:10215000204600F0C3FE20684069C0F3801A206C5E
:1021600000F0080010B9BAF1000F2DD0204600F0A1
:102170006FFE2068406900F04000402820D100BF79
:1021800000BF2168143151E8001F21F04000216890
:10219000143141E80002002AF3D100BFA06B50B116
:1021A0007548A16B0865A06BFEF731FC88B1A06B88
:1021B000016D88470DE02046FFF76FFF09E009E059
:1021C0002046FFF76AFF04E02046FFF766FF002085
:1021D00020647DE7206B012876D105F010000028EF
:1021E00072D006F010000028FAD000BF0020009046
:1021F00020680068009020684068009000BF00BF21
:102200002068406900F0400040285ED1A06B006863
:1022100040681FFA80F8B8F1000F54D0A08D4045F7
:1022200051DDA4F82E80A06BC069B0F5807F43D04B
:1022300000BF00BF21680C3151E8001F21F48070FD
:1022400021680C3141E80002002AF3D100BF00BF31
:1022500000BF2168143151E8001F21F001002168FE
:10226000143141E80002002AF3D100BF00BF00BFD3
:102270002168143151E8001F21F040002168143119
:1022800041E80002002AF3D100BF202084F83E007C
:102290000020206300BF00BF21680C3151E8001FFF
:1022A00021F0100021680C3141E80002002AF3D12E
:1022B00000BFA06BFEF755FBA08DE28D801A81B2A6
:1022C0002046FFF7E9FE03E740E0A08DE18D401ACC
:1022D0001FFA80F8E08DC0B3B8F1000F35D000BF11
:1022E00000BF21680C3151E8001F21F49070216873
:1022F0000C3141E80002002AF3D100BF00BF00BF4B
:102300002168143151E8001F21F0010021681431C7
:1023100041E80002002AF3D100BF202084F83E00EB
:102320000020206300BF00BF21680C3151E8001F6E
:1023300021F0100021680C3141E80002002AF3D19D
:1023400000BF41462046FFF7A7FEC1E605F080002A
:1023500030B106F0800018B1204600F076FFB7E6F5
:1023600005F0400030B106F0400018B1204600F002
:10237000A5FDADE600BFABE63D2E000810B5044656
:102380000CB9012010BDA06900B100E000BF94F8B5
:102390003D0028B9002084F83C00204600F028F8D1
:1023A000242084F83D002068C06820F40050216893
:1023B000C860204600F00EFE2068006920F49040BE
:1023C000216808612068406920F02A00216848617E
:1023D0002068C06840F400502168C8600020206474
:1023E000202084F83D0084F83E000020CAE7000069
:1023F00010B586B00446142101A8FDF7ABFF3D4996
:102400002068884273D100BF002000903A480068DD
:1024100040F40030384908600846006800F4003095
:10242000009000BF00BF00BF00200090324810386D
:10243000006840F001003049103908600846006823
:1024400000F00100009000BF00BF0C2001900220AE
:10245000029000200390032004900720059001A91A
:102460002648FEF77FFC2648264908604FF00060AA
:102470004860002123488160C1604FF480610161A0
:10248000002141618161C16101624162FEF7F4FB9B
:1024900008B1FEF763FA00BF1A48A063846300BF67
:1024A00017481830184908604FF000604860402114
:1024B000154881600021C1604FF4806101610021F5
:1024C00041618161C16101624162FEF7D5FB08B1E2
:1024D000FEF744FA00BF0C486063846300BF00222B
:1024E00005212620FEF7DCFD2620FEF7C9FD06B0FB
:1024F00010BD00000044004040380240000002408F
:102500008860024048010020A801002070B5044600
:102510000D46164694F83E00202816D105B10EB996
:10252000012070BD00BF94F83C00012801D10220B9
:10253000F7E7012084F83C0000BF0020206332460A
:102540002946204600F05CFEEBE70220E9E70000A8
:1025500010B5044606492068884208D10549087824
:1025600002F0C2FD012203490348FFF7CFFF10BD6F
:1025700000440040B80000200401002010B50346CC
:1025800093F83D00202823D101B10AB9012010BDE4
:1025900000BF93F83C00012801D10220F7E7012099
:1025A00083F83C0000BF19629A84DA840020186422
:1025B000212083F83D0000BF002083F83C0000BFCD
:1025C0001868C06840F080001C68E0600020DEE70A
:1025D0000220DCE7704700BFFEE7000008B500BF3F
:1025E000002000900E48006840F400100C4908607C
:1025F0000846006800F40010009000BF00BF0022F1
:1026000005211020FEF74CFD1020FEF739FD0022B9
:1026100005211120FEF744FD1120FEF731FD08BD14
:102620003038024010B5154A0621052001F0E0FBC4
:1026300013490860134A0621052001F0D9FB12490D
:102640000860124A0021124801F062FC114908603A
:10265000114A0021114801F05BFC11490860114A40
:102660000021114801F054FC10490860104A002173
:10267000104801F04DFC1049086010BD546000087E
:10268000200000206C60000824000020C45F0008C7
:10269000612A000810000020E85F000805280008F3
:1026A000140000200C600008892800081800002091
:1026B00030600008BD2900081C00002000B587B06C
:1026C000142102A8FDF746FE00BF002001901E481D
:1026D000006840F080001C4908600846006800F06F
:1026E0008000019000BF00BF00BF0020019008469D
:1026F000006840F0010008600846006800F0010032
:10270000019000BF00BF00BF002001900846006894
:1027100040F0020008600846006800F002000190E6
:1027200000BF00BF002250210848FEF7F9FB5020EF
:1027300002900120039000200490059002A9034814
:10274000FEF710FB07B000BD303802400000024029
:1027500000B587B00020059006900190029003908C
:1027600004904FF0804016490860632048600021C3
:102770001348816040F2E731C1600021016181614D
:10278000FFF73DFA08B1FEF7E9F800200590069042
:1027900005A90B48FFF792F808B1FEF7DFF80A2009
:1027A000019001200290002003900490002201A9D2
:1027B0000348FFF7B5F908B1FEF7D0F807B000BD40
:1027C000BC00002010B50B480B4908604FF41650B0
:1027D0004860002108488160C16001610C214161AD
:1027E00000218161C161FFF7C9FD08B1FEF7B6F8AC
:1027F00010BD0000004400400401002000BFFEE7BF
:1028000000BFFEE71CB5002240211A48FEF788FBF6
:1028100000BF00BF012001F055FA174800780128D9
:10282000F8D1002014490870144800684FF47A71F8
:1028300000FB01F4124800880444B4F5487FE9D94C
:1028400055208DF80000E0B28DF80100200A8DF8C7
:102850000200200C8DF80300200E8DF80400FF20EC
:102860008DF805000023012269460648006801F042
:102870000DFBCFE700000240050000200000002013
:1028800006000020200000201CB5002400260027A0
:10289000002500BF012001F015FA4FF4FA73002261
:1028A00069463248006801F063FAC6B2AEB1002052
:1028B0002F4908802F49088000212FA000F070FACE
:1028C000002130A000F06CFA002131A000F068FA7D
:1028D000002132A000F064FADCE79DF800005528E2
:1028E000D8D19DF80500FF28D4D12F480068401C9E
:1028F0002D4908601E480088401C1D4908809DF82D
:1029000001009DF8021040EA01209DF8031040EA02
:1029100001409DF8041040EA0164671B394616A087
:1029200000F03EFA214617A000F03AFA104801885C
:1029300017A000F035FA1C4801681CA000F030FA1E
:102940002546002DA6D0A4F57A70322803D8C4F508
:102950007A7032289ED907480088401C05490880B3
:10296000084601880DA000F01BFA93E72000002024
:102970000C0000200E00002074382E7478743D2264
:102980002564220074342E7478743D22256422005C
:1029900074372E7478743D222564220074362E74A8
:1029A00078743D2225642200080000207431302E06
:1029B0007478743D222564220000000000BF0120CD
:1029C00001F080F918E0002002F0CCF855280ED173
:1029D000032002F0C7F8FF2809D1042002F0C2F852
:1029E000FF2804D1052002F0BDF8FF2803D0012004
:1029F00001F0FEF800E003E001F022F90628E2DA37
:102A000000BF01F01DF90628D9DB002002F0AAF86A
:102A10005528D4D1032002F0A5F8FF28CFD10420F7
:102A200002F0A0F8FF28CAD1052002F09BF8FF2889
:102A3000C5D1012002F096F8012806D100200549F1
:102A400008600549088005490880062001F0D0F893
:102A5000B5E70000080000200C0000200E00002058
:102A600000BF012001F02EF9FBE710B54FF0E02088
:102A7000006903F051F8012801D002F007FC10BDF5
:102A800000B593B0342106A8FDF764FC142101A819
:102A9000FDF760FC00BF002000902348006840F074
:102AA0008050214908600846006800F0805000907E
:102AB00000BF00BF00BF002000901C48006840F429
:102AC00040401A4908600846006800F44040009001
:102AD00000BF00BF012006900004079002200C9068
:102AE00041050D910C210E9160210F910221109151
:102AF0001191129106A8FEF787FC08B1FDF72EFF91
:102B00000F20019002200290002003904FF480508B
:102B1000049000200590032101A8FEF713FB08B1E3
:102B2000FDF71CFF13B000BD4038024000700040AC
:102B30000348006840F470000149086070470000D5
:102B400088ED00E010B50248FFF79CF910BD0000C9
:102B50000802002010B50248FFF794F910BD0000EC
:102B6000BC00002010B50268294B98420ED0B0F18D
:102B7000804F0BD0274B984208D0274B984205D066
:102B8000264B984202D0264B984203D122F0700285
:102B90004B681A431E4B984220D0B0F1804F1DD095
:102BA0001C4B98421AD01C4B984217D01B4B984292
:102BB00014D01B4B984211D01A4B98420ED01A4B8E
:102BC00098420BD0194B984208D0194B984205D027
:102BD000184B984202D0184B984203D122F440720D
:102BE000CB681A4322F080034C6943EA0402026076
:102BF0008B68C3620B688362054B984202D0084B16
:102C0000984201D10B6903630123436110BD0000A9
:102C1000000001400004004000080040000C00409B
:102C200000040140004001400044014000480140D0
:102C300000180040001C00400020004030B501F0AA
:102C40001F05012404FA05F3046A9C430462046A24
:102C500001F01F0502FA05F52C43046230BD0000A7
:102C600070B50C461546066A26F0010606628169B3
:102C7000026A184EB04214D0B0F1804F11D0164EF7
:102C8000B0420ED0154EB0420BD0154EB04208D017
:102C9000144EB04205D0144EB04202D0134EB04292
:102CA00001D1012600E000261EB121F003012943D5
:102CB00001E041F0010121F0F001F02606EA0316DF
:102CC000314322F00A0204F00A06324381610262B3
:102CD00070BD0000000001400004004000080040FA
:102CE000000C00400004014000400140001800407A
:102CF00070B50C461546066A26F010060662816914
:102D0000026A21F4407141EA052121F470414FF437
:102D1000704606EA0336314322F0A002A02606EAF6
:102D2000041632438161026270BD70B50C461546CF
:102D3000066A26F480760662C169026A21F0030100
:102D4000294321F0F001F02606EA0316314322F46C
:102D500020624FF4206606EA04263243C161026213
:102D600070BD70B50C461546066A26F4805606629C
:102D7000C169026A21F4407141EA052121F47041E0
:102D80004FF4704606EA0336314322F420424FF4F2
:102D9000204606EA04363243C161026270BD00007B
:102DA0000FB410B59CB0FF201B9000241FA800900A
:102DB000652101A8009B1E9A00F082FA0020009075
:102DC0000EE02046621CD4B201AA811801221A48E2
:102DD000FFF7D4FB00BF184890F83D002028FAD137
:102DE000642C04DA01A8FDF7C0FAA042E9D8012258
:102DF0001BA91148FFF7C2FB00BF0F4890F83D0028
:102E00002028FAD101221BA90B48FFF7B7FB00BF0E
:102E1000094890F83D002028FAD101221BA9064854
:102E2000FFF7ACFB00BF044890F83D002028FAD122
:102E30001CB010BC5DF814FB0401002070B5054601
:102E4000AC6B0020E085E0842046FFF726F970BDDA
:102E500000BF00BF02680C3252E8002F22F49071CC
:102E600002680C3242E80013002BF3D100BF00BF10
:102E700000BF0268143252E8002F22F001010268FC
:102E8000143242E80013002BF3D100BF016B01297B
:102E90000ED100BF00BF02680C3252E8002F22F0B2
:102EA000100102680C3242E80013002BF3D100BF7E
:102EB000202180F83E1000210163704710B50446C0
:102EC0002068C06820F040002168C860202084F895
:102ED0003D002046FFF77EFB002010BDF8B50446FC
:102EE00094F83E00222873D1A068B0F5805F0CD121
:102EF000206950B90025A66A20684068C0F3080020
:102F00003080A06A801CA06215E0A56A0026A06837
:102F1000B0F5805F03D0A06828B9206918B920688F
:102F20004068287004E02068406800F07F00287046
:102F3000A06A401CA062E08D401E80B2E08500289F
:102F400044D12068C06820F020002168C860206853
:102F5000C06820F480702168C8602068406920F053
:102F6000010021684861202084F83E00206B012880
:102F700026D10020206300BF00BF21680C3151E83A
:102F8000001F21F0100021680C3141E80002002AE6
:102F9000F3D100BF2068006800F0100010280AD1AB
:102FA00000BF002000902068006800902068406802
:102FB000009000BF00BFA18D2046FFF76DF802E032
:102FC0002046FFF7C5FA0020F8BD01E00020FBE72E
:102FD0000220F9E72DE9F84F04462068006920F443
:102FE0004050E1680843216808612169A0680843EE
:102FF00061690843E169084300902068C06849F2AC
:103000000C618843009908432168C86020684069C2
:1030100020F44070A169084321684861764920681E
:10302000884203D075492068884203D1FEF784F9AD
:10303000814602E0FEF770F98146E069B0F5004F85
:103040006CD102206168A0FB015003461920A9FB46
:10305000007001462A463846FDF732F96421B0FB7C
:10306000F1F04FEA001A02206168A0FB01510B4603
:103070001920A9FB00712A463846FDF721F983463D
:1030800002206168A0FB015003461920A9FB0071D2
:103090002A463846FDF714F96421B0FBF1F000EB45
:1030A000C00101EB0010ABEB8000322101EBC0004E
:1030B0006421B0FBF1F000F0F8000AEB400A0220B6
:1030C0006168A0FB015003461920A9FB007001466E
:1030D0002A463846FDF7F4F8834602206168A0FBD3
:1030E000015003461920A9FB00712A463846FDF716
:1030F000E7F86421B0FBF1F000EBC00101EB001038
:10310000ABEB8000322101EBC0006421B0FBF1F099
:1031100000F007005044216888606AE0042061687C
:10312000A0FB015003461920A9FB007001462A4666
:103130003846FDF7C5F8824604206168A0FB0150BF
:1031400003461920A9FB007001462A463846FDF7C0
:10315000B7F86421B0FBF1F000EBC00101EB001007
:10316000AAEB8000322101EB00106421B0FBF1F0EA
:1031700000F0F00A04206168A0FB017003461920EA
:10318000A9FB00513A462846FDF79AF86421B0FBA6
:10319000F1F00AEB001A04206168A0FB01510B4614
:1031A0001920A9FB00712A463846FDF789F88346A5
:1031B00004206168A0FB015003461920A9FB0070A0
:1031C00001462A463846FDF77BF86421B0FBF1F052
:1031D00000EBC00101EB0010ABEB8000322101EBF2
:1031E00000106421B0FBF1F000F00F0050442168A2
:1031F0008860BDE8F88F0000001001400014014015
:1032000010B5034699629A85DA8500201864222059
:1032100083F83E0000BF002083F83C0000BF18691F
:1032200028B11868C06840F480701C68E0601868B5
:10323000406940F001001C6860611868C06840F097
:1032400020001C68E060002010BD014691F83D00A0
:10325000212828D18868B0F5805F0BD1086948B96A
:103260000A6A1088C0F308000B685860086A801C5E
:10327000086205E00B6A581C086218780B685860F1
:10328000C88C401E80B2C88458B90868C06820F055
:1032900080000B68D8600868C06840F040000B6888
:1032A000D860002070470220FCE7000010B50248FB
:1032B000FEF7F4FE10BD00000401002000BFFEE791
:1032C0007CB50C001D461646014601D0601E00E08C
:1032D0000020CDE90010064B6A462946304600F032
:1032E000F9F8002C02D0009A002111707CBD00007A
:1032F000DB3B000802480068C0F302207047000072
:103300000CED00E010B5002804DB0A07130E054A97
:10331000135406E00A07140E034A00F00F031B1FA4
:10332000D45410BD00E400E018ED00E0EFF3058098
:10333000704702E008C8121F08C1002AFAD170477E
:103340007047002001E001C1121F002AFBD1704725
:103350002DE9FF5F82B00021DDE90430020DDDF8C8
:1033600040B0034318D044F61050A2F2FF3242435B
:103370001514119801281FD0A5EB0B00401C5FEA23
:10338000000A4FF000064E4FDFF83891B046504625
:1033900015D5CAF1000413E0119801244AA30128AD
:1033A00001D16FEA0B010298119AC0E90031C0E91E
:1033B000024206B0BDE8F09FCBF10000DFE7044613
:1033C0000021404A491842EB0450CDE9001012E0B8
:1033D000E00707D032463B4640464946FDF7A8F88D
:1033E0008046894632463B4610461946FDF7A0F80E
:1033F00006460F466410002CEAD1DDE90401DDE940
:103400000023BAF1000F06DAFDF792F842464B4668
:10341000FDF78EF805E0FDF7FDF842464B46FDF757
:10342000F9F804460E460022284BFDF77BF903D835
:103430004FF0FF30014607E00022254B2046314681
:10344000FCF7CFFFFDF755F9102409E0002C0ADB4B
:103450000A220023FCF734FF039B30321A55641E06
:1034600050EA0102F2D1641C039AC4F1110314441E
:10347000119A012A03D0012208430DD10AE0084322
:1034800004D000204FF0110B119072E7A3EB0B0555
:103490006D1E0DE05B4504DD4FF0000205F10105F6
:1034A00004E003DA4FF00002A5F10105002AECD098
:1034B00002981199C0E90231C0E9004579E700009E
:1034C000000014400000F03F300000000000F04316
:1034D0000000E03F2DE9FF4F95B09A46884606462A
:1034E0000025EEE1252877D100242746F94A01215D
:1034F000039400E0044316F8013F203B01FA03F077
:103500001042F7D130782A2811D06FF02F0330788D
:10351000A0F13002092A16D8039A44F0020402EB03
:10352000820203EB42021044761C0390EFE758F846
:10353000042B0392002A03DA504244F4005403900F
:1035400044F00204761C30782E2816D116F8010FAC
:1035500044F004042A280DD06FF02F023078A0F137
:103560003003092B09D807EB870302EB4303C71885
:10357000761CF3E758F8047B761C30786C280FD063
:1035800006DC4C2817D068280DD06A2814D104E036
:10359000742810D07A280FD10DE044F400140AE00A
:1035A00044F4801401E044F440147278824202D161
:1035B00004F58014761C761C307866280BD013DC5A
:1035C000582877D009DC002875D04528F6D0462841
:1035D000F4D047281AD193E118E0632835D0642845
:1035E00079D0652812D18BE1702873D008DC672868
:1035F000F1D069286FD06E280DD06F2806D1ACE0CD
:1036000073282CD0752874D0782853D05246179937
:1036100090476D1C54E1C4F30250022809D00328DE
:103620000DD0D8F8001004280DD00D6008F1040862
:1036300046E1D8F80010EA17C1E90052F6E7D8F8D9
:1036400000100D80F2E70D70F0E718F8041B8DF8FC
:10365000001000208DF80100EB46012003E058F82F
:1036600004BB4FF0FF3061074FF0000102D40DE0C2
:1036700009F101018946B9420FDA8145F8DB1BF8EF
:1036800009100029F4D108E009F1010189468142BD
:10369000FADB1BF809100029F6D103985346A0EB7A
:1036A000090721463846179A00F080FA284400EBB3
:1036B000090507E044E008E10DE01BF8010B524664
:1036C00017999047B9F10109F7D253462146384678
:1036D000179AF2E039E00A21C4F302524FF0000BCE
:1036E0000091022A06D058F8040BC117032A09D00A
:1036F0000AE023E008F1070020F00702F2E80201E7
:10370000904605E000B2C117042A01D140B2C117AA
:10371000002906DA0A460021404261EB02012D220F
:1037200002E0220504D52B228DF80420012203E0BB
:10373000E20701D02022F7E7914657E00A2100E096
:1037400010214FF0000B00910BE010214FF0000B07
:1037500044F004040827009103E008204FF0000B18
:103760000090C4F30252022A05D058F8040B00213D
:10377000032A08D008E008F1070020F00702F2E869
:103780000201904603E080B2042A00D1C0B24FF09B
:10379000000922072AD53278702A07D0DDF800C048
:1037A0008CF0100C5CEA0B0C05D00EE040228DF87A
:1037B0000420012208E050EA010306D030238DF8EE
:1037C00004308DF8052002229146009B83F0080307
:1037D00053EA0B030AD150EA010201D1620705D571
:1037E00030228DF804204FF001097F1E3278582ACC
:1037F00004D039A20C920CAA02920BE03BA2F9E78A
:103800005B46009AFCF75CFD0C9B9B5C029A521E87
:103810000292137050EA0102F2D1029804A9081A28
:1038200000F1200B600702D524F4803400E001276A
:103830005F4502DDA7EB0B0000E0002000EB0B0171
:10384000009003984944401A0390E00306D453467D
:103850002146179A039800F0A9F90544002706E0CD
:1038600001A85246C05D179990476D1C7F1C4F45BB
:10387000F6DBE0030CD553462146179A039800F077
:1038800095F9054404E030205246179990476D1C85
:103890000099481E00900029F5DC08E00298029982
:1038A00052460078491C0291179990476D1CBBF154
:1038B0000001ABF1010BF1DC5BE100F065F90544BF
:1038C000761C307800287FF40DAE19B02846BDE88C
:1038D000F08F00000928010030313233343536379B
:1038E000383961626364656600000000303132334C
:1038F00034353637383941424344454600000000EC
:10390000600700D4062708F1070020F00700F0E860
:103910000223804603F0004C5FEA0C0001D097A020
:1039200009E0200501D596A005E0E00701D095A0AB
:1039300001E0AFF24C001390307823F0004365288B
:103940000CD006DC452809D046281DD047287FD159
:103950003BE0662818D067287AD136E00021112F85
:1039600001DB112000E0781CCDE9000104A90CA8BE
:10397000FFF7EEFCDDE90D010C9A4FF0000B07F1AB
:103980000109109200914EE04FF000400097CDE900
:10399000011004A90CA8FFF7DBFCDDE90D020C9B6C
:1039A0000F994FF0000B91461093009211B9791CBA
:1039B00000EB0109B7EB090003D4C0F1FF3B07F1AD
:1039C0000109A9EB0700019042E0012F00DA01276D
:1039D0000021112F01DD112000E03846CDE9000162
:1039E00004A90CA8FFF7B4FCDDE90D010C9A0091C5
:1039F0004FF0000BB946109221070FD4009A4A45A8
:103A000003DA914601E0A9F10109B9F1010F05DDE1
:103A1000109AA9F10101515C3029F4D0B84202DAC0
:103A200010F1040F03DA0121CDE9011010E00028A4
:103A300003DC8344A9EB000102E0411C494500DDA1
:103A40008946A0EB0B00401C01904FF00040029013
:103A5000200705D40198484502DB4FF0FF30019064
:103A600000208DF84B0002980DF14B07B0F1004F8C
:103A700025D002200C902B200D90029800280CDA03
:103A8000404202902D200D9007E00A210298FCF799
:103A900073FC3031029007F8011D0C99481E0C9000
:103AA0000029F2DC02980028EFD1791E0D980870E9
:103AB000307800F0200040F0450007F8020D11A812
:103AC000C01BC01D02901398007800B1012000EBCC
:103AD0000901019801EBE071029801440398401A32
:103AE000401E0390E00306D453462146179A0398DC
:103AF00000F05CF805441398007818B15246179905
:103B000090476D1CE00323D553462146179A03982E
:103B100000F04CF805441BE0BBF1000F07DB0098F8
:103B2000584504DD1098179910F80B0001E017991B
:103B300030205246904701980BF1010B401E05F1D1
:103B40000105019004D12E205246179990476D1C13
:103B5000B9F10001A9F10109DEDC05E017F8010B5C
:103B60005246179990476D1C0299481E02900029F1
:103B7000F4DC53462146179A03989EE62D00000078
:103B80002B000000200000002DE9F0410446002534
:103B90001E461746880404D405E039462020B04765
:103BA0006D1C641EF9D52846BDE8F0812DE9F04171
:103BB000044600251E469046C80301D5302700E084
:103BC0002027880404D505E041463846B0476D1CDF
:103BD000641EF9D52846BDE8F0814A68002A06D05F
:103BE0000A68531C0B6010704868401E486070479C
:103BF00010B5024611488088904202DC00F026F899
:103C000010BD002315E00D48808810B900F01EF8A3
:103C1000F6E70A480088401C4FF4FA7190FBF1F473
:103C200001FB14000549088008468088401E8880F2
:103C30005B1C9342E7DB00BFE2E70000444B00203F
:103C40000148808870470000444B00200020024952
:103C50000880488088807047444B0020FDF778F941
:103C6000FEF70EFFFEF72AFDFEF7B8FCFEF770FD2B
:103C7000FEF7A8FD00210E48FEF73CF80C4800684E
:103C8000C06840F001000A490968C860FFF7DEFF1C
:103C9000012208490848FEF739FC08A0FFF780F820
:103CA00000F020F8FEF7BEFC00F032F800BFFEE79F
:103CB000BC000020B8000020040100203078303023
:103CC0000000000070B50546FFF730FB10B16FF043
:103CD000050404E0002415B1284601F0DDF8204673
:103CE00070BD000010B5FFF721FB10B16FF00504A7
:103CF00009E00648006820B9012004490860002452
:103D000001E04FF0FF34204610BD00008800002085
:103D100070B5FFF70BFB10B16FF005041FE0114801
:103D20000068012819D100BF801F0021002804DB92
:103D30000A07130E0C4A135406E00A07150E0B4A25
:103D400000F00F031B1FD55400BF00BF0220054920
:103D5000086001F01DF9002401E04FF0FF34204617
:103D600070BD00008800002000E400E018ED00E0D5
:103D70002DE9F84307460D4691461C463E464FF056
:103D80000008FFF7D3FAE0B10EB105B114B16FF03E
:103D9000030828E0002000906A462946304601F0DA
:103DA0007FFD012802D06FF002081CE00098D0B11E
:103DB0004FF080500D490860BFF34F8FBFF36F8FF6
:103DC00011E006B115B96FF003080CE02246294650
:103DD000304601F0B1FC012805D014B16FF00108A4
:103DE00001E06FF002084046BDE8F88304ED00E012
:103DF0002DE9F84305460E4614464FF00009FFF73B
:103E000095FA00283ED1002D3CD0002E3AD0471E16
:103E1000BCB1A06858B1E068502808D3206930B11F
:103E200005FB06F06169814201D301270AE0A06821
:103E300040B9E06830B9206920B9606910B900273D
:103E400000E00027012F09D10020009031462846CC
:103E5000A368226901F061FA814606E02FB90022C9
:103E60003146284601F02CFA8146B9F1000F09D0FD
:103E700014B1D4F8008001E04FF0000841464846F4
:103E800000F0CEFF4846BDE8F88300002DE9F84376
:103E900007460D4691461C463E464FF00008FFF788
:103EA00045FAE8B10EB105B114B16FF003082AE08C
:103EB0000020009000236A462946304601F0BEFBF0
:103EC000012802D06FF002081DE00098D8B14FF031
:103ED00080500E490860BFF34F8FBFF36F8F12E021
:103EE00006B115B96FF003080DE0002322462946FC
:103EF000304601F0CFFA012805D014B16FF0010867
:103F000001E06FF002084046BDE8F88304ED00E0F0
:103F10002DE9FF4780468946144600200390FFF7AD
:103F200005FA00284ED1B8F1000F4BD08026182595
:103F30008246471E44B3206808B1D4F800A0A069A7
:103F400000B1A5692DB1382D03D8207900F001000A
:103F500018B1002004B0BDE8F087606908B160695D
:103F60008608A06840B1E0686C2805D3206918B1C4
:103F7000606908B1012708E0A06830B9E06820B99D
:103F8000206910B9002700E00027012F0CD121691A
:103F9000A0684B463246CDE900510290514640465A
:103FA00001F05CFD03900DE067B903A8B2B24B4687
:103FB0005146CDE90050404601F01EFD012801D0D8
:103FC000002003900398C5E72DE9F04105460E4611
:103FD0001648076816480068001D00F0D5FD681CEB
:103FE00038B936B112480168091D124800F022FEA6
:103FF0001AE07C190E4800684460BC4207D20C48A5
:104000000168091D0C48006800F0FAFD0CE0084842
:104010000168091D0948006800F0F2FD08480068C1
:10402000844201D206480460BDE8F0814C000020C3
:104030003800002040070020400000203C00002005
:104040006800002010B5044600F000FE2448006817
:10405000401C234908602348006840B92148046097
:104060000846006801280DD100F0FCF90AE01E485E
:10407000006838B91B480068C06AE16A884201D804
:104080001848046019480068401C18490860084630
:10409000006860651649E06A0968884202D91449D7
:1040A000E06A0860E16A01EB8101124A02EB8100DB
:1040B000211D00F0BFFD00F0F3FD0B48006868B162
:1040C00008480068C06AE16A884207D24FF0805011
:1040D00009490860BFF34F8FBFF36F8F10BD000019
:1040E0004800002038000020540000206400002018
:1040F000500000209002002004ED00E008B500F020
:10410000A5FD12480068E8B9114800F069FD1148A2
:1041100000F066FD0E48104908600E480F4908601F
:1041200000200F4B0F4A102100900A2001F0F5F8F3
:10413000064908600846006820B10BA103480068E2
:1041400000F06EFE00F0ACFD08BD00007C00002019
:104150005407002068070020740000207800002029
:104160007C070020CC070020546D72510000000035
:1041700010B516E000F06AFD0C48C068C468201D48
:1041800000F002FD0A480068401E0949086009481D
:104190000068401E0749086000F082FD204600F0DC
:1041A0005FF8044800680028E4D110BD2C07002007
:1041B000480000204400002070B504460D46206CE5
:1041C00070B1216CE0680144E160D4E902108842DA
:1041D00001D32168E1602846226CE168FCF7A1F870
:1041E00070BD2DE9F04104460F4615464FF000081A
:1041F000A66B206C48B9206800282CD1A06801F07B
:1042000043FD80460020A06025E07DB93946226C40
:104210006068FCF786F8216C606808446060D4E947
:104220000101884217D32068606014E03946226C8F
:10423000E068FCF776F8216CE068411AE1602168DB
:10424000E068884203D2216CA068411AE160022D27
:1042500001D106B1761E701CA0634046BDE8F08116
:1042600010B5044694F8690030B9206B00F036FDB3
:10427000204600F033FD1AE094F86900012803D1CC
:10428000204600F02BFD12E094F86900022801D1CD
:10429000012000E0002050B900BF502080F31188B9
:1042A000BFF34F8FBFF36F8F00BF00BFFEE710BD9E
:1042B0000146084A126812680AB9012200E0002289
:1042C0000A600A6822B9034A1268D268106800E0DE
:1042D000002070477400002030B54FF47053174829
:1042E00000F007042CB1C01D20F00700134C041B84
:1042F0001B1B0246124C22600024114D6C60D0182A
:10430000083820F007000F4C206000240D4D2D6868
:104310006C600C4D2D682C601146441A4C60094CA1
:1043200024680C60084D4C682C60084D4C682C606B
:104330004FF00044064D2C6030BD0000440F0020BB
:104340008C000020940000209C0000209800002099
:10435000A800002000BFFFF70BFF064800680128F7
:10436000F9D94FF0805004490860BFF34F8FBFF375
:104370006F8FF0E79002002004ED00E02DE9F0419E
:1043800006460D4617469846069C0DB9246000E087
:104390002760E66325640121204601F02FF884F8A8
:1043A0004C80BDE8F0812DE9F05F82460E469046D4
:1043B0009B460A9F0C9C4FEA8801A522206BFBF7C5
:1043C000C2FFA8F10100216B01EB800929F0070968
:1043D00009F0070008B9012000E0002050B900BF33
:1043E000502080F31188BFF34F8FBFF36F8F00BF52
:1043F00000BFFEE786B1002507E0715D04F13400DF
:104400004155705D00B902E06D1C202DF5D300BF51
:1044100000215320015502E0002084F83400382F99
:1044200000D33727E762E76500202066201D00F0F3
:10443000E4FB04F1180000F0E0FB2461C7F1380050
:10444000A06164620020606684F868005A465146A4
:10445000484600F071FB20600B9808B10B9804608F
:10446000BDE8F09F10B5002407E004EB84010F4A7B
:1044700002EB810000F0B4FB641C382CF5D30C482F
:1044800000F0AEFB0B4800F0ABFB0B4800F0A8FBC4
:104490000A4800F0A5FB0A4800F0A2FB04480949BD
:1044A000086004480849086010BD00009002002020
:1044B000F006002004070020180700202C07002029
:1044C000400700203C0000204000002010B50146BD
:1044D000164800E0006803688B42FBD3024643683D
:1044E00013448B4204D143684C6823444360014623
:1044F0000A464B6813440468A34211D10C4C03686C
:104500002468A34208D04B680468646823444B6065
:1045100003681B680B6005E0054B1B680B6001E03E
:1045200003680B60884200D0016010BD8C00002041
:10453000940000202DE9F04104460D4616461F4622
:104540004FF0000865602461B5420CD8F01BA169EA
:10455000884202D34FF0010811E0211D094800688C
:1045600000F04EFB0BE0BE4204D2BD4202D34FF03E
:10457000010804E0211D0448006800F041FB4046AA
:10458000BDE8F081780000207400002070B5054679
:1045900000F05CFBA86B08B9012400E0002400F0E7
:1045A0007FFB204670BD70B5054600F04FFBA86B41
:1045B000E96B884201D1012400E0002400F070FB87
:1045C000204670BDF8B505460F461A480068C06819
:1045D000C468201D00F0D8FA94F8280000F0040008
:1045E000E8B1A06941192B463A462046FFF7A2FFE1
:1045F000D8B1002003462A4601460090204601F02B
:104600009FFC064656B900BF502080F31188BFF3C7
:104610004F8FBFF36F8F00BF00BFFEE705E094F838
:10462000280020F0010084F828002046216A8847ED
:10463000F8BD000074000020F0B587B0A0E003983A
:10464000002811DA04AE56B900BF502080F311885B
:10465000BFF34F8FBFF36F8F00BF00BFFEE7D6E9F8
:104660000020B168904700BF03980028E6DB059C56
:10467000606908B9012000E0002010B9201D00F099
:1046800083FA02A800F0DEF8054603980A2875D2DE
:10469000DFE800F009050739416306083A4200BF28
:1046A00000BF00BF00BF94F8280040F0010084F86C
:1046B00028000498A269811803462A462046FFF77D
:1046C00039FFF8B12046216A884794F8280000F0A5
:1046D0000400B8B1002000900498A169421800239A
:1046E0001946204601F02CFC074657B900BF502060
:1046F00080F31188BFF34F8FBFF36F8F00BF00BFF0
:10470000FEE700BF3BE000BF94F8280020F0010066
:1047100084F8280033E000BF94F8280040F001003E
:1047200084F828000498A061A06908B1012000E085
:10473000002050B900BF502080F31188BFF34F8F85
:10474000BFF36F8F00BF00BFFEE7A06941192B4682
:104750002A462046FFF7EEFE11E094F8280000F00C
:10476000020018B9204600F0B9FA05E094F82800D4
:1047700020F0010084F8280001E0FFE700BF00BF3F
:10478000002203A90448006800F0D6FF00287FF447
:1047900056AF07B0F0BD00007C000020F8B505461C
:1047A0000C4600F051FC684600F04CF806460098B4
:1047B00020BB44B9B54206D801F004FB3146284677
:1047C000FFF700FF1CE03CB10E480068006808B924
:1047D000012000E000200446A91B22460A48006888
:1047E00000F034FB01F0EEFA50B94FF08050074969
:1047F0000860BFF34F8FBFF36F8F01E001F0E2FA63
:10480000F8BD0000780000207C00002004ED00E0EE
:104810000A490968096809B9012100E0002121B1AC
:104820004FF0FF31064A116006E004490968C96883
:10483000C868034A41681160704700003C000020CE
:104840006800002070B5044601F076F90546074877
:104850000068854204D200F00BF80120206001E0DE
:104860000020206001480560284670BD84000020BB
:104870002DE9F84334E025480068C06805682348FE
:104880000068C068C468201D00F07EF92046216AD7
:10489000884794F8280000F0040008B3A06946197E
:1048A000AE4207D966602461211D1848006800F0F7
:1048B000A7F915E0002003462A460146009020464D
:1048C00001F03EFB074657B900BF502080F3118826
:1048D000BFF34F8FBFF36F8F00BF00BFFEE700BF76
:1048E0000A480068006808B9012000E0002000289C
:1048F000C1D00648D0F80080054800680349086028
:104900000348C0F80080BDE8F88300007400002070
:10491000780000200E480068401C08B9012000E023
:10492000002050B900BF502080F31188BFF34F8F93
:10493000BFF36F8F00BF00BFFEE700BF502080F3C2
:104940001188BFF34F8FBFF36F8F00BF00BFFEE72B
:10495000AC00002008B500BF6846FFF7A9FC04467C
:1049600020460099FFF71AFFFFF766FEF4E770B5DF
:10497000044600F06BF994F9455010E0606A08B9FC
:10498000012000E0002038B904F1240001F0CEF944
:1049900018B100F0BBFA00E003E0681E45B2002D3C
:1049A000ECDC00BFFF2084F8450000F079F900F04E
:1049B0004DF994F9445010E0206908B9012000E055
:1049C000002048B904F1100001F0B0F908B100F07E
:1049D0009DFA681E45B200E001E0002DECDC00BF4E
:1049E000FF2084F8440000F05BF970BD2DE9F04130
:1049F00004464FF0000800F027FB4948006808B95A
:104A0000FFF76AFC474800682040002870D1D4B105
:104A1000083404F00700B0B104F00700C0F108004A
:104A2000044404F0070008B9012000E0002050B958
:104A300000BF502080F31188BFF34F8FBFF36F8FFB
:104A400000BF00BFFEE7002C52D037480068844208
:104A50004ED8364E3046056801E02E462D6868680F
:104A6000A04202D228680028F7D12D48006885426C
:104A70003ED0306800F10808286830606868001B84
:104A8000102819D92F1907F0070008B9012000E0F4
:104A9000002050B900BF502080F31188BFF34F8F22
:104AA000BFF36F8F00BF00BFFEE76868001B786030
:104AB0006C603846FFF70AFD1B4968680968081AE8
:104AC000194908600846006819490968884203D2F4
:104AD0001548006816490860124968680968084363
:104AE00068600020286013480068401C1149086075
:104AF00001F068F908F0070008B9012000E0002083
:104B000050B900BF502080F31188BFF34F8FBFF31F
:104B10006F8F00BF00BFFEE74046BDE8F081000098
:104B200094000020A8000020980000208C000020A5
:104B30009C000020A0000020001F4FF08073036045
:104B4000001F21F001030360001F054B03601438B0
:104B50000260001F6FF002030360203870470000FE
:104B60001549000810B501460648008808444FF46E
:104B7000FA7390FBF3F403FB140082B20148801D2A
:104B8000805C10BD444B002001460A69D1E9013028
:104B90009860D1E9010358605068884201D1886863
:104BA0005060002008611068401E10601068704757
:104BB000034B0360034B0B608023136070470000BE
:104BC0006C080020D8080020034B0360034B0B60E7
:104BD0004FF4807313607047D80A0020440B002004
:104BE00000F1080141604FF0FF31816000F10801E0
:104BF000C1600161002101607047002101617047BF
:104C000010B502460B685C1C0CB9106907E002F194
:104C1000080000E04068446824689C42FAD944686F
:104C20004C604C68A160886041600A611468641C33
:104C3000146010BD42684A6093688B609368596045
:104C40009160086103685B1C0360704700BF5020DF
:104C500080F31188BFF34F8FBFF36F8F00BF0E48F3
:104C60000068401C0C49086008460068012812D101
:104C70000A480068C0B208B9012000E0002050B91D
:104C800000BF502080F31188BFF34F8FBFF36F8FA9
:104C900000BF00BFFEE77047AC00002004ED00E05D
:104CA0000D48006850B900BF502080F31188BFF351
:104CB0004F8FBFF36F8F00BF00BFFEE7064800684D
:104CC000401E054908600846006820B9002080F3AE
:104CD000118800BF00BF7047AC00002070B50646C9
:104CE0003546002E44D0083D2C46224960680968AC
:104CF000084008B1012000E0002050B900BF50205A
:104D000080F31188BFF34F8FBFF36F8F00BF00BFD9
:104D1000FEE7206808B9012000E0002050B900BF7C
:104D2000502080F31188BFF34F8FBFF36F8F00BF08
:104D300000BFFEE70F49606809680840C0B12068FD
:104D4000B0B90C49606809688843606000F07CF97C
:104D50000949606809680844074908602046FFF768
:104D6000B5FB06480068401C0449086001F02AF8B9
:104D700070BD0000A800002098000020A4000020C2
:104D800000204FF0E02108618861064800684FF478
:104D90007A71B0FBF1F0401E4FF0E021486107202E
:104DA000086170473400002070B5FBF773FA0446C1
:104DB000102C16D304F1E02090F8F0531548007839
:104DC000854201DB012000E0002050B900BF5020E7
:104DD00080F31188BFF34F8FBFF36F8F00BF00BF09
:104DE000FEE70D48006800F4E0600C49096888425D
:104DF00001D8012000E0002050B900BF502080F30E
:104E00001188BFF34F8FBFF36F8F00BF00BFFEE766
:104E100070BD0000B00000200CED00E0B4000020E8
:104E2000024600200BE0084B53F8303033B9064BF4
:104E300043F8301003EBC0035A6002E0401C08281E
:104E4000F1D300BF70470000500200202DE9F0416F
:104E500005460E4617462C46FFF7F8FE94F9440027
:104E6000401C10B9002084F8440094F94500401C0F
:104E700010B9002084F84500FFF712FFA06B28B995
:104E80003A46314604F1240000F062F82046FFF76C
:104E90006EFDBDE8F081000070B504460025D4B178
:104EA0001248006808B9012000E0002050B900BF96
:104EB000502080F31188BFF34F8FBFF36F8F00BF77
:104EC00000BFFEE700F0C0F800212046FFF77CF8A5
:104ED00000F078FF05463DB94FF080500449086066
:104EE000BFF34F8FBFF36F8F70BD000070000020C5
:104EF00004ED00E003490968016003490968416065
:104F000070470000600000204C0000200120014993
:104F1000086070475C00002070B504460D4654B927
:104F200000BF502080F31188BFF34F8FBFF36F8F06
:104F300000BF00BFFEE70548016818312046FFF7B3
:104F40005FFE01212846FFF73FF870BD38000020C2
:104F500070B505460E46144655B900BF502080F383
:104F60001188BFF34F8FBFF36F8F00BF00BFFEE705
:104F70000648016818312846FFF75CFE0CB14FF077
:104F8000FF3621463046FFF71FF870BD380000207D
:104F900010B586B000200590049003AA04A905A8C6
:104FA000FFF706FE0022DDE904101346CDE90021DB
:104FB00002901EA11F48039A00F050FD1E49086090
:104FC0000846006808B1012400E00024012C02D149
:104FD00000F07AFF0446012C15D100BF502080F369
:104FE0001188BFF34F8FBFF36F8F00BF4FF0FF30BB
:104FF0001249086001201249086000201149086028
:1050000000F090F810E0601C08B1012000E00020E2
:1050100050B900BF502080F31188BFF34F8FBFF30A
:105020006F8F00BF00BFFEE706B010BD49444C457E
:1050300000000000554300086C00002068000020BC
:10504000540000204C00002002480068401C014928
:1050500008607047700000201E48006818B10120E9
:105060001D49086034E000201B4908601B480168A6
:105070000CE051B900BF502080F31188BFF34F8F6F
:10508000BFF36F8F00BF00BFFEE7491E01EB810039
:10509000134A52F8200008B9012000E0002000283F
:1050A000E7D101EB81020E4B03EB820042685268AC
:1050B000426000F108024368934202D1426852689C
:1050C00042604268D268074B1A600448016000BF22
:1050D00070470000700000205C000020500000209D
:1050E00090020020380000200D498988B1F5FA7F30
:1050F00000DB70470A494A88891D8854891F4988FE
:10510000491C4FF4FA7291FBF2F302FB1311044AAB
:10511000518011468988491C918000BFE9E7000051
:10512000444B00201CB5524800685249884201D0C7
:10513000012000E0002050B900BF502080F311880A
:10514000BFF34F8FBFF36F8F00BF00BFFEE748482C
:1051500000684849491E884201D0012000E0002033
:1051600050B900BF502080F31188BFF34F8FBFF3B9
:105170006F8F00BF00BFFEE73F49084600780190EF
:10518000FF200A4610700846007800909DF8000045
:1051900000F0F0009DF80020904201D1012000E0D5
:1051A000002050B900BF502080F31188BFF34F8F0B
:1051B000BFF36F8F00BF00BFFEE79DF8000000F057
:1051C00050002E4A107007202D4A106009E02C482C
:1051D0000068401E2A4A10609DF800004006000E3C
:1051E00000909DF8000000F080008028EFD0244857
:1051F0000068C0F10700042801D1012000E0002070
:1052000050B900BF502080F31188BFF34F8FBFF318
:105210006F8F00BF00BFFEE7194800680002184A00
:1052200010601046008800F4E0601060124A019897
:1052300010700F482030006840F470000C49203195
:1052400008600846006840F070400860FFF798FD6D
:1052500000200C490860FAF7E5FF0B48006840F0B1
:10526000404009490860FAF7C9FF00201CBD000052
:1052700000ED00E071C20F4100E400E0B00000204A
:10528000B4000020AC00002034EF00E010B500BFF7
:10529000502080F31188BFF34F8FBFF36F8F00BF93
:1052A00000F050FC18B14FF080500449086000BF76
:1052B000002080F3118800BF10BD000004ED00E065
:1052C0002DE9F84305460E4617460DB1012000E0D2
:1052D000002050B900BF502080F31188BFF34F8FDA
:1052E000BFF36F8F00BF00BFFEE705FB06F808F1B4
:1052F0005000FFF77BFB044664B1A14609F1500959
:10530000002084F846003B464A4631462846009431
:10531000FFF734F82046BDE8F8832DE9F8438046CE
:105320000E4617461D46DDF82090B8F1000F01D05B
:10533000012000E0002050B900BF502080F3118808
:10534000BFF34F8FBFF36F8F00BF00BFFEE70DB1FC
:10535000012000E0002050B900BF502080F31188E8
:10536000BFF34F8FBFF36F8F00BF00BFFEE707B1E2
:105370000EB1012000E0002050B900BF502080F3A2
:105380001188BFF34F8FBFF36F8F00BF00BFFEE7E1
:1053900007B90EB9012000E0002050B900BF50202D
:1053A00080F31188BFF34F8FBFF36F8F00BF00BF33
:1053B000FEE7502000900098502801D1012000E025
:1053C000002050B900BF502080F31188BFF34F8FE9
:1053D000BFF36F8F00BF00BFFEE700BF2C464CB18C
:1053E000012084F846004B463A4631464046009438
:1053F000FEF7C4FF2046BDE8F883000070B50546FF
:105400000E462C4654B900BF502080F31188BFF3DC
:105410004F8FBFF36F8F00BF00BFFEE7FFF716FC93
:10542000D4E90F12206801FB0200A0600020A063F5
:1054300020686060E06B401E226C216800FB021156
:10544000E160FF2084F8440084F845009EB920699B
:1054500008B9012000E00020A8B904F1100000F014
:1054600065FC80B14FF0805009490860BFF34F8F51
:10547000BFF36F8F07E004F11000FFF7B1FB04F1F9
:105480002400FFF7ADFBFFF70BFC012070BD00000F
:1054900004ED00E02DE9FF4383B0064688461D4633
:1054A0004FF00009344654B900BF502080F31188F2
:1054B000BFF34F8FBFF36F8F00BF00BFFEE7B8F1A0
:1054C000000F01D1206C08B9012000E0002050B984
:1054D00000BF502080F31188BFF34F8FBFF36F8F51
:1054E00000BF00BFFEE7022D02D1E06B012801D111
:1054F000012000E0002050B900BF502080F3118847
:10550000BFF34F8FBFF36F8F00BF00BFFEE700F008
:1055100003FB08B9059808B9012000E0002050B944
:1055200000BF502080F31188BFF34F8FBFF36F8F00
:1055300000BF00BFFEE700BFFFF788FBA06BE16B79
:10554000884201D3022D28D12A4641462046FEF743
:1055500048FE0746606A08B9012000E0002068B9EB
:1055600004F1240000F0E2FB88B14FF08050324992
:105570000860BFF34F8FBFF36F8F08E03FB14FF06C
:1055800080502D490860BFF34F8FBFF36F8FFFF737
:1055900087FB012007B0BDE8F083059818B9FFF735
:1055A0007FFB0020F6E7B9F1000F04D101A8FFF757
:1055B000A1FC4FF00109FFF773FBFFF745FDFFF773
:1055C00045FB94F94400401C10B9002084F84400C5
:1055D00094F94500401C10B9002084F84500FFF7FD
:1055E0005FFB05A901A800F0C1F9F0B92046FEF75C
:1055F000DAFFA0B104F110000599FFF78DFC2046F9
:10560000FFF7B5F900F0DEFB002895D14FF0805090
:1056100009490860BFF34F8FBFF36F8F8CE72046B7
:10562000FFF7A5F900F0CEFB86E72046FFF79FF9CC
:1056300000F0C8FB0020ADE704ED00E02DE9F84FD5
:1056400007468A4690461E463C4654B900BF502045
:1056500080F31188BFF34F8FBFF36F8F00BF00BF80
:10566000FEE7BAF1000F01D1206C08B9012000E07B
:10567000002050B900BF502080F31188BFF34F8F36
:10568000BFF36F8F00BF00BFFEE7022E02D1E06BB9
:10569000012801D1012000E0002050B900BF5020B6
:1056A00080F31188BFF34F8FBFF36F8F00BF00BF30
:1056B000FEE7FFF779FB00BF5021EFF3118081F384
:1056C0001188BFF34F8FBFF36F8F00BF0546A06BEC
:1056D000E16B884201D3022E25D194F945B0A06B2D
:1056E0000090324651462046FEF77BFD0BF101004B
:1056F00088B9606A08B9012000E0002050B904F1BF
:10570000240000F013FB28B1B8F1000F02D00120F3
:10571000C8F8000004E00BF1010040B284F8450035
:105720004FF0010901E04FF0000900BF85F3118837
:1057300000BF4846BDE8F88F2DE9F74183B0054624
:105740000E464FF000082C4654B900BF502080F39D
:105750001188BFF34F8FBFF36F8F00BF00BFFEE70D
:105760000EB9206C08B9012000E0002050B900BF3C
:10577000502080F31188BFF34F8FBFF36F8F00BFAE
:1057800000BFFEE700F0C8F908B9059808B9012084
:1057900000E0002050B900BF502080F31188BFF313
:1057A0004F8FBFF36F8F00BF00BFFEE700BFFFF753
:1057B0004DFAA76BF7B131462046FEF7FDFC781E87
:1057C000A063206908B9012000E0002060B904F15D
:1057D000100000F0ABFA38B14FF080502F4908604C
:1057E000BFF34F8FBFF36F8FFFF75AFA012006B058
:1057F000BDE8F081059818B9FFF752FA0020F6E7E6
:10580000B8F1000F04D101A8FFF774FB4FF00108B5
:10581000FFF746FAFFF718FCFFF718FA94F944006F
:10582000401C10B9002084F8440094F94500401C45
:1058300010B9002084F84500FFF732FA05A901A845
:1058400000F094F8F0B92046FEF7A0FEA0B104F1F4
:1058500024000599FFF760FB2046FFF788F800F069
:10586000B1FA0028A3D14FF080500C490860BFF373
:105870004F8FBFF36F8F9AE72046FFF778F800F05D
:10588000A1FA94E72046FFF772F800F09BFA204651
:10589000FEF77CFE00288AD00020A8E704ED00E097
:1058A0002DE9F05F064689461746344654B900BFD5
:1058B000502080F31188BFF34F8FBFF36F8F00BF6D
:1058C00000BFFEE7B9F1000F01D1206C08B901203B
:1058D00000E0002050B900BF502080F31188BFF3D2
:1058E0004F8FBFF36F8F00BF00BFFEE7FFF75CFA7B
:1058F00000BF5021EFF3118081F31188BFF34F8F68
:10590000BFF36F8F00BF0546D4F838A0BAF1000F7F
:1059100022D094F944B049462046FEF74DFCAAF146
:105920000100A0630BF1010070B9206908B90120E2
:1059300000E0002068B904F1100000F0F7F940B170
:105940003FB10120386004E00BF1010040B284F85F
:1059500044004FF0010801E04FF0000800BF85F35C
:10596000118800BF4046BDE8F09F000070B50546B5
:105970000C4655B900BF502080F31188BFF34F8FFC
:10598000BFF36F8F00BF00BFFEE754B900BF5020C8
:1059900080F31188BFF34F8FBFF36F8F00BF00BF3D
:1059A000FEE7FFF753F9124802686868131A206887
:1059B000401C08B9002617E00E492868096888428B
:1059C00004D06868904201D801260DE02068984212
:1059D00007D92068C01A20602846FFF78BFA0026F6
:1059E00002E0002020600126FFF75AF9304670BD22
:1059F0004C000020600000202DE9FF4F85B080465C
:105A000089461746DDE912ABB800FEF7EFFF064600
:105A100056B16C20FEF7EAFF04460CB1266304E0A1
:105A20003046FFF75BF900E000248CB1002084F8D9
:105A30006900CDE900ABCDE902403A46494640460F
:105A4000089BFEF7B0FC2046FEF7FCFA012501E0BA
:105A50004FF0FF35284609B0BDE8F08F2DE9F04F33
:105A600085B00746884691469A46DDE90EB6109CF9
:105A70000EB1012000E0002050B900BF502080F39B
:105A80001188BFF34F8FBFF36F8F00BF00BFFEE7DA
:105A90000CB1012000E0002050B900BF502080F37D
:105AA0001188BFF34F8FBFF36F8F00BF00BFFEE7BA
:105AB0006C20039003986C2801D1012000E00020A5
:105AC00050B900BF502080F31188BFF34F8FBFF350
:105AD0006F8F00BF00BFFEE700BFB4B1AEB1254677
