:020000040800F2
:10000000405400209D020008855B0008454600081A
:100010009D5A00083F040008C56800080000000061
:10002000000000000000000000000000DD010008EA
:10003000430500080000000039020008CD5D0008FB
:10004000B7020008B7020008B7020008B7020008AC
:10005000B7020008B7020008B9160008B702000886
:10006000C3160008CD160008B7020008B702000842
:10007000B7020008B7020008B7020008B70200087C
:10008000B7020008B7020008B7020008B70200086C
:10009000B7020008B7020008B7020008B70200085C
:1000A000B7020008A95E0008B7020008B7020008FE
:1000B000B95E0008C95E0008B7020008594600088A
:1000C00049460008B7020008B7020008B702000856
:1000D0001D5C00084D670008B70200085D67000856
:1000E000B7020008B7020008B7020008D95E00088E
:1000F000095F0008F95E0008E95E0008B702000821
:1001000000000000B7020008B7020008B7020008AC
:100110000000000000000000B7020008B70200085D
:10012000B7020008B702000845040008B70200083B
:10013000B7020008B7020008B7020008B7020008BB
:10014000B7020008B7020008B7020008B7020008AB
:10015000B7020008B702000855040008B7020008FB
:10016000B7020008B702000800000000000000000D
:10017000000000000000000000000000000000007F
:10018000B7020008B70200080000000000000000ED
:10019000B7020008B70200080000000000000000DD
:1001A000000000000000000000000000000000004F
:1001B000B70200080000000000000000B7020008BD
:1001C000B7020008DFF810D000F0FCF80048004744
:1001D00013700008AFF30080405400202C4B1968C6
:1001E0000868B0E8F04F80F30988BFF36F8F4FF0D5
:1001F000000080F311887047000000000848006884
:10020000006880F308884FF0000080F3148862B61D
:1002100061B6BFF34F8FBFF36F8F00DF00BF00BF2A
:1002200008ED00E0DFF80C00016841F470010160A6
:10023000704700BF88ED00E0EFF30980BFF36F8FD8
:10024000134B1A681EF0100F08BF20ED108A20E92A
:10025000F04F106009B44FF0500080F31188BFF3E5
:100260004F8FBFF36F8F08F09BFB4FF0000080F3C0
:10027000118809BC19680868B0E8F04F1EF0100F2B
:1002800008BFB0EC108A80F30988BFF36F8F704706
:10029000A0000020EFF3058070470000064880476B
:1002A00006480047FEE7FEE7FEE7FEE7FEE7FEE75B
:1002B000FEE7FEE7FEE7FEE7955E0008C5010008E1
:1002C0002DE9F05F0546002092469B46884606468B
:1002D000814640241BE0284641464746224600F01E
:1002E00061F853465A46C01A914110D31146184638
:1002F000224600F048F82D1A67EB01084F462246C7
:100300000120002100F03FF817EB00094E41201EAC
:10031000A4F10104DFDC484631462A464346BDE8E5
:10032000F09F40EA01039B0703D009E008C9121FB0
:1003300008C0042AFAD203E011F8013B00F8013B9F
:10034000521EF9D27047D2B201E000F8012B491ECB
:10035000FBD270470022F6E710B513460A46044662
:100360001946FFF7F0FF204610BD10B5002200E04F
:10037000521C835C8C5CA34201D1002BF8D1D8B213
:10038000E1B2401A10BD202A04DB203A00FA02F143
:10039000002070479140C2F1200320FA03F3194373
:1003A00090407047202A04DB203A21FA02F0002115
:1003B000704721FA02F3D040C2F120029140084375
:1003C00019467047064C074D06E0E06840F001030F
:1003D00094E8070098471034AC42F6D3FFF7F6FED6
:1003E000FCA100081CA2000870B58C1810F8015B75
:1003F00015F0070301D110F8013B2A1106D110F8BE
:10040000012B03E010F8016B01F8016B5B1EF9D1C1
:100410002B0705D40023521E0DD401F8013BFAE747
:1004200010F8013BCB1A921C03E013F8015B01F8B2
:10043000015B521EF9D5A142D8D3002070BD00BF88
:10044000FEE7000010B5024801F0F4FA10BD00000C
:100450003804002010B5024801F0ECFA10BD00008D
:10046000980400200146087810381823B0FBF3F2F6
:100470000848805CC865032A05D908686FF309003D
:10048000001D886503E008686FF309008865886DC2
:1004900070470000EAA00008014600208A6A8B69C4
:1004A000CBB932B1012A0DD0022A03D0032A10D1D0
:1004B0000EE000BFCB6A03F08073B3F1807F00D100
:1004C000012007E0CB6AB3F1C07F00D1012001E039
:1004D00000E000BF34E08B69B3F5005F1AD132B1A0
:1004E000012A07D0022A03D0032A11D10AE000BF53
:1004F00001200EE0CB6A03F08073B3F1807F00D15E
:10050000012006E0CB6AB3F1C07F00D1012000E0FA
:1005100000BF15E032B1012A05D0022A04D0032A17
:100520000CD103E000BF00BF012008E0CB6A03F05C
:100530008073B3F1807F00D1012000E000BF00BFD5
:10054000704770478AB000274FF4FA6500260024F0
:1005500000BF012006F0F6FD0A23002201A9FE4893
:10056000006806F045FEC7B2002FF2D19DF80400E6
:100570008DF818009DF805008DF8190000208DF801
:100580001A008DF81B009DF80A008DF81E009DF8DA
:100590000B008DF81F009DF80B0005287CD007DCB0
:1005A00001280AD0022878D0032841F07A8060E13F
:1005B000062873D01028F8D1FEE39DF80C002028FF
:1005C0006DD19DF80D00052856D006DC052867D2B0
:1005D000DFE800F07A2E4F505100062872D009282B
:1005E00071D00A2802D064285AD100E0BFE0002070
:1005F0008DF81C0005208DF81D0001208DF82000CD
:10060000D6480078012802D18DF8210005E0D348B2
:10061000007810B900208DF821000A2206A90120D7
:1006200007F0CCFD002006900790089009909EE00E
:1006300000208DF81C0005208DF81D0001208DF88C
:100640002000C6480078012802D18DF8210005E07D
:10065000C248007810B900208DF821000A2206A9AE
:10066000012007F0ABFD002006900790089009904C
:100670007DE07CE07BE07AE000208DF81C00052026
:100680008DF81D0001208DF82000B4480078012865
:1006900007D18DF821000AE043E36AE0FEE367E05A
:1006A00064E0AE48007810B900208DF821000A22DD
:1006B00006A9012007F082FD00200690079008900F
:1006C000099054E01EE03EE000208DF81C0005205B
:1006D0008DF81D0001208DF82000A1480078012828
:1006E00002D18DF8210002E000208DF821000A22BD
:1006F00006A9012007F062FD0020069007900890EF
:10070000099034E000208DF81C0005208DF81D00B4
:1007100001208DF8200093480078012802D18DF83F
:10072000210005E08F48007810B900208DF82100E5
:100730000A2206A9012007F041FD0020069007903B
:100740000890099013E000208DF81C0006208DF819
:100750001D0001208DF820000A2206A907F02EFDB9
:100760000020069007900890099000E000BF00BFAD
:10077000EEE300208DF81C0004208DF81D00012000
:100780008DF820009DF80C0018BB9DF80D00012885
:100790001FD10121744801F017FC60B901208DF8C8
:1007A00021000A2206A907F009FD00200690079003
:1007B000089009905CE000208DF821000A2206A92B
:1007C000012007F0FBFC002006900790089009909C
:1007D0004EE09DF80C0018BB9DF80D0003281FD1BA
:1007E0000821614801F0F0FB60B901208DF821007B
:1007F0000A2206A907F0E2FC002006900790089064
:10080000099035E000208DF821000A2206A9012078
:1008100007F0D4FC0020069007900890099027E08C
:100820009DF80C0018BB9DF80D0004281FD1042171
:100830004D4801F0C9FB60B901208DF821000A2262
:1008400006A907F0BBFC00200690079008900990CD
:100850000EE000208DF821000A2206A9012007F0F1
:10086000ADFC0020069007900890099000E000BFC2
:100870007EE79DF80F009DF80E1040EA01204FF62C
:10088000FF7101EA400400208DF81C00E01CC0B29A
:100890008DF81D009DF80C0001286BD1022C6AD147
:1008A0009DF80D004A2812D1E0B28DF820000020FA
:1008B0008DF821008DF822000B2206A9012007F0F7
:1008C0007DFC0020069007900890099028E29DF892
:1008D0000D004E2812D1E0B28DF8200000208DF8D6
:1008E00021008DF822000B2206A9012007F066FCEA
:1008F0000020069007900890099011E29DF80D00E5
:10090000B0B9E0B28DF8200018480088000A8DF8D0
:100910002100164800788DF822000B2206A901203C
:1009200007F04CFC00200690079008900990F7E132
:100930009DF80D00302827D1E0B28DF820000C483A
:100940000088000A8DF82100094800788DF82200FF
:100950000B2206A901200FE0840000202B000020BC
:10096000500000202A000020000802402000002043
:100970004200002099E04CE007F020FC00200690A7
:10098000079008900990CBE19DF80D00322812D114
:10099000E0B28DF8200000208DF821008DF82200B3
:1009A0000B2206A9012007F009FC00200690079001
:1009B00008900990B4E19DF80D00772886D1E0B247
:1009C0008DF82000FD48007801280FD100208DF817
:1009D000210001208DF822000B2206A907F0EEFB72
:1009E0000020069007900890099099E1F34800785C
:1009F00000289CD18DF821008DF822000B2206A939
:100A0000012007F0DBFB002006900790089009907A
:100A100086E1042C8BD19DF80D002C2820D1E0B26A
:100A20008DF82000E6480068000E8DF82300E448A9
:100A30000068000C8DF82400E1480088000A8DF859
:100A40002100DF4800788DF822000D2206A9012040
:100A500007F0B4FB002006900790089009905FE132
:100A60009DF80D002E288ED1E0B28DF82000D548DB
:100A70000068000E8DF82300D2480068000C8DF845
:100A80002400D0480088000A8DF82100CD48007865
:100A90008DF822000D2206A9012007F08FFB00200F
:100AA00006900790089009903AE19DF80C00002804
:100AB0009BD1022C2DD19DF80D00202812D1E0B23F
:100AC0008DF8200000208DF821008DF822000B22E7
:100AD00006A9012007F072FB0020069007900890FD
:100AE00009901DE19DF80D00962891D1E0B28DF896
:100AF000200000208DF821008DF822000B2206A98D
:100B0000012007F05BFB00200690079008900990F9
:100B100006E1042CA3D19DF80D00642820D1E0B299
:100B20008DF82000A8480068000E8DF82300A64824
:100B30000068000C8DF82400A3480088000A8DF896
:100B40002100A14800788DF822000D2206A901207D
:100B500007F034FB00200690079008900990DFE032
:100B60009DF80D00682819D1E0B28DF82000300EF4
:100B70008DF82300300C8DF82400300A8DF8210008
:100B8000F0B28DF822000D2206A9012007F016FB15
:100B900000200690079008900990C1E09DF80D0094
:100BA000782819D1E0B28DF82000280E8DF82300A6
:100BB000280C8DF82400280A8DF82100E8B28DF861
:100BC00022000D2206A9012007F0F8FA0020069065
:100BD000079008900990A3E09DF80D007A2816D19F
:100BE000E0B28DF8200000208DF823008DF824005D
:100BF0008DF821008DF822000D2206A9012007F0B2
:100C0000DDFA0020069007900890099088E09DF892
:100C10000D007C2820D1E0B28DF820006B480068E0
:100C2000000E8DF8230069480068000C8DF8240040
:100C300066480088000A8DF82100644800788DF825
:100C400022000D2206A9012007F0B8FA0020069024
:100C500007900890099063E09DF80D007E2816D15A
:100C6000E0B28DF8200000208DF821008DF82200E0
:100C70008DF823008DF824000D2206A9012007F02D
:100C80009DFA0020069007900890099048E09DF892
:100C90000D00802820D1E0B28DF820004C4800687B
:100CA000000E8DF823004A480068000C8DF82400DF
:100CB00047480088000A8DF82100454800788DF8E3
:100CC00022000D2206A9012007F078FA00200690E4
:100CD00007900890099023E09DF80D0087281FD108
:100CE000E0B28DF820003B480068000E8DF823002C
:100CF00038480068000C8DF8240036480088000A47
:100D00008DF82100334800788DF822000D2206A9C5
:100D1000012007F053FA00200690079008900990F0
:100D200026E500208DF81C0006208DF81D009DF89A
:100D30000C008DF820009DF80D008DF821009DF825
:100D40000C0020287DD19DF80D0015287AD2DFE80F
:100D500000F0FE0B85DEFDFCFBFA79F979797979F3
:100D600079F879797979F7009DF80E00FF2853D149
:100D70001948007808BB19480078F0B9FF208DF8B1
:100D8000220000208DF823000C2206A9012007F084
:100D900015FA0020069007900890099001200F494D
:100DA00008708DF80000084800684FF47A714843D5
:100DB0006421B0FBF1F013E03CE34EE02F00002093
:100DC0004C000020480000202400002038000020B3
:100DD0003C000020200000202A0000202B000020E2
:100DE000FE49B1FBF0F0000A8DF80100FC480068F4
:100DF0004FF47A7148436421B0FBF1F0F749B1FB3D
:100E0000F0F0C0B28DF80200002301226946F548D7
:100E1000006806F07BFA20E09DF80E00E8B900209B
:100E20008DF822008DF823000C2206A9012007F07E
:100E3000C5F9002006900790089009900021EA4823
:100E400001E08CE289E203F007F801228021E74803
:100E500001F0CCF80020E64908707FE29DF80E0012
:100E6000FF2838D18DF8220000208DF823000C22B5
:100E700006A9012007F0A2F900200690079008902B
:100E800009900120DA4908700020DA4908708DF8CD
:100E900000004FF47A706843642100E060E2B0FB28
:100EA000F1F0CE49B1FBF0F0000A8DF801004FF4EB
:100EB0007A7068436421B0FBF1F0C849B1FBF0F0EF
:100EC000C0B28DF80200002301226946C5480068BF
:100ED00006F01CFA1AE000208DF822008DF823009D
:100EE0000C2206A9012007F069F90020069007905E
:100EF000089009900021BC4802F0AEFF0122802139
:100F0000BA4801F073F80020B949087026E29DF84C
:100F10000E00FF2841D18DF8220000208DF823001B
:100F20000C2206A9012007F049F90020069007903D
:100F3000089009900120AE4908700020AD4908E0F2
:100F40003AE1F0E1D5E1BAE192E19DE041E06FE103
:100F500005E2087001208DF800004FF47A706843B4
:100F60006421B0FBF1F09D49B1FBF0F0000A8DF86F
:100F700001004FF47A7068436421B0FBF1F09749A7
:100F8000B1FBF0F0C0B28DF80200002301226946E7
:100F90009448006806F0BAF91AE000208DF82200A3
:100FA0008DF823000C2206A9012007F007F9002084
:100FB000069007900890099000218B4802F04CFFA2
:100FC00001228021894801F011F800208849087029
:100FD000C4E19DF80E00FF283AD18DF822000020D0
:100FE0008DF823000C2206A9012007F0E7F8002065
:100FF00006900790089009907D48007838BB002043
:101000007C49087001207A49087000208DF80000A2
:101010004FF47A7068436421B0FBF1F06F49B1FB83
:10102000F0F0000A8DF801004FF47A7068436421F3
:10103000B0FBF1F06949B1FBF0F0C0B28DF80200ED
:101040000023012269466748006806F05FF91AE04C
:1010500000208DF822008DF823000C2206A9012023
:1010600007F0ACF800200690079008900990002146
:101070005D4802F0F1FE012280215C4800F0B6FFDD
:1010800000205B49087069E19DF80E00FF2877D1C8
:101090008DF8220000208DF823000C2206A90120E3
:1010A00007F08CF8002006900790089009905048AF
:1010B000007870BB5048007858BB5048006800EB7F
:1010C00080004F490968B1EB400F23D900208DF80B
:1010D00000004FF47A7068436421B0FBF1F03F499F
:1010E000B1FBF0F0000A8DF801004FF47A7068430C
:1010F0006421B0FBF1F03949B1FBF0F0C0B28DF8DA
:1011000002000023012269463648006806F0FEF816
:101110002EE050E03948006800EB8000384909684B
:10112000B1EB400F24D23348007808BB01208DF882
:1011300000004FF47A7068436421B0FBF1F0274956
:10114000B1FBF0F0000A8DF801004FF47A706843AB
:101150006421B0FBF1F02149B1FBF0F0C0B28DF891
:1011600002000023012269461E48006806F0CEF8FE
:1011700000202049087001201D4908701BE0FFE78E
:1011800000208DF822008DF823000C2206A90120F2
:1011900007F014F8002006900790089009900021AD
:1011A000114802F059FE01228021104800F01EFF74
:1011B00000200F490870D1E09DF80E00FF2827D1CC
:1011C0000021094802F048FE01228021074800F072
:1011D0000DFF002006490870FF2013E080F0FA029E
:1011E000240000208C00002020030020000002408A
:1011F0002B0000202A0000202C00002020000020CE
:10120000380000208DF8220000208DF8230004E033
:1012100000208DF822008DF823000C2206A9012061
:1012200006F0CCFF0020069007900890099095E00A
:101230009DF80E00FF2809D10120FE490870FF200B
:101240008DF8220000208DF8230006E00020F949E7
:1012500008708DF822008DF823000C2206A90120C9
:1012600006F0ACFF0020069007900890099075E00A
:101270009DF80E00FF280FD18DF8220000208DF878
:1012800023000C2206A9012006F098FF00200690FA
:1012900007900890099011E09DF80E0070B90020A9
:1012A0008DF822008DF823000C2206A9012006F0FB
:1012B00085FF002006900790089009904EE09DF869
:1012C0000E00FF2805D18DF8220000208DF82300A4
:1012D00004E000208DF822008DF823000C2206A9DE
:1012E000012006F06BFF00200690079008900990FF
:1012F00034E09DF80E00FF2805D18DF82200002073
:101300008DF8230004E000208DF822008DF82300E2
:101310000C2206A9012006F051FF0020069007903C
:10132000089009901AE09DF80E00FF2805D18DF86D
:10133000220000208DF8230004E000208DF8220018
:101340008DF823000C2206A9012006F037FF0020AB
:10135000069007900890099000E000BF00BFA1E14F
:1013600000208DF81C0006208DF81D009DF80C0053
:101370008DF820009DF80D008DF821009DF80E00DD
:101380008DF822009DF80F008DF823009DF80C00C9
:1013900001284ED19DF80D004A280AD10C2206A939
:1013A000012006F00BFF002006900790089009909E
:1013B0003FE09DF80D004E280AD10C2206A901201D
:1013C00006F0FCFE0020069007900890099030E09F
:1013D0009DF80D00B8B99DF80E0010B99DF80F00EA
:1013E00018B101209449087002E000209249087069
:1013F0000C2206A9012006F0E1FE002006900790CD
:101400000890099015E09DF80D00302811D19DF845
:101410000F009DF80E1040EA0120884908800C2238
:1014200006A9012006F0CAFE002006900790089049
:10143000099037E100208DF81C0006208DF81D0072
:101440009DF80C008DF820009DF80D008DF821000E
:101450009DF80E008DF822009DF80F008DF82300F6
:101460009DF80C00D8BB9DF80D0064281AD19DF89A
:1014700012009DF8111040EA01209DF8131040EA77
:1014800001609DF8141040EA01406D4908600C228B
:1014900006A9012006F092FE002006900790089011
:1014A0000990FDE09DF80D00682819D19DF8120003
:1014B0009DF8111040EA01209DF8131040EA0160E8
:1014C0009DF8141040EA01460C2206A9012006F0FE
:1014D00075FE00200690079008900990E0E081E0FA
:1014E0009DF80D00782818D19DF812009DF8111074
:1014F00040EA01209DF8131040EA01609DF81410A5
:1015000040EA01450C2206A9012006F057FE002002
:101510000690079008900990C2E09DF80D007A2887
:101520000AD10C2206A9012006F048FE00200690F0
:10153000079008900990B3E09DF80D007C2823D116
:101540000120404908709DF812009DF8111040EAF2
:1015500001209DF8131040EA01609DF8141040EA44
:101560000140394908600846006810B90020374931
:1015700008700C2206A9012006F020FE002006902B
:101580000790089009908BE09DF80D007E280AD105
:101590000C2206A9012006F011FE002006900790FB
:1015A000089009907CE09DF80D00802878D19DF886
:1015B00012009DF8111040EA01209DF8131040EA36
:1015C00001609DF8141040EA0140214908600C2296
:1015D00006A9012006F0F2FD002006900790089071
:1015E00009905DE09DF80C00012859D19DF80D008F
:1015F0002C2837D19DF812009DF8111040EA0120E7
:101600009DF8131040EA01609DF8141040EA014073
:1016100010490860084690ED000AB8EE400A0E48EE
:1016200080ED000A0C2206A9012006F0C7FD00206B
:10163000069013E0500000202D0000204200002002
:101640002400002030000020380000202C00002062
:101650003C0000204C00002058000020079008901B
:1016600009901DE09DF80D002E2819D19DF812005B
:101670009DF8111040EA01209DF8131040EA016026
:101680009DF8141040EA01400A4908600C2206A99E
:10169000012006F093FD0020069007900890099025
:1016A00000E000BF00BF142101A8FEF753FEFEF7C3
:1016B00050BF00004800002010B5012000F098FB4A
:1016C00010BD10B5042000F093FB10BD10B508202C
:1016D00000F08EFB10BD00001CB564A103C9CDE96C
:1016E000000100BF634800780128FBD10020614958
:1016F000087061480078012804D004215F4800F098
:1017000063FC40B99FED5E0A5E4880ED000A002050
:101710005D49086060E05848007800285CD15B486B
:1017200090ED000AF8EEC00A9FED591A80EE810A8A
:10173000F1EE040A20EE200A524880ED000A90EDF6
:10174000000ADFED540A20EE200ABCEEC00A4E4823
:1017500080ED000A5048007801283DD14F480078BC
:10176000012839D18021454800F02EFCB8B94648FF
:10177000006800EB80004A490968B1EB400F2BD2AA
:101780000021484802F068FB01228021464800F011
:101790002DFC002045490870404908701CE080215C
:1017A000364800F011FC012816D13748006800EBDC
:1017B00080003B490968B1EB400F0DD90021394841
:1017C00002F04AFB01228021374800F00FFC002084
:1017D000364908703149087035480078012817D11A
:1017E000294800788DF8020027480088000A8DF803
:1017F000030025480068000C8DF8040022480068AA
:10180000000E8DF8050006226946022006F0D6FC7F
:101810002848007801287FF465AF274890ED000A3A
:101820001848D0ED000A9FED1A1A10EE810ABCEE9E
:10183000C00A224880ED000A2148006800EB8000C1
:101840001E490968B1EB400FFFF44CAF0D4890ED15
:10185000000ADFED0F0A20EE200A174880ED000A8B
:10186000002014490870154908603BE7CFAE00001E
:10187000000000002E0000202A0000200008024086
:10188000000000001C0000202000002000000020BC
:1018900000007A440000C8422F00002030000020E1
:1018A0003800002020030020000002402B00002010
:1018B0002D0000205100002058000020540000207E
:1018C0004800002072B600BFFEE7000008B504F033
:1018D000FFFF1149002005F0CBF901208DF8000031
:1018E0008DF8030000208DF8020001208DF8010022
:1018F00069460A2005F0E4F900BF4FF4FB710120AE
:1019000005F0A8FB41F29411022005F0A3FB14207E
:1019100005F018FCF1E700000400002000BF0120E2
:1019200005F010FC084800780128F8D1002107488C
:1019300002F092FA01228021054800F057FB0020B6
:1019400004490870EBE700002C0000202003002071
:10195000000002402B00002070B50446A56D00F089
:101960004BFB064694F83500022808D080206065BD
:1019700000BF002084F8340000BF012070BD206843
:10198000006820F01600216808602068406920F097
:10199000800021684861206C08B9A06C28B12068DB
:1019A000006820F00800216808602068006820F0C6
:1019B00001002168086010E000F01EFB801B052874
:1019C0000BD920206065032084F8350000BF00207B
:1019D00084F8340000BF0320D0E72068006800F0DE
:1019E00001000028E8D194F85C103F208840A860EE
:1019F000012084F8350000BF002084F8340000BFC7
:101A000000BFBBE7014691F83500022803D08020D3
:101A1000486501207047052081F835000868006896
:101A200020F001000A6810600020F3E7014691F8F9
:101A300035007047F8B50446002000908C480068D7
:101A40004FF41651B0FBF1F7A56D2E6894F85C10B9
:101A500008208840304098B12068006800F00400F9
:101A600070B12068006820F004002168086094F8D4
:101A70005C1008208840A860606D40F0010060653F
:101A800094F85C1001208840304068B120684069BB
:101A900000F0800040B194F85C1001208840A860FC
:101AA000606D40F00200606594F85C10042088408E
:101AB000304068B12068006800F0020040B194F83E
:101AC0005C1004208840A860606D40F004006065F0
:101AD00094F85C1010208840304078B3206800688B
:101AE00000F0080050B394F85C1010208840A86003
:101AF0002068006800F4802080B12068006800F44D
:101B0000002028B9206CC8B12046216C884715E018
:101B1000A06C98B12046A16C88470FE0206800684F
:101B200000F4807028B92068006820F0080021685F
:101B30000860206C10B12046216C884794F85C1036
:101B4000202088403040002865D02068006800F0E0
:101B5000100000285FD094F85C1020208840A86016
:101B600094F83500052828D12068006820F0160078
:101B7000216808602068406920F080002168486181
:101B8000206C08B9A06C28B12068006820F008001B
:101B90002168086094F85C103F208840A86001200C
:101BA00084F8350000BF002084F8340000BF206DA9
:101BB00010B12046216D8847F8BD2068006800F408
:101BC000802080B12068006800F4002028B9606C93
:101BD00010B12046616C88471DE0E06BD8B120460B
:101BE000E16B884717E02068006800F4807068B9EE
:101BF0002068006820F0100021680860012084F847
:101C0000350000BF002084F8340000BFE06B10B145
:101C10002046E16B8847606D38B3606D00F00100CD
:101C2000F0B1052084F835002068006820F001003C
:101C30002168086000BF0098401C0090B84200D99D
:101C400005E02068006800F001000028F3D100BF23
:101C5000012084F8350000BF002084F8340000BF64
:101C6000E06C10B12046E16C884700BFA4E700009B
:101C70009C0000202DE9F0410446002500F0BCF94D
:101C8000074614B90120BDE8F081606A00B100BFC9
:101C9000022084F8350000BF002084F8340000BF23
:101CA0002068006820F00100216808600AE000F068
:101CB000A3F9C01B052805D920206065032084F8FE
:101CC0003500E0E72068006800F001000028EED150
:101CD0002068056821480540D4E901010843E1680E
:101CE00008432169084361690843A1690843E16920
:101CF0000843216A08430543606A042803D1D4E9F4
:101D00000B0108430543206805602068456925F0FC
:101D10000705606A0543606A04280DD1A06A05437F
:101D2000E06A48B12046FEF7B7FB28B14020606565
:101D3000012084F83500A6E7206845612046FEF7BB
:101D400091FB064694F85C103F208840B06000206C
:101D50006065012084F83500002094E73F8010F092
:101D600010B50446082C05D1174908600120174911
:101D7000087027E0042C1ED10120154908700020AE
:101D80001449087001201449087000201349088084
:101D90000021134802F060F801228021114800F070
:101DA00025F900201049086001201049087004201E
:101DB0000549086006E0012C04D1012002490860B1
:101DC0000249087010BD0000143C01402C000020A6
:101DD0002A0000202B0000202F00002044000020BB
:101DE0002003002000000240000000202E00002000
:101DF00010B5044604480068204020B10248046041
:101E00002046FFF7ADFF10BD143C0140F8B5034676
:101E10000A460025002400200021C2E0012606FA1F
:101E200001F5166806EA0504AC4274D1167906F08D
:101E30000306012E04D0167906F00306022E13D1F4
:101E400098684F000326BE40B0434F00D668BE409E
:101E500030439860586801268E40B0431679C6F327
:101E600000168E4030435860167906F00306032EA4
:101E700009D0D8684F000326BE40B0434F00966893
:101E8000BE403043D860167906F00306022E13D107
:101E9000CF0803F1200656F827004E07F70E0F264D
:101EA000BE40B0434F07FF0E1669BE403043CF0817
:101EB00003F1200646F8270018684F000326BE40AD
:101EC000B043167906F003064F00BE403043186059
:101ED000566806F44036002E62D000BF00260096F9
:101EE000324E366846F48046304F3E603E46366895
:101EF00006F48046009600BF00BF2D4E8F0856F8AE
:101F000027008E07370F0F26BE40B043294EB3423D
:101F100002D1002610E043E0274EB34201D1012652
:101F20000AE0264EB34201D1022605E0244EB34218
:101F300001D1032600E007268F073F0FBE40304344
:101F40001B4E8F0846F827001E4E3068A043566887
:101F500006F4801606B120431A4E3060361D3068F4
:101F6000A043566806F4001606B12043154E361DF0
:101F70003060144E361F3068A043566806F40036B1
:101F800006B120430F4E361F3060361F3068A04325
:101F9000566806F4803606B120430A4E083E30608B
:101FA000491C1029FFF43AAFF8BD00004438024044
:101FB00008380140000002400004024000080240CE
:101FC000000C0240083C0140024613690B400BB173
:101FD000012000E00020704710B5426921EA0203A9
:101FE00002EA010443EA0443836110BD0AB181613E
:101FF00001E00B04836170470148006870470000EE
:1020000090000020704770472DE9F84F0446206883
:1020100047692068D0F80480002594F83E90C7F303
:10202000002040B1C8F3002028B145F001056FF44D
:10203000807021684861C7F3402040B1C8F3002098
:1020400028B145F002056FF4007021684861C7F3BC
:10205000802070B3C8F3002058B3CA46B4F82AB041
:1020600094F83D60206B0090BAF1200F0FD1BBF1C6
:10207000000F0CD1212E06D0292E04D0282E06D1F7
:102080000098212803D1204603F0A4F811E06FF452
:1020900080602168486145F00405B9F1100F02D055
:1020A000B9F1400F05D12068006840F40070216844
:1020B0000860C7F3C02040B1C8F3002028B145F044
:1020C00008056FF40060216848612DB1206C284339
:1020D0002064204602F052FBBDE8F88F2DE9F0475E
:1020E00005464FF0000928684668D5F82CA095F8F9
:1020F0003E7095F83D80102F01D0402F75D1286893
:10210000D0F818902868446904F0010060B9BAF565
:102110002A0F02D0BAF12A4F01D1012000E000209D
:10212000012801D1BDE8F08704F0010048B1C6F3F1
:10213000402030B1284602F097FA284602F004FF0A
:10214000B7E0C4F3C00030B1C6F3402018B1284650
:1021500002F0B1FDADE0C4F3400030B1C6F3402061
:1021600018B1284602F0BCFDA3E0C9F3800040B3DB
:102170002868406800F40060B0F5006FE0D0C4F358
:10218000C01048B1C6F3802030B1C4F3800018B944
:10219000284602F024FD8CE0C4F380000028CFD054
:1021A000C6F340200028CBD0B8F1210F03D1284638
:1021B00002F0C5FC7DE0402F7BD1284602F013FFE2
:1021C00077E02868406800F40060B0F5006F70D0D8
:1021D000C4F3801050B1C6F3802038B1C4F380003E
:1021E00020B9284602F033FC63E00BE0C4F3800022
:1021F00000285ED0C6F3402000285AD0284602F0BE
:1022000093FB56E0286C10B12868446904E0286804
:10221000D0F8189028684469C4F3400060B1C6F350
:10222000402048B1286C10B12868D0F81890494671
:10223000284602F097FF3CE0C4F3001030B1C6F32B
:10224000402018B1284603F015F832E0B8F1210F0C
:1022500002D0B8F1290F16D1C4F3C01048B1C6F3AB
:10226000802030B1C4F3800018B9284602F057FF2F
:102270001FE0C4F38000E0B1C6F34020C8B1284697
:1022800002F040FF15E0C4F3801048B1C6F380208F
:1022900030B1C4F3800018B9284602F010FF08E0FE
:1022A000C4F3800028B1C6F3402010B1284602F0E4
:1022B000F9FE00BF36E7704770B504460CB901203F
:1022C00070BD94F83D0028B9002084F83C002046F9
:1022D00000F0E0F8242084F83D002068006820F039
:1022E0000100216808602068006840F4004021680F
:1022F00008602068006820F400402168086000F051
:102300000FFB05465C496068884206D85B488542F9
:1023100001D2012007E0002005E05948854201D2A2
:10232000012000E00020012800D1C9E75548B5FB95
:10233000F0F62068406820F03F0030432168486094
:102340004D496068884201D8701C07E04FF49670D0
:1023500070434FF47A71B0FBF1F0401C2168096AB8
:1023600021F03F01084321680862434960688842C0
:1023700014D8681E61684900B0FBF1F0401CC0F33E
:102380000B00042801D204203DE0681E616849006A
:10239000B0FBF1F0401CC0F30B0034E0A06838B98A
:1023A000681E616801EB4101B0FBF1F0401C0AE0DE
:1023B000681E616801EBC10202EB0111B0FBF1F094
:1023C000401C40F48040C0F30B0008B901201AE023
:1023D000A06848B9681E616801EB4101B0FBF1F0EB
:1023E000401CC0F30B000CE0681E616801EBC102E9
:1023F00002EB0111B0FBF1F0401CC0F30B0040F404
:10240000804040F400402168C9694CF6FF72914356
:1024100008432168C861D4E90701084321680968B5
:1024200021F0C001084321680860D4E90310084383
:102430002168896848F2FF32914308432168886027
:10244000D4E9050108432168C96821F0FF01084368
:102450002168C8602068006840F0010021680860B9
:1024600000202064202084F83D000020206384F8B0
:102470003E0000BF24E70000A086010080841E000B
:1024800000093D0040420F00704770477047704799
:102490007047000010B586B00446142101A8FDF76E
:1024A00059FF2349206888423FD100BF0020009097
:1024B0002048006840F002001E4908600846006895
:1024C00000F00200009000BF00BFC0200190122069
:1024D000029000200390032004900420059001A99D
:1024E0001548FFF793FC00BF002000901148103002
:1024F000006840F400100F49103108600846006879
:1025000000F40010009000BF00BF002205211F2032
:1025100000F0CAF81F2000F0B7F8002205212020A3
:1025200000F0C2F8202000F0AFF806B010BD0000A7
:1025300000540040303802400004024070477047A9
:102540000348006803490978084401490860704756
:10255000900000209800002010B50D48006840F45D
:1025600000700B4908600846006840F4806008600D
:102570000846006840F480700860032000F0D2F83C
:102580000F2000F007F800F055F8002010BD000003
:10259000003C0240F0B587B004460026002700BF8B
:1025A000002000901E48006840F001001C490860AF
:1025B0000846006800F00100009000BF00BF01A9BC
:1025C00002A800F085F900F0BBF906461548B6FBF5
:1025D000F0F0471E14481549086040F2E7311348EF
:1025E000C1604760002101618160816100F074FF7A
:1025F000054695B90D4800F0E5FF05466DB919206F
:1026000000F042F8102C07D200222146192000F0D9
:102610004BF80748046000E00125284607B0F0BDEC
:102620004438024040420F0000000140F8040020FE
:102630009400002008B500BF0020009011480068F9
:1026400040F480400F4908600846006800F480406C
:10265000009000BF00BF00BF00200090081F00686E
:1026600040F08050091F08600846006800F0805064
:10267000009000BF00BF00220F21901E00F014F850
:1026800008BD00004438024001460846002809DB26
:1026900000F01F0301229A4043099B0003F1E0234D
:1026A000C3F8002100BF70472DE9F05F80460D465A
:1026B0001646002704F05EFA074639462A46334696
:1026C00001F00700C0F1070ABAF1040F02D94FF078
:1026D000040A01E0C0F1070AD14600F1040ABAF188
:1026E000070F02D24FF0000A01E0A0F1030AD4461E
:1026F0004FF0010A0AFA09FAAAF1010A0AEA020AE3
:102700000AFA0CFA4FF0010B0BFA0CFBABF1010BC0
:102710000BEA030B4AEA0B042146404604F032FA66
:10272000BDE8F09F00BF00F00702064B19684FF6A6
:10273000FF031940044B0B4343EA0221014B19608C
:1027400000BF70470CED00E00000FA0570B50446CC
:102750000D460CB9012070BD5848006800F0070014
:10276000A84209D255490D700846006800F00700DC
:10277000A84201D00120EEE7207800F002000228F4
:102780001DD1207800F00400042805D14C480068D1
:1027900040F4E0504A490860207800F0080008281A
:1027A00005D14748006840F4604045490860444806
:1027B000006820F0F000A1680843414908602078D3
:1027C00000F00100A8B36068012807D13C48083830
:1027D0000068C0F34040B8B90120BCE76068022837
:1027E00002D06068032807D1354808380068C0F374
:1027F000406048B90120AEE7314808380068C0F3AE
:10280000400008B90120A6E72D48006820F0030029
:10281000616808432A490860FFF7EEFB064609E0B5
:10282000FFF7EAFB801B41F28831884202D903207E
:1028300091E707E02248006800F00C006168B0EB07
:10284000810FEDD11D48006800F00700A84209D9AA
:102850001A490D700846006800F00700A84201D030
:10286000012078E7207800F00400042807D11448FC
:10287000006820F4E050E1680843114908602078BE
:1028800000F00800082808D10D48006820F46040D6
:10289000216940EAC1000A49086000F061F808496E
:1028A0000968C1F30311074A515CC8400649086032
:1028B00006480068FFF76EFE00204CE7003C02402F
:1028C00008380240F2A000089C000020940000207C
:1028D0000F2202600D4A126802F0030242600B4AA6
:1028E000126802F0F0028260084A126802F4E052B4
:1028F000C260064A126802F46042D2080261044AC9
:10290000126802F007020A607047000008380240AF
:10291000003C024001480068704700009C00002015
:1029200000B5FFF7F7FF04490968C1F38221034AA4
:10293000515CC84000BD00000838024002A10008F8
:1029400000B5FFF7E7FF04490968C1F34231034AC4
:10295000515CC84000BD00000838024002A10008D8
:102960002DE9F047002400250026A14625480068EF
:1029700000F00C0020B1042805D008283AD105E069
:10298000DFF8849039E0DFF8849036E01D48001FBE
:10299000006800F03F041B48001F006800F480003E
:1029A00078B11A481749091F0968C1F38811A0FBBB
:1029B00001700146224600233846FDF781FC05469A
:1029C0000EE011480F49091F0968C1F38811A0FBE7
:1029D00001700146224600233846FDF771FC05468A
:1029E0000848001F0068C0F30140401C4600B5FBCA
:1029F000F6F902E0DFF8109000BF00BF4846BDE8DE
:102A0000F0870000083802400024F40040787D017F
:102A1000F8B504460CB90120F8BD207800F001009B
:102A2000002874D0F748006800F00C0004280DD08E
:102A3000F448006800F00C00082813D1F148001F8A
:102A4000006800F48000B0F5800F0BD1ED48083825
:102A50000068C0F34040002859D06068002856D173
:102A60000120D9E700BF6068B0F5803F08D1E54894
:102A70000838006840F48030E249083908601EE0F8
:102A80006068B0F5A02F0DD1DE480838006840F42A
:102A90008020DC49083908600846006840F480302E
:102AA00008600CE0D7480838006820F48030D54929
:102AB000083908600846006820F48020086000BFDC
:102AC000606890B1FFF798FA054606E0FFF794FAC0
:102AD000401B642801D903209EE7CA4808380068D3
:102AE000C0F340400028F1D011E0FFF785FA054619
:102AF00006E0FFF781FA401B642801D903208BE729
:102B0000C04808380068C0F340400028F1D1207860
:102B100000F0020002285FD1BA48006800F00C0003
:102B200058B1B848006800F00C0008281CD1B5481E
:102B3000001F006800F48000B0B9B248083800688F
:102B4000C0F3400020B1E068012801D0012063E714
:102B5000AC480838006820F0F800216940EAC1005C
:102B6000A8490839086037E0E06800B30120A649A9
:102B70000860FFF741FA054606E0FFF73DFA401B03
:102B8000022801D9032047E79E4808380068C0F3AF
:102B900040000028F1D09B480838006820F0F80079
:102BA000216940EAC10097490839086014E0002013
:102BB00095490860FFF720FA054606E0FFF71CFA82
:102BC000401B022801D9032026E78E4808380068F8
:102BD000C0F340000028F1D1207800F00800082858
:102BE0002CD16069A8B1012088490860FFF704FA78
:102BF000054606E0FFF700FA401B022801D9032032
:102C00000AE780486C300068C0F340000028F1D02B
:102C100014E000207D490860FFF7EEF9054606E064
:102C2000FFF7EAF9401B022801D90320F4E67548B2
:102C30006C300068C0F340000028F1D1207800F02B
:102C40000400042870D100276E483830006800F076
:102C5000805090B900BF002000906A48383000686A
:102C600040F080506749383108600846006800F03D
:102C70008050009000BF00BF01276548006800F445
:102C80008070B0B96248006840F4807060490860A4
:102C9000FFF7B2F9054606E0FFF7AEF9401B022840
:102CA00001D90320B8E65A48006800F48070002873
:102CB000F2D000BFA068012808D1524868300068EF
:102CC00040F001004F49683108601DE0A068052808
:102CD0000DD14C486830006840F004004949683123
:102CE00008600846006840F0010008600CE04548B4
:102CF0006830006820F001004249683108600846E9
:102D0000006820F00400086000BFA068A8B1FFF7C9
:102D100073F9054609E0FFF76FF9401B41F288316E
:102D2000884202D9032077E626E0364868300068FA
:102D3000C0F340000028EED013E0FFF75DF9054630
:102D400008E0FFF759F9401B41F28831884201D968
:102D5000032061E62B4868300068C0F3400000287B
:102D6000EFD1012F07D127483830006820F080507C
:102D700024493831086000BFA069002850D021489C
:102D8000006800F00C00082860D0A069022848D133
:102D900000201D490866FFF72FF9054606E0FFF7FA
:102DA0002BF9401B022801D9032035E615480838C5
:102DB0000068C0F340600028F1D1D4E9070108435E
:102DC000616A40EA81110122A06AC2EB500041EA27
:102DD00000412C20005D41EA00613020005D41EAA5
:102DE00000700849091F0860012007490866FFF7BD
:102DF00003F905460EE0FFF7FFF8401B022809D94A
:102E0000032009E60838024000004742800E47428E
:102E10000070004028480068C0F340600028EAD0F5
:102E200048E0002025490866FFF7E6F8054606E079
:102E3000FFF7E2F8401B022801D90320ECE51E4809
:102E40000068C0F340600028F2D133E0A069012897
:102E500000D1E1E51848001D0668A069012827D0C7
:102E600006F48001E069814222D106F03F01206A28
:102E700081421DD147F6C0703040616AB0EB811FBE
:102E800016D106F440310122A06AC2EB5000B1EB2A
:102E9000004F0DD106F070612C20005DB1EB006F8A
:102EA00006D106F0E0413020005DB1EB007F01D09B
:102EB0000120B1E50020AFE50038024000004742A4
:102EC00070470000F8B504462068466820688568A9
:102ED000C5F3801048B905F0010030B1C6F3801089
:102EE00018B12046216C8847F8BDC5F3400030B1C9
:102EF000C6F3C01018B12046616C8847F4E7C5F3EB
:102F0000401030B9C5F3801018B9C5F3002000286F
:102F10007CD0C6F3401000287DD0C5F38010F0B1FE
:102F200094F8510003280ED0606D40F004006065F5
:102F300000BF002000902068C06800902068806872
:102F4000009000BF0BE000BF002000902068C06828
:102F5000009020688068009000BF00BFC4E7C5F300
:102F6000401088B1606D40F00100606500BF002036
:102F700000902068806800902068006820F0400081
:102F80002168086000BF00BFC5F3002058B1606D24
:102F900040F00800606500BF002000902068806855
:102FA000009000BF00BF606D78B32068406820F0DB
:102FB000E00021684860012084F8510006F002001A
:102FC000022802D006F0010008B32068406820F013
:102FD000030021684860E06C50B11048E16C08655E
:102FE000E06CFEF70FFD18B1606D40F040006065C9
:102FF000A06C50B10948A16C0865A06CFEF702FDF9
:1030000018B1606D40F04000606503E003E02046C9
:10301000FFF756FF68E700BF66E700004D5C000859
:1030200010B504460CB9012010BD606A38B960685B
:10303000B0F5827F00D105E00021E16102E00021CE
:10304000216161610021A16294F8510028B900203A
:1030500084F85000204600F047F8022084F8510020
:103060002068006820F0400021680860A08800F413
:103070008270218901F404410843A18901F40061AF
:103080000843217C01F002010843217D01F0010188
:103090000843218B01F400710843217F01F03801BE
:1030A00008432021095D01F080010843218D01F4CE
:1030B00000510843216808600421A06901EA10401A
:1030C00094F8241001F0100108432168486020683A
:1030D000C06920F400602168C8610020606501209B
:1030E00084F8510000209FE710B586B004461421F3
:1030F00001A8FDF72FF91F492068884238D100BF89
:10310000002000901C48006840F480401A49086084
:103110000846006800F48040009000BF00BF00BF78
:103120000020009014481038006840F00200124956
:10313000103908600846006800F00200009000BFE7
:1031400000BF4FF4604001900220029000200390E5
:10315000032004900520059001A90848FEF756FEBB
:10316000002205212420FFF79FFA2420FFF78CFA84
:1031700006B010BD00380040403802400004024054
:103180002DE9FF5F0446884691461D460E9E0120AC
:1031900002900020019000BF94F85000012803D154
:1031A000022004B0BDE8F09F012084F8500000BF69
:1031B000FEF722FF074694F851B060680390AA46D4
:1031C000BBF1010F0BD00398B0F5827F04D1A0684A
:1031D00010B9BBF1040F02D002200190DBE0B8F17E
:1031E000000F03D0B9F1000F00D015B901200190F4
:1031F000D1E094F85100042802D0052084F8510051
:1032000000206065C4F83890E587A587C4F8308051
:10321000E586A586206460642068006800F04000B0
:10322000402805D02068006840F040002168086010
:10323000E068B0F5006F4AD1606810B1BAF1010FD3
:1032400009D1206B00882168C860206B801C206336
:10325000E08E401EE08633E02068806800F00200C7
:10326000022810D1E08E70B1029801280BD1206B9A
:1032700000882168C860206B801C2063E08E401E9F
:10328000E086002002902068806800F0010068B1AC
:10329000E08F58B12068C068A16B0880A06B801CCB
:1032A000A063E08F401EE08701200290FEF7A4FE9D
:1032B000C01BB04204D3701C10B1032001906AE01F
:1032C000E08E0028C8D1E08F0028C5D14AE06068B0
:1032D00010B1BAF1010F09D1206B00782168087391
:1032E000206B401C2063E08E401EE08634E02068A6
:1032F000806800F00200022810D1E08E70B10298C0
:1033000001280BD1206B007821680873206B401CCA
:103310002063E08E401EE0860020029020688068D6
:1033200000F0010068B1E08F58B12068C068A16B5F
:103330000870A06B401CA063E08F401EE087012056
:103340000290FEF759FEC01BB04201D3701C00B9B9
:1033500016B9032001901EE0E08E0028C7D1E08F4F
:103360000028C4D13A463146204602F079FC20B10B
:1033700001200190202060650DE0A06850B900BFD9
:10338000002000902068C06800902068806800904D
:1033900000BF00BF00BF012084F8510000BF002023
:1033A00084F8500000BF0198FBE67047704710B5E5
:1033B0000346002200BF93F83C00012801D10220FF
:1033C00010BD012083F83C0000BF22F0FF00CC6854
:1033D00040EA040222F440708C6840EA040222F4BD
:1033E00080604C6840EA040222F400600C6840EA05
:1033F000040222F480500C6940EA040222F40050D6
:103400004C6940EA040222F48040CC6940EA04029C
:103410001868426400BF002083F83C0000BF00BF72
:10342000CEE7000030B502460B4600BF92F83C00E4
:10343000012801D1022030BD012082F83C0000BFEC
:10344000022082F83D00106844681068816824F00A
:1034500070041868044310684460184D1068A8424E
:103460001BD01068B0F1804F17D0154D1068A842DE
:1034700013D0144D1068A8420FD0134D1068A84205
:103480000BD0124D1068A84207D0114D1068A84209
:1034900003D0104D1068A84205D121F08001586872
:1034A000014310688160012082F83D0000BF0020C8
:1034B00082F83C0000BF00BFBDE7000000000140F3
:1034C0000004004000080040000C004000040140DF
:1034D000004001400018004010B504460CB901201E
:1034E00010BD94F83D0028B9002084F83C00204627
:1034F00000F026F8022084F83D00211D206802F02B
:103500000FFD012084F8460000BF84F83E00012131
:103510003F200155402001554120015500BF00BF0B
:10352000012084F8420043200155442001554520E4
:10353000015500BF012084F83D000020D0E70000C5
:1035400038B504461C492068884218D100BF0020C5
:1035500000901A48006840F00200184908600846C8
:10356000006800F00200009000BF00BF00220621AA
:103570001D20FFF799F81D20FFF786F81BE0104982
:103580002068884217D100BF002000900B480068D7
:1035900040F08000094908600846006800F080009B
:1035A000009000BF00BF002205212C20FFF77CF80F
:1035B0002C20FFF769F838BD000400404038024075
:1035C000001C0040014691F83D00012801D0012077
:1035D0007047022081F83D000868C06840F0010093
:1035E0000B68D8601A4B086898421BD00868B0F185
:1035F000804F17D0174B0868984213D0164B0868B5
:1036000098420FD0154B086898420BD0144B0868AD
:10361000984207D0134B0868984203D0124B0868B1
:1036200098420CD10868806800F00702062A0CD086
:103630000868006840F001000B68186005E0086841
:10364000006840F001000B6818600020C0E700002F
:10365000000001400004004000080040000C004051
:103660000004014000400140001800400146086885
:10367000C06820F001000A68D06000BF0868006AD6
:1036800041F21112104050B90868006A92101040BF
:1036900028B90868006820F001000A68106000BFBF
:1036A000012081F83D00002070472DE9F0410446DB
:1036B0000D46002700BF94F83C00012802D10220EB
:1036C000BDE8F081012084F83C0000BF022084F8AE
:1036D0003D002068866826F0770626F47F4620683D
:1036E00086602868502833D00CDC202850D004DCB9
:1036F00000284BD0102851D149E0302849D040282B
:103700004CD139E060282DD0702807D0B0F5805F0B
:1037100003D0B0F5005F41D10DE041E0D5E90213DF
:103720006A68206802F079FC2068866846F07706AF
:103730002068866034E0D5E902136A68206802F0E8
:103740006CFC2068806840F480402168886027E035
:10375000EA686968206802F051FD5021206802F093
:1037600067FC1DE0EA686968206802F05AFD602184
:10377000206802F05DFC13E0EA686968206802F0E6
:103780003DFD4021206802F053FC09E000BF00BF6E
:1037900000BF2968206802F04BFC01E0012700BF50
:1037A00000BF012084F83D0000BF002084F83C00E9
:1037B00000BF384684E72DE9F04104460D4614B9B0
:1037C0000120BDE8F08194F83D0028B9002084F87C
:1037D0003C00204600F054F8022084F83D002068A8
:1037E000806844F20701884321688860211D2068B1
:1037F00002F096FB2068D0F808802068866920686F
:10380000076A286840EA080840F203308643A9693D
:10381000A86840EA0120064340F60C4086434FF278
:10382000F0008643E969E86840EA01200643286918
:103830000001296A40EA0130064327F0220727F0F9
:1038400088076969686840EA011007432068C0F882
:1038500008802068866120680762012084F846009D
:1038600084F83E0001213F200155012084F84200E8
:1038700043200155012084F83D000020A1E700000D
:1038800010B586B00446142101A8FCF763FD20683A
:10389000B0F1804F37D100BF002000901B48006876
:1038A00040F00100194908600846006800F0010076
:1038B000009000BF00BF00BF0020009013481038E8
:1038C000006840F00100114910390860084600689E
:1038D00000F00100009000BF00BF03200190022013
:1038E000029001200390002004900120059001A97E
:1038F0000748FEF78BFA002205211C20FEF7D4FEB4
:103900001C20FEF7C1FE06B010BD0000403802408A
:1039100000000240704710B5044620680069C0F3FB
:103920004000D8B12068C068C0F34000B0B16FF06B
:10393000020021680861012020772068806900F07A
:10394000030018B12046FFF7E5FF05E0204600F030
:10395000DFF8204600F0CEF90020207720680069CB
:10396000C0F38000D8B12068C068C0F38000B0B157
:103970006FF00400216808610220207720688069C8
:1039800000F4407018B12046FFF7C4FF05E0204660
:1039900000F0BEF8204600F0ADF900202077206846
:1039A0000069C0F3C000D8B12068C068C0F3C0008F
:1039B000B0B16FF00800216808610420207720680A
:1039C000C06900F0030018B12046FFF7A3FF05E02F
:1039D000204600F09DF8204600F08CF9002020776A
:1039E00020680069C0F30010D8B12068C068C0F337
:1039F0000010B0B16FF01000216808610820207736
:103A00002068C06900F4407018B12046FFF782FFBB
:103A100005E0204600F07CF8204600F06BF900201D
:103A200020772068006900F0010058B12068C06864
:103A300000F0010030B16FF00100216808612046FC
:103A400000F088FA20680069C0F3C01058B12068FF
:103A5000C068C0F3C01030B16FF080002168086109
:103A60002046FFF7A2FC20680069C0F3801058B11F
:103A70002068C068C0F3801030B16FF0400021684A
:103A80000861204600F0BAFA20680069C0F34010CF
:103A900058B12068C068C0F3401030B16FF020000A
:103AA000216808612046FFF781FC10BD10B586B083
:103AB0000446142101A8FCF74DFC124920688842F5
:103AC0001DD100BF002000900F48006840F00400A6
:103AD0000D4908600846006800F00400009000BF2F
:103AE00000BF40200190022002900020039002209D
:103AF00004900320059001A90448FEF787F906B059
:103B000010BD0000000401403038024000080240AF
:103B100070472DE9F04104460D461646002700BFC8
:103B200094F83C00012802D10220BDE8F081012078
:103B300084F83C0000BF36B1042E1BD0082E31D0D3
:103B40000C2E5ED145E02946206802F07BFA206801
:103B5000806940F00800216888612068806920F051
:103B60000400216888612068806929690843216808
:103B7000886148E02946206802F09CFA2068806944
:103B800040F40060216888612068806920F48060CA
:103B90002168886120688069296940EA01202168DC
:103BA000886130E02946206802F0C2FA2068C069C6
:103BB00040F008002168C8612068C06920F0040056
:103BC0002168C8612068C069296908432168C86103
:103BD00019E02946206802F0E7FA2068C06940F43D
:103BE00000602168C8612068C06920F48060216895
:103BF000C8612068C069296940EA01202168C8615C
:103C000001E0012700BF00BF00BF002084F83C0096
:103C100000BF384689E710B504460CB9012010BD35
:103C200094F83D0028B9002084F83C00204600F0BC
:103C300025F8022084F83D00211D206802F070F96B
:103C4000012084F8460000BF84F83E0001213F2097
:103C50000155402001554120015500BF00BF012002
:103C600084F8420043200155442001554520015568
:103C700000BF012084F83D000020D0E738B504469D
:103C80001A49206888422FD100BF002000901848B0
:103C9000006840F00200164908600846006800F01D
:103CA0000200009000BF00BF002205212B20FEF77C
:103CB000FBFC2B20FEF7E8FC002205212C20FEF760
:103CC000F3FC2C20FEF7E0FC002205212D20FEF75E
:103CD000EBFC2D20FEF7D8FC002205212E20FEF75C
:103CE000E3FC2E20FEF7D0FC38BD000000040140AC
:103CF0004438024070470000F0B504460D460026E7
:103D000015B994F83E000BE0042D02D13F20005D70
:103D100006E0082D02D14020005D01E04120005D59
:103D2000012801D00120F0BD1DB9022084F83E0019
:103D30000EE0042D03D102213F20015508E0082D9B
:103D400003D102214020015502E00221412001550A
:103D500035B1042D0BD0082D10D00C2D1CD114E042
:103D60002068C06840F002002168C86016E0206842
:103D7000C06840F004002168C8600FE02068C06897
:103D800040F008002168C86008E02068C06840F082
:103D900010002168C86001E0012600BF00BFEEBB33
:103DA00001222946206802F027F924492068884228
:103DB00003D023492068884201D1012000E000207F
:103DC00028B12068406C40F40040216848641B49D9
:103DD000206888421BD02068B0F1804F17D0194965
:103DE0002068884213D01849206888420FD01749AC
:103DF000206888420BD012492068884207D01449B5
:103E00002068884203D01349206888420ED1206878
:103E1000806800F00707062F0ED000E00CE0206855
:103E2000006840F001002168086005E02068006833
:103E300040F0010021680860304674E7000001404E
:103E4000000401400004004000080040000C004055
:103E5000004001400018004070B504460D460026A1
:103E600035B1042D0BD0082D10D00C2D1CD114E031
:103E70002068C06820F002002168C86016E0206851
:103E8000C06820F004002168C8600FE02068C068A6
:103E900020F008002168C86008E02068C06820F0B1
:103EA00010002168C86001E0012600BF00BF002E9D
:103EB0004AD100222946206802F09EF82349206852
:103EC000884203D022492068884201D1012000E0C5
:103ED000002090B100BF2068006A41F21111084033
:103EE00050B92068006A8910084028B92068406CE1
:103EF00020F400402168486400BF00BF2068006AC9
:103F000041F21111084050B92068006A8910084038
:103F100028B92068006820F001002168086000BF0F
:103F20001DB9012084F83E000EE0042D03D10121CB
:103F30003F20015508E0082D03D101214020015503
:103F400002E0012141200155304670BD00000140D2
:103F50000004014010B504461F492068884202D180
:103F6000FEF7EEFA37E01D492068884223D1012090
:103F70001B49087080211B48FEF726F850B98021A4
:103F80001948FEF721F828B918480068401C17495D
:103F9000086020E080211348FEF716F801281AD1A6
:103FA00080211148FEF710F8A8B910480068401E9B
:103FB0000E4908600FE00E49206888420BD10D4879
:103FC0000078012807D1002204210748FEF70EF8E7
:103FD0000948FFF74BFB10BD000001400004014001
:103FE0002E000020000802400000024000000020D7
:103FF000001C0040510000206803002070477047FB
:10400000704700002DE9F84F0446206805682068D5
:10401000C668206847694FF00009CA4605F00F09D5
:10402000B9F1000F0AD105F0200038B106F02000E8
:1040300020B1204602F059F9BDE8F88FB9F1000F20
:104040007CD007F0010018B906F49070002875D0F4
:1040500005F0010030B106F4807018B1206C40F01A
:104060000100206405F0040030B107F0010018B130
:10407000206C40F00200206405F0020030B107F02F
:10408000010018B1206C40F00400206405F0080025
:1040900048B106F0200010B907F0010018B1206CFB
:1040A00040F008002064206C002846D005F0200075
:1040B00028B106F0200010B1204602F016F9206861
:1040C0004069C0F3801A206C00F0080010B9BAF102
:1040D000000F2DD0204602F0C2F82068406900F0A1
:1040E0004000402820D100BF00BF2168143151E8B2
:1040F000001F21F040002168143141E80002002A2D
:10410000F3D100BFA06B50B17548A16B0865A06BDF
:10411000FDF778FC88B1A06B016D88470DE0204663
:10412000FFF76EFF09E009E02046FFF769FF04E0B2
:104130002046FFF765FF002020647DE7206B012803
:1041400076D105F01000002872D006F0100000288B
:10415000FAD000BF0020009020680068009020681E
:104160004068009000BF00BF2068406900F0400038
:1041700040285ED1A06B006840681FFA80F8B8F153
:10418000000F54D0A08D404551DDA4F82E80A06BC7
:10419000C069B0F5807F43D000BF00BF21680C31FB
:1041A00051E8001F21F4807021680C3141E80002C1
:1041B000002AF3D100BF00BF00BF2168143151E8CD
:1041C000001F21F001002168143141E80002002A9B
:1041D000F3D100BF00BF00BF2168143151E8001FB8
:1041E00021F040002168143141E80002002AF3D197
:1041F00000BF202084F83E000020206300BF00BFE5
:1042000021680C3151E8001F21F0100021680C31A9
:1042100041E80002002AF3D100BFA06BFDF79CFB30
:10422000A08DE28D801A81B22046FFF7E8FE03E7F9
:1042300040E0A08DE18D401A1FFA80F8E08DC0B3F8
:10424000B8F1000F35D000BF00BF21680C3151E834
:10425000001F21F4907021680C3141E80002002A0F
:10426000F3D100BF00BF00BF2168143151E8001F27
:1042700021F001002168143141E80002002AF3D145
:1042800000BF202084F83E000020206300BF00BF54
:1042900021680C3151E8001F21F0100021680C3119
:1042A00041E80002002AF3D100BF41462046FFF753
:1042B000A6FEC1E605F0800030B106F0800018B11E
:1042C000204602F0CAF9B7E605F0400030B106F02A
:1042D000400018B1204601F0F8FFADE600BFABE6A4
:1042E0004B62000810B504460CB9012010BDA0694E
:1042F00000B100E000BF94F83D0028B9002084F828
:104300003C00204600F028F8242084F83D00206876
:10431000C06820F400502168C860204602F062F8AE
:104320002068006920F49040216808612068406995
:1043300020F02A00216848612068C06840F40050DD
:104340002168C86000202064202084F83D0084F8A3
:104350003E000020CAE7000010B586B004461421D4
:1043600001A8FBF7F7FF5E492068884276D100BFBD
:10437000002000905B48006840F010005949086038
:104380000846006800F01000009000BF00BF00BFAA
:104390000020009053481438006840F00100514953
:1043A000143908600846006800F00100009000BF62
:1043B00000BF4FF4C06001900220029000200390E3
:1043C000032004900720059001A94748FDF71EFD32
:1043D0004648474908604FF0006048600021444863
:1043E0008160C1604FF480610161002141618161A0
:1043F000C16101624162FDF73DFC08B1FDF762FA5F
:1044000000BF3B48A063846300BF38487830394917
:1044100008604FF00060486040213648816000210C
:10442000C1604FF480610161002141618161C1611E
:1044300001624162FDF71EFC08B1FDF743FA00BFBF
:104440002C486063846300BF002205212520FEF70D
:104450002BF92520FEF718F93FE0FFE726492068F1
:1044600088423AD100BF002000901E48001F00681B
:1044700040F480201B49091F08600846006800F4CA
:104480008020009000BF00BF00BF002000901548B2
:104490001438006840F004001249143908600846D6
:1044A000006800F00400009000BF00BF4FF44060BF
:1044B0000190022002900020039003200490072026
:1044C000059001A90D48FDF7A1FC00220521272038
:1044D000FEF7EAF82720FEF7D7F806B010BD000077
:1044E0000010014044380240000002404064024095
:1044F00038040020980400200048004000080240D2
:1045000070B504460D46164694F83E00202816D194
:1045100005B10EB9012070BD00BF94F83C00012820
:1045200001D10220F7E7012084F83C0000BF002001
:10453000206332462946204602F06AF8EBE7022063
:10454000E9E7000010B5044606492068884208D112
:104550000549087804F084FD012203490348FFF768
:10456000CFFF10BD0044004061010020F403002093
:104570002DE9F84F04460E46174699464FF0000ABB
:1045800094F83D0020285AD106B117B90120BDE8A2
:10459000F88F00BF94F83C00012801D10220F6E713
:1045A000012084F83C0000BF00202064212084F812
:1045B0003D00FDF721FD8246A784E784A068B0F5A1
:1045C000805F04D1206910B90025B04602E035466D
:1045D0004FF0000800BF002084F83C0000BF1BE043
:1045E0005346002280212046CDF8009002F065F865
:1045F00008B10320CBE745B9B8F80000C0F30800C4
:104600002168486008F1020803E0287821684860C2
:104610006D1CE08C401EE084E08C0028E0D1534605
:10462000002240212046CDF8009002F046F808B163
:104630000320ACE7202084F83D000020A7E70220FB
:10464000A5E7704700BFFEE710B50248FDF7DCFCA8
:1046500010BD0000E401002010B50248FDF73EFD4A
:1046600010BD0000E4010020C16AB1F52A0F02D19B
:104670000121C16205E0C16AB1F12A4F01D10821CF
:10468000C1627047F8B5054600200090AC6B94F805
:104690003D60394800681921B0FBF1F04FF47A71A0
:1046A000B0FBF1F0C0EBC00000EB8000009000BF59
:1046B000009820B9206C40F02000206409E00098A8
:1046C000401E00902068006800F40070B0F5007F84
:1046D000EED000BF606B10B10020616BC863A06BAF
:1046E00010B10020A16BC8632068006820F48060CE
:1046F0002168086000206085606B10B10020616B4C
:104700000865A06B10B10020A16B086520680068E7
:1047100020F001002168086094F83D0060280AD16B
:10472000202084F83D00002084F83E0020642046CC
:10473000FDF768FC1EE006F02800282811D120684B
:10474000006840F00100216808602068006840F4BB
:1047500080602168086000202063282084F83D00E4
:1047600005E0202084F83D00002084F83E0020462B
:10477000FDF7A1FDF8BD00009C0000202DE9F041EF
:10478000044694F83D6094F83E70102F01D0402FFD
:1047900007D1222E05D12068006820F4006021682E
:1047A000086006F02800282805D100202063282072
:1047B00084F83D0010E02068406800F40060B0F527
:1047C000006F07D0602E05D0202084F83D00002027
:1047D00084F83E00002020632068406800F40060F8
:1047E000B0F5006F40D12068406820F40060216877
:1047F0004860606B90F83500012814D04848616B20
:104800000865606BFDF7FEF800285BD02068006843
:1048100020F0010021680860202084F83D00606BD2
:10482000016D88474EE03E48A16B0865A06BFDF71F
:10483000E9F8002846D020684069C0F3801030B104
:1048400020680069616A0870606A401C60622068C4
:10485000006820F0010021680860202084F83D00F5
:10486000A06B016D88472DE094F83D0060281AD1B7
:10487000202084F83D000020206420684069C0F3B7
:10488000801030B120680069616A0870606A401C5D
:1048900060622068006820F00100216808602046FE
:1048A000FDF7B0FB0EE020684069C0F3801030B126
:1048B00020680069616A0870606A401C6062204676
:1048C000FDF7F9FC256C05F0010058B905F0020070
:1048D000022807D005F00400042803D005F00800E2
:1048E000082805D12068406820F4E060216848600D
:1048F00094F83D60206C00F0040004280ED1282EAE
:104900000CD10848E06200202063202084F83D009C
:10491000002084F83E002046FDF7B6FDBDE8F0819A
:10492000854600080000FFFF70B50446E56A608D0B
:10493000042810D12068406820F480602168486015
:1049400020680069616A0870606A401C6062608D5E
:10495000401E60857AE0608D03281AD12068406887
:1049600020F4806021684860042D07D0022D05D016
:104970002068006820F48060216808602068006971
:10498000616A0870606A401C6062608D401E6085CC
:104990005CE0608D02284FD1012D01D0102D06D191
:1049A0002068006820F480602168086012E0042D0F
:1049B00001D0022D06D12068006840F48060216893
:1049C000086007E0102D05D02068006840F40070F2
:1049D0002168086020680069616A0870606A401C8C
:1049E0006062608D401E608520680069616A0870A1
:1049F000606A401C6062608D401E6085206840686F
:104A000020F4407021684860202084F83D0094F82C
:104A10003E00402807D1002084F83E002063204655
:104A2000FDF735FD12E0002084F83E0012202063DF
:104A30002046FDF72AFD09E020680069616A0870D8
:104A4000606A401C6062608D401E608570BD70B5FC
:104A5000044694F83D00222870D1658D032D13D9AA
:104A600020680069616A0870606A401C6062608D3D
:104A7000401E6085608D03285FD12068406820F467
:104A800080602168486058E0E06A02284FD0012D1C
:104A900001D0002D4BD1204600F0B2FC68BB20684D
:104AA000006820F48060216808602068406820F475
:104AB000E0602168486020680069616A0870606A87
:104AC000401C6062608D401E6085202084F83D009F
:104AD00094F83E00402807D1002084F83E0020636F
:104AE0002046FDF7D4FC28E0002084F83E00122088
:104AF00020632046FDF7C9FC1FE02068406820F4D1
:104B0000E0602168486020680069616A0870606A36
:104B1000401C6062608D401E6085202084F83D004E
:104B2000002084F83E002046FDF7C5FB05E0206824
:104B3000406820F480602168486000BF70BD70B597
:104B40000446E56A94F83D00212847D1608D50B1B4
:104B5000606A007821680861606A401C6062608D4C
:104B6000401E60853AE0082D16D0202D14D015F592
:104B7000803F11D02068406820F4E06021684860E0
:104B800011202063002084F83E00202084F83D009E
:104B90002046FDF77BFC21E02068406820F4E060BF
:104BA000216848602068006840F40070216808604F
:104BB00000202063202084F83D0094F83E00402827
:104BC00006D1002084F83E002046FDF761FC05E098
:104BD000002084F83E002046FDF758FC70BD2DE90A
:104BE000F041044694F83D5094F83E70E66A208DFA
:104BF000B0BB212D3CD1082E16D0202E14D016F596
:104C0000803F11D02068406820F4E060216848604F
:104C100011202063002084F83E00202084F83D000D
:104C20002046FDF733FC44E02068406820F4E06053
:104C3000216848602068006840F4007021680860BE
:104C400000202063202084F83D0094F83E00402896
:104C500007D1002084F83E002046FDF719FC28E02B
:104C600006E0002084F83E002046FDF70FFC20E01F
:104C7000212D03D0402F1CD1222D1AD1608D30B9A7
:104C80002068406820F480602168486011E094F852
:104C90003E00402803D1204600F0A5F909E0606AF3
:104CA000007821680861606A401C6062608D401E67
:104CB0006085BDE8F081416CC9B202681161416B49
:104CC00011B1416BC96B21B9816B41B1816BC96B6A
:104CD00029B10168496841F4006102685160704778
:104CE00038B590F83E20C16A036B90F83D40222C05
:104CF00073D1046D64B9402A0AD100BF0024009426
:104D00000468646900940468A469009400BF1AE10F
:104D1000046DC4B90469B4F5404F14D100BF002438
:104D200000940468646900940468A469009400BF56
:104D300000BF0468246844F4807405682C60046D26
:104D4000641C0465FFE0448D8CB900BF002400940E
:104D50000468646900940468A469009400BF00BFFB
:104D60000468246844F4007405682C60DDE0448D18
:104D7000012C72D111F5803F30D10468246824F4ED
:104D8000806405682C600468646804F40064B4F509
:104D9000006F10D10468246824F4806405682C60D6
:104DA00000BF002400940468646900940468A46946
:104DB000009400BFB9E000BF002400940468646957
:104DC00000940468A469009400BF00BF04682468CC
:104DD00044F4007405682C60A7E0A9E0082923D0FA
:104DE000202921D0122B01D101291DD104290AD05B
:104DF000022908D0102906D00468246824F48064AD
:104E000005682C6005E00468246844F48064056843
:104E10002C6000BF00240094046864690094046856
:104E2000A469009400BF80E00468246824F48064CE
:104E300005682C6000BF0024009404686469009435
:104E40000468A469009400BF00BF0468246844F4A7
:104E5000007405682C6068E0FFE7448D022C3BD1AC
:104E6000042910D002290ED010290CD0046824681F
:104E700024F4806405682C600468246844F40064A9
:104E800005682C6005E00468246844F480640568C3
:104E90002C600468646804F40064B4F5006F10D1F9
:104EA00011F5803F07D0012905D0082903D010292A
:104EB00001D0202905D10468646844F48054056851
:104EC0006C6000BF00240094046864690094046866
:104ED000A469009400BF28E00468246844F4806456
:104EE00005682C600468646804F40064B4F5006F1D
:104EF00010D111F5803F07D0012905D0082903D032
:104F0000102901D0202905D10468646844F4805434
:104F100005686C6000BF0024009404686469009414
:104F20000468A469009400BF00BF002404650AE07F
:104F300000BF002400940468646900940468A469B4
:104F4000009400BF00BF38BD90F83E1040290ED13C
:104F5000016D29B9416C01F0FE010268116141E067
:104F6000416CC9B241F00101026811613AE0016986
:104F7000B1F5804F20D190F83D10212905D1416C29
:104F800001F0FE010268116105E0416CC9B241F017
:104F9000010102681161416B11B1416BC96B21B90B
:104FA000816BF9B1816BC96BE1B10168496841F46A
:104FB00000610268516015E0016D41B9416C01F476
:104FC0004071F02242EAE111026811610AE0016DCC
:104FD000012907D1416C01F44071F12242EAE1114B
:104FE00002681161704770B5044694F83D50206D19
:104FF00098B9E06C012807D1A06CC0B221680861A3
:10500000206D801C20654CE0A06CC0F30720216857
:105010000861206D401C206543E0206D012807D108
:10502000A06CC0B221680861206D401C206538E08A
:10503000206D022835D1222D09D12068006840F466
:10504000807021680860206D401C206529E0608D1B
:1050500060B1212D0AD1606A007821680861606A18
:10506000401C6062608D401E60851AE0608DC0B992
:10507000212D16D12068406820F4E0602168486046
:105080002068006840F400702168086000202063F8
:10509000202084F83D00002084F83E002046FDF7E3
:1050A000F7F970BD418D49B101680969426A117013
:1050B000416A491C4162418D491E4185704770B566
:1050C000044694F83D50608DD8B120680069616A4B
:1050D0000870606A401C6062608D401E6085608D53
:1050E00078B92A2D0DD12068406820F480602168AD
:1050F000486022202063282084F83D002046FDF7E8
:105100001DFA70BD418D49B1416A0978026811618B
:10511000416A491C4162418D491E4185704770B505
:10512000044694F83D50608DD8B1606A00782168DB
:105130000861606A401C6062608D401E6085608D01
:1051400078B9292D0DD12068406820F4806021684D
:10515000486021202063282084F83D002046FDF788
:10516000EEF970BDF8B504460D46002794F83D00F1
:1051700000F0280028281CD12068406820F48060B6
:1051800021684860C5F3800000B90127C5F3C0104D
:1051900010B9A08986B201E0208B86B200BF002042
:1051A00084F83C0000BF324639462046FCF72BFF0E
:1051B0000FE000BF00200090206840690090206848
:1051C0008069009000BF00BF00BF002084F83C0051
:1051D00000BFF8BD70B5044694F83D50E66A082E4D
:1051E00001D0202E1FD1282D1DD12148E06220683A
:1051F000406820F4E060216848606FF480602168B6
:1052000048612068006820F4806021680860002000
:105210002063202084F83D00002084F83E002046D2
:10522000FDF732F923E0212D1DD11148E062212044
:105230002063202084F83D00002084F83E00206890
:10524000406820F4E060216848606FF48060216865
:1052500048612068006820F480602168086020466A
:10526000FDF76DF903E06FF480602168486170BD5F
:105270000000FFFF38B5044694F83D5020684068B0
:1052800020F4E0602168486000BF002000902068A2
:10529000406900902068006840F0010021680860C3
:1052A00000BF00BF2068006820F4806021680860AB
:1052B0002068406800F40060B0F5006F42D1222DF4
:1052C00001D02A2D1FD1A06B006840686085608DD9
:1052D00018B1206C40F0040020642068406820F47D
:1052E000006021684860A06BFCF7A0FB012829D072
:1052F0004148A16B0865A06BFCF784FB10B3A06B61
:10530000016D88471EE0606B006840686085608DB5
:1053100018B1206C40F0040020642068406820F43C
:10532000006021684860606BFCF780FB012809D0B1
:105330003148616B0865606BFCF764FB10B1606B12
:10534000016D8847608D18B320684069C0F3800004
:1053500048B120680069616A0870606A401C606238
:10536000608D401E608520684069C0F3801048B1A0
:1053700020680069616A0870606A401C6062608D24
:10538000401E6085608D18B1206C40F004002064E0
:10539000206C18B12046FFF7F1F92BE02A2D07D138
:1053A00000202063282084F83D002046FDF7C6F841
:1053B00094F83D0028280DD11048E06200202063B9
:1053C000202084F83D00002084F83E002046FDF7B0
:1053D0005BF80FE0206B222801D0222D0AD100209B
:1053E0002063202084F83D00002084F83E00204601
:1053F000FDF7A4F838BD0000854600080000FFFF57
:1054000008B5014600200090104800681922B0FB42
:10541000F2F04FF47A72B0FBF2F000EB80000090F3
:1054200000BF0098401E0090009828B9086C40F01A
:1054300020000864012008BD0868006800F40070BE
:10544000B0F5007FEDD00020F5E700009C000020C3
:1054500008B500BF002000900E48006840F48000AE
:105460000C4908600846006800F48000009000BF06
:1054700000BF002205213A20FDF716F93A20FDF77A
:1054800003F9002205214620FDF70EF94620FDF71D
:10549000FBF808BD3038024010B53E4A0121052016
:1054A00001F0E6FE3C4908603C4A00213C4801F01E
:1054B0006FFF3C4908603C4A00213C4801F068FF0E
:1054C0003B4908603B4A00213B4801F061FF3B49F2
:1054D00008603B4A00213B4801F05AFF3A49086006
:1054E0003A4A00213A4801F053FF3A4908603A4AE3
:1054F00000213A4801F04CFF39490860394A00213F
:10550000394801F045FF39490860394A00213948D6
:1055100001F03EFF38490860384A0021384801F060
:1055200037FF38490860384A1421052001F0A0FEF1
:1055300036490860364A1421052001F099FE3549A4
:105540000860354A0321052001F092FE33490860C6
:1055500004213348FCF738FD90B99FED320A3248F8
:1055600080ED000A0120314908703149087000209F
:1055700030490860002280212948FCF737FD08E007
:105580006FF07F402B4908609FED2B0A264880ED85
:10559000000A10BD849F0008640000203C9F0008A2
:1055A000A55D00085C000020609F0008B15D000858
:1055B000600000209C9F0008CD18000868000020B3
:1055C000C09F0008D91600086C000020E49F000866
:1055D000450500087000002008A00008A15A000836
:1055E000740000202CA00008895B000878000020CF
:1055F00050A000081D1900087C00002074A00008BD
:105600006D6700088000002098A00008840000203A
:10561000B0A0000888000020C8A000088C0000206E
:1056200000080240000000001C0000202A000020AA
:105630002F000020000000200060BB4400B587B0B0
:10564000142102A8FAF786FE00BF002001905F48EF
:10565000006840F080005D4908600846006800F07E
:105660008000019000BF00BF00BF002001900846ED
:10567000006840F0040008600846006800F004007C
:10568000019000BF00BF00BF0020019008460068E5
:1056900040F0010008600846006800F00100019039
:1056A00000BF00BF00BF002001900846006840F026
:1056B000020008600846006800F00200019000BF88
:1056C00000BF002292214248FCF790FC00224FF4D8
:1056D000C2714048FCF78AFC002241F207413E4873
:1056E000FCF784FC0D2002904FF40410039000207E
:1056F000049002A93648FCF789FB82200290012021
:10570000039004900020059002A93148FCF77EFB2D
:105710008420029001200390022004900020059034
:1057200002A92C48FCF772FB102002900120039084
:1057300000200490059002A92548FCF767FB202073
:10574000029000200390049002A92148FCF75EFB20
:1057500041F2014002900120039004900020059046
:1057600002A91D48FCF752FB06200290012003907D
:1057700000200490059002A91748FCF747FB4FF45E
:10578000807002900120039000200490059002A9EF
:105790001048FCF73BFB002205210620FCF784FFA4
:1057A0000620FCF771FF002205210820FCF77CFF92
:1057B0000820FCF769FF002205210920FCF774FF8F
:1057C0000920FCF761FF07B000BD0000303802403F
:1057D00000080240000002400004024010B50B48DF
:1057E0000B4908600B484860002109488160C1608E
:1057F0004FF480410161002141618161C161016219
:10580000FCF75AFD08B1FCF75DF810BD00540040EC
:10581000E4010020801A060010B50F480F49086007
:105820004FF48270486000210C488160C160022101
:10583000016101214161490281610821C1610021A9
:105840000162416281620A21C162FDF7E9FB08B190
:10585000FCF738F810BD0000003800403802002086
:1058600010B50948094908606320486000210748CD
:1058700081603121C160002101618161FDF72CFE51
:1058800008B1FCF71FF810BD001C004068030020A1
:1058900000B58BB0242102A8FAF75CFD002000902F
:1058A00001904FF0804019490860002048600021B5
:1058B0001648816044F62061C16000210161816168
:1058C0000320029000200390012004900020059006
:1058D00006200690002007900120089000200990E3
:1058E00006200A9002A90948FDF765FF08B1FBF7F9
:1058F000E9FF00200090019069460448FDF792FD01
:1059000008B1FBF7DFFF0BB000BD000090020020E4
:1059100000B587B000200390049005900690019098
:10592000029014481449086063204860002112481E
:1059300081606321C1600021016180218161FDF7E7
:10594000CBFD08B1FBF7BEFF4FF48050039003A9D5
:105950000948FDF7AAFE08B1FBF7B4FF002001904B
:10596000029001A90448FDF75DFD08B1FBF7AAFF0D
:1059700007B000BD00040040D802002000B591B07F
:1059800000200F9010901C2108A8FAF7E3FC2021BA
:105990006846FAF7DFFC2348234908606320486023
:1059A0000021214881606321C160002101614161C2
:1059B0008161FEF730F908B1FBF784FF00200F90FA
:1059C00010900FA91848FDF72DFD08B1FBF77AFFDD
:1059D000602008903220099000200A900B900C90D3
:1059E0000D900E90002208A90F48FEF792F808B11A
:1059F000FBF768FF00200090019002900390049054
:105A00004FF4005005900020079069460648FDF7C6
:105A1000CEFC08B1FBF756FF0348FEF747F811B07C
:105A200000BD0000000401402003002010B50B4819
:105A30000B4908604FF4E13048600021084881605C
:105A4000C16001610C21416100218161C161FEF7EA
:105A500049FC08B1FBF736FF10BD00000010014003
:105A6000B003002010B50B480B4908604FF4E1303B
:105A70004860002108488160C16001610C214161DA
:105A800000218161C161FEF72DFC08B1FBF71AFF0F
:105A900010BD000000480040F403002000BFFEE7F6
:105AA00008B5002642F2107400BF0A23002269469E
:105AB0002F48006801F09CFBC6B2002E54D12D483F
:105AC0000078012850D19DF802009DF8011040EAAD
:105AD0000125002280212848FCF788FA012001F0E6
