:020000040800F2
:10000000585400209D0200084D5D000891470008EB
:10001000615C00083F040008956A000800000000C9
:10002000000000000000000000000000DD010008EA
:10003000430500080000000039020008955F000831
:10004000B7020008B7020008B7020008B7020008AC
:10005000B7020008B70200088D170008B7020008B1
:1000600097170008A1170008B7020008B702000898
:10007000B7020008B7020008B7020008B70200087C
:10008000B7020008B7020008B7020008B70200086C
:10009000B7020008B7020008B7020008B70200085C
:1000A000B702000879600008B7020008B70200082C
:1000B0008960000899600008B7020008A547000899
:1000C00095470008B7020008B7020008B702000809
:1000D000E55D00081D690008B70200082D690008E9
:1000E000B7020008B7020008B7020008A9600008BC
:1000F000D9600008C9600008B9600008B7020008AC
:1001000000000000B7020008B7020008B7020008AC
:100110000000000000000000B7020008B70200085D
:10012000B7020008B702000845040008B70200083B
:10013000B7020008B7020008B7020008B7020008BB
:10014000B7020008B7020008B7020008B7020008AB
:10015000B7020008B702000855040008B7020008FB
:10016000B7020008B702000800000000000000000D
:10017000000000000000000000000000000000007F
:10018000B7020008B70200080000000000000000ED
:10019000B7020008B70200080000000000000000DD
:1001A000000000000000000000000000000000004F
:1001B000B70200080000000000000000B7020008BD
:1001C000B7020008DFF810D000F0FCF80048004744
:1001D000E3710008AFF30080585400202C4B1968DD
:1001E0000868B0E8F04F80F30988BFF36F8F4FF0D5
:1001F000000080F311887047000000000848006884
:10020000006880F308884FF0000080F3148862B61D
:1002100061B6BFF34F8FBFF36F8F00DF00BF00BF2A
:1002200008ED00E0DFF80C00016841F470010160A6
:10023000704700BF88ED00E0EFF30980BFF36F8FD8
:10024000134B1A681EF0100F08BF20ED108A20E92A
:10025000F04F106009B44FF0500080F31188BFF3E5
:100260004F8FBFF36F8F08F085FC4FF0000080F3D5
:10027000118809BC19680868B0E8F04F1EF0100F2B
:1002800008BFB0EC108A80F30988BFF36F8F704706
:10029000A8000020EFF30580704700000648804763
:1002A00006480047FEE7FEE7FEE7FEE7FEE7FEE75B
:1002B000FEE7FEE7FEE7FEE765600008C50100080F
:1002C0002DE9F05F0546002092469B46884606468B
:1002D000814640241BE0284641464746224600F01E
:1002E00061F853465A46C01A914110D31146184638
:1002F000224600F048F82D1A67EB01084F462246C7
:100300000120002100F03FF817EB00094E41201EAC
:10031000A4F10104DFDC484631462A464346BDE8E5
:10032000F09F40EA01039B0703D009E008C9121FB0
:1003300008C0042AFAD203E011F8013B00F8013B9F
:10034000521EF9D27047D2B201E000F8012B491ECB
:10035000FBD270470022F6E710B513460A46044662
:100360001946FFF7F0FF204610BD10B5002200E04F
:10037000521C835C8C5CA34201D1002BF8D1D8B213
:10038000E1B2401A10BD202A04DB203A00FA02F143
:10039000002070479140C2F1200320FA03F3194373
:1003A00090407047202A04DB203A21FA02F0002115
:1003B000704721FA02F3D040C2F120029140084375
:1003C00019467047064C074D06E0E06840F001030F
:1003D00094E8070098471034AC42F6D3FFF7F6FED6
:1003E00008A4000828A4000870B58C1810F8015B58
:1003F00015F0070301D110F8013B2A1106D110F8BE
:10040000012B03E010F8016B01F8016B5B1EF9D1C1
:100410002B0705D40023521E0DD401F8013BFAE747
:1004200010F8013BCB1A921C03E013F8015B01F8B2
:10043000015B521EF9D5A142D8D3002070BD00BF88
:10044000FEE7000010B5024801F064FB10BD00009B
:100450004C04002010B5024801F05CFB10BD000008
:10046000AC0400200146087810381823B0FBF3F2E2
:100470000848805CC865032A05D908686FF309003D
:10048000001D886503E008686FF309008865886DC2
:1004900070470000E2A20008014600208A6A8B69CA
:1004A000CBB932B1012A0DD0022A03D0032A10D1D0
:1004B0000EE000BFCB6A03F08073B3F1807F00D100
:1004C000012007E0CB6AB3F1C07F00D1012001E039
:1004D00000E000BF34E08B69B3F5005F1AD132B1A0
:1004E000012A07D0022A03D0032A11D10AE000BF53
:1004F00001200EE0CB6A03F08073B3F1807F00D15E
:10050000012006E0CB6AB3F1C07F00D1012000E0FA
:1005100000BF15E032B1012A05D0022A04D0032A17
:100520000CD103E000BF00BF012008E0CB6A03F05C
:100530008073B3F1807F00D1012000E000BF00BFD5
:10054000704770478AB000274FF4FA6500260024F0
:1005500000BF012006F0E0FE0A23002201A9FA48AC
:10056000006806F02FFFC7B2002FF2D10020F74934
:1005700008709DF804008DF818009DF805008DF8AE
:10058000190000208DF81A008DF81B009DF80A0054
:100590008DF81E009DF80B008DF81F009DF80B00D4
:1005A000052871D007DC01280AD002286DD0032865
:1005B00041F0D38068E1062868D01028F8D1D2E352
:1005C0009DF80C00202875D19DF80D00052861D0FC
:1005D00006DC05286FD2DFE800F0822E5A5B5C0053
:1005E000062869D0092868D00A2802D0642862D178
:1005F00000E0C7E000208DF81C0005208DF81D00EC
:1006000001208DF82000D2480078012802D18DF811
:10061000210005E0CE48007810B900208DF82100B7
:100620000A2206A9012007F0B3FE002006900790D9
:1006300008900990A6E000208DF81C0005208DF898
:100640001D0001208DF82000C1480078012806D146
:10065000C048007818B901208DF8210009E0BC4895
:10066000007830B9BB480078012802D100208DF80D
:1006700021000A2206A9012007F08AFE0020069028
:100680000790089009907DE056E37DE0FEE379E075
:1006900078E077E000208DF81C0005208DF81D0023
:1006A00001208DF82000AA480078012806D18DF895
:1006B000210009E067E064E02FE04FE0A448007803
:1006C00010B900208DF821000A2206A9012007F0A8
:1006D0005FFE0020069007900890099052E00020ED
:1006E0008DF81C0005208DF81D0001208DF82000DC
:1006F00099480078012802D18DF8210002E00020FD
:100700008DF821000A2206A9012007F041FE0020F1
:10071000069007900890099034E000208DF81C00A6
:1007200005208DF81D0001208DF8200089480078F3
:10073000012802D18DF8210005E08648007810B923
:1007400000208DF821000A2206A9012007F020FED2
:100750000020069007900890099013E000208DF883
:100760001C0006208DF81D0001208DF820000A22B3
:1007700006A907F00DFE002006900790089009904A
:1007800000E000BF00BFEFE300208DF81C00042054
:100790008DF81D0001208DF820009DF80C0018BB7D
:1007A0009DF80D0001281FD101216C4801F07CFC4F
:1007B00060B901208DF821000A2206A907F0E8FDA2
:1007C000002006900790089009905CE000208DF8CA
:1007D00021000A2206A9012007F0DAFD0020069078
:1007E0000790089009904EE09DF80C0018BB9DF80A
:1007F0000D0003281FD10821584801F055FC60B9AD
:1008000001208DF821000A2206A907F0C1FD002071
:10081000069007900890099035E000208DF821009F
:100820000A2206A9012007F0B3FD002006900790D8
:100830000890099027E09DF80C0018BB9DF80D006A
:1008400004281FD10421454801F02EFC60B9012085
:100850008DF821000A2206A907F09AFD00200690D3
:100860000790089009900EE000208DF821000A22E0
:1008700006A9012007F08CFD002006900790089043
:10088000099000E000BF7EE79DF80F009DF80E1074
:1008900040EA01204FF6FF7101EA400400208DF884
:1008A0001C00E01CC0B28DF81D009DF80C00012852
:1008B00073D1022C72D19DF80D004A2812D1E0B2FA
:1008C0008DF8200000208DF821008DF822000B22E9
:1008D00006A9012007F05CFD002006900790089013
:1008E000099028E29DF80D004E2812D1E0B28DF853
:1008F000200000208DF821008DF822000B2206A98F
:10090000012007F045FD002006900790089009900F
:1009100011E29DF80D00B0B9E0B28DF8200010484A
:100920000088000A8DF821000D4800788DF822001B
:100930000B2206A9012007F02BFD0020069007904E
:1009400008900990F7E10DE08C0000205C00002089
:100950002B0000202A000020500000200008024048
:10096000200000209DF80D00302818D1E0B28DF84D
:100970002000FD480088000A8DF82100FA48007820
:100980008DF822000B2206A9012007F001FD0020AE
:100990000690079008900990CDE191E044E09DF821
:1009A0000D00322812D1E0B28DF8200000208DF821
:1009B00021008DF822000B2206A9012007F0E8FC97
:1009C00000200690079008900990B4E19DF80D0072
:1009D000772886D1E0B28DF82000E448007801281D
:1009E0000FD100208DF8210001208DF822000B226C
:1009F00006A907F0CDFC002006900790089009900A
:100A000099E1DA48007800289CD18DF821008DF812
:100A100022000B2206A9012007F0BAFC0020069054
:100A200007900890099086E1042C8BD19DF80D0069
:100A30002C2820D1E0B28DF82000CD480068000EAF
:100A40008DF82300CA480068000C8DF82400C848BF
:100A50000088000A8DF82100C54800788DF8220032
:100A60000D2206A9012007F093FC002006900790B4
:100A7000089009905FE19DF80D002E288CD1E0B21E
:100A80008DF82000BB480068000E8DF82300B9489F
:100A90000068000C8DF82400B6480088000A8DF824
:100AA0002100B44800788DF822000D2206A901200B
:100AB00007F06EFC002006900790089009903AE13C
:100AC0009DF80C0000289BD1022C2DD19DF80D0023
:100AD000202812D1E0B28DF8200000208DF82100EE
:100AE0008DF822000B2206A9012007F051FC0020FE
:100AF00006900790089009901DE19DF80D0096283A
:100B000091D1E0B28DF8200000208DF821008DF801
:100B100022000B2206A9012007F03AFC00200690D3
:100B200007900890099006E1042CA3D19DF80D00D0
:100B3000642820D1E0B28DF820008F480068000EB4
:100B40008DF823008C480068000C8DF824008A483A
:100B50000088000A8DF82100874800788DF822006F
:100B60000D2206A9012007F013FC00200690079033
:100B700008900990DFE09DF80D00682819D1E0B2D7
:100B80008DF82000300E8DF82300300C8DF82400F5
:100B9000300A8DF82100F0B28DF822000D2206A94E
:100BA000012007F0F5FB00200690079008900990BF
:100BB000C1E09DF80D00782819D1E0B28DF8200031
:100BC000280E8DF82300280C8DF82400280A8DF8B3
:100BD0002100E8B28DF822000D2206A9012007F0BD
:100BE000D7FB00200690079008900990A3E09DF89D
:100BF0000D007A2816D1E0B28DF8200000208DF883
:100C000023008DF824008DF821008DF822000D229C
:100C100006A9012007F0BCFB002006900790089071
:100C2000099088E09DF80D007C2820D1E0B28DF875
:100C3000200052480068000E8DF823004F480068DD
:100C4000000C8DF824004D480088000A8DF8210022
:100C50004A4800788DF822000D2206A9012007F0ED
:100C600097FB0020069007900890099063E09DF89C
:100C70000D007E2816D1E0B28DF8200000208DF8FE
:100C800021008DF822008DF823008DF824000D221C
:100C900006A9012007F07CFB002006900790089031
:100CA000099048E09DF80D00802820D1E0B28DF831
:100CB000200033480068000E8DF82300304800689B
:100CC000000C8DF824002E480088000A8DF82100C1
:100CD0002B4800788DF822000D2206A9012007F08C
:100CE00057FB0020069007900890099023E09DF89C
:100CF0000D0087281FD1E0B28DF820002148006840
:100D0000000E8DF823001F480068000C8DF82400A9
:100D10001C480088000A8DF821001A4800788DF8D8
:100D200022000D2206A9012007F032FB00200690C8
:100D300007900890099026E500208DF81C000620F9
:100D40008DF81D009DF80C008DF820009DF80D0019
:100D50008DF821009DF80C00202867D19DF80D002A
:100D6000152874D210E0BCE3420000202F000020C0
:100D70004C00002048000020240000203800002003
:100D80003C00002020000020DFE800F0F70BB3F665
:100D9000F5F4F3F261F16161616161F061616161DA
:100DA000EF009DF80E00FF2871D1FE480078E0BBEF
:100DB000FD480078C8BBFF208DF8220000208DF888
:100DC00023000C2206A9012007F0E2FA0020069079
:100DD000079008900990F5490870F54908700120BE
:100DE000F14908700020F3490860F34890ED000ACB
:100DF000B5EEC00AF1EE10FA2AD800208DF80000F6
:100E0000EE4800684FF47A7148436421B0FBF1F07A
:100E1000EB49B1FBF0F0000A8DF80100E7480068EB
:100E20004FF47A714843642101E042E0EEE2B0FB06
:100E3000F1F0E349B1FBF0F0C0B28DF802000023FD
:100E400001226946DF48006806F04AFB50E0DBE219
:100E5000D94890ED000AB5EEC00AF1EE10FA47DD70
:100E600001208DF80000D54800684FF47A7148439E
:100E70006421B0FBF1F0D249B1FBF0F0000A8DF82B
:100E80000100CE4800684FF47A7101E0BFE211E042
:100E900048436421B0FBF1F0C949B1FBF0F0C0B2A6
:100EA0008DF80200002301226946C648006806F05A
:100EB00017FB1DE09DF80E00D0B900208DF8220030
:100EC0008DF823000C2206A9012007F061FA00200A
:100ED00006900790089009900021BB4803F062F843
:100EE00001228021B94801F0F1F80020AE490870D4
:100EF0008BE29DF80E00FF2840D18DF822000020E3
:100F00008DF823000C2206A9012007F041FA0020E9
:100F100006900790089009900120A34908700020CE
:100F2000A04908708DF800004FF47A70684364217E
:100F3000B0FBF1F0A249B1FBF0F0000A8DF801001E
:100F40004FF47A7068436421B0FBF1F09C49B1FB27
:100F5000F0F0C0B28DF802000023012269469948E2
:100F6000006806F0BDFA24E050E291E132E217E2B7
:100F7000FCE1D4E1D1E075E01CE0B0E100208DF8A7
:100F800022008DF823000C2206A9012007F000FAA8
:100F90000020069007900890099000218A4803F0ED
:100FA00001F801228021894801F090F800207E4953
:100FB00008702AE29DF80E00FF2837D18DF8220034
:100FC00000208DF823000C2206A9012007F0E0F98B
:100FD000002006900790089009900120724908703F
:100FE00000207049087001208DF800004FF47A70DD
:100FF00068436421B0FBF1F07149B1FBF0F0000AE5
:101000008DF801004FF47A7068436421B0FBF1F071
:101010006B49B1FBF0F0C0B28DF802000023012251
:1010200069466848006806F05BFA1AE000208DF80F
:1010300022008DF823000C2206A9012007F0A8F950
:101040000020069007900890099000215E4802F069
:10105000A9FF012280215D4801F038F800205249A3
:101060000870D2E19DF80E00FF283AD18DF82200D9
:1010700000208DF823000C2206A9012007F088F932
:10108000002006900790089009904748007838BBE8
:1010900000204449087001204349087000208DF861
:1010A00000004FF47A7068436421B0FBF1F04449CA
:1010B000B1FBF0F0000A8DF801004FF47A7068433C
:1010C0006421B0FBF1F03E49B1FBF0F0C0B28DF805
:1010D00002000023012269463A48006806F000FA3F
:1010E0001AE000208DF822008DF823000C2206A9BA
:1010F000012007F04DF90020069007900890099014
:101100000021314802F04EFF012280212F4800F0DB
:10111000DDFF00202449087077E19DF80E00FF28CC
:101120007DD18DF8220000208DF823000C2206A925
:10113000012007F02DF900200690079008900990F3
:101140001948007860BB1948007848BB20480068FF
:1011500000EB800017490968B1EB400F07D816482B
:1011600090ED000AB5EEC00AF1EE10FA3DD2002073
:101170008DF800004FF47A7068436421B0FBF1F001
:101180000F49B1FBF0F0000A8DF801004FF47A70BE
:1011900068436421B0FBF1F00949B1FBF0F019E0BC
:1011A00075E000002A0000202B0000202C00002009
:1011B0002F000020380000201C0000202400002008
:1011C00080F0FA0294000020340300200000024066
:1011D00020000020C0B28DF80200002301226946E1
:1011E000F948006806F07CF92FE0F848006800EB49
:1011F0008000F7490968B1EB400F26D2F548007826
:1012000018BB01208DF800004FF47A706843642108
:10121000B0FBF1F0F049B1FBF0F0000A00E01BE098
:101220008DF801004FF47A7068436421B0FBF1F04F
:10123000E949B1FBF0F0C0B28DF8020000230122B1
:101240006946E148006806F04BF90020E149087062
:101250000120E24908701AE000208DF822008DF884
:1012600023000C2206A9012007F092F80020069026
:101270000790089009900021D94802F093FE0122BE
:101280008021D84800F022FF0020D4490870BCE03B
:101290009DF80E00FF2812D10021D14802F082FEF5
:1012A00001228021CF4800F011FF0020CB490870B7
:1012B000FF208DF8220000208DF8230004E000209C
:1012C0008DF822008DF823000C2206A9012007F0DA
:1012D0005FF80020069007900890099095E09DF82F
:1012E0000E00FF2809D10120BF490870FF208DF8AA
:1012F000220000208DF8230006E00020BA49087083
:101300008DF822008DF823000C2206A9012007F099
:101310003FF80020069007900890099075E09DF82E
:101320000E00FF280FD18DF8220000208DF8230039
:101330000C2206A9012007F02BF800200690079048
:101340000890099011E09DF80E0070B900208DF80A
:1013500022008DF823000C2206A9012007F018F8BE
:10136000002006900790089009904EE09DF80E002E
:10137000FF2805D18DF8220000208DF8230004E01D
:1013800000208DF822008DF823000C2206A90120F0
:1013900006F0FEFF0020069007900890099034E0C8
:1013A0009DF80E00FF2805D18DF8220000208DF851
:1013B000230004E000208DF822008DF823000C2289
:1013C00006A9012006F0E4FF00200690079008908F
:1013D00009901AE09DF80E00FF2805D18DF8220033
:1013E00000208DF8230004E000208DF822008DF805
:1013F00023000C2206A9012006F0CAFF0020069057
:1014000007900890099000E000BF00BFA6E100200F
:101410008DF81C0006208DF81D009DF80C008DF83D
:1014200020009DF80D008DF821009DF80E008DF82C
:1014300022009DF80F008DF823009DF80C00012874
:101440004ED19DF80D004A280AD10C2206A9012090
:1014500006F09EFF002006900790089009903FE05C
:101460009DF80D004E280AD10C2206A9012006F095
:101470008FFF0020069007900890099030E09DF8BB
:101480000D00B8B99DF80E0010B99DF80F0018B105
:1014900001205649087002E00020544908700C22CF
:1014A00006A9012006F074FF00200690079008901E
:1014B000099015E09DF80D00302811D19DF80F001E
:1014C0009DF80E1040EA0120494908800C2206A927
:1014D000012006F05DFF002006900790089009901B
:1014E0003CE100208DF81C0006208DF81D009DF8C1
:1014F0000C008DF820009DF80D008DF821009DF85E
:101500000E008DF822009DF80F008DF823009DF845
:101510000C00D8BB9DF80D0064281AD19DF812006C
:101520009DF8111040EA01209DF8131040EA016077
:101530009DF8141040EA01402E4908600C2206A9CB
:10154000012006F025FF00200690079008900990E2
:1015500002E19DF80D00682819D19DF812009DF850
:10156000111040EA01209DF8131040EA01609DF837
:10157000141040EA01460C2206A9012006F008FFDB
:1015800000200690079008900990E5E09BE09DF808
:101590000D00782830D19DF812009DF8111040EA16
:1015A00001209DF8131040EA01609DF8141040EAF4
:1015B00001450C2206A9012006F0EAFE0020069053
:1015C000079008900990C7E09400002020000020B8
:1015D000380000202A00002080F0FA022B000020B2
:1015E0003403002000000240500000202D000020A5
:1015F00042000020240000209DF80D007A280AD126
:101600000C2206A9012006F0C3FE002006900790D8
:1016100008900990A0E09DF80D007C2825D10120BC
:10162000524908709DF812009DF8111040EA0120FF
:101630009DF8131040EA01609DF8141040EA014043
:101640004B4908600846006820B9002049490870E5
:10165000494908700C2206A9012006F099FE0020D5
:10166000069007900890099076E09DF80D007E287E
:101670000AD10C2206A9012006F08AFE002006905D
:1016800007900890099067E09DF80D00802863D1CD
:101690009DF812009DF8111040EA01209DF81310EA
:1016A00040EA01609DF8141040EA014033490860A7
:1016B0000C2206A9012006F06BFE00200690079080
:1016C0000890099048E09DF80C00012844D19DF84D
:1016D0000D002C2822D19DF812009DF8111040EA2F
:1016E00001209DF8131040EA01609DF8141040EAB3
:1016F000014023490860084690ED000AB8EE400A10
:10170000204880ED000A0C2206A9012006F040FEC8
:10171000002006900790089009901DE09DF80D00AC
:101720002E2819D19DF812009DF8111040EA0120D1
:101730009DF8131040EA01609DF8141040EA014042
:10174000114908600C2206A9012006F021FE0020A4
:10175000069007900890099000E000BF00BF142198
:1017600001A8FEF7F7FDFEF7F4BE000030000020F0
:10177000380000202C0000202F0000203C0000201A
:101780004C000020580000204800002010B5012027
:1017900000F09EFB10BD10B5042000F099FB10BDB9
:1017A00010B5082000F094FB10BD00001CB567A127
:1017B00003C9CDE9000100BF664800780128FBD1CC
:1017C00000206449087064480078012804D004218E
:1017D000624800F069FC40B99FED610A614880ED04
:1017E000000A00206049086060E05B48007800283B
:1017F0005CD15E4890ED000AB8EEC00ADFED5C0AED
:1018000080EE201AB1EE040A21EE000A554880ED60
:10181000000A90ED000ADFED570A20EE200ABCEE28
:10182000C00A514880ED000A5348007801283DD194
:1018300052480078012839D18021484800F034FC12
:10184000B8B94948006800EB80004D490968B1EB20
:10185000400F2BD800214B4802F0A4FB012280212D
:10186000494800F033FC002048490870434908709B
:101870001CE08021394800F017FC012816D13A48B5
:10188000006800EB80003E490968B1EB400F0DD3C2
:1018900000213C4802F086FB012280213A4800F0FA
:1018A00015FC002039490870344908703848007820
:1018B000012817D12C4800788DF802002A480088AA
:1018C000000A8DF8030028480068000C8DF8040019
:1018D00025480068000E8DF80500062269460220A2
:1018E00006F056FD2B48007801287FF465AF2A48A2
:1018F00090ED000A1B48D0ED000A9FED1D1A10EE76
:10190000810ABCEEC00A254880ED000A2448006820
:1019100000EB800021490968B1EB400FFFF44CAFA8
:101920001F48006800EB8000400000EE100AB8EE8F
:10193000400A1948D0ED000A30EE200A80ED000A76
:101940000020144908701549086035E7CFAE000043
:10195000000000002E0000202A00002000080240A5
:10196000000000001C0000202000002000000020DB
:1019700000007A440000C8422F0000203000002000
:101980003800002034030020000002402B0000201B
:101990002D0000205100002058000020540000209D
:1019A0004800002072B600BFFEE7000008B505F051
:1019B00077F81149002005F043FA01208DF8000066
:1019C0008DF8030000208DF8020001208DF8010041
:1019D00069460A2005F05CFA00BF4FF4FB71012054
:1019E00005F022FC41F29411022005F01DFC1420A8
:1019F00005F092FCF1E700000400002000BF012088
:101A000005F08AFC084800780128F8D10021074831
:101A100002F0C8FA01228021054800F057FB00209F
:101A200004490870EBE700002C000020340300207C
:101A3000000002402B00002070B50446A56D00F0A8
:101A40004BFB064694F83500022808D080206065DC
:101A500000BF002084F8340000BF012070BD206862
:101A6000006820F01600216808602068406920F0B6
:101A7000800021684861206C08B9A06C28B12068FA
:101A8000006820F00800216808602068006820F0E5
:101A900001002168086010E000F01EFB801B052893
:101AA0000BD920206065032084F8350000BF00209A
:101AB00084F8340000BF0320D0E72068006800F0FD
:101AC00001000028E8D194F85C103F208840A8600D
:101AD000012084F8350000BF002084F8340000BFE6
:101AE00000BFBBE7014691F83500022803D08020F3
:101AF000486501207047052081F8350008680068B6
:101B000020F001000A6810600020F3E7014691F818
:101B100035007047F8B50446002000908C480068F6
:101B20004FF41651B0FBF1F7A56D2E6894F85C10D8
:101B300008208840304098B12068006800F0040018
:101B400070B12068006820F004002168086094F8F3
:101B50005C1008208840A860606D40F0010060655E
:101B600094F85C1001208840304068B120684069DA
:101B700000F0800040B194F85C1001208840A8601B
:101B8000606D40F00200606594F85C1004208840AD
:101B9000304068B12068006800F0020040B194F85D
:101BA0005C1004208840A860606D40F0040060650F
:101BB00094F85C1010208840304078B320680068AA
:101BC00000F0080050B394F85C1010208840A86022
:101BD0002068006800F4802080B12068006800F46C
:101BE000002028B9206CC8B12046216C884715E038
:101BF000A06C98B12046A16C88470FE0206800686F
:101C000000F4807028B92068006820F0080021687E
:101C10000860206C10B12046216C884794F85C1055
:101C2000202088403040002865D02068006800F0FF
:101C3000100000285FD094F85C1020208840A86035
:101C400094F83500052828D12068006820F0160097
:101C5000216808602068406920F0800021684861A0
:101C6000206C08B9A06C28B12068006820F008003A
:101C70002168086094F85C103F208840A86001202B
:101C800084F8350000BF002084F8340000BF206DC8
:101C900010B12046216D8847F8BD2068006800F427
:101CA000802080B12068006800F4002028B9606CB2
:101CB00010B12046616C88471DE0E06BD8B120462A
:101CC000E16B884717E02068006800F4807068B90D
:101CD0002068006820F0100021680860012084F866
:101CE000350000BF002084F8340000BFE06B10B165
:101CF0002046E16B8847606D38B3606D00F00100ED
:101D0000F0B1052084F835002068006820F001005B
:101D10002168086000BF0098401C0090B84200D9BC
:101D200005E02068006800F001000028F3D100BF42
:101D3000012084F8350000BF002084F8340000BF83
:101D4000E06C10B12046E16C884700BFA4E70000BA
:101D5000A40000202DE9F0410446002500F0BCF964
:101D6000074614B90120BDE8F081606A00B100BFE8
:101D7000022084F8350000BF002084F8340000BF42
:101D80002068006820F00100216808600AE000F087
:101D9000A3F9C01B052805D920206065032084F81D
:101DA0003500E0E72068006800F001000028EED16F
:101DB0002068056821480540D4E901010843E1682D
:101DC00008432169084361690843A1690843E1693F
:101DD0000843216A08430543606A042803D1D4E913
:101DE0000B0108430543206805602068456925F01C
:101DF0000705606A0543606A04280DD1A06A05439F
:101E0000E06A48B12046FEF747FB28B140206065F4
:101E1000012084F83500A6E7206845612046FEF7DA
:101E200021FB064694F85C103F208840B0600020FB
:101E30006065012084F83500002094E73F8010F0B1
:101E400010B50446082C05D1174908600120174930
:101E5000087027E0042C1ED10120154908700020CD
:101E600014490870012014490870002013490880A3
:101E70000021134802F096F801228021114800F059
:101E800025F900201049086001201049087004203D
:101E90000549086006E0012C04D1012002490860D0
:101EA0000249087010BD0000143C01402C000020C5
:101EB0002A0000202B0000202F00002044000020DA
:101EC0003403002000000240000000202E0000200B
:101ED00010B5044604480068204020B10248046060
:101EE0002046FFF7ADFF10BD143C0140F8B5034696
:101EF0000A460025002400200021C2E0012606FA3F
:101F000001F5166806EA0504AC4274D1167906F0AC
:101F10000306012E04D0167906F00306022E13D113
:101F200098684F000326BE40B0434F00D668BE40BD
:101F300030439860586801268E40B0431679C6F346
:101F400000168E4030435860167906F00306032EC3
:101F500009D0D8684F000326BE40B0434F009668B2
:101F6000BE403043D860167906F00306022E13D126
:101F7000CF0803F1200656F827004E07F70E0F266C
:101F8000BE40B0434F07FF0E1669BE403043CF0836
:101F900003F1200646F8270018684F000326BE40CC
:101FA000B043167906F003064F00BE403043186078
:101FB000566806F44036002E62D000BF0026009618
:101FC000324E366846F48046304F3E603E463668B4
:101FD00006F48046009600BF00BF2D4E8F0856F8CD
:101FE00027008E07370F0F26BE40B043294EB3425D
:101FF00002D1002610E043E0274EB34201D1012672
:102000000AE0264EB34201D1022605E0244EB34237
:1020100001D1032600E007268F073F0FBE40304363
:102020001B4E8F0846F827001E4E3068A0435668A6
:1020300006F4801606B120431A4E3060361D306813
:10204000A043566806F4001606B12043154E361D0F
:102050003060144E361F3068A043566806F40036D0
:1020600006B120430F4E361F3060361F3068A04344
:10207000566806F4803606B120430A4E083E3060AA
:10208000491C1029FFF43AAFF8BD00004438024063
:1020900008380140000002400004024000080240ED
:1020A000000C0240083C0140024613690B400BB192
:1020B000012000E00020704710B5426921EA0203C8
:1020C00002EA010443EA0443836110BD0AB181615D
:1020D00001E00B048361704701480068704700000D
:1020E00098000020704770472DE9F84F044620689B
:1020F00047692068D0F80480002594F83E90C7F323
:10210000002040B1C8F3002028B145F001056FF46C
:10211000807021684861C7F3402040B1C8F30020B7
:1021200028B145F002056FF4007021684861C7F3DB
:10213000802070B3C8F3002058B3CA46B4F82AB060
:1021400094F83D60206B0090BAF1200F0FD1BBF1E5
:10215000000F0CD1212E06D0292E04D0282E06D116
:102160000098212803D1204603F0DAF811E06FF43B
:1021700080602168486145F00405B9F1100F02D074
:10218000B9F1400F05D12068006840F40070216863
:102190000860C7F3C02040B1C8F3002028B145F063
:1021A00008056FF40060216848612DB1206C284358
:1021B0002064204602F088FBBDE8F88F2DE9F04747
:1021C00005464FF0000928684668D5F82CA095F818
:1021D0003E7095F83D80102F01D0402F75D12868B2
:1021E000D0F818902868446904F0010060B9BAF585
:1021F0002A0F02D0BAF12A4F01D1012000E00020BD
:10220000012801D1BDE8F08704F0010048B1C6F310
:10221000402030B1284602F0CDFA284602F03AFFBD
:10222000B7E0C4F3C00030B1C6F3402018B128466F
:1022300002F0E7FDADE0C4F3400030B1C6F340204A
:1022400018B1284602F0F2FDA3E0C9F3800040B3C4
:102250002868406800F40060B0F5006FE0D0C4F377
:10226000C01048B1C6F3802030B1C4F3800018B963
:10227000284602F05AFD8CE0C4F380000028CFD03D
:10228000C6F340200028CBD0B8F1210F03D1284657
:1022900002F0FBFC7DE0402F7BD1284602F049FF95
:1022A00077E02868406800F40060B0F5006F70D0F7
:1022B000C4F3801050B1C6F3802038B1C4F380005D
:1022C00020B9284602F069FC63E00BE0C4F380000B
:1022D00000285ED0C6F3402000285AD0284602F0DD
:1022E000C9FB56E0286C10B12868446904E02868EE
:1022F000D0F8189028684469C4F3400060B1C6F370
:10230000402048B1286C10B12868D0F81890494690
:10231000284602F0CDFF3CE0C4F3001030B1C6F314
:10232000402018B1284603F04BF832E0B8F1210FF5
:1023300002D0B8F1290F16D1C4F3C01048B1C6F3CA
:10234000802030B1C4F3800018B9284602F08DFF18
:102350001FE0C4F38000E0B1C6F34020C8B12846B6
:1023600002F076FF15E0C4F3801048B1C6F3802078
:1023700030B1C4F3800018B9284602F046FF08E0E7
:10238000C4F3800028B1C6F3402010B1284602F003
:102390002FFF00BF36E7704770B504460CB9012027
:1023A00070BD94F83D0028B9002084F83C00204618
:1023B00000F0E0F8242084F83D002068006820F058
:1023C0000100216808602068006840F4004021682E
:1023D00008602068006820F400402168086000F070
:1023E00045FB05465C496068884206D85B488542E3
:1023F00001D2012007E0002005E05948854201D2C2
:10240000012000E00020012800D1C9E75548B5FBB4
:10241000F0F62068406820F03F00304321684860B3
:102420004D496068884201D8701C07E04FF49670EF
:1024300070434FF47A71B0FBF1F0401C2168096AD7
:1024400021F03F01084321680862434960688842DF
:1024500014D8681E61684900B0FBF1F0401CC0F35D
:102460000B00042801D204203DE0681E6168490089
:10247000B0FBF1F0401CC0F30B0034E0A06838B9A9
:10248000681E616801EB4101B0FBF1F0401C0AE0FD
:10249000681E616801EBC10202EB0111B0FBF1F0B3
:1024A000401C40F48040C0F30B0008B901201AE042
:1024B000A06848B9681E616801EB4101B0FBF1F00A
:1024C000401CC0F30B000CE0681E616801EBC10208
:1024D00002EB0111B0FBF1F0401CC0F30B0040F423
:1024E000804040F400402168C9694CF6FF72914376
:1024F00008432168C861D4E90701084321680968D5
:1025000021F0C001084321680860D4E903100843A2
:102510002168896848F2FF32914308432168886046
:10252000D4E9050108432168C96821F0FF01084387
:102530002168C8602068006840F0010021680860D8
:1025400000202064202084F83D000020206384F8CF
:102550003E0000BF24E70000A086010080841E002A
:1025600000093D0040420F007047704770477047B8
:102570007047000010B586B00446142101A8FDF78D
:10258000E9FE2349206888423FD100BF0020009027
:102590002048006840F002001E49086008460068B4
:1025A00000F00200009000BF00BFC0200190122088
:1025B000029000200390032004900420059001A9BC
:1025C0001548FFF793FC00BF002000901148103021
:1025D000006840F400100F49103108600846006898
:1025E00000F40010009000BF00BF002205211F2052
:1025F00000F000F91F2000F0EDF800220521202056
:1026000000F0F8F8202000F0E5F806B010BD00005A
:1026100000540040303802400004024070477047C8
:1026200070B504460CB9012070BD4CF6CC40216851
:10263000086045F2555021680860D4E900104860F0
:102640002168A0688860FFF747FD05460BE0FFF7AB
:1026500043FD401B312806D92068C06800F0030004
:1026600008B10320E0E72068C06800F003000028FC
:10267000EDD14AF6AA20216808600020D4E701467F
:102680004AF6AA200A6810600020704703480068D4
:102690000349097808440149086070479800002000
:1026A000A000002010B50D48006840F400700B49F0
:1026B00008600846006840F48060086008460068CA
:1026C00040F480700860032000F0D2F80F2000F082
:1026D00007F800F055F8002010BD0000003C024053
:1026E000F0B587B004460026002700BF0020009008
:1026F0001E48006840F001001C4908600846006858
:1027000000F00100009000BF00BF01A902A800F086
:1027100085F900F0BBF906461548B6FBF0F0471EF8
:1027200014481549086040F2E7311348C16047601A
:10273000002101618160816100F074FF054695B957
:102740000D4800F0E5FF05466DB9192000F042F88C
:10275000102C07D200222146192000F04BF8074820
:10276000046000E00125284607B0F0BD443802406F
:1027700040420F00000001400C0500209C0000209A
:1027800008B500BF002000901148006840F4804068
:102790000F4908600846006800F48040009000BFC0
:1027A00000BF00BF00200090081F006840F080506C
:1027B000091F08600846006800F08050009000BFC4
:1027C00000BF00220F21901E00F014F808BD000089
:1027D0004438024001460846002809DB00F01F0388
:1027E00001229A4043099B0003F1E023C3F8002132
:1027F00000BF70472DE9F05F80460D461646002762
:1028000004F0A0FA074639462A46334601F007008D
:10281000C0F1070ABAF1040F02D94FF0040A01E02F
:10282000C0F1070AD14600F1040ABAF1070F02D23B
:102830004FF0000A01E0A0F1030AD4464FF0010A6C
:102840000AFA09FAAAF1010A0AEA020A0AFA0CFAD1
:102850004FF0010B0BFA0CFBABF1010B0BEA030B76
:102860004AEA0B042146404604F074FABDE8F09FA2
:1028700000BF00F00702064B19684FF6FF0319402E
:10288000044B0B4343EA0221014B196000BF704720
:102890000CED00E00000FA0570B504460D460CB9D9
:1028A000012070BD5848006800F00700A84209D216
:1028B00055490D700846006800F00700A84201D095
:1028C0000120EEE7207800F0020002281DD12078D8
:1028D00000F00400042805D14C48006840F4E050A2
:1028E0004A490860207800F00800082805D14748C8
:1028F000006840F46040454908604448006820F0A2
:10290000F000A168084341490860207800F0010008
:10291000A8B36068012807D13C4808380068C0F3B4
:102920004040B8B90120BCE76068022802D0606866
:10293000032807D1354808380068C0F3406048B91B
:102940000120AEE7314808380068C0F3400008B9FC
:102950000120A6E72D48006820F0030061680843C5
:102960002A490860FFF7B8FB064609E0FFF7B4FB09
:10297000801B41F28831884202D9032091E707E0A9
:102980002248006800F00C006168B0EB810FEDD1C7
:102990001D48006800F00700A84209D91A490D70C7
:1029A0000846006800F00700A84201D0012078E73F
:1029B000207800F00400042807D11448006820F4AF
:1029C000E050E168084311490860207800F00800F1
:1029D000082808D10D48006820F46040216940EAC9
:1029E000C1000A49086000F061F808490968C1F3AC
:1029F0000311074A515CC840064908600648006850
:102A0000FFF76EFE00204CE7003C02400838024011
:102A1000EAA20008A40000209C0000200F2202600F
:102A20000D4A126802F0030242600B4A126802F07B
:102A3000F0028260084A126802F4E052C260064A5C
:102A4000126802F46042D2080261044A126802F07D
:102A500007020A607047000008380240003C02404C
:102A60000148006870470000A400002000B5FFF78F
:102A7000F7FF04490968C1F38221034A515CC84049
:102A800000BD000008380240FAA2000800B5FFF7B8
:102A9000E7FF04490968C1F34231034A515CC84069
:102AA00000BD000008380240FAA200082DE9F047F6
:102AB000002400250026A1462548006800F00C00EF
:102AC00020B1042805D008283AD105E0DFF8849029
:102AD00039E0DFF8849036E01D48001F006800F000
:102AE0003F041B48001F006800F4800078B11A48BA
:102AF0001749091F0968C1F38811A0FB017001463D
:102B0000224600233846FDF7DBFB05460EE0114860
:102B10000F49091F0968C1F38811A0FB0170014624
:102B2000224600233846FDF7CBFB05460848001F28
:102B30000068C0F30140401C4600B5FBF6F902E016
:102B4000DFF8109000BF00BF4846BDE8F0870000E6
:102B5000083802400024F40040787D01F8B50446AE
:102B60000CB90120F8BD207800F00100002874D0D5
:102B7000F748006800F00C0004280DD0F448006805
:102B800000F00C00082813D1F148001F006800F481
:102B90008000B0F5800F0BD1ED4808380068C0F315
:102BA0004040002859D06068002856D10120D9E75C
:102BB00000BF6068B0F5803F08D1E548083800687C
:102BC00040F48030E249083908601EE06068B0F5E2
:102BD000A02F0DD1DE480838006840F48020DC4981
:102BE000083908600846006840F4803008600CE04E
:102BF000D7480838006820F48030D5490839086083
:102C00000846006820F48020086000BF606890B12A
:102C1000FFF762FA054606E0FFF75EFA401B6428FC
:102C200001D903209EE7CA4808380068C0F3404035
:102C30000028F1D011E0FFF74FFA054606E0FFF754
:102C40004BFA401B642801D903208BE7C0480838A1
:102C50000068C0F340400028F1D1207800F0020065
:102C600002285FD1BA48006800F00C0058B1B8489B
:102C7000006800F00C0008281CD1B548001F00684F
:102C800000F48000B0B9B24808380068C0F34000D2
:102C900020B1E068012801D0012063E7AC48083882
:102CA000006820F0F800216940EAC100A84908390D
:102CB000086037E0E06800B30120A6490860FFF72C
:102CC0000BFA054606E0FFF707FA401B022801D978
:102CD000032047E79E4808380068C0F340000028FA
:102CE000F1D09B480838006820F0F800216940EADC
:102CF000C10097490839086014E000209549086030
:102D0000FFF7EAF9054606E0FFF7E6F9401B02285F
:102D100001D9032026E78E4808380068C0F3400038
:102D20000028F1D1207800F0080008282CD1606933
:102D3000A8B1012088490860FFF7CEF9054606E0F2
:102D4000FFF7CAF9401B022801D903200AE780488F
:102D50006C300068C0F340000028F1D014E000207F
:102D60007D490860FFF7B8F9054606E0FFF7B4F9BA
:102D7000401B022801D90320F4E675486C30006836
:102D8000C0F340000028F1D1207800F004000428AE
:102D900070D100276E483830006800F0805090B93C
:102DA00000BF002000906A483830006840F0805032
:102DB0006749383108600846006800F0805000908C
:102DC00000BF00BF01276548006800F48070B0B9FB
:102DD0006248006840F4807060490860FFF77CF941
:102DE000054606E0FFF778F9401B022801D90320C9
:102DF000B8E65A48006800F480700028F2D000BF9E
:102E0000A068012808D152486830006840F00100ED
:102E10004F49683108601DE0A06805280DD14C4875
:102E20006830006840F0040049496831086008468D
:102E3000006840F0010008600CE045486830006818
:102E400020F001004249683108600846006820F01F
:102E50000400086000BFA068A8B1FFF73DF905466F
:102E600009E0FFF739F9401B41F28831884202D965
:102E7000032077E626E0364868300068C0F340005B
:102E80000028EED013E0FFF727F9054608E0FFF72A
:102E900023F9401B41F28831884201D9032061E6C1
:102EA0002B4868300068C0F340000028EFD1012FA4
:102EB00007D127483830006820F080502449383145
:102EC000086000BFA069002850D02148006800F0C9
:102ED0000C00082860D0A069022848D100201D49B4
:102EE0000866FFF7F9F8054606E0FFF7F5F8401B1E
:102EF000022801D9032035E6154808380068C0F3D8
:102F000040600028F1D1D4E907010843616A40EA32
:102F100081110122A06AC2EB500041EA00412C203D
:102F2000005D41EA00613020005D41EA007008491F
:102F3000091F0860012007490866FFF7CDF805461C
:102F40000EE0FFF7C9F8401B022809D9032009E663
:102F50000838024000004742800E4742007000409F
:102F600028480068C0F340600028EAD048E000200C
:102F700025490866FFF7B0F8054606E0FFF7ACF80C
:102F8000401B022801D90320ECE51E480068C0F36D
:102F900040600028F2D133E0A069012800D1E1E5CA
:102FA0001848001D0668A069012827D006F4800192
:102FB000E069814222D106F03F01206A81421DD1A1
:102FC00047F6C0703040616AB0EB811F16D106F43D
:102FD00040310122A06AC2EB5000B1EB004F0DD18D
:102FE00006F070612C20005DB1EB006F06D106F099
:102FF000E0413020005DB1EB007F01D00120B1E560
:103000000020AFE500380240000047427047000052
:10301000F8B504462068466820688568C5F38010C6
:1030200048B905F0010030B1C6F3801018B1204650
:10303000216C8847F8BDC5F3400030B1C6F3C0101D
:1030400018B12046616C8847F4E7C5F3401030B9E9
:10305000C5F3801018B9C5F3002000287CD0C6F352
:10306000401000287DD0C5F38010F0B194F85100D5
:1030700003280ED0606D40F00400606500BF0020A2
:1030800000902068C068009020688068009000BFB1
:103090000BE000BF002000902068C068009020680E
:1030A0008068009000BF00BFC4E7C5F3401088B13E
:1030B000606D40F00100606500BF00200090206856
:1030C000806800902068006820F040002168086057
:1030D00000BF00BFC5F3002058B1606D40F008008C
:1030E000606500BF0020009020688068009000BFED
:1030F00000BF606D78B32068406820F0E000216870
:103100004860012084F8510006F00200022802D035
:1031100006F0010008B32068406820F00300216831
:103120004860E06C50B11048E16C0865E06CFEF757
:10313000D9FC18B1606D40F040006065A06C50B1E2
:103140000948A16C0865A06CFEF7CCFC18B1606D55
:1031500040F04000606503E003E02046FFF756FFC3
:1031600068E700BF66E70000155E000810B504467A
:103170000CB9012010BD606A38B96068B0F5827F73
:1031800000D105E00021E16102E0002121616161DF
:103190000021A16294F8510028B9002084F8500061
:1031A000204600F047F8022084F8510020680068AB
:1031B00020F0400021680860A08800F48270218916
:1031C00001F404410843A18901F400610843217C12
:1031D00001F002010843217D01F001010843218B28
:1031E00001F400710843217F01F0380108432021D8
:1031F000095D01F080010843218D01F4005108436D
:10320000216808600421A06901EA104094F82410A4
:1032100001F010010843216848602068C06920F46B
:1032200000602168C86100206065012084F85100B9
:1032300000209FE710B586B00446142101A8FDF7D1
:1032400089F81F492068884238D100BF00200090CB
:103250001C48006840F480401A490860084600682D
:1032600000F48040009000BF00BF00BF002000902D
:1032700014481038006840F0020012491039086004
:103280000846006800F00200009000BF00BF4FF445
:1032900060400190022002900020039003200490DF
:1032A0000520059001A90848FEF720FE002205210F
:1032B0002420FFF79FFA2420FFF78CFA06B010BDF8
:1032C0000038004040380240000402402DE9FF5F12
:1032D0000446884691461D460E9E0120029000201D
:1032E000019000BF94F85000012803D1022004B0DF
:1032F000BDE8F09F012084F8500000BFFEF7ECFE0F
:10330000074694F851B060680390AA46BBF1010FDC
:103310000BD00398B0F5827F04D1A06810B9BBF13F
:10332000040F02D002200190DBE0B8F1000F03D0BF
:10333000B9F1000F00D015B901200190D1E094F847
:103340005100042802D0052084F851000020606557
:10335000C4F83890E587A587C4F83080E586A5864F
:10336000206460642068006800F04000402805D0B8
:103370002068006840F0400021680860E068B0F50F
:10338000006F4AD1606810B1BAF1010F09D1206B0A
:1033900000882168C860206B801C2063E08E401E7E
:1033A000E08633E02068806800F00200022810D137
:1033B000E08E70B1029801280BD1206B0088216843
:1033C000C860206B801C2063E08E401EE0860020D9
:1033D00002902068806800F0010068B1E08F58B169
:1033E0002068C068A16B0880A06B801CA063E08F80
:1033F000401EE08701200290FEF76EFEC01BB04227
:1034000004D3701C10B1032001906AE0E08E002804
:10341000C8D1E08F0028C5D14AE0606810B1BAF188
:10342000010F09D1206B007821680873206B401CC4
:103430002063E08E401EE08634E02068806800F063
:103440000200022810D1E08E70B1029801280BD141
:10345000206B007821680873206B401C2063E08E8D
:10346000401EE086002002902068806800F0010085
:1034700068B1E08F58B12068C068A16B0870A06B7C
:10348000401CA063E08F401EE08701200290FEF701
:1034900023FEC01BB04201D3701C00B916B9032033
:1034A00001901EE0E08E0028C7D1E08F0028C4D133
:1034B0003A463146204602F0B7FC20B10120019087
:1034C000202060650DE0A06850B900BF002000908A
:1034D0002068C068009020688068009000BF00BF2E
:1034E00000BF012084F8510000BF002084F8500084
:1034F00000BF0198FBE67047704710B503460022F5
:1035000000BF93F83C00012801D1022010BD01202A
:1035100083F83C0000BF22F0FF00CC6840EA0402C0
:1035200022F440708C6840EA040222F480604C6807
:1035300040EA040222F400600C6840EA040222F42B
:1035400080500C6940EA040222F400504C6940EAC1
:10355000040222F48040CC6940EA04021868426404
:1035600000BF002083F83C0000BF00BFCEE7000092
:1035700030B502460B4600BF92F83C00012801D14D
:10358000022030BD012082F83C0000BF022082F8FA
:103590003D00106844681068816824F07004186861
:1035A000044310684460184D1068A8421BD010688E
:1035B000B0F1804F17D0154D1068A84213D0144DAC
:1035C0001068A8420FD0134D1068A8420BD0124DBE
:1035D0001068A84207D0114D1068A84203D0104DC2
:1035E0001068A84205D121F0800158680143106895
:1035F0008160012082F83D0000BF002082F83C007D
:1036000000BF00BFBDE70000000001400004004013
:1036100000080040000C0040000401400040014050
:103620000018004010B504460CB9012010BD94F8F4
:103630003D0028B9002084F83C00204600F026F820
:10364000022084F83D00211D206802F051FD012078
:1036500084F8460000BF84F83E0001213F20015558
:10366000402001554120015500BF00BF012084F8D2
:10367000420043200155442001554520015500BF1B
:10368000012084F83D000020D0E7000038B5044652
:103690001C492068884218D100BF002000901A48B9
:1036A000006840F00200184908600846006800F011
:1036B0000200009000BF00BF002206211D20FFF77E
:1036C00099F81D20FFF786F81BE010492068884212
:1036D00017D100BF002000900B48006840F0800028
:1036E000094908600846006800F08000009000BFAB
:1036F00000BF002205212C20FFF77CF82C20FFF7CB
:1037000069F838BD0004004040380240001C004009
:10371000014691F83D00012801D0012070470220A8
:1037200081F83D000868C06840F001000B68D8606F
:103730001A4B086898421BD00868B0F1804F17D028
:10374000174B0868984213D0164B086898420FD060
:10375000154B086898420BD0144B0868984207D064
:10376000134B0868984203D0124B086898420CD15A
:103770000868806800F00702062A0CD00868006814
:1037800040F001000B68186005E00868006840F030
:1037900001000B6818600020C0E700000000014035
:1037A0000004004000080040000C004000040140FC
:1037B000004001400018004001460868C06820F041
:1037C00001000A68D06000BF0868006A41F2111267
:1037D000104050B90868006A9210104028B9086873
:1037E000006820F001000A68106000BF012081F825
:1037F0003D00002070472DE9F04104460D460027AA
:1038000000BF94F83C00012802D10220BDE8F081FD
:10381000012084F83C0000BF022084F83D002068AD
:10382000866826F0770626F47F462068866028683A
:10383000502833D00CDC202850D004DC00284BD09A
:10384000102851D149E0302849D040284CD139E0E6
:1038500060282DD0702807D0B0F5805F03D0B0F578
:10386000005F41D10DE041E0D5E902136A682068AC
:1038700002F0BBFC2068866846F077062068866008
:1038800034E0D5E902136A68206802F0AEFC2068D3
:10389000806840F480402168886027E0EA686968B1
:1038A000206802F093FD5021206802F0A9FC1DE081
:1038B000EA686968206802F09CFD6021206802F0D7
:1038C0009FFC13E0EA686968206802F07FFD4021F0
:1038D000206802F095FC09E000BF00BF00BF296826
:1038E000206802F08DFC01E0012700BF00BF01202D
:1038F00084F83D0000BF002084F83C0000BF38463B
:1039000084E72DE9F04104460D4614B90120BDE8D5
:10391000F08194F83D0028B9002084F83C0020464E
:1039200000F054F8022084F83D002068806844F2DA
:103930000701884321688860211D206802F0D8FBB8
:103940002068D0F80880206886692068076A28689F
:1039500040EA080840F203308643A969A86840EAB3
:103960000120064340F60C4086434FF2F0008643A8
:10397000E969E86840EA0120064328690001296AEC
:1039800040EA0130064327F0220727F088076969DB
:10399000686840EA011007432068C0F80880206882
:1039A000866120680762012084F8460084F83E00A2
:1039B00001213F200155012084F842004320015598
:1039C000012084F83D000020A1E7000010B586B07A
:1039D0000446142101A8FCF7BDFC2068B0F1804F1B
:1039E00037D100BF002000901B48006840F0010064
:1039F000194908600846006800F00100009000BF07
:103A000000BF00BF0020009013481038006840F04D
:103A100001001149103908600846006800F00100F3
:103A2000009000BF00BF03200190022002900120FF
:103A30000390002004900120059001A90748FEF79B
:103A400055FA002205211C20FEF7D4FE1C20FEF7AB
:103A5000C1FE06B010BD0000403802400000024028
:103A6000704710B5044620680069C0F34000D8B123
:103A70002068C068C0F34000B0B16FF00200216858
:103A80000861012020772068806900F0030018B1E8
:103A90002046FFF7E5FF05E0204600F0DFF820466E
:103AA00000F0CEF90020207720680069C0F3800084
:103AB000D8B12068C068C0F38000B0B16FF00400D6
:103AC00021680861022020772068806900F4407036
:103AD00018B12046FFF7C4FF05E0204600F0BEF80D
:103AE000204600F0ADF90020207720680069C0F37F
:103AF000C000D8B12068C068C0F3C000B0B16FF09A
:103B0000080021680861042020772068C06900F05F
:103B1000030018B12046FFF7A3FF05E0204600F0A0
:103B20009DF8204600F08CF900202077206800697D
:103B3000C0F30010D8B12068C068C0F30010B0B165
:103B40006FF0100021680861082020772068C069A4
:103B500000F4407018B12046FFF782FF05E02046D0
:103B600000F07CF8204600F06BF9002020772068F8
:103B7000006900F0010058B12068C06800F0010041
:103B800030B16FF0010021680861204600F088FA2A
:103B900020680069C0F3C01058B12068C068C0F345
:103BA000C01030B16FF08000216808612046FFF737
:103BB000A2FC20680069C0F3801058B12068C0687A
:103BC000C0F3801030B16FF04000216808612046DA
:103BD00000F0BAFA20680069C0F3401058B12068BC
:103BE000C068C0F3401030B16FF020002168086158
:103BF0002046FFF781FC10BD10B586B004461421A5
:103C000001A8FCF7A7FB1249206888421DD100BF1C
:103C1000002000900F48006840F004000D49086043
:103C20000846006800F00400009000BF00BF40207C
:103C300001900220029000200390022004900320B3
:103C4000059001A90448FEF751F906B010BD000027
:103C500000040140303802400008024070472DE95E
:103C6000F04104460D461646002700BF94F83C007C
:103C7000012802D10220BDE8F081012084F83C0037
:103C800000BF36B1042E1BD0082E31D00C2E5ED1D1
:103C900045E02946206802F0BDFA2068806940F0BE
:103CA0000800216888612068806920F0040021688C
:103CB000886120688069296908432168886148E033
:103CC0002946206802F0DEFA2068806940F400602E
:103CD000216888612068806920F48060216888619B
:103CE00020688069296940EA01202168886130E004
:103CF0002946206802F004FB2068C06940F00800F3
:103D00002168C8612068C06920F004002168C8618A
:103D10002068C069296908432168C86119E02946FB
:103D2000206802F029FB2068C06940F40060216827
:103D3000C8612068C06920F480602168C86120687B
:103D4000C069296940EA01202168C86101E00127B2
:103D500000BF00BF00BF002084F83C0000BF384611
:103D600089E710B504460CB9012010BD94F83D0058
:103D700028B9002084F83C00204600F025F80220F5
:103D800084F83D00211D206802F0B2F9012084F87A
:103D9000460000BF84F83E0001213F20015540202D
:103DA00001554120015500BF00BF012084F84200A9
:103DB00043200155442001554520015500BF0120F5
:103DC00084F83D000020D0E738B504461A49206841
:103DD00088422FD100BF002000901848006840F0B2
:103DE0000200164908600846006800F002000090D2
:103DF00000BF00BF002205212B20FEF7FBFC2B207B
:103E0000FEF7E8FC002205212C20FEF7F3FC2C2015
:103E1000FEF7E0FC002205212D20FEF7EBFC2D2013
:103E2000FEF7D8FC002205212E20FEF7E3FC2E2011
:103E3000FEF7D0FC38BD00000004014044380240C9
:103E400070470000F0B504460D46002615B994F8F9
:103E50003E000BE0042D02D13F20005D06E0082D5E
:103E600002D14020005D01E04120005D012801D029
:103E70000120F0BD1DB9022084F83E000EE0042DA3
:103E800003D102213F20015508E0082D03D1022172
:103E90004020015502E002214120015535B1042D99
:103EA0000BD0082D10D00C2D1CD114E02068C06858
:103EB00040F002002168C86016E02068C06840F049
:103EC00004002168C8600FE02068C06840F0080066
:103ED0002168C86008E02068C06840F010002168D0
:103EE000C86001E0012600BF00BFEEBB01222946E9
:103EF000206802F069F924492068884203D02349E8
:103F00002068884201D1012000E0002028B120680B
:103F1000406C40F40040216848641B492068884296
:103F20001BD02068B0F1804F17D019492068884213
:103F300013D01849206888420FD01749206888425A
:103F40000BD012492068884207D014492068884263
:103F500003D01349206888420ED12068806800F0A1
:103F60000707062F0ED000E00CE02068006840F044
:103F700001002168086005E02068006840F0010049
:103F800021680860304674E70000014000040140E9
:103F90000004004000080040000C004000400140C8
:103FA0000018004070B504460D46002635B1042DBA
:103FB0000BD0082D10D00C2D1CD114E02068C06847
:103FC00020F002002168C86016E02068C06820F078
:103FD00004002168C8600FE02068C06820F0080075
:103FE0002168C86008E02068C06820F010002168DF
:103FF000C86001E0012600BF00BF002E4AD10022A8
:104000002946206802F0E0F823492068884203D05E
:1040100022492068884201D1012000E0002090B1AF
:1040200000BF2068006A41F21111084050B92068B1
:10403000006A8910084028B92068406C20F40040CC
:104040002168486400BF00BF2068006A41F2111176
:10405000084050B92068006A8910084028B92068D3
:10406000006820F001002168086000BF1DB9012030
:1040700084F83E000EE0042D03D101213F200155BC
:1040800008E0082D03D101214020015502E0012163
:1040900041200155304670BD000001400004014040
:1040A00010B504461F492068884202D1FEF7EEFA97
:1040B00037E01D492068884223D101201B49087040
:1040C00080211B48FDF7F0FF50B980211948FDF70A
:1040D000EBFF28B918480068401C1749086020E029
:1040E00080211348FDF7E0FF01281AD180211148F3
:1040F000FDF7DAFFA8B910480068401E0E490860B5
:104100000FE00E49206888420BD10D480078012845
:1041100007D1002204210748FDF7D8FF0948FFF71F
:104120004BFB10BD00000140000401402E000020A8
:10413000000802400000024000000020001C004077
:10414000510000207C03002070477047704700003A
:104150002DE9F84F0446206805682068C668206885
:1041600047694FF00009CA4605F00F09B9F1000F81
:104170000AD105F0200038B106F0200020B1204619
:1041800002F09BF9BDE8F88FB9F1000F7CD007F081
:10419000010018B906F49070002875D005F00100F0
:1041A00030B106F4807018B1206C40F0010020643A
:1041B00005F0040030B107F0010018B1206C40F0A8
:1041C0000200206405F0020030B107F0010018B1D0
:1041D000206C40F00400206405F0080048B106F0AF
:1041E000200010B907F0010018B1206C40F0080061
:1041F0002064206C002846D005F0200028B106F08D
:10420000200010B1204602F058F920684069C0F340
:10421000801A206C00F0080010B9BAF1000F2DD000
:10422000204602F004F92068406900F04000402870
:1042300020D100BF00BF2168143151E8001F21F0D8
:1042400040002168143141E80002002AF3D100BF88
:10425000A06B50B17548A16B0865A06BFDF742FCDF
:1042600088B1A06B016D88470DE02046FFF76EFF17
:1042700009E009E02046FFF769FF04E02046FFF768
:1042800065FF002020647DE7206B012876D105F0D2
:104290001000002872D006F010000028FAD000BFED
:1042A000002000902068006800902068406800901E
:1042B00000BF00BF2068406900F0400040285ED188
:1042C000A06B006840681FFA80F8B8F1000F54D066
:1042D000A08D404551DDA4F82E80A06BC069B0F5DB
:1042E000807F43D000BF00BF21680C3151E8001F20
:1042F00021F4807021680C3141E80002002AF3D1DA
:1043000000BF00BF00BF2168143151E8001F21F039
:1043100001002168143141E80002002AF3D100BFF6
:1043200000BF00BF2168143151E8001F21F0400098
:104330002168143141E80002002AF3D100BF202097
:1043400084F83E000020206300BF00BF21680C31CC
:1043500051E8001F21F0100021680C3141E80002F3
:10436000002AF3D100BFA06BFDF766FBA08DE28DA4
:10437000801A81B22046FFF7E8FE03E740E0A08DF7
:10438000E18D401A1FFA80F8E08DC0B3B8F1000F3C
:1043900035D000BF00BF21680C3151E8001F21F467
:1043A000907021680C3141E80002002AF3D100BF6F
:1043B00000BF00BF2168143151E8001F21F0010047
:1043C0002168143141E80002002AF3D100BF202007
:1043D00084F83E000020206300BF00BF21680C313C
:1043E00051E8001F21F0100021680C3141E8000263
:1043F000002AF3D100BF41462046FFF7A6FEC1E6E2
:1044000005F0800030B106F0800018B1204602F0BF
:104410000CFAB7E605F0400030B106F0400018B1E4
:10442000204602F03AF8ADE600BFABE61B64000898
:1044300010B504460CB9012010BDA06900B100E020
:1044400000BF94F83D0028B9002084F83C002046C5
:1044500000F028F8242084F83D002068C06820F48B
:1044600000502168C860204602F0A4F82068006966
:1044700020F49040216808612068406920F02A00FB
:10448000216848612068C06840F400502168C86015
:1044900000202064202084F83D0084F83E000020A5
:1044A000CAE7000010B586B00446142101A8FBF746
:1044B00051FF5E492068884276D100BF00200090FD
:1044C0005B48006840F010005949086008460068E1
:1044D00000F01000009000BF00BF00BF002000905F
:1044E00053481438006840F00100514914390860FD
:1044F0000846006800F00100009000BF00BF4FF4C4
:10450000C0600190022002900020039003200490DC
:104510000720059001A94748FDF7E8FC46484749B0
:1045200008604FF000604860002144488160C1602D
:104530004FF480610161002141618161C1610162CB
:104540004162FDF707FC08B1FDF72CFA00BF3B48BC
:10455000A063846300BF38487830394908604FF061
:10456000006048604021364881600021C1604FF4FE
:1045700080610161002141618161C161016241622B
:10458000FDF7E8FB08B1FDF70DFA00BF2C486063AA
:10459000846300BF002205212520FEF72BF925208A
:1045A000FEF718F93FE0FFE72649206888423AD134
:1045B00000BF002000901E48001F006840F48020CB
:1045C0001B49091F08600846006800F4802000901D
:1045D00000BF00BF00BF00200090154814380068DD
:1045E00040F004001249143908600846006800F0E1
:1045F0000400009000BF00BF4FF440600190022013
:10460000029000200390032004900720059001A948
:104610000D48FDF76BFC002205212720FEF7EAF884
:104620002720FEF7D7F806B010BD000000100140AB
:104630004438024000000240406402404C04002024
:10464000AC040020004800400008024070B5044659
:104650000D46164694F83E00202816D105B10EB935
:10466000012070BD00BF94F83C00012801D1022058
:10467000F7E7012084F83C0000BF002020633246A9
:104680002946204602F0ACF8EBE70220E9E70000FB
:1046900010B5044606492068884208D105490878C3
:1046A00004F0C8FD012203490348FFF7CFFF10BD06
:1046B0000044004069010020080400202DE9F84F63
:1046C00004460E46174699464FF0000A94F83D00FE
:1046D00020285AD106B117B90120BDE8F88F00BFD4
:1046E00094F83C00012801D10220F6E7012084F86B
:1046F0003C0000BF00202064212084F83D00FDF72D
:10470000EBFC8246A784E784A068B0F5805F04D103
:10471000206910B90025B04602E035464FF0000888
:1047200000BF002084F83C0000BF1BE0534600227D
:1047300080212046CDF8009002F0A7F808B10320B0
:10474000CBE745B9B8F80000C0F30800216848601D
:1047500008F1020803E02878216848606D1CE08CAD
:10476000401EE084E08C0028E0D153460022402126
:104770002046CDF8009002F088F808B10320ACE79D
:10478000202084F83D000020A7E70220A5E770471D
:1047900000BFFEE710B50248FDF7A6FC10BD000003
:1047A000EC01002010B50248FDF708FD10BD000027
:1047B000EC010020C16AB1F52A0F02D10121C162CA
:1047C00005E0C16AB1F12A4F01D10821C1627047E9
:1047D000F8B5054600200090AC6B94F83D60394870
:1047E00000681921B0FBF1F04FF47A71B0FBF1F0E1
:1047F000C0EBC00000EB8000009000BF009820B923
:10480000206C40F02000206409E00098401E0090D9
:104810002068006800F40070B0F5007FEED000BFA3
:10482000606B10B10020616BC863A06B10B10020F9
:10483000A16BC8632068006820F48060216808606C
:1048400000206085606B10B10020616B0865A06B73
:1048500010B10020A16B08652068006820F00100FD
:104860002168086094F83D0060280AD1202084F86F
:104870003D00002084F83E0020642046FDF732FC15
:104880001EE006F02800282811D12068006840F0BA
:104890000100216808602068006840F48060216899
:1048A000086000202063282084F83D0005E02020D7
:1048B00084F83D00002084F83E002046FDF76BFDA3
:1048C000F8BD0000A40000202DE9F041044694F852
:1048D0003D6094F83E70102F01D0402F07D1222E5A
:1048E00005D12068006820F400602168086006F0A7
:1048F0002800282805D100202063282084F83D00C6
:1049000010E02068406800F40060B0F5006F07D048
:10491000602E05D0202084F83D00002084F83E0061
:10492000002020632068406800F40060B0F5006F4C
:1049300040D12068406820F4006021684860606BC6
:1049400090F83500012814D04848616B0865606B09
:10495000FDF7C8F800285BD02068006820F001004F
:1049600021680860202084F83D00606B016D884755
:104970004EE03E48A16B0865A06BFDF7B3F8002838
:1049800046D020684069C0F3801030B120680069CB
:10499000616A0870606A401C60622068006820F0EC
:1049A000010021680860202084F83D00A06B016DA3
:1049B00088472DE094F83D0060281AD1202084F823
:1049C0003D000020206420684069C0F3801030B1B1
:1049D00020680069616A0870606A401C6062206833
:1049E000006820F00100216808602046FDF77AFB8E
:1049F0000EE020684069C0F3801030B12068006983
:104A0000616A0870606A401C60622046FDF7C3FC62
:104A1000256C05F0010058B905F00200022807D006
:104A200005F00400042803D005F00800082805D18B
:104A30002068406820F4E0602168486094F83D6098
:104A4000206C00F0040004280ED1282E0CD1084858
:104A5000E06200202063202084F83D00002084F8DC
:104A60003E002046FDF780FDBDE8F081D1470008FB
:104A70000000FFFF70B50446E56A608D042810D180
:104A80002068406820F480602168486020680069E0
:104A9000616A0870606A401C6062608D401E6085BB
:104AA0007AE0608D03281AD12068406820F4806085
:104AB00021684860042D07D0022D05D020680068C9
:104AC00020F480602168086020680069616A0870CD
:104AD000606A401C6062608D401E60855CE0608D95
:104AE00002284FD1012D01D0102D06D12068006879
:104AF00020F480602168086012E0042D01D0022DAE
:104B000006D12068006840F480602168086007E0F2
:104B1000102D05D02068006840F4007021680860FE
:104B200020680069616A0870606A401C6062608D7C
:104B3000401E608520680069616A0870606A401CD8
:104B40006062608D401E60852068406820F440707F
:104B500021684860202084F83D0094F83E004028F9
:104B600007D1002084F83E0020632046FDF7FFFCBB
:104B700012E0002084F83E00122020632046FDF75A
:104B8000F4FC09E020680069616A0870606A401CF2
:104B90006062608D401E608570BD70B5044694F8FB
:104BA0003D00222870D1658D032D13D9206800693E
:104BB000616A0870606A401C6062608D401E60859A
:104BC000608D03285FD12068406820F480602168F0
:104BD000486058E0E06A02284FD0012D01D0002D36
:104BE0004BD1204600F0B2FC68BB2068006820F47E
:104BF0008060216808602068406820F4E0602168D7
:104C0000486020680069616A0870606A401C6062E0
:104C1000608D401E6085202084F83D0094F83E00A1
:104C2000402807D1002084F83E0020632046FDF78D
:104C30009EFC28E0002084F83E00122020632046DD
:104C4000FDF793FC1FE02068406820F4E0602168D5
:104C5000486020680069616A0870606A401C606290
:104C6000608D401E6085202084F83D00002084F87F
:104C70003E002046FDF78FFB05E02068406820F4E9
:104C800080602168486000BF70BD70B50446E56A69
:104C900094F83D00212847D1608D50B1606A0078BA
:104CA00021680861606A401C6062608D401E6085FA
:104CB0003AE0082D16D0202D14D015F5803F11D0E4
:104CC0002068406820F4E06021684860112020637B
:104CD000002084F83E00202084F83D002046FDF7A7
:104CE00045FC21E02068406820F4E06021684860CD
:104CF0002068006840F4007021680860002020638C
:104D0000202084F83D0094F83E00402806D1002081
:104D100084F83E002046FDF72BFC05E0002084F8D7
:104D20003E002046FDF722FC70BD2DE9F04104460F
:104D300094F83D5094F83E70E66A208DB0BB212D6A
:104D40003CD1082E16D0202E14D016F5803F11D05D
:104D50002068406820F4E0602168486011202063EA
:104D6000002084F83E00202084F83D002046FDF716
:104D7000FDFB44E02068406820F4E0602168486062
:104D80002068006840F400702168086000202063FB
:104D9000202084F83D0094F83E00402807D10020F0
:104DA00084F83E002046FDF7E3FB28E006E0002003
:104DB00084F83E002046FDF7D9FB20E0212D03D0EA
:104DC000402F1CD1222D1AD1608D30B92068406847
:104DD00020F480602168486011E094F83E0040288B
:104DE00003D1204600F0A5F909E0606A0078216847
:104DF0000861606A401C6062608D401E6085BDE88D
:104E0000F081416CC9B202681161416B11B1416B13
:104E1000C96B21B9816B41B1816BC96B29B1016843
:104E2000496841F4006102685160704738B590F8F4
:104E30003E20C16A036B90F83D40222C73D1046D73
:104E400064B9402A0AD100BF002400940468646950
:104E500000940468A469009400BF1AE1046DC4B909
:104E60000469B4F5404F14D100BF002400940468D5
:104E7000646900940468A469009400BF00BF0468DA
:104E8000246844F4807405682C60046D641C046517
:104E9000FFE0448D8CB900BF00240094046864696D
:104EA00000940468A469009400BF00BF04682468EB
:104EB00044F4007405682C60DDE0448D012C72D14F
:104EC00011F5803F30D10468246824F480640568BB
:104ED0002C600468646804F40064B4F5006F10D1B9
:104EE0000468246824F4806405682C6000BF0024F2
:104EF00000940468646900940468A469009400BF85
:104F0000B9E000BF00240094046864690094046858
:104F1000A469009400BF00BF0468246844F40074CE
:104F200005682C60A7E0A9E0082923D0202921D01A
:104F3000122B01D101291DD104290AD0022908D040
:104F4000102906D00468246824F4806405682C6065
:104F500005E00468246844F4806405682C6000BFA0
:104F6000002400940468646900940468A4690094AF
:104F700000BF80E00468246824F4806405682C6025
:104F800000BF002400940468646900940468A46964
:104F9000009400BF00BF0468246844F400740568EE
:104FA0002C6068E0FFE7448D022C3BD1042910D02F
:104FB00002290ED010290CD00468246824F48064DF
:104FC00005682C600468246844F4006405682C605B
:104FD00005E00468246844F4806405682C60046873
:104FE000646804F40064B4F5006F10D111F5803FDB
:104FF00007D0012905D0082903D0102901D0202984
:1050000005D10468646844F4805405686C6000BF8E
:10501000002400940468646900940468A4690094FE
:1050200000BF28E00468246844F4806405682C60AC
:105030000468646804F40064B4F5006F10D111F5DD
:10504000803F07D0012905D0082903D0102901D0BD
:10505000202905D10468646844F4805405686C60B4
:1050600000BF002400940468646900940468A46983
:10507000009400BF00BF002404650AE000BF0024C4
:1050800000940468646900940468A469009400BFF3
:1050900000BF38BD90F83E1040290ED1016D29B9EE
:1050A000416C01F0FE010268116141E0416CC9B23E
:1050B00041F00101026811613AE00169B1F5804FE8
:1050C00020D190F83D10212905D1416C01F0FE015D
:1050D0000268116105E0416CC9B241F0010102684A
:1050E0001161416B11B1416BC96B21B9816BF9B190
:1050F000816BC96BE1B10168496841F400610268E4
:10510000516015E0016D41B9416C01F44071F0222C
:1051100042EAE111026811610AE0016D012907D13B
:10512000416C01F44071F12242EAE111026811611F
:10513000704770B5044694F83D50206D98B9E06C06
:10514000012807D1A06CC0B221680861206D801CC5
:1051500020654CE0A06CC0F3072021680861206D39
:10516000401C206543E0206D012807D1A06CC0B22F
:1051700021680861206D401C206538E0206D022800
:1051800035D1222D09D12068006840F48070216853
:105190000860206D401C206529E0608D60B1212DE4
:1051A0000AD1606A007821680861606A401C606208
:1051B000608D401E60851AE0608DC0B9212D16D12A
:1051C0002068406820F4E06021684860206800683A
:1051D00040F400702168086000202063202084F8DB
:1051E0003D00002084F83E002046FDF7C1F970BD67
:1051F000418D49B101680969426A1170416A491CCF
:105200004162418D491E4185704770B5044694F84E
:105210003D50608DD8B120680069616A0870606A8D
:10522000401C6062608D401E6085608D78B92A2DBB
:105230000DD12068406820F48060216848602220F9
:105240002063282084F83D002046FDF7E7F970BD73
:10525000418D49B1416A097802681161416A491C6E
:105260004162418D491E4185704770B5044694F8EE
:105270003D50608DD8B1606A007821680861606A2D
:10528000401C6062608D401E6085608D78B9292D5C
:105290000DD12068406820F480602168486021209A
:1052A0002063282084F83D002046FDF7B8F970BD42
:1052B000F8B504460D46002794F83D0000F028009C
:1052C00028281CD12068406820F48060216848604C
:1052D000C5F3800000B90127C5F3C01010B9A0893B
:1052E00086B201E0208B86B200BF002084F83C002B
:1052F00000BF324639462046FCF7F5FE0FE000BFFE
:10530000002000902068406900902068806900902B
:1053100000BF00BF00BF002084F83C0000BFF8BD04
:1053200070B5044694F83D50E66A082E01D0202E50
:105330001FD1282D1DD12148E0622068406820F44B
:10534000E060216848606FF48060216848612068EF
:10535000006820F48060216808600020206320201D
:1053600084F83D00002084F83E002046FDF7FCF85C
:1053700023E0212D1DD11148E0622120206320204F
:1053800084F83D00002084F83E002068406820F446
:10539000E060216848606FF480602168486120689F
:1053A000006820F48060216808602046FDF737F926
:1053B00003E06FF480602168486170BD0000FFFF6A
:1053C00038B5044694F83D502068406820F4E06009
:1053D0002168486000BF002000902068406900906C
:1053E0002068006840F001002168086000BF00BF2D
:1053F0002068006820F480602168086020684068A8
:1054000000F40060B0F5006F42D1222D01D02A2DAA
:105410001FD1A06B006840686085608D18B1206C5A
:1054200040F0040020642068406820F40060216897
:105430004860A06BFCF76AFB012829D04148A16BAA
:105440000865A06BFCF74EFB10B3A06B016D88479D
:105450001EE0606B006840686085608D18B1206C4C
:1054600040F0040020642068406820F40060216857
:105470004860606BFCF74AFB012809D03148616B3A
:105480000865606BFCF72EFB10B1606B016D8847FF
:10549000608D18B320684069C0F3800048B120686F
:1054A0000069616A0870606A401C6062608D401E1D
:1054B000608520684069C0F3801048B120680069A9
:1054C000616A0870606A401C6062608D401E608581
:1054D000608D18B1206C40F004002064206C18B17D
:1054E0002046FFF7F1F92BE02A2D07D10020206399
:1054F000282084F83D002046FDF790F894F83D0000
:1055000028280DD11048E06200202063202084F874
:105510003D00002084F83E002046FDF725F80FE00E
:10552000206B222801D0222D0AD1002020632020C8
:1055300084F83D00002084F83E002046FDF76EF818
:1055400038BD0000D14700080000FFFF08B5014644
:1055500000200090104800681922B0FBF2F04FF4D0
:105560007A72B0FBF2F000EB8000009000BF009870
:10557000401E0090009828B9086C40F02000086494
:10558000012008BD0868006800F40070B0F5007FD5
:10559000EDD00020F5E70000A400002000BF0120AE
:1055A00001F0BAFE084800782828F8DA06480078A2
:1055B000401C054908700548FDF761F847F2305076
:1055C00001F0AAFEEBE700005C0000204002002092
:1055D00008B500BF002000900E48006840F480002D
:1055E0000C4908600846006800F48000009000BF85
:1055F00000BF002205213A20FDF7FCF83A20FDF714
:10560000E9F8002205214620FDF7F4F84620FDF7D1
:10561000E1F808BD3038024010B5424A01210520AA
:1056200001F010FF40490860404A0021404801F065
:1056300099FF40490860404A0021404801F092FF2C
:105640003F4908603F4A00213F4801F08BFF3F4936
:1056500008603F4A00213F4801F084FF3E4908604E
:105660003E4A00213E4801F07DFF3E4908603E4A27
:1056700000213E4801F076FF3D4908603D4A002187
:105680003D4801F06FFF3D4908603D4A00213D481B
:1056900001F068FF3C4908603C4A00213C4801F0A9
:1056A00061FF3C4908603C4A00213C4801F05AFF38
:1056B0003B4908603B4A1421052001F0C3FE3A49EA
:1056C00008603A4A1421052001F0BCFE3849086000
:1056D000384A0321052001F0B5FE3749086004214E
:1056E0003648FCF7E1FC90B99FED350A354880ED6E
:1056F000000A0120344908703449087000203449F8
:105700000860002280212D48FCF7E0FC08E06FF0E3
:105710007F402F4908609FED2F0A2A4880ED000A3C
:1057200010BD000058A100086800002010A100086A
:105730006D5F00086000002034A10008795F000858
:105740006400002070A10008AD1900086C00002062
:1057500094A10008AD17000870000020B8A100084F
:105760004505000874000020DCA10008655C000805
:105770007800002000A20008515D00087C00002095
:1057800024A20008FD1900088000002048A200089B
:105790003D690008840000206CA200089D550008A7
:1057A0008800002090A200088C000020A8A2000819
:1057B00090000020C0A200089400002000080240D1
:1057C000000000001C0000202A0000202F00002004
:1057D000000000200060BB4400B587B0142102A87F
:1057E000FAF7B8FD00BF002001905F48006840F064
:1057F00080005D4908600846006800F08000019064
:1058000000BF00BF00BF002001900846006840F0C4
:10581000040008600846006800F00400019000BF22
:1058200000BF00BF002001900846006840F0010062
:1058300008600846006800F00100019000BF00BF4A
:1058400000BF002001900846006840F00200086098
:105850000846006800F00200019000BF00BF00226F
:1058600092214248FCF732FC00224FF4C2714048BA
:10587000FCF72CFC002241F207413E48FCF726FCD5
:105880000D2002904FF4041003900020049002A910
:105890003648FCF72BFB82200290012003900490F5
:1058A0000020059002A93148FCF720FB84200290DB
:1058B00001200390022004900020059002A92C48AA
:1058C000FCF714FB102002900120039000200490AC
:1058D000059002A92548FCF709FB20200290002032
:1058E0000390049002A92148FCF700FB41F201401B
:1058F00002900120039004900020059002A91D4809
:10590000FCF7F4FA06200290012003900020049096
:10591000059002A91748FCF7E9FA4FF4807002904D
:105920000120039000200490059002A91048FCF784
:10593000DDFA002205210620FCF75CFF0620FCF7BB
:1059400049FF002205210820FCF754FF0820FCF73E
:1059500041FF002205210920FCF74CFF0920FCF73C
:1059600039FF07B000BD0000303802400008024097
:10597000000002400004024010B50B480B490860CB
:105980000B484860002109488160C1604FF48041A4
:105990000161002141618161C1610162FCF7FCFC90
:1059A00008B1FBF7FFFF10BD00540040EC010020E0
:1059B000801A060010B507480749086006204860AD
:1059C0004FF47A6104488160FCF72AFE08B1FBF7C6
:1059D000E9FF10BD003000404002002010B50F4824
:1059E0000F4908604FF48270486000210C488160C4
:1059F000C1600221016101214161490281610821E7
:105A0000C16100210162416281620A21C162FDF728
:105A1000ADFB08B1FBF7C6FF10BD00000038004029
:105A20004C02002010B5094809490860632048600D
:105A30000021074881603121C1600021016181613D
:105A4000FDF7F0FD08B1FBF7ADFF10BD001C0040F5
:105A50007C03002000B58BB0242102A8FAF77AFC61
:105A60000020009001904FF080401949086000200C
:105A7000486000211648816044F62061C160002121
:105A800001618161032002900020039001200490B5
:105A90000020059006200690002007900120089025
:105AA0000020099006200A9002A90948FDF729FF65
:105AB00008B1FBF777FF0020009001906946044889
:105AC000FDF756FD08B1FBF76DFF0BB000BD000000
:105AD000A402002000B587B0002003900490059038
